{
  "transactions": [
    {
      "hash": "0xb23d916a891a2c76003f158d03aad6b6f3a10b27f30fe7e9e35f63473e546de2",
      "transactionType": "CALL",
      "contractName": null,
      "contractAddress": "0x498581ff718922c3f8e6a244956af099b2652b2b",
      "function": "initialize((address,address,uint24,int24,address),uint160)",
      "arguments": [
        "(0x8FeC0dA0Adb7Aab466cFa9a463c87682AC7992Ca, 0xFAd83621dd9f7564Ab9497E50A6A9ce241061680, 3000, 60, 0x251369069A9c93A7615338c9a7127B9693428500)",
        "2505414483750479311864138015696896"
      ],
      "transaction": {
        "from": "0x2f2b1a3648c58cf224aa69a4b0bdc942f000045f",
        "to": "0x498581ff718922c3f8e6a244956af099b2652b2b",
        "gas": "0x11954",
        "value": "0x0",
        "input": "0x6276cbbe0000000000000000000000008fec0da0adb7aab466cfa9a463c87682ac7992ca000000000000000000000000fad83621dd9f7564ab9497e50a6a9ce2410616800000000000000000000000000000000000000000000000000000000000000bb8000000000000000000000000000000000000000000000000000000000000003c000000000000000000000000251369069a9c93a7615338c9a7127b96934285000000000000000000000000000000000000007b86c6cf5e31e92cfaa29c77e800",
        "nonce": "0x2b2",
        "chainId": "0x2105"
      },
      "additionalContracts": [],
      "isFixedGasLimit": false
    }
  ],
  "receipts": [
    {
      "status": "0x1",
      "cumulativeGasUsed": "0x266915e",
      "logs": [
        {
          "address": "0x498581ff718922c3f8e6a244956af099b2652b2b",
          "topics": [
            "0xdd466e674ea557f56295e2d0218a125ea4b4f0f6f3307b95f85e6110838d6438",
            "0xd6b607f1fedd4cd71557b11d9f89c4140a39b3b8736701af4558fa5d51a192bd",
            "0x0000000000000000000000008fec0da0adb7aab466cfa9a463c87682ac7992ca",
            "0x000000000000000000000000fad83621dd9f7564ab9497e50a6a9ce241061680"
          ],
          "data": "0x0000000000000000000000000000000000000000000000000000000000000bb8000000000000000000000000000000000000000000000000000000000000003c000000000000000000000000251369069a9c93a7615338c9a7127b96934285000000000000000000000000000000000000007b86c6cf5e31e92cfaa29c77e800000000000000000000000000000000000000000000000000000000000003298b",
          "blockHash": "0x341188e468792df39056584877a6ff29f55e84a92045d1b318efc264367dafea",
          "blockNumber": "0x1e81931",
          "transactionHash": "0xb23d916a891a2c76003f158d03aad6b6f3a10b27f30fe7e9e35f63473e546de2",
          "transactionIndex": "0xd0",
          "logIndex": "0x294",
          "removed": false
        }
      ],
      "logsBloom": "0x00000000000000000000000000000000000000000000000000000000000000010000000000000000000000000000800000000000000000000000000000000002000000000000000000000000000000000000000000000000000000000000000000000000000000000000000002000000000000000000000000000000000000000000000000004008000008000000000100000001000000000000000000200000000000000000000000400000000000000000000000000000000000000000000000000000000000000000000000000000000800008000000000000000000000000000000000000000000000000000000000000404000000000000000000000000",
      "type": "0x2",
      "transactionHash": "0xb23d916a891a2c76003f158d03aad6b6f3a10b27f30fe7e9e35f63473e546de2",
      "transactionIndex": "0xd0",
      "blockHash": "0x341188e468792df39056584877a6ff29f55e84a92045d1b318efc264367dafea",
      "blockNumber": "0x1e81931",
      "gasUsed": "0xcbae",
      "effectiveGasPrice": "0x1660b5",
      "from": "0x2f2b1a3648c58cf224aa69a4b0bdc942f000045f",
      "to": "0x498581ff718922c3f8e6a244956af099b2652b2b",
      "contractAddress": null,
      "l1BaseFeeScalar": "0x8dd",
      "l1BlobBaseFee": "0x1",
      "l1BlobBaseFeeScalar": "0x101c12",
      "l1Fee": "0x2008a1ab7",
      "l1GasPrice": "0x5db764cb",
      "l1GasUsed": "0x96a"
    }
  ],
  "libraries": [],
  "pending": [],
  "returns": {},
  "timestamp": 1750765382,
  "chain": 8453,
  "commit": null
}