{
  "transactions": [
    {
      "hash": "0xf42b432c8ae97b4ebd1b489ffed2427fceda56046f2c7eb0f71e8b5376b92c00",
      "transactionType": "CALL",
      "contractName": null,
      "contractAddress": "0x498581ff718922c3f8e6a244956af099b2652b2b",
      "function": "initialize((address,address,uint24,int24,address),uint160)",
      "arguments": [
        "(0x8FeC0dA0Adb7Aab466cFa9a463c87682AC7992Ca, 0xFAd83621dd9f7564Ab9497E50A6A9ce241061680, 3000, 60, 0xfA2B5Ce8C00Bcf92947d37233a04D9e205844500)",
        "2505414483750479311864138015696896"
      ],
      "transaction": {
        "from": "0x2f2b1a3648c58cf224aa69a4b0bdc942f000045f",
        "to": "0x498581ff718922c3f8e6a244956af099b2652b2b",
        "gas": "0x11954",
        "value": "0x0",
        "input": "0x6276cbbe0000000000000000000000008fec0da0adb7aab466cfa9a463c87682ac7992ca000000000000000000000000fad83621dd9f7564ab9497e50a6a9ce2410616800000000000000000000000000000000000000000000000000000000000000bb8000000000000000000000000000000000000000000000000000000000000003c000000000000000000000000fa2b5ce8c00bcf92947d37233a04d9e2058445000000000000000000000000000000000000007b86c6cf5e31e92cfaa29c77e800",
        "nonce": "0x294",
        "chainId": "0x2105"
      },
      "additionalContracts": [],
      "isFixedGasLimit": false
    }
  ],
  "receipts": [
    {
      "status": "0x1",
      "cumulativeGasUsed": "0x2121b3a",
      "logs": [
        {
          "address": "0x498581ff718922c3f8e6a244956af099b2652b2b",
          "topics": [
            "0xdd466e674ea557f56295e2d0218a125ea4b4f0f6f3307b95f85e6110838d6438",
            "0xab1a6f80822c7b5d8ff564f54ee72a9b2db27587dab23b9882e08dc517c85037",
            "0x0000000000000000000000008fec0da0adb7aab466cfa9a463c87682ac7992ca",
            "0x000000000000000000000000fad83621dd9f7564ab9497e50a6a9ce241061680"
          ],
          "data": "0x0000000000000000000000000000000000000000000000000000000000000bb8000000000000000000000000000000000000000000000000000000000000003c000000000000000000000000fa2b5ce8c00bcf92947d37233a04d9e2058445000000000000000000000000000000000000007b86c6cf5e31e92cfaa29c77e800000000000000000000000000000000000000000000000000000000000003298b",
          "blockHash": "0xee150248bd00cd3aaba02087f5e064c9f12c1f0f9095d25350bac1b5df8632c4",
          "blockNumber": "0x1e7e3d3",
          "transactionHash": "0xf42b432c8ae97b4ebd1b489ffed2427fceda56046f2c7eb0f71e8b5376b92c00",
          "transactionIndex": "0x7d",
          "logIndex": "0x413",
          "removed": false
        }
      ],
      "logsBloom": "0x00000000000000000000000000000000000000000000000000000000000000010000000000000000000000000000000000000000000000000000000000000000000000000000400000000000000000000000000000000000000000000000000000000000000000000000000002000000000000000000000000000000000000000000000000004008000008000000000100000001000000000000000000200000000000000000000000400000000000200000000000000000100000000000000000000000000000000000000000000000000800000000000000000000000000000000000000000000000000000000000000000404000000000000000000000000",
      "type": "0x2",
      "transactionHash": "0xf42b432c8ae97b4ebd1b489ffed2427fceda56046f2c7eb0f71e8b5376b92c00",
      "transactionIndex": "0x7d",
      "blockHash": "0xee150248bd00cd3aaba02087f5e064c9f12c1f0f9095d25350bac1b5df8632c4",
      "blockNumber": "0x1e7e3d3",
      "gasUsed": "0xcbae",
      "effectiveGasPrice": "0xc7b0e",
      "from": "0x2f2b1a3648c58cf224aa69a4b0bdc942f000045f",
      "to": "0x498581ff718922c3f8e6a244956af099b2652b2b",
      "contractAddress": null,
      "l1BaseFeeScalar": "0x8dd",
      "l1BlobBaseFee": "0x1",
      "l1BlobBaseFeeScalar": "0x101c12",
      "l1Fee": "0xbb2e30b6",
      "l1GasPrice": "0x226aa0a7",
      "l1GasUsed": "0x95c"
    }
  ],
  "libraries": [],
  "pending": [],
  "returns": {},
  "timestamp": 1750738059,
  "chain": 8453,
  "commit": null
}