{
  "transactions": [
    {
      "hash": "0xea484b25eda97c5e132230574a794f546dc27b024f31b04d84de05e58af1491a",
      "transactionType": "CALL",
      "contractName": null,
      "contractAddress": "0x498581ff718922c3f8e6a244956af099b2652b2b",
      "function": "initialize((address,address,uint24,int24,address),uint160)",
      "arguments": [
        "(0x8FeC0dA0Adb7Aab466cFa9a463c87682AC7992Ca, 0xFAd83621dd9f7564Ab9497E50A6A9ce241061680, 500, 10, 0x251369069A9c93A7615338c9a7127B9693428500)",
        "2505414483750479311864138015696896"
      ],
      "transaction": {
        "from": "0x2f2b1a3648c58cf224aa69a4b0bdc942f000045f",
        "to": "0x498581ff718922c3f8e6a244956af099b2652b2b",
        "gas": "0x11954",
        "value": "0x0",
        "input": "0x6276cbbe0000000000000000000000008fec0da0adb7aab466cfa9a463c87682ac7992ca000000000000000000000000fad83621dd9f7564ab9497e50a6a9ce24106168000000000000000000000000000000000000000000000000000000000000001f4000000000000000000000000000000000000000000000000000000000000000a000000000000000000000000251369069a9c93a7615338c9a7127b96934285000000000000000000000000000000000000007b86c6cf5e31e92cfaa29c77e800",
        "nonce": "0x2b6",
        "chainId": "0x2105"
      },
      "additionalContracts": [],
      "isFixedGasLimit": false
    }
  ],
  "receipts": [
    {
      "status": "0x1",
      "cumulativeGasUsed": "0x1f1a462",
      "logs": [
        {
          "address": "0x498581ff718922c3f8e6a244956af099b2652b2b",
          "topics": [
            "0xdd466e674ea557f56295e2d0218a125ea4b4f0f6f3307b95f85e6110838d6438",
            "0xe7d9f0a4e09bfab055a3b2ddb7ee759a9d78747fd43ad139aed579c296c89d15",
            "0x0000000000000000000000008fec0da0adb7aab466cfa9a463c87682ac7992ca",
            "0x000000000000000000000000fad83621dd9f7564ab9497e50a6a9ce241061680"
          ],
          "data": "0x00000000000000000000000000000000000000000000000000000000000001f4000000000000000000000000000000000000000000000000000000000000000a000000000000000000000000251369069a9c93a7615338c9a7127b96934285000000000000000000000000000000000000007b86c6cf5e31e92cfaa29c77e800000000000000000000000000000000000000000000000000000000000003298b",
          "blockHash": "0xb7450de59baf68018ca4acaa600261c3c9fc8ea02d437172cd8901d0bf33ac1e",
          "blockNumber": "0x1e81acd",
          "transactionHash": "0xea484b25eda97c5e132230574a794f546dc27b024f31b04d84de05e58af1491a",
          "transactionIndex": "0x93",
          "logIndex": "0x181",
          "removed": false
        }
      ],
      "logsBloom": "0x00000000000000000000010000000000000000000000000000000000000000010000000000000000000000000000000000000000000000000000000000000000000000000000000000000000000000000000000000000000000000000000000000000000000000000000000002000000000000000000000000000000000000000000000000004008000008000001000100000001000000000000000000200000000000000000000000400000000000000000000000000000000000000000000000000000000000000000000000000000000800000000000000000000000000000000000000000000000000000000000000000404000000000000000000000080",
      "type": "0x2",
      "transactionHash": "0xea484b25eda97c5e132230574a794f546dc27b024f31b04d84de05e58af1491a",
      "transactionIndex": "0x93",
      "blockHash": "0xb7450de59baf68018ca4acaa600261c3c9fc8ea02d437172cd8901d0bf33ac1e",
      "blockNumber": "0x1e81acd",
      "gasUsed": "0xcbae",
      "effectiveGasPrice": "0x10a384",
      "from": "0x2f2b1a3648c58cf224aa69a4b0bdc942f000045f",
      "to": "0x498581ff718922c3f8e6a244956af099b2652b2b",
      "contractAddress": null,
      "l1BaseFeeScalar": "0x8dd",
      "l1BlobBaseFee": "0x1",
      "l1BlobBaseFeeScalar": "0x101c12",
      "l1Fee": "0x1b02b6275",
      "l1GasPrice": "0x4f76521b",
      "l1GasUsed": "0x95c"
    }
  ],
  "libraries": [],
  "pending": [],
  "returns": {},
  "timestamp": 1750766206,
  "chain": 8453,
  "commit": null
}