{
  "transactions": [
    {
      "hash": "0xbe83db37d28edd0dee90d487766c1da47d99da87190a39fadc5ab46e532d1fcd",
      "transactionType": "CALL",
      "contractName": null,
      "contractAddress": "0xacd17cefe9f105aaa839d802cad0b9bee1f80f71",
      "function": "mintReferral(address,string,string,string)",
      "arguments": [
        "0xC166C00d5696afb27Cf07671a85b78a589a20A5c",
        "KOLONE",
        "KOL_SOCIAL_1",
        "ipfs://kol_one_metadata_placeholder"
      ],
      "transaction": {
        "from": "0x2f2b1a3648c58cf224aa69a4b0bdc942f000045f",
        "to": "0xacd17cefe9f105aaa839d802cad0b9bee1f80f71",
        "gas": "0xa6d5a",
        "value": "0x0",
        "input": "0xc83ff0d5000000000000000000000000c166c00d5696afb27cf07671a85b78a589a20a5c000000000000000000000000000000000000000000000000000000000000008000000000000000000000000000000000000000000000000000000000000000c0000000000000000000000000000000000000000000000000000000000000010000000000000000000000000000000000000000000000000000000000000000064b4f4c4f4e450000000000000000000000000000000000000000000000000000000000000000000000000000000000000000000000000000000000000000000c4b4f4c5f534f4349414c5f3100000000000000000000000000000000000000000000000000000000000000000000000000000000000000000000000000000023697066733a2f2f6b6f6c5f6f6e655f6d657461646174615f706c616365686f6c6465720000000000000000000000000000000000000000000000000000000000",
        "nonce": "0x2db",
        "chainId": "0x2105"
      },
      "additionalContracts": [],
      "isFixedGasLimit": false
    }
  ],
  "receipts": [
    {
      "status": "0x1",
      "cumulativeGasUsed": "0x20951f4",
      "logs": [
        {
          "address": "0xacd17cefe9f105aaa839d802cad0b9bee1f80f71",
          "topics": [
            "0xddf252ad1be2c89b69c2b068fc378daa952ba7f163c4a11628f55a4df523b3ef",
            "0x0000000000000000000000000000000000000000000000000000000000000000",
            "0x000000000000000000000000c166c00d5696afb27cf07671a85b78a589a20a5c",
            "0x0000000000000000000000000000000000000000000000000000000000000001"
          ],
          "data": "0x",
          "blockHash": "0x6d86ad82836c3b869b24cadcfdb71dfdbe6979610ce0302c81b8a95e6ade4414",
          "blockNumber": "0x1e8592b",
          "transactionHash": "0xbe83db37d28edd0dee90d487766c1da47d99da87190a39fadc5ab46e532d1fcd",
          "transactionIndex": "0x7e",
          "logIndex": "0x405",
          "removed": false
        },
        {
          "address": "0xacd17cefe9f105aaa839d802cad0b9bee1f80f71",
          "topics": [
            "0xf8e1a15aba9398e019f0b49df1a4fde98ee17ae345cb5f6b5e2c27f5033e8ce7"
          ],
          "data": "0x0000000000000000000000000000000000000000000000000000000000000001",
          "blockHash": "0x6d86ad82836c3b869b24cadcfdb71dfdbe6979610ce0302c81b8a95e6ade4414",
          "blockNumber": "0x1e8592b",
          "transactionHash": "0xbe83db37d28edd0dee90d487766c1da47d99da87190a39fadc5ab46e532d1fcd",
          "transactionIndex": "0x7e",
          "logIndex": "0x406",
          "removed": false
        },
        {
          "address": "0xacd17cefe9f105aaa839d802cad0b9bee1f80f71",
          "topics": [
            "0xc8fc2c0afdb29437faf9ded7b7d98c85b8f76a7b8b79bfe0708c0cef2d22958e",
            "0x0000000000000000000000000000000000000000000000000000000000000001",
            "0x000000000000000000000000c166c00d5696afb27cf07671a85b78a589a20a5c"
          ],
          "data": "0x0000000000000000000000000000000000000000000000000000000000000040000000000000000000000000000000000000000000000000000000000000008000000000000000000000000000000000000000000000000000000000000000064b4f4c4f4e450000000000000000000000000000000000000000000000000000000000000000000000000000000000000000000000000000000000000000000c4b4f4c5f534f4349414c5f310000000000000000000000000000000000000000",
          "blockHash": "0x6d86ad82836c3b869b24cadcfdb71dfdbe6979610ce0302c81b8a95e6ade4414",
          "blockNumber": "0x1e8592b",
          "transactionHash": "0xbe83db37d28edd0dee90d487766c1da47d99da87190a39fadc5ab46e532d1fcd",
          "transactionIndex": "0x7e",
          "logIndex": "0x407",
          "removed": false
        }
      ],
      "logsBloom": "0x00000000080000000000000000000000000000000000000000000000000000000000000000000000000000000000000000000000000000000000000000040000000020000000000000000008000000000000000000040000000000000000000000000000020000000000000000000800000000200000000000000110000000000000000008000000000000000000000000000000000000000000000000000000000000000000000000000000000000002000000400000000000000000000008000000002000000000000000000000000000000000000000000000000000060000000000000000000200000000000000000001000000000000000000000000000",
      "type": "0x2",
      "transactionHash": "0xbe83db37d28edd0dee90d487766c1da47d99da87190a39fadc5ab46e532d1fcd",
      "transactionIndex": "0x7e",
      "blockHash": "0x6d86ad82836c3b869b24cadcfdb71dfdbe6979610ce0302c81b8a95e6ade4414",
      "blockNumber": "0x1e8592b",
      "gasUsed": "0x78c90",
      "effectiveGasPrice": "0x102af3",
      "from": "0x2f2b1a3648c58cf224aa69a4b0bdc942f000045f",
      "to": "0xacd17cefe9f105aaa839d802cad0b9bee1f80f71",
      "contractAddress": null,
      "l1BaseFeeScalar": "0x8dd",
      "l1BlobBaseFee": "0x1",
      "l1BlobBaseFeeScalar": "0x101c12",
      "l1Fee": "0x4f4b85f8f",
      "l1GasPrice": "0xcdb5bfe3",
      "l1GasUsed": "0xa9e"
    }
  ],
  "libraries": [],
  "pending": [],
  "returns": {},
  "timestamp": 1750798139,
  "chain": 8453,
  "commit": null
}