{
  "transactions": [
    {
      "hash": "0x520f7da158b7f502983a446b3a8db4d25d0249882be4420b85a88d012c83b646",
      "transactionType": "CALL",
      "contractName": null,
      "contractAddress": "0x498581ff718922c3f8e6a244956af099b2652b2b",
      "function": "initialize((address,address,uint24,int24,address),uint160)",
      "arguments": [
        "(0x52bc5Caf2520c31a7669A7FAaD0F8E37aF53c5D3, 0xFe3Ad79f52CD53bf8e948A32936d7d5EB53f00a7, 3000, 60, 0x65E6c7be675a3169F90Bb074F19f616772498500)",
        "79228162514264337593543950336"
      ],
      "transaction": {
        "from": "0x2f2b1a3648c58cf224aa69a4b0bdc942f000045f",
        "to": "0x498581ff718922c3f8e6a244956af099b2652b2b",
        "gas": "0x116ff",
        "value": "0x0",
        "input": "0x6276cbbe00000000000000000000000052bc5caf2520c31a7669a7faad0f8e37af53c5d3000000000000000000000000fe3ad79f52cd53bf8e948a32936d7d5eb53f00a70000000000000000000000000000000000000000000000000000000000000bb8000000000000000000000000000000000000000000000000000000000000003c00000000000000000000000065e6c7be675a3169f90bb074f19f6167724985000000000000000000000000000000000000000001000000000000000000000000",
        "nonce": "0x2fb",
        "chainId": "0x2105"
      },
      "additionalContracts": [],
      "isFixedGasLimit": false
    }
  ],
  "receipts": [
    {
      "status": "0x1",
      "cumulativeGasUsed": "0x19d6ff0",
      "logs": [
        {
          "address": "0x498581ff718922c3f8e6a244956af099b2652b2b",
          "topics": [
            "0xdd466e674ea557f56295e2d0218a125ea4b4f0f6f3307b95f85e6110838d6438",
            "0x1c580e16c547b863f9bf433ef6d6fe98a533f71d8882b2fb7eca0c3ad7d8e296",
            "0x00000000000000000000000052bc5caf2520c31a7669a7faad0f8e37af53c5d3",
            "0x000000000000000000000000fe3ad79f52cd53bf8e948a32936d7d5eb53f00a7"
          ],
          "data": "0x0000000000000000000000000000000000000000000000000000000000000bb8000000000000000000000000000000000000000000000000000000000000003c00000000000000000000000065e6c7be675a3169f90bb074f19f61677249850000000000000000000000000000000000000000010000000000000000000000000000000000000000000000000000000000000000000000000000000000000000",
          "blockHash": "0x458a68856fe08587e8ca3f750515d3fa34cd015daf837b413f8ab5d4538ab65a",
          "blockNumber": "0x1e93bb0",
          "transactionHash": "0x520f7da158b7f502983a446b3a8db4d25d0249882be4420b85a88d012c83b646",
          "transactionIndex": "0x84",
          "logIndex": "0x130",
          "removed": false
        }
      ],
      "logsBloom": "0x00000000000000000000000000000000002000000020000000000000000000000000000001000000000000000000000000000000000000000000000000001000000000000000100000000000000000000000000000000000000000000000000000000000000000000000000000000000000000000000000000000000000000000000000000004008000000000000000800000001000000000000000000200000000000000000000000000000000000000000000001000000000000000000000000000000000000000000000000000000000800010000000000000000000000000000000000000000000000000000000000000400000008000000000000000000",
      "type": "0x2",
      "transactionHash": "0x520f7da158b7f502983a446b3a8db4d25d0249882be4420b85a88d012c83b646",
      "transactionIndex": "0x84",
      "blockHash": "0x458a68856fe08587e8ca3f750515d3fa34cd015daf837b413f8ab5d4538ab65a",
      "blockNumber": "0x1e93bb0",
      "gasUsed": "0xc9fe",
      "effectiveGasPrice": "0xe6b42",
      "from": "0x2f2b1a3648c58cf224aa69a4b0bdc942f000045f",
      "to": "0x498581ff718922c3f8e6a244956af099b2652b2b",
      "contractAddress": null,
      "l1BaseFeeScalar": "0x8dd",
      "l1BlobBaseFee": "0x1",
      "l1BlobBaseFeeScalar": "0x101c12",
      "l1Fee": "0x132ce70ec",
      "l1GasPrice": "0x3b0cb767",
      "l1GasUsed": "0x8f1"
    }
  ],
  "libraries": [],
  "pending": [],
  "returns": {},
  "timestamp": 1750914116,
  "chain": 8453,
  "commit": null
}