{
  "transactions": [
    {
      "hash": "0x112e1d0ba9d29ad1514f673e234a13e5e03980be15e1737306a869fcec82bf0a",
      "transactionType": "CALL",
      "contractName": null,
      "contractAddress": "0x498581ff718922c3f8e6a244956af099b2652b2b",
      "function": "initialize((address,address,uint24,int24,address),uint160)",
      "arguments": [
        "(0x6F22c4b5ec7efAEd0c315a2C7A34FDb25A78f6b1, 0xe13c9298c63912568ed74825625bC7731c64Bc1e, 3000, 60, 0x953A5Dd9072a32167D10966B360B68ec33db4500)",
        "79228162514264337593543950336"
      ],
      "transaction": {
        "from": "0x2f2b1a3648c58cf224aa69a4b0bdc942f000045f",
        "to": "0x498581ff718922c3f8e6a244956af099b2652b2b",
        "gas": "0x1277b",
        "value": "0x0",
        "input": "0x6276cbbe0000000000000000000000006f22c4b5ec7efaed0c315a2c7a34fdb25a78f6b1000000000000000000000000e13c9298c63912568ed74825625bc7731c64bc1e0000000000000000000000000000000000000000000000000000000000000bb8000000000000000000000000000000000000000000000000000000000000003c000000000000000000000000953a5dd9072a32167d10966b360b68ec33db45000000000000000000000000000000000000000001000000000000000000000000",
        "nonce": "0x2df",
        "chainId": "0x2105"
      },
      "additionalContracts": [],
      "isFixedGasLimit": false
    }
  ],
  "receipts": [
    {
      "status": "0x1",
      "cumulativeGasUsed": "0x22a3a62",
      "logs": [
        {
          "address": "0x498581ff718922c3f8e6a244956af099b2652b2b",
          "topics": [
            "0xdd466e674ea557f56295e2d0218a125ea4b4f0f6f3307b95f85e6110838d6438",
            "0xc817e78f17a55178f503437797e48bc4b16f64be81137b36897dde91e807b2e8",
            "0x0000000000000000000000006f22c4b5ec7efaed0c315a2c7a34fdb25a78f6b1",
            "0x000000000000000000000000e13c9298c63912568ed74825625bc7731c64bc1e"
          ],
          "data": "0x0000000000000000000000000000000000000000000000000000000000000bb8000000000000000000000000000000000000000000000000000000000000003c000000000000000000000000953a5dd9072a32167d10966b360b68ec33db450000000000000000000000000000000000000000010000000000000000000000000000000000000000000000000000000000000000000000000000000000000000",
          "blockHash": "0xed864c68f2b1848002785bd26f09dee0e634748839f5ea0b31219014734fa875",
          "blockNumber": "0x1e8675b",
          "transactionHash": "0x112e1d0ba9d29ad1514f673e234a13e5e03980be15e1737306a869fcec82bf0a",
          "transactionIndex": "0x94",
          "logIndex": "0x244",
          "removed": false
        }
      ],
      "logsBloom": "0x40000000000000000000000000000000000000000000000000000000000000000000000000000000000000000800000000000000000000000000000000000000000000000000000040000000000000000000040000000000000000000000000000000000000000000000000400000000000000000000000000000000000000000000000000004008000000000000000000000001000400000000000008240000000000000000000000000000000000000000000000000000000000000000000000000000000000000000002000000000000800000000000000000000000000000000000000000000000000000000000000000400000000000000000000000000",
      "type": "0x2",
      "transactionHash": "0x112e1d0ba9d29ad1514f673e234a13e5e03980be15e1737306a869fcec82bf0a",
      "transactionIndex": "0x94",
      "blockHash": "0xed864c68f2b1848002785bd26f09dee0e634748839f5ea0b31219014734fa875",
      "blockNumber": "0x1e8675b",
      "gasUsed": "0xca0a",
      "effectiveGasPrice": "0xdd579",
      "from": "0x2f2b1a3648c58cf224aa69a4b0bdc942f000045f",
      "to": "0x498581ff718922c3f8e6a244956af099b2652b2b",
      "contractAddress": null,
      "l1BaseFeeScalar": "0x8dd",
      "l1BlobBaseFee": "0x1",
      "l1BlobBaseFeeScalar": "0x101c12",
      "l1Fee": "0x3d61a7dca",
      "l1GasPrice": "0xbe21e5f4",
      "l1GasUsed": "0x8e4"
    }
  ],
  "libraries": [],
  "pending": [],
  "returns": {},
  "timestamp": 1750805402,
  "chain": 8453,
  "commit": null
}