{
  "transactions": [
    {
      "hash": "0x0adb4d797733bda4712209dcdce1a9b1f4e24eca5fa60e54880783a336cfa2a1",
      "transactionType": "CALL",
      "contractName": null,
      "contractAddress": "0x8fec0da0adb7aab466cfa9a463c87682ac7992ca",
      "function": "transfer(address,uint256)",
      "arguments": [
        "0xc5c5A0220c1AbFCfA26eEc68e55d9b689193d6b2",
        "1000000000"
      ],
      "transaction": {
        "from": "0x2f2b1a3648c58cf224aa69a4b0bdc942f000045f",
        "to": "0x8fec0da0adb7aab466cfa9a463c87682ac7992ca",
        "gas": "0x124ed",
        "value": "0x0",
        "input": "0xa9059cbb000000000000000000000000c5c5a0220c1abfcfa26eec68e55d9b689193d6b2000000000000000000000000000000000000000000000000000000003b9aca00",
        "nonce": "0x2c4",
        "chainId": "0x2105"
      },
      "additionalContracts": [],
      "isFixedGasLimit": false
    },
    {
      "hash": "0xddad559b0355d45bb981e4db38fd591c6a16044ddd89b93d401cc8cdefcaa790",
      "transactionType": "CALL",
      "contractName": null,
      "contractAddress": "0xfad83621dd9f7564ab9497e50a6a9ce241061680",
      "function": "transfer(address,uint256)",
      "arguments": [
        "0xc5c5A0220c1AbFCfA26eEc68e55d9b689193d6b2",
        "1000000000000000000000"
      ],
      "transaction": {
        "from": "0x2f2b1a3648c58cf224aa69a4b0bdc942f000045f",
        "to": "0xfad83621dd9f7564ab9497e50a6a9ce241061680",
        "gas": "0x12533",
        "value": "0x0",
        "input": "0xa9059cbb000000000000000000000000c5c5a0220c1abfcfa26eec68e55d9b689193d6b200000000000000000000000000000000000000000000003635c9adc5dea00000",
        "nonce": "0x2c5",
        "chainId": "0x2105"
      },
      "additionalContracts": [],
      "isFixedGasLimit": false
    }
  ],
  "receipts": [
    {
      "status": "0x1",
      "cumulativeGasUsed": "0x20b9ef7",
      "logs": [
        {
          "address": "0x8fec0da0adb7aab466cfa9a463c87682ac7992ca",
          "topics": [
            "0xddf252ad1be2c89b69c2b068fc378daa952ba7f163c4a11628f55a4df523b3ef",
            "0x0000000000000000000000002f2b1a3648c58cf224aa69a4b0bdc942f000045f",
            "0x000000000000000000000000c5c5a0220c1abfcfa26eec68e55d9b689193d6b2"
          ],
          "data": "0x000000000000000000000000000000000000000000000000000000003b9aca00",
          "blockHash": "0x0ec320b2f0e05db3af205ba25c2516f66af766535336f4affa3719182c9be6e1",
          "blockNumber": "0x1e834c7",
          "transactionHash": "0x0adb4d797733bda4712209dcdce1a9b1f4e24eca5fa60e54880783a336cfa2a1",
          "transactionIndex": "0x96",
          "logIndex": "0x1d5",
          "removed": false
        }
      ],
      "logsBloom": "0x00000000000000000000000000000000000000000000000000000000000000000000000000001800000000000000000000000000000000000000108004000000000000004000000000000008000000000000000000000000000000000000000000000000000000000000000000000000000000000000000000000010000000000004000000000400000000000000000000000000000000000000000000000000000000000000000000000000000000000000000000000000000000000000000000000002000000000000000800000000000000000000000000000000000000000000000000000000000000000000000000000000000000000000000000000000",
      "type": "0x2",
      "transactionHash": "0x0adb4d797733bda4712209dcdce1a9b1f4e24eca5fa60e54880783a336cfa2a1",
      "transactionIndex": "0x96",
      "blockHash": "0x0ec320b2f0e05db3af205ba25c2516f66af766535336f4affa3719182c9be6e1",
      "blockNumber": "0x1e834c7",
      "gasUsed": "0xc84b",
      "effectiveGasPrice": "0x92521f",
      "from": "0x2f2b1a3648c58cf224aa69a4b0bdc942f000045f",
      "to": "0x8fec0da0adb7aab466cfa9a463c87682ac7992ca",
      "contractAddress": null,
      "l1BaseFeeScalar": "0x8dd",
      "l1BlobBaseFee": "0x1",
      "l1BlobBaseFeeScalar": "0x101c12",
      "l1Fee": "0x5d0ae5be7",
      "l1GasPrice": "0x19a0f4ecb",
      "l1GasUsed": "0x640"
    }
  ],
  "libraries": [],
  "pending": [
    "0xddad559b0355d45bb981e4db38fd591c6a16044ddd89b93d401cc8cdefcaa790"
  ],
  "returns": {},
  "timestamp": 1750779507,
  "chain": 8453,
  "commit": null
}