{
  "transactions": [
    {
      "hash": "0x2989e4914b774ca48ceae1c653e240799e047ed3516a289c3418c9c5e5669e8c",
      "transactionType": "CALL",
      "contractName": null,
      "contractAddress": "0x498581ff718922c3f8e6a244956af099b2652b2b",
      "function": "initialize((address,address,uint24,int24,address),uint160)",
      "arguments": [
        "(0x6F22c4b5ec7efAEd0c315a2C7A34FDb25A78f6b1, 0xe13c9298c63912568ed74825625bC7731c64Bc1e, 3000, 60, 0x52e053acd5d8Bf354d3C1eFFacE357F4F1410500)",
        "79228162514264337593543950336"
      ],
      "transaction": {
        "from": "0x2f2b1a3648c58cf224aa69a4b0bdc942f000045f",
        "to": "0x498581ff718922c3f8e6a244956af099b2652b2b",
        "gas": "0x1277b",
        "value": "0x0",
        "input": "0x6276cbbe0000000000000000000000006f22c4b5ec7efaed0c315a2c7a34fdb25a78f6b1000000000000000000000000e13c9298c63912568ed74825625bc7731c64bc1e0000000000000000000000000000000000000000000000000000000000000bb8000000000000000000000000000000000000000000000000000000000000003c00000000000000000000000052e053acd5d8bf354d3c1efface357f4f14105000000000000000000000000000000000000000001000000000000000000000000",
        "nonce": "0x2da",
        "chainId": "0x2105"
      },
      "additionalContracts": [],
      "isFixedGasLimit": false
    }
  ],
  "receipts": [
    {
      "status": "0x1",
      "cumulativeGasUsed": "0x20a8bc1",
      "logs": [
        {
          "address": "0x498581ff718922c3f8e6a244956af099b2652b2b",
          "topics": [
            "0xdd466e674ea557f56295e2d0218a125ea4b4f0f6f3307b95f85e6110838d6438",
            "0xaefbfaf2a60e2bc0afcca1ac3d3ac5ba56dc7f570db20fdb198797fe2bb5f6f6",
            "0x0000000000000000000000006f22c4b5ec7efaed0c315a2c7a34fdb25a78f6b1",
            "0x000000000000000000000000e13c9298c63912568ed74825625bc7731c64bc1e"
          ],
          "data": "0x0000000000000000000000000000000000000000000000000000000000000bb8000000000000000000000000000000000000000000000000000000000000003c00000000000000000000000052e053acd5d8bf354d3c1efface357f4f141050000000000000000000000000000000000000000010000000000000000000000000000000000000000000000000000000000000000000000000000000000000000",
          "blockHash": "0xd89c9e5bb8eab654834468aeba13da8502ca8db52632b1c0d8f85f0a99eb7b6e",
          "blockNumber": "0x1e855e2",
          "transactionHash": "0x2989e4914b774ca48ceae1c653e240799e047ed3516a289c3418c9c5e5669e8c",
          "transactionIndex": "0x72",
          "logIndex": "0x347",
          "removed": false
        }
      ],
      "logsBloom": "0x40080000000000000000000000000000000000000000000000000000000000000080000000000000000000001000000000000000000000000000000000000000000000000000000040000000000000000000040000000000000000000000000000000000000000000000000400000000000000000000000000000000000000000000000000004008000000000000000000000001000400000000000000240000000000000000000000000000000000000000000000000000000000000000000000000000000000000000000000000000000800000000000000000000000000000000000000000000000000000000000000000400000000000000000000000000",
      "type": "0x2",
      "transactionHash": "0x2989e4914b774ca48ceae1c653e240799e047ed3516a289c3418c9c5e5669e8c",
      "transactionIndex": "0x72",
      "blockHash": "0xd89c9e5bb8eab654834468aeba13da8502ca8db52632b1c0d8f85f0a99eb7b6e",
      "blockNumber": "0x1e855e2",
      "gasUsed": "0xca0a",
      "effectiveGasPrice": "0x11db76",
      "from": "0x2f2b1a3648c58cf224aa69a4b0bdc942f000045f",
      "to": "0x498581ff718922c3f8e6a244956af099b2652b2b",
      "contractAddress": null,
      "l1BaseFeeScalar": "0x8dd",
      "l1BlobBaseFee": "0x1",
      "l1BlobBaseFeeScalar": "0x101c12",
      "l1Fee": "0x4c7c77a59",
      "l1GasPrice": "0xeb890ea5",
      "l1GasUsed": "0x8f1"
    }
  ],
  "libraries": [],
  "pending": [],
  "returns": {},
  "timestamp": 1750796456,
  "chain": 8453,
  "commit": null
}