{
  "transactions": [
    {
      "hash": "0x4208a2caa248b4d24d04844cc1734215ad91645418bdb64b80e3570c0cd7d6c6",
      "transactionType": "CALL",
      "contractName": null,
      "contractAddress": "0x8fec0da0adb7aab466cfa9a463c87682ac7992ca",
      "function": "approve(address,uint256)",
      "arguments": [
        "0x000000000022D473030F116dDEE9F6B43aC78BA3",
        "115792089237316195423570985008687907853269984665640564039457584007913129639935"
      ],
      "transaction": {
        "from": "0x2f2b1a3648c58cf224aa69a4b0bdc942f000045f",
        "to": "0x8fec0da0adb7aab466cfa9a463c87682ac7992ca",
        "gas": "0x9625",
        "value": "0x0",
        "input": "0x095ea7b3000000000000000000000000000000000022d473030f116ddee9f6b43ac78ba3ffffffffffffffffffffffffffffffffffffffffffffffffffffffffffffffff",
        "nonce": "0x2a0",
        "chainId": "0x2105"
      },
      "additionalContracts": [],
      "isFixedGasLimit": false
    },
    {
      "hash": "0xf4fef758e98207eaaff4094d8a522eb20e8602fff6c59efe998474cd4b94207e",
      "transactionType": "CALL",
      "contractName": null,
      "contractAddress": "0x000000000022d473030f116ddee9f6b43ac78ba3",
      "function": "approve(address,address,uint160,uint48)",
      "arguments": [
        "0x8FeC0dA0Adb7Aab466cFa9a463c87682AC7992Ca",
        "0x7C5f5A4bBd8fD63184577525326123B519429bDc",
        "1461501637330902918203684832716283019655932542975",
        "281474976710655"
      ],
      "transaction": {
        "from": "0x2f2b1a3648c58cf224aa69a4b0bdc942f000045f",
        "to": "0x000000000022d473030f116ddee9f6b43ac78ba3",
        "gas": "0x96a0",
        "value": "0x0",
        "input": "0x87517c450000000000000000000000008fec0da0adb7aab466cfa9a463c87682ac7992ca0000000000000000000000007c5f5a4bbd8fd63184577525326123b519429bdc000000000000000000000000ffffffffffffffffffffffffffffffffffffffff0000000000000000000000000000000000000000000000000000ffffffffffff",
        "nonce": "0x2a1",
        "chainId": "0x2105"
      },
      "additionalContracts": [],
      "isFixedGasLimit": false
    },
    {
      "hash": "0x58fa397c4b6a368faee54622523f6d8bd6e635083b9fd261c683a13488ff9829",
      "transactionType": "CALL",
      "contractName": null,
      "contractAddress": "0xfad83621dd9f7564ab9497e50a6a9ce241061680",
      "function": "approve(address,uint256)",
      "arguments": [
        "0x000000000022D473030F116dDEE9F6B43aC78BA3",
        "115792089237316195423570985008687907853269984665640564039457584007913129639935"
      ],
      "transaction": {
        "from": "0x2f2b1a3648c58cf224aa69a4b0bdc942f000045f",
        "to": "0xfad83621dd9f7564ab9497e50a6a9ce241061680",
        "gas": "0x9625",
        "value": "0x0",
        "input": "0x095ea7b3000000000000000000000000000000000022d473030f116ddee9f6b43ac78ba3ffffffffffffffffffffffffffffffffffffffffffffffffffffffffffffffff",
        "nonce": "0x2a2",
        "chainId": "0x2105"
      },
      "additionalContracts": [],
      "isFixedGasLimit": false
    },
    {
      "hash": "0x80d42f051c2f36f9ab024257fb33ceb1c1dbd527325d3b23d595ae52fd500e85",
      "transactionType": "CALL",
      "contractName": null,
      "contractAddress": "0x000000000022d473030f116ddee9f6b43ac78ba3",
      "function": "approve(address,address,uint160,uint48)",
      "arguments": [
        "0xFAd83621dd9f7564Ab9497E50A6A9ce241061680",
        "0x7C5f5A4bBd8fD63184577525326123B519429bDc",
        "1461501637330902918203684832716283019655932542975",
        "281474976710655"
      ],
      "transaction": {
        "from": "0x2f2b1a3648c58cf224aa69a4b0bdc942f000045f",
        "to": "0x000000000022d473030f116ddee9f6b43ac78ba3",
        "gas": "0x96a0",
        "value": "0x0",
        "input": "0x87517c45000000000000000000000000fad83621dd9f7564ab9497e50a6a9ce2410616800000000000000000000000007c5f5a4bbd8fd63184577525326123b519429bdc000000000000000000000000ffffffffffffffffffffffffffffffffffffffff0000000000000000000000000000000000000000000000000000ffffffffffff",
        "nonce": "0x2a3",
        "chainId": "0x2105"
      },
      "additionalContracts": [],
      "isFixedGasLimit": false
    },
    {
      "hash": "0x790eacd77ef73d88ac91ceb77684bca628b8eaa2b1d3418b6f6bc401c71b5c10",
      "transactionType": "CALL",
      "contractName": null,
      "contractAddress": "0x7c5f5a4bbd8fd63184577525326123b519429bdc",
      "function": "modifyLiquidities(bytes,uint256)",
      "arguments": [
        "0x000000000000000000000000000000000000000000000000000000000000004000000000000000000000000000000000000000000000000000000000000000800000000000000000000000000000000000000000000000000000000000000004020d14140000000000000000000000000000000000000000000000000000000000000000000000000000000000000000000000000000000000000000000000040000000000000000000000000000000000000000000000000000000000000080000000000000000000000000000000000000000000000000000000000000024000000000000000000000000000000000000000000000000000000000000002a0000000000000000000000000000000000000000000000000000000000000030000000000000000000000000000000000000000000000000000000000000001a00000000000000000000000008fec0da0adb7aab466cfa9a463c87682ac7992ca000000000000000000000000fad83621dd9f7564ab9497e50a6a9ce2410616800000000000000000000000000000000000000000000000000000000000000bb8000000000000000000000000000000000000000000000000000000000000003c000000000000000000000000fa2b5ce8c00bcf92947d37233a04d9e205844500000000000000000000000000000000000000000000000000000000000002b4580000000000000000000000000000000000000000000000000000000000039eb8000000000000000000000000000000000000000000000000000001d9e7570b540000000000000000000000000000000000000000000000000000000003473bc0000000000000000000000000000000000000000000000002fb474098f67c00000000000000000000000000002f2b1a3648c58cf224aa69a4b0bdc942f000045f0000000000000000000000000000000000000000000000000000000000000180000000000000000000000000000000000000000000000000000000000000000000000000000000000000000000000000000000000000000000000000000000400000000000000000000000008fec0da0adb7aab466cfa9a463c87682ac7992ca000000000000000000000000fad83621dd9f7564ab9497e50a6a9ce24106168000000000000000000000000000000000000000000000000000000000000000400000000000000000000000008fec0da0adb7aab466cfa9a463c87682ac7992ca0000000000000000000000002f2b1a3648c58cf224aa69a4b0bdc942f000045f0000000000000000000000000000000000000000000000000000000000000040000000000000000000000000fad83621dd9f7564ab9497e50a6a9ce2410616800000000000000000000000002f2b1a3648c58cf224aa69a4b0bdc942f000045f",
        "1750742141"
      ],
      "transaction": {
        "from": "0x2f2b1a3648c58cf224aa69a4b0bdc942f000045f",
        "to": "0x7c5f5a4bbd8fd63184577525326123b519429bdc",
        "gas": "0x6ea17",
        "value": "0x0",
        "input": "0xdd46508f000000000000000000000000000000000000000000000000000000000000004000000000000000000000000000000000000000000000000000000000685a347d0000000000000000000000000000000000000000000000000000000000000400000000000000000000000000000000000000000000000000000000000000004000000000000000000000000000000000000000000000000000000000000000800000000000000000000000000000000000000000000000000000000000000004020d14140000000000000000000000000000000000000000000000000000000000000000000000000000000000000000000000000000000000000000000000040000000000000000000000000000000000000000000000000000000000000080000000000000000000000000000000000000000000000000000000000000024000000000000000000000000000000000000000000000000000000000000002a0000000000000000000000000000000000000000000000000000000000000030000000000000000000000000000000000000000000000000000000000000001a00000000000000000000000008fec0da0adb7aab466cfa9a463c87682ac7992ca000000000000000000000000fad83621dd9f7564ab9497e50a6a9ce2410616800000000000000000000000000000000000000000000000000000000000000bb8000000000000000000000000000000000000000000000000000000000000003c000000000000000000000000fa2b5ce8c00bcf92947d37233a04d9e205844500000000000000000000000000000000000000000000000000000000000002b4580000000000000000000000000000000000000000000000000000000000039eb8000000000000000000000000000000000000000000000000000001d9e7570b540000000000000000000000000000000000000000000000000000000003473bc0000000000000000000000000000000000000000000000002fb474098f67c00000000000000000000000000002f2b1a3648c58cf224aa69a4b0bdc942f000045f0000000000000000000000000000000000000000000000000000000000000180000000000000000000000000000000000000000000000000000000000000000000000000000000000000000000000000000000000000000000000000000000400000000000000000000000008fec0da0adb7aab466cfa9a463c87682ac7992ca000000000000000000000000fad83621dd9f7564ab9497e50a6a9ce24106168000000000000000000000000000000000000000000000000000000000000000400000000000000000000000008fec0da0adb7aab466cfa9a463c87682ac7992ca0000000000000000000000002f2b1a3648c58cf224aa69a4b0bdc942f000045f0000000000000000000000000000000000000000000000000000000000000040000000000000000000000000fad83621dd9f7564ab9497e50a6a9ce2410616800000000000000000000000002f2b1a3648c58cf224aa69a4b0bdc942f000045f",
        "nonce": "0x2a4",
        "chainId": "0x2105"
      },
      "additionalContracts": [],
      "isFixedGasLimit": false
    }
  ],
  "receipts": [
    {
      "status": "0x1",
      "cumulativeGasUsed": "0x2224a12",
      "logs": [
        {
          "address": "0x8fec0da0adb7aab466cfa9a463c87682ac7992ca",
          "topics": [
            "0x8c5be1e5ebec7d5bd14f71427d1e84f3dd0314c0f7b2291e5b200ac8c7c3b925",
            "0x0000000000000000000000002f2b1a3648c58cf224aa69a4b0bdc942f000045f",
            "0x000000000000000000000000000000000022d473030f116ddee9f6b43ac78ba3"
          ],
          "data": "0xffffffffffffffffffffffffffffffffffffffffffffffffffffffffffffffff",
          "blockHash": "0xe5ffed99db8fb047b8b2e86d609c4edd4f8984f86f442d979fbaa451a123792d",
          "blockNumber": "0x1e7eb3d",
          "transactionHash": "0x4208a2caa248b4d24d04844cc1734215ad91645418bdb64b80e3570c0cd7d6c6",
          "transactionIndex": "0x81",
          "logIndex": "0x28d",
          "removed": false
        }
      ],
      "logsBloom": "0x00000000000000000000000000000000000000000000000000000000000000000000000000000800000000000000000000000000800000000000100004200000000000000000000000004000000000000000000000000800000000000000000000000000000000000000000000000000000000000000000000000000000000000004000000000400000000000000000000000000000000000000000000000000020000000000000000000000000000000000000000000000000000000000000000000000000000000000000800000000000000000000000000000000000000000010000000000000000000000000000000000000000000000000000000000000",
      "type": "0x2",
      "transactionHash": "0x4208a2caa248b4d24d04844cc1734215ad91645418bdb64b80e3570c0cd7d6c6",
      "transactionIndex": "0x81",
      "blockHash": "0xe5ffed99db8fb047b8b2e86d609c4edd4f8984f86f442d979fbaa451a123792d",
      "blockNumber": "0x1e7eb3d",
      "gasUsed": "0x66aa",
      "effectiveGasPrice": "0xb1da4",
      "from": "0x2f2b1a3648c58cf224aa69a4b0bdc942f000045f",
      "to": "0x8fec0da0adb7aab466cfa9a463c87682ac7992ca",
      "contractAddress": null,
      "l1BaseFeeScalar": "0x8dd",
      "l1BlobBaseFee": "0x1",
      "l1BlobBaseFeeScalar": "0x101c12",
      "l1Fee": "0xc5095cbc",
      "l1GasPrice": "0x3646291d",
      "l1GasUsed": "0x640"
    },
    {
      "status": "0x1",
      "cumulativeGasUsed": "0x2383c3e",
      "logs": [
        {
          "address": "0x000000000022d473030f116ddee9f6b43ac78ba3",
          "topics": [
            "0xda9fa7c1b00402c17d0161b249b1ab8bbec047c5a52207b9c112deffd817036b",
            "0x0000000000000000000000002f2b1a3648c58cf224aa69a4b0bdc942f000045f",
            "0x0000000000000000000000008fec0da0adb7aab466cfa9a463c87682ac7992ca",
            "0x0000000000000000000000007c5f5a4bbd8fd63184577525326123b519429bdc"
          ],
          "data": "0x000000000000000000000000ffffffffffffffffffffffffffffffffffffffff0000000000000000000000000000000000000000000000000000ffffffffffff",
          "blockHash": "0x772a0c68376d8fb7cf06e6f3fdac1b0c9ceaa5f108356cb5cc9cb101a5d7ea3d",
          "blockNumber": "0x1e7eb3f",
          "transactionHash": "0xf4fef758e98207eaaff4094d8a522eb20e8602fff6c59efe998474cd4b94207e",
          "transactionIndex": "0x94",
          "logIndex": "0x258",
          "removed": false
        }
      ],
      "logsBloom": "0x00010000000000000000000000000000000000000000000000000000000000000000000000000800000000000000000000000000000000000000100004082000000000000000000000000000000000000000000000000000000000000000000000000000000000000000000002000000000000000000000000000000000000000020000000000000000000000000000000000000000000000000000000000000000000000000000000400000000000000000000000000000000000080000000200000000000000000000000000000000000000000000000040000000000000000000000000000000000000000000000000000004002000000000000000000400",
      "type": "0x2",
      "transactionHash": "0xf4fef758e98207eaaff4094d8a522eb20e8602fff6c59efe998474cd4b94207e",
      "transactionIndex": "0x94",
      "blockHash": "0x772a0c68376d8fb7cf06e6f3fdac1b0c9ceaa5f108356cb5cc9cb101a5d7ea3d",
      "blockNumber": "0x1e7eb3f",
      "gasUsed": "0x6d0e",
      "effectiveGasPrice": "0xb0f18",
      "from": "0x2f2b1a3648c58cf224aa69a4b0bdc942f000045f",
      "to": "0x000000000022d473030f116ddee9f6b43ac78ba3",
      "contractAddress": null,
      "l1BaseFeeScalar": "0x8dd",
      "l1BlobBaseFee": "0x1",
      "l1BlobBaseFeeScalar": "0x101c12",
      "l1Fee": "0xdb5c9202",
      "l1GasPrice": "0x3646291d",
      "l1GasUsed": "0x6f5"
    },
    {
      "status": "0x1",
      "cumulativeGasUsed": "0x22355c6",
      "logs": [
        {
          "address": "0xfad83621dd9f7564ab9497e50a6a9ce241061680",
          "topics": [
            "0x8c5be1e5ebec7d5bd14f71427d1e84f3dd0314c0f7b2291e5b200ac8c7c3b925",
            "0x0000000000000000000000002f2b1a3648c58cf224aa69a4b0bdc942f000045f",
            "0x000000000000000000000000000000000022d473030f116ddee9f6b43ac78ba3"
          ],
          "data": "0xffffffffffffffffffffffffffffffffffffffffffffffffffffffffffffffff",
          "blockHash": "0x738b6aada77e257deb7733698c9c0f839b84049609586c8273d0cab67a819608",
          "blockNumber": "0x1e7eb41",
          "transactionHash": "0x58fa397c4b6a368faee54622523f6d8bd6e635083b9fd261c683a13488ff9829",
          "transactionIndex": "0x81",
          "logIndex": "0x237",
          "removed": false
        }
      ],
      "logsBloom": "0x00000000000000000000000000000000000000000000000000000000000000000000000000000800000000000000000000000000800000000000100004200000000000000000000000004000000004000000000000000800000000000000000000000000000000000000000000000000000000000000000000000000000000000000000000000000000000000000000000000000000000000000000000000000020000000000000000200000000000000000000000000000000000000000000000000000000000000000000000000000000000000000000000000000000000000010000000000000000000000000000080000000000000000000000000000000",
      "type": "0x2",
      "transactionHash": "0x58fa397c4b6a368faee54622523f6d8bd6e635083b9fd261c683a13488ff9829",
      "transactionIndex": "0x81",
      "blockHash": "0x738b6aada77e257deb7733698c9c0f839b84049609586c8273d0cab67a819608",
      "blockNumber": "0x1e7eb41",
      "gasUsed": "0x66aa",
      "effectiveGasPrice": "0xb22e5",
      "from": "0x2f2b1a3648c58cf224aa69a4b0bdc942f000045f",
      "to": "0xfad83621dd9f7564ab9497e50a6a9ce241061680",
      "contractAddress": null,
      "l1BaseFeeScalar": "0x8dd",
      "l1BlobBaseFee": "0x1",
      "l1BlobBaseFeeScalar": "0x101c12",
      "l1Fee": "0xc5095cbc",
      "l1GasPrice": "0x3646291d",
      "l1GasUsed": "0x640"
    },
    {
      "status": "0x1",
      "cumulativeGasUsed": "0x19e65a1",
      "logs": [
        {
          "address": "0x000000000022d473030f116ddee9f6b43ac78ba3",
          "topics": [
            "0xda9fa7c1b00402c17d0161b249b1ab8bbec047c5a52207b9c112deffd817036b",
            "0x0000000000000000000000002f2b1a3648c58cf224aa69a4b0bdc942f000045f",
            "0x000000000000000000000000fad83621dd9f7564ab9497e50a6a9ce241061680",
            "0x0000000000000000000000007c5f5a4bbd8fd63184577525326123b519429bdc"
          ],
          "data": "0x000000000000000000000000ffffffffffffffffffffffffffffffffffffffff0000000000000000000000000000000000000000000000000000ffffffffffff",
          "blockHash": "0xd48bb09ec0faecb357ae127e3b96c6f581fe21f3e817f164afe4a042d4609ddd",
          "blockNumber": "0x1e7eb43",
          "transactionHash": "0x80d42f051c2f36f9ab024257fb33ceb1c1dbd527325d3b23d595ae52fd500e85",
          "transactionIndex": "0x66",
          "logIndex": "0x285",
          "removed": false
        }
      ],
      "logsBloom": "0x00010000000000000000000000000000000000000000000000000000000000010000000000000800000000000000000000000000000000000000100004082000000000000000000000000000000000000000000000000000000000000000000000000000000000000000000000000000000000000000000000000000000000000020000000000000000008000000000100000000000000000000000000000000000000000000000000000000000000000000000000000000000000080000000200000000000000000000000000000000000000000000000040000000000000000000000000000000000000000000000000000000002000000000000000000400",
      "type": "0x2",
      "transactionHash": "0x80d42f051c2f36f9ab024257fb33ceb1c1dbd527325d3b23d595ae52fd500e85",
      "transactionIndex": "0x66",
      "blockHash": "0xd48bb09ec0faecb357ae127e3b96c6f581fe21f3e817f164afe4a042d4609ddd",
      "blockNumber": "0x1e7eb43",
      "gasUsed": "0x6d0e",
      "effectiveGasPrice": "0xb2279",
      "from": "0x2f2b1a3648c58cf224aa69a4b0bdc942f000045f",
      "to": "0x000000000022d473030f116ddee9f6b43ac78ba3",
      "contractAddress": null,
      "l1BaseFeeScalar": "0x8dd",
      "l1BlobBaseFee": "0x1",
      "l1BlobBaseFeeScalar": "0x101c12",
      "l1Fee": "0xdb5c9202",
      "l1GasPrice": "0x3646291d",
      "l1GasUsed": "0x6f5"
    },
    {
      "status": "0x1",
      "cumulativeGasUsed": "0x19be02f",
      "logs": [
        {
          "address": "0x7c5f5a4bbd8fd63184577525326123b519429bdc",
          "topics": [
            "0xddf252ad1be2c89b69c2b068fc378daa952ba7f163c4a11628f55a4df523b3ef",
            "0x0000000000000000000000000000000000000000000000000000000000000000",
            "0x0000000000000000000000002f2b1a3648c58cf224aa69a4b0bdc942f000045f",
            "0x0000000000000000000000000000000000000000000000000000000000012352"
          ],
          "data": "0x",
          "blockHash": "0x0a5a5ca35ef966d0c6d3be5e0d443298fd4b87c3bc8511b5a840093ed32c677d",
          "blockNumber": "0x1e7eb45",
          "transactionHash": "0x790eacd77ef73d88ac91ceb77684bca628b8eaa2b1d3418b6f6bc401c71b5c10",
          "transactionIndex": "0x83",
          "logIndex": "0x179",
          "removed": false
        },
        {
          "address": "0x498581ff718922c3f8e6a244956af099b2652b2b",
          "topics": [
            "0xf208f4912782fd25c7f114ca3723a2d5dd6f3bcc3ac8db5af63baa85f711d5ec",
            "0xab1a6f80822c7b5d8ff564f54ee72a9b2db27587dab23b9882e08dc517c85037",
            "0x0000000000000000000000007c5f5a4bbd8fd63184577525326123b519429bdc"
          ],
          "data": "0x000000000000000000000000000000000000000000000000000000000002b4580000000000000000000000000000000000000000000000000000000000039eb8000000000000000000000000000000000000000000000000000001d9e7570b540000000000000000000000000000000000000000000000000000000000012352",
          "blockHash": "0x0a5a5ca35ef966d0c6d3be5e0d443298fd4b87c3bc8511b5a840093ed32c677d",
          "blockNumber": "0x1e7eb45",
          "transactionHash": "0x790eacd77ef73d88ac91ceb77684bca628b8eaa2b1d3418b6f6bc401c71b5c10",
          "transactionIndex": "0x83",
          "logIndex": "0x17a",
          "removed": false
        },
        {
          "address": "0x8fec0da0adb7aab466cfa9a463c87682ac7992ca",
          "topics": [
            "0xddf252ad1be2c89b69c2b068fc378daa952ba7f163c4a11628f55a4df523b3ef",
            "0x0000000000000000000000002f2b1a3648c58cf224aa69a4b0bdc942f000045f",
            "0x000000000000000000000000498581ff718922c3f8e6a244956af099b2652b2b"
          ],
          "data": "0x0000000000000000000000000000000000000000000000000000000002faf080",
          "blockHash": "0x0a5a5ca35ef966d0c6d3be5e0d443298fd4b87c3bc8511b5a840093ed32c677d",
          "blockNumber": "0x1e7eb45",
          "transactionHash": "0x790eacd77ef73d88ac91ceb77684bca628b8eaa2b1d3418b6f6bc401c71b5c10",
          "transactionIndex": "0x83",
          "logIndex": "0x17b",
          "removed": false
        },
        {
          "address": "0xfad83621dd9f7564ab9497e50a6a9ce241061680",
          "topics": [
            "0xddf252ad1be2c89b69c2b068fc378daa952ba7f163c4a11628f55a4df523b3ef",
            "0x0000000000000000000000002f2b1a3648c58cf224aa69a4b0bdc942f000045f",
            "0x000000000000000000000000498581ff718922c3f8e6a244956af099b2652b2b"
          ],
          "data": "0x00000000000000000000000000000000000000000000000000b1a6adff5094a1",
          "blockHash": "0x0a5a5ca35ef966d0c6d3be5e0d443298fd4b87c3bc8511b5a840093ed32c677d",
          "blockNumber": "0x1e7eb45",
          "transactionHash": "0x790eacd77ef73d88ac91ceb77684bca628b8eaa2b1d3418b6f6bc401c71b5c10",
          "transactionIndex": "0x83",
          "logIndex": "0x17c",
          "removed": false
        }
      ],
      "logsBloom": "0x00000000000000000000000000000000000000000000008000000000000000000020000000000800000000000000000000000000000000000000100004002000000000000000400000000008000004000000000000000000000000000000000000000000020000000000000000000800040000000002000000000010000000000004000001004400000000000000000000000000000000000000000400000000004004000000000008200000000000200000000000000000100000002000000200000002000001000000000800000000000800000000000000000000000020000000000000000000000000000000000084000400002000000000000000000000",
      "type": "0x2",
      "transactionHash": "0x790eacd77ef73d88ac91ceb77684bca628b8eaa2b1d3418b6f6bc401c71b5c10",
      "transactionIndex": "0x83",
      "blockHash": "0x0a5a5ca35ef966d0c6d3be5e0d443298fd4b87c3bc8511b5a840093ed32c677d",
      "blockNumber": "0x1e7eb45",
      "gasUsed": "0x50184",
      "effectiveGasPrice": "0xb3480",
      "from": "0x2f2b1a3648c58cf224aa69a4b0bdc942f000045f",
      "to": "0x7c5f5a4bbd8fd63184577525326123b519429bdc",
      "contractAddress": null,
      "l1BaseFeeScalar": "0x8dd",
      "l1BlobBaseFee": "0x1",
      "l1BlobBaseFeeScalar": "0x101c12",
      "l1Fee": "0x238749e4f",
      "l1GasPrice": "0x366688c6",
      "l1GasUsed": "0x11fd"
    }
  ],
  "libraries": [],
  "pending": [],
  "returns": {},
  "timestamp": 1750741871,
  "chain": 8453,
  "commit": null
}