{
  "transactions": [
    {
      "hash": "0xda19921aedf20997980c0a8d3ddb31bba77af0a57fcd68a6c2241034783127df",
      "transactionType": "CALL",
      "contractName": null,
      "contractAddress": "0x8fec0da0adb7aab466cfa9a463c87682ac7992ca",
      "function": "approve(address,uint256)",
      "arguments": [
        "0x000000000022D473030F116dDEE9F6B43aC78BA3",
        "115792089237316195423570985008687907853269984665640564039457584007913129639935"
      ],
      "transaction": {
        "from": "0x2f2b1a3648c58cf224aa69a4b0bdc942f000045f",
        "to": "0x8fec0da0adb7aab466cfa9a463c87682ac7992ca",
        "gas": "0x9625",
        "value": "0x0",
        "input": "0x095ea7b3000000000000000000000000000000000022d473030f116ddee9f6b43ac78ba3ffffffffffffffffffffffffffffffffffffffffffffffffffffffffffffffff",
        "nonce": "0x2b5",
        "chainId": "0x2105"
      },
      "additionalContracts": [],
      "isFixedGasLimit": false
    },
    {
      "hash": null,
      "transactionType": "CALL",
      "contractName": null,
      "contractAddress": "0x000000000022d473030f116ddee9f6b43ac78ba3",
      "function": "approve(address,address,uint160,uint48)",
      "arguments": [
        "0x8FeC0dA0Adb7Aab466cFa9a463c87682AC7992Ca",
        "0x7C5f5A4bBd8fD63184577525326123B519429bDc",
        "1461501637330902918203684832716283019655932542975",
        "281474976710655"
      ],
      "transaction": {
        "from": "0x2f2b1a3648c58cf224aa69a4b0bdc942f000045f",
        "to": "0x000000000022d473030f116ddee9f6b43ac78ba3",
        "gas": "0x96a0",
        "value": "0x0",
        "input": "0x87517c450000000000000000000000008fec0da0adb7aab466cfa9a463c87682ac7992ca0000000000000000000000007c5f5a4bbd8fd63184577525326123b519429bdc000000000000000000000000ffffffffffffffffffffffffffffffffffffffff0000000000000000000000000000000000000000000000000000ffffffffffff",
        "nonce": "0x2b6",
        "chainId": "0x2105"
      },
      "additionalContracts": [],
      "isFixedGasLimit": false
    },
    {
      "hash": null,
      "transactionType": "CALL",
      "contractName": null,
      "contractAddress": "0xfad83621dd9f7564ab9497e50a6a9ce241061680",
      "function": "approve(address,uint256)",
      "arguments": [
        "0x000000000022D473030F116dDEE9F6B43aC78BA3",
        "115792089237316195423570985008687907853269984665640564039457584007913129639935"
      ],
      "transaction": {
        "from": "0x2f2b1a3648c58cf224aa69a4b0bdc942f000045f",
        "to": "0xfad83621dd9f7564ab9497e50a6a9ce241061680",
        "gas": "0x9625",
        "value": "0x0",
        "input": "0x095ea7b3000000000000000000000000000000000022d473030f116ddee9f6b43ac78ba3ffffffffffffffffffffffffffffffffffffffffffffffffffffffffffffffff",
        "nonce": "0x2b7",
        "chainId": "0x2105"
      },
      "additionalContracts": [],
      "isFixedGasLimit": false
    },
    {
      "hash": null,
      "transactionType": "CALL",
      "contractName": null,
      "contractAddress": "0x000000000022d473030f116ddee9f6b43ac78ba3",
      "function": "approve(address,address,uint160,uint48)",
      "arguments": [
        "0xFAd83621dd9f7564Ab9497E50A6A9ce241061680",
        "0x7C5f5A4bBd8fD63184577525326123B519429bDc",
        "1461501637330902918203684832716283019655932542975",
        "281474976710655"
      ],
      "transaction": {
        "from": "0x2f2b1a3648c58cf224aa69a4b0bdc942f000045f",
        "to": "0x000000000022d473030f116ddee9f6b43ac78ba3",
        "gas": "0x96a0",
        "value": "0x0",
        "input": "0x87517c45000000000000000000000000fad83621dd9f7564ab9497e50a6a9ce2410616800000000000000000000000007c5f5a4bbd8fd63184577525326123b519429bdc000000000000000000000000ffffffffffffffffffffffffffffffffffffffff0000000000000000000000000000000000000000000000000000ffffffffffff",
        "nonce": "0x2b8",
        "chainId": "0x2105"
      },
      "additionalContracts": [],
      "isFixedGasLimit": false
    },
    {
      "hash": null,
      "transactionType": "CALL",
      "contractName": null,
      "contractAddress": "0x7c5f5a4bbd8fd63184577525326123b519429bdc",
      "function": "modifyLiquidities(bytes,uint256)",
      "arguments": [
        "0x000000000000000000000000000000000000000000000000000000000000004000000000000000000000000000000000000000000000000000000000000000800000000000000000000000000000000000000000000000000000000000000004020d14140000000000000000000000000000000000000000000000000000000000000000000000000000000000000000000000000000000000000000000000040000000000000000000000000000000000000000000000000000000000000080000000000000000000000000000000000000000000000000000000000000024000000000000000000000000000000000000000000000000000000000000002a0000000000000000000000000000000000000000000000000000000000000030000000000000000000000000000000000000000000000000000000000000001a00000000000000000000000008fec0da0adb7aab466cfa9a463c87682ac7992ca000000000000000000000000fad83621dd9f7564ab9497e50a6a9ce2410616800000000000000000000000000000000000000000000000000000000000000bb8000000000000000000000000000000000000000000000000000000000000003c000000000000000000000000251369069a9c93a7615338c9a7127b9693428500000000000000000000000000000000000000000000000000000000000002b4580000000000000000000000000000000000000000000000000000000000039eb8000000000000000000000000000000000000000000000000000001d9e7570b540000000000000000000000000000000000000000000000000000000003473bc0000000000000000000000000000000000000000000000002fb474098f67c00000000000000000000000000002f2b1a3648c58cf224aa69a4b0bdc942f000045f0000000000000000000000000000000000000000000000000000000000000180000000000000000000000000000000000000000000000000000000000000000000000000000000000000000000000000000000000000000000000000000000400000000000000000000000008fec0da0adb7aab466cfa9a463c87682ac7992ca000000000000000000000000fad83621dd9f7564ab9497e50a6a9ce24106168000000000000000000000000000000000000000000000000000000000000000400000000000000000000000008fec0da0adb7aab466cfa9a463c87682ac7992ca0000000000000000000000002f2b1a3648c58cf224aa69a4b0bdc942f000045f0000000000000000000000000000000000000000000000000000000000000040000000000000000000000000fad83621dd9f7564ab9497e50a6a9ce2410616800000000000000000000000002f2b1a3648c58cf224aa69a4b0bdc942f000045f",
        "1750766011"
      ],
      "transaction": {
        "from": "0x2f2b1a3648c58cf224aa69a4b0bdc942f000045f",
        "to": "0x7c5f5a4bbd8fd63184577525326123b519429bdc",
        "gas": "0x8a698",
        "value": "0x0",
        "input": "0xdd46508f000000000000000000000000000000000000000000000000000000000000004000000000000000000000000000000000000000000000000000000000685a91bb0000000000000000000000000000000000000000000000000000000000000400000000000000000000000000000000000000000000000000000000000000004000000000000000000000000000000000000000000000000000000000000000800000000000000000000000000000000000000000000000000000000000000004020d14140000000000000000000000000000000000000000000000000000000000000000000000000000000000000000000000000000000000000000000000040000000000000000000000000000000000000000000000000000000000000080000000000000000000000000000000000000000000000000000000000000024000000000000000000000000000000000000000000000000000000000000002a0000000000000000000000000000000000000000000000000000000000000030000000000000000000000000000000000000000000000000000000000000001a00000000000000000000000008fec0da0adb7aab466cfa9a463c87682ac7992ca000000000000000000000000fad83621dd9f7564ab9497e50a6a9ce2410616800000000000000000000000000000000000000000000000000000000000000bb8000000000000000000000000000000000000000000000000000000000000003c000000000000000000000000251369069a9c93a7615338c9a7127b9693428500000000000000000000000000000000000000000000000000000000000002b4580000000000000000000000000000000000000000000000000000000000039eb8000000000000000000000000000000000000000000000000000001d9e7570b540000000000000000000000000000000000000000000000000000000003473bc0000000000000000000000000000000000000000000000002fb474098f67c00000000000000000000000000002f2b1a3648c58cf224aa69a4b0bdc942f000045f0000000000000000000000000000000000000000000000000000000000000180000000000000000000000000000000000000000000000000000000000000000000000000000000000000000000000000000000000000000000000000000000400000000000000000000000008fec0da0adb7aab466cfa9a463c87682ac7992ca000000000000000000000000fad83621dd9f7564ab9497e50a6a9ce24106168000000000000000000000000000000000000000000000000000000000000000400000000000000000000000008fec0da0adb7aab466cfa9a463c87682ac7992ca0000000000000000000000002f2b1a3648c58cf224aa69a4b0bdc942f000045f0000000000000000000000000000000000000000000000000000000000000040000000000000000000000000fad83621dd9f7564ab9497e50a6a9ce2410616800000000000000000000000002f2b1a3648c58cf224aa69a4b0bdc942f000045f",
        "nonce": "0x2b9",
        "chainId": "0x2105"
      },
      "additionalContracts": [],
      "isFixedGasLimit": false
    }
  ],
  "receipts": [],
  "libraries": [],
  "pending": [
    "0xda19921aedf20997980c0a8d3ddb31bba77af0a57fcd68a6c2241034783127df"
  ],
  "returns": {},
  "timestamp": 1750765720,
  "chain": 8453,
  "commit": null
}