{
  "transactions": [
    {
      "hash": "0x4f556a0b5324a125004ff3f9c84e9523a04b55a467a4a0648cf88fea31cf6a65",
      "transactionType": "CALL",
      "contractName": null,
      "contractAddress": "0x8fec0da0adb7aab466cfa9a463c87682ac7992ca",
      "function": "approve(address,uint256)",
      "arguments": [
        "0x000000000022D473030F116dDEE9F6B43aC78BA3",
        "115792089237316195423570985008687907853269984665640564039457584007913129639935"
      ],
      "transaction": {
        "from": "0x2f2b1a3648c58cf224aa69a4b0bdc942f000045f",
        "to": "0x8fec0da0adb7aab466cfa9a463c87682ac7992ca",
        "gas": "0x9625",
        "value": "0x0",
        "input": "0x095ea7b3000000000000000000000000000000000022d473030f116ddee9f6b43ac78ba3ffffffffffffffffffffffffffffffffffffffffffffffffffffffffffffffff",
        "nonce": "0x2aa",
        "chainId": "0x2105"
      },
      "additionalContracts": [],
      "isFixedGasLimit": false
    },
    {
      "hash": "0x95e8754d0453cf975722618bd1c1e6916ebc2881112306fd7195080054e63733",
      "transactionType": "CALL",
      "contractName": null,
      "contractAddress": "0x000000000022d473030f116ddee9f6b43ac78ba3",
      "function": "approve(address,address,uint160,uint48)",
      "arguments": [
        "0x8FeC0dA0Adb7Aab466cFa9a463c87682AC7992Ca",
        "0x7C5f5A4bBd8fD63184577525326123B519429bDc",
        "1461501637330902918203684832716283019655932542975",
        "281474976710655"
      ],
      "transaction": {
        "from": "0x2f2b1a3648c58cf224aa69a4b0bdc942f000045f",
        "to": "0x000000000022d473030f116ddee9f6b43ac78ba3",
        "gas": "0x96a0",
        "value": "0x0",
        "input": "0x87517c450000000000000000000000008fec0da0adb7aab466cfa9a463c87682ac7992ca0000000000000000000000007c5f5a4bbd8fd63184577525326123b519429bdc000000000000000000000000ffffffffffffffffffffffffffffffffffffffff0000000000000000000000000000000000000000000000000000ffffffffffff",
        "nonce": "0x2ab",
        "chainId": "0x2105"
      },
      "additionalContracts": [],
      "isFixedGasLimit": false
    },
    {
      "hash": "0xc9be7e432fd8734646d86d9263266a227bdad2b23626e4c28c5fc414b9c19420",
      "transactionType": "CALL",
      "contractName": null,
      "contractAddress": "0xfad83621dd9f7564ab9497e50a6a9ce241061680",
      "function": "approve(address,uint256)",
      "arguments": [
        "0x000000000022D473030F116dDEE9F6B43aC78BA3",
        "115792089237316195423570985008687907853269984665640564039457584007913129639935"
      ],
      "transaction": {
        "from": "0x2f2b1a3648c58cf224aa69a4b0bdc942f000045f",
        "to": "0xfad83621dd9f7564ab9497e50a6a9ce241061680",
        "gas": "0x9625",
        "value": "0x0",
        "input": "0x095ea7b3000000000000000000000000000000000022d473030f116ddee9f6b43ac78ba3ffffffffffffffffffffffffffffffffffffffffffffffffffffffffffffffff",
        "nonce": "0x2ac",
        "chainId": "0x2105"
      },
      "additionalContracts": [],
      "isFixedGasLimit": false
    },
    {
      "hash": "0x5a188692bacfa7d34d2b65e3c78c2af15be3645e044f988e5bc6d95cb881a093",
      "transactionType": "CALL",
      "contractName": null,
      "contractAddress": "0x000000000022d473030f116ddee9f6b43ac78ba3",
      "function": "approve(address,address,uint160,uint48)",
      "arguments": [
        "0xFAd83621dd9f7564Ab9497E50A6A9ce241061680",
        "0x7C5f5A4bBd8fD63184577525326123B519429bDc",
        "1461501637330902918203684832716283019655932542975",
        "281474976710655"
      ],
      "transaction": {
        "from": "0x2f2b1a3648c58cf224aa69a4b0bdc942f000045f",
        "to": "0x000000000022d473030f116ddee9f6b43ac78ba3",
        "gas": "0x96a0",
        "value": "0x0",
        "input": "0x87517c45000000000000000000000000fad83621dd9f7564ab9497e50a6a9ce2410616800000000000000000000000007c5f5a4bbd8fd63184577525326123b519429bdc000000000000000000000000ffffffffffffffffffffffffffffffffffffffff0000000000000000000000000000000000000000000000000000ffffffffffff",
        "nonce": "0x2ad",
        "chainId": "0x2105"
      },
      "additionalContracts": [],
      "isFixedGasLimit": false
    },
    {
      "hash": "0x9368a009e482420bdc0c555c2d83743e1923624f5829cc9df81f7774d09e29be",
      "transactionType": "CALL",
      "contractName": null,
      "contractAddress": "0x7c5f5a4bbd8fd63184577525326123b519429bdc",
      "function": "modifyLiquidities(bytes,uint256)",
      "arguments": [
        "0x000000000000000000000000000000000000000000000000000000000000004000000000000000000000000000000000000000000000000000000000000000800000000000000000000000000000000000000000000000000000000000000004020d14140000000000000000000000000000000000000000000000000000000000000000000000000000000000000000000000000000000000000000000000040000000000000000000000000000000000000000000000000000000000000080000000000000000000000000000000000000000000000000000000000000024000000000000000000000000000000000000000000000000000000000000002a0000000000000000000000000000000000000000000000000000000000000030000000000000000000000000000000000000000000000000000000000000001a00000000000000000000000008fec0da0adb7aab466cfa9a463c87682ac7992ca000000000000000000000000fad83621dd9f7564ab9497e50a6a9ce2410616800000000000000000000000000000000000000000000000000000000000000bb8000000000000000000000000000000000000000000000000000000000000003c000000000000000000000000fa2b5ce8c00bcf92947d37233a04d9e205844500000000000000000000000000000000000000000000000000000000000002b4580000000000000000000000000000000000000000000000000000000000039eb8000000000000000000000000000000000000000000000000000001d9e7570b540000000000000000000000000000000000000000000000000000000003473bc0000000000000000000000000000000000000000000000002fb474098f67c00000000000000000000000000002f2b1a3648c58cf224aa69a4b0bdc942f000045f0000000000000000000000000000000000000000000000000000000000000180000000000000000000000000000000000000000000000000000000000000000000000000000000000000000000000000000000000000000000000000000000400000000000000000000000008fec0da0adb7aab466cfa9a463c87682ac7992ca000000000000000000000000fad83621dd9f7564ab9497e50a6a9ce24106168000000000000000000000000000000000000000000000000000000000000000400000000000000000000000008fec0da0adb7aab466cfa9a463c87682ac7992ca0000000000000000000000002f2b1a3648c58cf224aa69a4b0bdc942f000045f0000000000000000000000000000000000000000000000000000000000000040000000000000000000000000fad83621dd9f7564ab9497e50a6a9ce2410616800000000000000000000000002f2b1a3648c58cf224aa69a4b0bdc942f000045f",
        "1750742821"
      ],
      "transaction": {
        "from": "0x2f2b1a3648c58cf224aa69a4b0bdc942f000045f",
        "to": "0x7c5f5a4bbd8fd63184577525326123b519429bdc",
        "gas": "0x53b92",
        "value": "0x0",
        "input": "0xdd46508f000000000000000000000000000000000000000000000000000000000000004000000000000000000000000000000000000000000000000000000000685a37250000000000000000000000000000000000000000000000000000000000000400000000000000000000000000000000000000000000000000000000000000004000000000000000000000000000000000000000000000000000000000000000800000000000000000000000000000000000000000000000000000000000000004020d14140000000000000000000000000000000000000000000000000000000000000000000000000000000000000000000000000000000000000000000000040000000000000000000000000000000000000000000000000000000000000080000000000000000000000000000000000000000000000000000000000000024000000000000000000000000000000000000000000000000000000000000002a0000000000000000000000000000000000000000000000000000000000000030000000000000000000000000000000000000000000000000000000000000001a00000000000000000000000008fec0da0adb7aab466cfa9a463c87682ac7992ca000000000000000000000000fad83621dd9f7564ab9497e50a6a9ce2410616800000000000000000000000000000000000000000000000000000000000000bb8000000000000000000000000000000000000000000000000000000000000003c000000000000000000000000fa2b5ce8c00bcf92947d37233a04d9e205844500000000000000000000000000000000000000000000000000000000000002b4580000000000000000000000000000000000000000000000000000000000039eb8000000000000000000000000000000000000000000000000000001d9e7570b540000000000000000000000000000000000000000000000000000000003473bc0000000000000000000000000000000000000000000000002fb474098f67c00000000000000000000000000002f2b1a3648c58cf224aa69a4b0bdc942f000045f0000000000000000000000000000000000000000000000000000000000000180000000000000000000000000000000000000000000000000000000000000000000000000000000000000000000000000000000000000000000000000000000400000000000000000000000008fec0da0adb7aab466cfa9a463c87682ac7992ca000000000000000000000000fad83621dd9f7564ab9497e50a6a9ce24106168000000000000000000000000000000000000000000000000000000000000000400000000000000000000000008fec0da0adb7aab466cfa9a463c87682ac7992ca0000000000000000000000002f2b1a3648c58cf224aa69a4b0bdc942f000045f0000000000000000000000000000000000000000000000000000000000000040000000000000000000000000fad83621dd9f7564ab9497e50a6a9ce2410616800000000000000000000000002f2b1a3648c58cf224aa69a4b0bdc942f000045f",
        "nonce": "0x2ae",
        "chainId": "0x2105"
      },
      "additionalContracts": [],
      "isFixedGasLimit": false
    }
  ],
  "receipts": [
    {
      "status": "0x1",
      "cumulativeGasUsed": "0x212db5d",
      "logs": [
        {
          "address": "0x8fec0da0adb7aab466cfa9a463c87682ac7992ca",
          "topics": [
            "0x8c5be1e5ebec7d5bd14f71427d1e84f3dd0314c0f7b2291e5b200ac8c7c3b925",
            "0x0000000000000000000000002f2b1a3648c58cf224aa69a4b0bdc942f000045f",
            "0x000000000000000000000000000000000022d473030f116ddee9f6b43ac78ba3"
          ],
          "data": "0xffffffffffffffffffffffffffffffffffffffffffffffffffffffffffffffff",
          "blockHash": "0x909c0e1d78351b9c3d4635beb82b0435b8636796b9e5a6d730d97f4cd222d621",
          "blockNumber": "0x1e7ec90",
          "transactionHash": "0x4f556a0b5324a125004ff3f9c84e9523a04b55a467a4a0648cf88fea31cf6a65",
          "transactionIndex": "0x78",
          "logIndex": "0x238",
          "removed": false
        }
      ],
      "logsBloom": "0x00000000000000000000000000000000000000000000000000000000000000000000000000000800000000000000000000000000800000000000100004200000000000000000000000004000000000000000000000000800000000000000000000000000000000000000000000000000000000000000000000000000000000000004000000000400000000000000000000000000000000000000000000000000020000000000000000000000000000000000000000000000000000000000000000000000000000000000000800000000000000000000000000000000000000000010000000000000000000000000000000000000000000000000000000000000",
      "type": "0x2",
      "transactionHash": "0x4f556a0b5324a125004ff3f9c84e9523a04b55a467a4a0648cf88fea31cf6a65",
      "transactionIndex": "0x78",
      "blockHash": "0x909c0e1d78351b9c3d4635beb82b0435b8636796b9e5a6d730d97f4cd222d621",
      "blockNumber": "0x1e7ec90",
      "gasUsed": "0x66aa",
      "effectiveGasPrice": "0xfb3a0",
      "from": "0x2f2b1a3648c58cf224aa69a4b0bdc942f000045f",
      "to": "0x8fec0da0adb7aab466cfa9a463c87682ac7992ca",
      "contractAddress": null,
      "l1BaseFeeScalar": "0x8dd",
      "l1BlobBaseFee": "0x1",
      "l1BlobBaseFeeScalar": "0x101c12",
      "l1Fee": "0xe637c9bf",
      "l1GasPrice": "0x3f69f709",
      "l1GasUsed": "0x640"
    },
    {
      "status": "0x1",
      "cumulativeGasUsed": "0x1e7eb72",
      "logs": [
        {
          "address": "0x000000000022d473030f116ddee9f6b43ac78ba3",
          "topics": [
            "0xda9fa7c1b00402c17d0161b249b1ab8bbec047c5a52207b9c112deffd817036b",
            "0x0000000000000000000000002f2b1a3648c58cf224aa69a4b0bdc942f000045f",
            "0x0000000000000000000000008fec0da0adb7aab466cfa9a463c87682ac7992ca",
            "0x0000000000000000000000007c5f5a4bbd8fd63184577525326123b519429bdc"
          ],
          "data": "0x000000000000000000000000ffffffffffffffffffffffffffffffffffffffff0000000000000000000000000000000000000000000000000000ffffffffffff",
          "blockHash": "0x78926ac74949b383a043827b0f22c9f2f569377213a4db2752312da47ce9804a",
          "blockNumber": "0x1e7ec92",
          "transactionHash": "0x95e8754d0453cf975722618bd1c1e6916ebc2881112306fd7195080054e63733",
          "transactionIndex": "0x76",
          "logIndex": "0x1d9",
          "removed": false
        }
      ],
      "logsBloom": "0x00010000000000000000000000000000000000000000000000000000000000000000000000000800000000000000000000000000000000000000100004082000000000000000000000000000000000000000000000000000000000000000000000000000000000000000000002000000000000000000000000000000000000000020000000000000000000000000000000000000000000000000000000000000000000000000000000400000000000000000000000000000000000080000000200000000000000000000000000000000000000000000000040000000000000000000000000000000000000000000000000000004002000000000000000000400",
      "type": "0x2",
      "transactionHash": "0x95e8754d0453cf975722618bd1c1e6916ebc2881112306fd7195080054e63733",
      "transactionIndex": "0x76",
      "blockHash": "0x78926ac74949b383a043827b0f22c9f2f569377213a4db2752312da47ce9804a",
      "blockNumber": "0x1e7ec92",
      "gasUsed": "0x6d0e",
      "effectiveGasPrice": "0xfac24",
      "from": "0x2f2b1a3648c58cf224aa69a4b0bdc942f000045f",
      "to": "0x000000000022d473030f116ddee9f6b43ac78ba3",
      "contractAddress": null,
      "l1BaseFeeScalar": "0x8dd",
      "l1BlobBaseFee": "0x1",
      "l1BlobBaseFeeScalar": "0x101c12",
      "l1Fee": "0x1023a724c",
      "l1GasPrice": "0x3f69f709",
      "l1GasUsed": "0x702"
    },
    {
      "status": "0x1",
      "cumulativeGasUsed": "0x2f27094",
      "logs": [
        {
          "address": "0xfad83621dd9f7564ab9497e50a6a9ce241061680",
          "topics": [
            "0x8c5be1e5ebec7d5bd14f71427d1e84f3dd0314c0f7b2291e5b200ac8c7c3b925",
            "0x0000000000000000000000002f2b1a3648c58cf224aa69a4b0bdc942f000045f",
            "0x000000000000000000000000000000000022d473030f116ddee9f6b43ac78ba3"
          ],
          "data": "0xffffffffffffffffffffffffffffffffffffffffffffffffffffffffffffffff",
          "blockHash": "0xfac7320a03a41ee49269ce1eb48453d2e4de6d27328d78fb99bb1a06d80bba65",
          "blockNumber": "0x1e7ec94",
          "transactionHash": "0xc9be7e432fd8734646d86d9263266a227bdad2b23626e4c28c5fc414b9c19420",
          "transactionIndex": "0xbf",
          "logIndex": "0x2cc",
          "removed": false
        }
      ],
      "logsBloom": "0x00000000000000000000000000000000000000000000000000000000000000000000000000000800000000000000000000000000800000000000100004200000000000000000000000004000000004000000000000000800000000000000000000000000000000000000000000000000000000000000000000000000000000000000000000000000000000000000000000000000000000000000000000000000020000000000000000200000000000000000000000000000000000000000000000000000000000000000000000000000000000000000000000000000000000000010000000000000000000000000000080000000000000000000000000000000",
      "type": "0x2",
      "transactionHash": "0xc9be7e432fd8734646d86d9263266a227bdad2b23626e4c28c5fc414b9c19420",
      "transactionIndex": "0xbf",
      "blockHash": "0xfac7320a03a41ee49269ce1eb48453d2e4de6d27328d78fb99bb1a06d80bba65",
      "blockNumber": "0x1e7ec94",
      "gasUsed": "0x66aa",
      "effectiveGasPrice": "0xfad3e",
      "from": "0x2f2b1a3648c58cf224aa69a4b0bdc942f000045f",
      "to": "0xfad83621dd9f7564ab9497e50a6a9ce241061680",
      "contractAddress": null,
      "l1BaseFeeScalar": "0x8dd",
      "l1BlobBaseFee": "0x1",
      "l1BlobBaseFeeScalar": "0x101c12",
      "l1Fee": "0xeffd8a2b",
      "l1GasPrice": "0x421b13ab",
      "l1GasUsed": "0x640"
    },
    {
      "status": "0x1",
      "cumulativeGasUsed": "0x2c7cec4",
      "logs": [
        {
          "address": "0x000000000022d473030f116ddee9f6b43ac78ba3",
          "topics": [
            "0xda9fa7c1b00402c17d0161b249b1ab8bbec047c5a52207b9c112deffd817036b",
            "0x0000000000000000000000002f2b1a3648c58cf224aa69a4b0bdc942f000045f",
            "0x000000000000000000000000fad83621dd9f7564ab9497e50a6a9ce241061680",
            "0x0000000000000000000000007c5f5a4bbd8fd63184577525326123b519429bdc"
          ],
          "data": "0x000000000000000000000000ffffffffffffffffffffffffffffffffffffffff0000000000000000000000000000000000000000000000000000ffffffffffff",
          "blockHash": "0xfbe8bee19ed4c7c3f1b91f15c2a8723224c674117d93455af52242f5c15d7927",
          "blockNumber": "0x1e7ec96",
          "transactionHash": "0x5a188692bacfa7d34d2b65e3c78c2af15be3645e044f988e5bc6d95cb881a093",
          "transactionIndex": "0x99",
          "logIndex": "0x2de",
          "removed": false
        }
      ],
      "logsBloom": "0x00010000000000000000000000000000000000000000000000000000000000010000000000000800000000000000000000000000000000000000100004082000000000000000000000000000000000000000000000000000000000000000000000000000000000000000000000000000000000000000000000000000000000000020000000000000000008000000000100000000000000000000000000000000000000000000000000000000000000000000000000000000000000080000000200000000000000000000000000000000000000000000000040000000000000000000000000000000000000000000000000000000002000000000000000000400",
      "type": "0x2",
      "transactionHash": "0x5a188692bacfa7d34d2b65e3c78c2af15be3645e044f988e5bc6d95cb881a093",
      "transactionIndex": "0x99",
      "blockHash": "0xfbe8bee19ed4c7c3f1b91f15c2a8723224c674117d93455af52242f5c15d7927",
      "blockNumber": "0x1e7ec96",
      "gasUsed": "0x6d0e",
      "effectiveGasPrice": "0xfcfd7",
      "from": "0x2f2b1a3648c58cf224aa69a4b0bdc942f000045f",
      "to": "0x000000000022d473030f116ddee9f6b43ac78ba3",
      "contractAddress": null,
      "l1BaseFeeScalar": "0x8dd",
      "l1BlobBaseFee": "0x1",
      "l1BlobBaseFeeScalar": "0x101c12",
      "l1Fee": "0x10d309570",
      "l1GasPrice": "0x421b13ab",
      "l1GasUsed": "0x702"
    },
    {
      "status": "0x1",
      "cumulativeGasUsed": "0x222fb69",
      "logs": [
        {
          "address": "0x7c5f5a4bbd8fd63184577525326123b519429bdc",
          "topics": [
            "0xddf252ad1be2c89b69c2b068fc378daa952ba7f163c4a11628f55a4df523b3ef",
            "0x0000000000000000000000000000000000000000000000000000000000000000",
            "0x0000000000000000000000002f2b1a3648c58cf224aa69a4b0bdc942f000045f",
            "0x0000000000000000000000000000000000000000000000000000000000012355"
          ],
          "data": "0x",
          "blockHash": "0x943e2910cfa5b8928dcc77e0f9b2086257ef688252e224860f7e310376844a54",
          "blockNumber": "0x1e7ec98",
          "transactionHash": "0x9368a009e482420bdc0c555c2d83743e1923624f5829cc9df81f7774d09e29be",
          "transactionIndex": "0x77",
          "logIndex": "0x170",
          "removed": false
        },
        {
          "address": "0x498581ff718922c3f8e6a244956af099b2652b2b",
          "topics": [
            "0xf208f4912782fd25c7f114ca3723a2d5dd6f3bcc3ac8db5af63baa85f711d5ec",
            "0xab1a6f80822c7b5d8ff564f54ee72a9b2db27587dab23b9882e08dc517c85037",
            "0x0000000000000000000000007c5f5a4bbd8fd63184577525326123b519429bdc"
          ],
          "data": "0x000000000000000000000000000000000000000000000000000000000002b4580000000000000000000000000000000000000000000000000000000000039eb8000000000000000000000000000000000000000000000000000001d9e7570b540000000000000000000000000000000000000000000000000000000000012355",
          "blockHash": "0x943e2910cfa5b8928dcc77e0f9b2086257ef688252e224860f7e310376844a54",
          "blockNumber": "0x1e7ec98",
          "transactionHash": "0x9368a009e482420bdc0c555c2d83743e1923624f5829cc9df81f7774d09e29be",
          "transactionIndex": "0x77",
          "logIndex": "0x171",
          "removed": false
        },
        {
          "address": "0x8fec0da0adb7aab466cfa9a463c87682ac7992ca",
          "topics": [
            "0xddf252ad1be2c89b69c2b068fc378daa952ba7f163c4a11628f55a4df523b3ef",
            "0x0000000000000000000000002f2b1a3648c58cf224aa69a4b0bdc942f000045f",
            "0x000000000000000000000000498581ff718922c3f8e6a244956af099b2652b2b"
          ],
          "data": "0x0000000000000000000000000000000000000000000000000000000002faf080",
          "blockHash": "0x943e2910cfa5b8928dcc77e0f9b2086257ef688252e224860f7e310376844a54",
          "blockNumber": "0x1e7ec98",
          "transactionHash": "0x9368a009e482420bdc0c555c2d83743e1923624f5829cc9df81f7774d09e29be",
          "transactionIndex": "0x77",
          "logIndex": "0x172",
          "removed": false
        },
        {
          "address": "0xfad83621dd9f7564ab9497e50a6a9ce241061680",
          "topics": [
            "0xddf252ad1be2c89b69c2b068fc378daa952ba7f163c4a11628f55a4df523b3ef",
            "0x0000000000000000000000002f2b1a3648c58cf224aa69a4b0bdc942f000045f",
            "0x000000000000000000000000498581ff718922c3f8e6a244956af099b2652b2b"
          ],
          "data": "0x00000000000000000000000000000000000000000000000000b1a6adff5094a1",
          "blockHash": "0x943e2910cfa5b8928dcc77e0f9b2086257ef688252e224860f7e310376844a54",
          "blockNumber": "0x1e7ec98",
          "transactionHash": "0x9368a009e482420bdc0c555c2d83743e1923624f5829cc9df81f7774d09e29be",
          "transactionIndex": "0x77",
          "logIndex": "0x173",
          "removed": false
        }
      ],
      "logsBloom": "0x00000000000000000000000000000000000000000000000011000000000000000020000000000800000000000000000000000000000000000000100004002000000000000000400000000008000004000000000000000000000000000000000000000000020000000000000000000800040000000000000000000010000000000004000001004400000000000000000000000000000000000000000400000000004004000000000008200000000000200000000000000000100000000000000200000002000001000000000800000000000800000000000000000000000020000000000000001000000000000000000084000400002000000000000000000000",
      "type": "0x2",
      "transactionHash": "0x9368a009e482420bdc0c555c2d83743e1923624f5829cc9df81f7774d09e29be",
      "transactionIndex": "0x77",
      "blockHash": "0x943e2910cfa5b8928dcc77e0f9b2086257ef688252e224860f7e310376844a54",
      "blockNumber": "0x1e7ec98",
      "gasUsed": "0x3c9d4",
      "effectiveGasPrice": "0xfe1bb",
      "from": "0x2f2b1a3648c58cf224aa69a4b0bdc942f000045f",
      "to": "0x7c5f5a4bbd8fd63184577525326123b519429bdc",
      "contractAddress": null,
      "l1BaseFeeScalar": "0x8dd",
      "l1BlobBaseFee": "0x1",
      "l1BlobBaseFeeScalar": "0x101c12",
      "l1Fee": "0x2b6c8b01d",
      "l1GasPrice": "0x421b13ab",
      "l1GasUsed": "0x1218"
    }
  ],
  "libraries": [],
  "pending": [],
  "returns": {},
  "timestamp": 1750742549,
  "chain": 8453,
  "commit": null
}