{
  "transactions": [
    {
      "hash": "0xb55ebe1d2e478370836a78bd47cd3e252f4b93c27141cd1e2dacd457e59521ed",
      "transactionType": "CALL",
      "contractName": null,
      "contractAddress": "0x8fec0da0adb7aab466cfa9a463c87682ac7992ca",
      "function": "approve(address,uint256)",
      "arguments": [
        "0x000000000022D473030F116dDEE9F6B43aC78BA3",
        "115792089237316195423570985008687907853269984665640564039457584007913129639935"
      ],
      "transaction": {
        "from": "0xc5c5a0220c1abfcfa26eec68e55d9b689193d6b2",
        "to": "0x8fec0da0adb7aab466cfa9a463c87682ac7992ca",
        "gas": "0xf92c",
        "value": "0x0",
        "input": "0x095ea7b3000000000000000000000000000000000022d473030f116ddee9f6b43ac78ba3ffffffffffffffffffffffffffffffffffffffffffffffffffffffffffffffff",
        "nonce": "0x36",
        "chainId": "0x2105"
      },
      "additionalContracts": [],
      "isFixedGasLimit": false
    },
    {
      "hash": "0x83e68b7f5c4050f3f70e7e7bf0387352cb9f944d468db875db0def55f05b65d6",
      "transactionType": "CALL",
      "contractName": null,
      "contractAddress": "0x000000000022d473030f116ddee9f6b43ac78ba3",
      "function": "approve(address,address,uint160,uint48)",
      "arguments": [
        "0x8FeC0dA0Adb7Aab466cFa9a463c87682AC7992Ca",
        "0x7C5f5A4bBd8fD63184577525326123B519429bDc",
        "1461501637330902918203684832716283019655932542975",
        "281474976710655"
      ],
      "transaction": {
        "from": "0xc5c5a0220c1abfcfa26eec68e55d9b689193d6b2",
        "to": "0x000000000022d473030f116ddee9f6b43ac78ba3",
        "gas": "0x1112d",
        "value": "0x0",
        "input": "0x87517c450000000000000000000000008fec0da0adb7aab466cfa9a463c87682ac7992ca0000000000000000000000007c5f5a4bbd8fd63184577525326123b519429bdc000000000000000000000000ffffffffffffffffffffffffffffffffffffffff0000000000000000000000000000000000000000000000000000ffffffffffff",
        "nonce": "0x37",
        "chainId": "0x2105"
      },
      "additionalContracts": [],
      "isFixedGasLimit": false
    },
    {
      "hash": "0x5f43ef74358f1467717b1dc1c84509eaf46fb53441fa2731ef61af9e1dd0351b",
      "transactionType": "CALL",
      "contractName": null,
      "contractAddress": "0xfad83621dd9f7564ab9497e50a6a9ce241061680",
      "function": "approve(address,uint256)",
      "arguments": [
        "0x000000000022D473030F116dDEE9F6B43aC78BA3",
        "115792089237316195423570985008687907853269984665640564039457584007913129639935"
      ],
      "transaction": {
        "from": "0xc5c5a0220c1abfcfa26eec68e55d9b689193d6b2",
        "to": "0xfad83621dd9f7564ab9497e50a6a9ce241061680",
        "gas": "0xf92c",
        "value": "0x0",
        "input": "0x095ea7b3000000000000000000000000000000000022d473030f116ddee9f6b43ac78ba3ffffffffffffffffffffffffffffffffffffffffffffffffffffffffffffffff",
        "nonce": "0x38",
        "chainId": "0x2105"
      },
      "additionalContracts": [],
      "isFixedGasLimit": false
    },
    {
      "hash": "0x241988736b59c9dae35597357f51c067c90e1c3df0a1e31f586d5d539b1bfab3",
      "transactionType": "CALL",
      "contractName": null,
      "contractAddress": "0x000000000022d473030f116ddee9f6b43ac78ba3",
      "function": "approve(address,address,uint160,uint48)",
      "arguments": [
        "0xFAd83621dd9f7564Ab9497E50A6A9ce241061680",
        "0x7C5f5A4bBd8fD63184577525326123B519429bDc",
        "1461501637330902918203684832716283019655932542975",
        "281474976710655"
      ],
      "transaction": {
        "from": "0xc5c5a0220c1abfcfa26eec68e55d9b689193d6b2",
        "to": "0x000000000022d473030f116ddee9f6b43ac78ba3",
        "gas": "0x1112d",
        "value": "0x0",
        "input": "0x87517c45000000000000000000000000fad83621dd9f7564ab9497e50a6a9ce2410616800000000000000000000000007c5f5a4bbd8fd63184577525326123b519429bdc000000000000000000000000ffffffffffffffffffffffffffffffffffffffff0000000000000000000000000000000000000000000000000000ffffffffffff",
        "nonce": "0x39",
        "chainId": "0x2105"
      },
      "additionalContracts": [],
      "isFixedGasLimit": false
    },
    {
      "hash": "0x70efdb234cff2203d391d7a559407e32eab3b282d50ce2deb5d989c162063860",
      "transactionType": "CALL",
      "contractName": null,
      "contractAddress": "0x7c5f5a4bbd8fd63184577525326123b519429bdc",
      "function": "modifyLiquidities(bytes,uint256)",
      "arguments": [
        "0x000000000000000000000000000000000000000000000000000000000000004000000000000000000000000000000000000000000000000000000000000000800000000000000000000000000000000000000000000000000000000000000004020d14140000000000000000000000000000000000000000000000000000000000000000000000000000000000000000000000000000000000000000000000040000000000000000000000000000000000000000000000000000000000000080000000000000000000000000000000000000000000000000000000000000024000000000000000000000000000000000000000000000000000000000000002a0000000000000000000000000000000000000000000000000000000000000030000000000000000000000000000000000000000000000000000000000000001a00000000000000000000000008fec0da0adb7aab466cfa9a463c87682ac7992ca000000000000000000000000fad83621dd9f7564ab9497e50a6a9ce241061680000000000000000000000000000000000000000000000000000000000000271000000000000000000000000000000000000000000000000000000000000000c8000000000000000000000000d6adebcddec37e43ab390b67f5d6ccc278f1c500ffffffffffffffffffffffffffffffffffffffffffffffffffffffffffff8ad000000000000000000000000000000000000000000000000000000000000075300000000000000000000000000000000000000000000000000000000003d616f80000000000000000000000000000000000000000000000000000000003473bc0000000000000000000000000000000000000000000000002fb474098f67c0000000000000000000000000000c5c5a0220c1abfcfa26eec68e55d9b689193d6b20000000000000000000000000000000000000000000000000000000000000180000000000000000000000000000000000000000000000000000000000000000000000000000000000000000000000000000000000000000000000000000000400000000000000000000000008fec0da0adb7aab466cfa9a463c87682ac7992ca000000000000000000000000fad83621dd9f7564ab9497e50a6a9ce24106168000000000000000000000000000000000000000000000000000000000000000400000000000000000000000008fec0da0adb7aab466cfa9a463c87682ac7992ca000000000000000000000000c5c5a0220c1abfcfa26eec68e55d9b689193d6b20000000000000000000000000000000000000000000000000000000000000040000000000000000000000000fad83621dd9f7564ab9497e50a6a9ce241061680000000000000000000000000c5c5a0220c1abfcfa26eec68e55d9b689193d6b2",
        "1750781097"
      ],
      "transaction": {
        "from": "0xc5c5a0220c1abfcfa26eec68e55d9b689193d6b2",
        "to": "0x7c5f5a4bbd8fd63184577525326123b519429bdc",
        "gas": "0x5ed89",
        "value": "0x0",
        "input": "0xdd46508f000000000000000000000000000000000000000000000000000000000000004000000000000000000000000000000000000000000000000000000000685acca90000000000000000000000000000000000000000000000000000000000000400000000000000000000000000000000000000000000000000000000000000004000000000000000000000000000000000000000000000000000000000000000800000000000000000000000000000000000000000000000000000000000000004020d14140000000000000000000000000000000000000000000000000000000000000000000000000000000000000000000000000000000000000000000000040000000000000000000000000000000000000000000000000000000000000080000000000000000000000000000000000000000000000000000000000000024000000000000000000000000000000000000000000000000000000000000002a0000000000000000000000000000000000000000000000000000000000000030000000000000000000000000000000000000000000000000000000000000001a00000000000000000000000008fec0da0adb7aab466cfa9a463c87682ac7992ca000000000000000000000000fad83621dd9f7564ab9497e50a6a9ce241061680000000000000000000000000000000000000000000000000000000000000271000000000000000000000000000000000000000000000000000000000000000c8000000000000000000000000d6adebcddec37e43ab390b67f5d6ccc278f1c500ffffffffffffffffffffffffffffffffffffffffffffffffffffffffffff8ad000000000000000000000000000000000000000000000000000000000000075300000000000000000000000000000000000000000000000000000000003d616f80000000000000000000000000000000000000000000000000000000003473bc0000000000000000000000000000000000000000000000002fb474098f67c0000000000000000000000000000c5c5a0220c1abfcfa26eec68e55d9b689193d6b20000000000000000000000000000000000000000000000000000000000000180000000000000000000000000000000000000000000000000000000000000000000000000000000000000000000000000000000000000000000000000000000400000000000000000000000008fec0da0adb7aab466cfa9a463c87682ac7992ca000000000000000000000000fad83621dd9f7564ab9497e50a6a9ce24106168000000000000000000000000000000000000000000000000000000000000000400000000000000000000000008fec0da0adb7aab466cfa9a463c87682ac7992ca000000000000000000000000c5c5a0220c1abfcfa26eec68e55d9b689193d6b20000000000000000000000000000000000000000000000000000000000000040000000000000000000000000fad83621dd9f7564ab9497e50a6a9ce241061680000000000000000000000000c5c5a0220c1abfcfa26eec68e55d9b689193d6b2",
        "nonce": "0x3a",
        "chainId": "0x2105"
      },
      "additionalContracts": [],
      "isFixedGasLimit": false
    }
  ],
  "receipts": [
    {
      "status": "0x1",
      "cumulativeGasUsed": "0x33a4e8b",
      "logs": [
        {
          "address": "0x8fec0da0adb7aab466cfa9a463c87682ac7992ca",
          "topics": [
            "0x8c5be1e5ebec7d5bd14f71427d1e84f3dd0314c0f7b2291e5b200ac8c7c3b925",
            "0x000000000000000000000000c5c5a0220c1abfcfa26eec68e55d9b689193d6b2",
            "0x000000000000000000000000000000000022d473030f116ddee9f6b43ac78ba3"
          ],
          "data": "0xffffffffffffffffffffffffffffffffffffffffffffffffffffffffffffffff",
          "blockHash": "0x04c5128163518628387a8360bf2d6634151d9ba7f36546892f8ae4f636015ff0",
          "blockNumber": "0x1e83753",
          "transactionHash": "0xb55ebe1d2e478370836a78bd47cd3e252f4b93c27141cd1e2dacd457e59521ed",
          "transactionIndex": "0xef",
          "logIndex": "0x29a",
          "removed": false
        }
      ],
      "logsBloom": "0x00000000000000000000000000000000000000000000000000000000000000000000000000001000000000000000000000000000800000000000008000200000000000004000000000004000000000000000000000000800000000000000000000000000000000000000000000000000000000000000000000000000000000000004000000000400000000000000000000000000000000000000000000000000020000000000000000000000000000000000000000000000000000000000000000000000000000000000000800000000000000000000000000000000000000000010000000000000000000000000000000000000000000000000000000000000",
      "type": "0x2",
      "transactionHash": "0xb55ebe1d2e478370836a78bd47cd3e252f4b93c27141cd1e2dacd457e59521ed",
      "transactionIndex": "0xef",
      "blockHash": "0x04c5128163518628387a8360bf2d6634151d9ba7f36546892f8ae4f636015ff0",
      "blockNumber": "0x1e83753",
      "gasUsed": "0xb466",
      "effectiveGasPrice": "0xcbb617",
      "from": "0xc5c5a0220c1abfcfa26eec68e55d9b689193d6b2",
      "to": "0x8fec0da0adb7aab466cfa9a463c87682ac7992ca",
      "contractAddress": null,
      "l1BaseFeeScalar": "0x8dd",
      "l1BlobBaseFee": "0x1",
      "l1BlobBaseFeeScalar": "0x101c12",
      "l1Fee": "0x795776dd3",
      "l1GasPrice": "0x216c7c3c4",
      "l1GasUsed": "0x640"
    },
    {
      "status": "0x1",
      "cumulativeGasUsed": "0x25e9dd6",
      "logs": [
        {
          "address": "0x000000000022d473030f116ddee9f6b43ac78ba3",
          "topics": [
            "0xda9fa7c1b00402c17d0161b249b1ab8bbec047c5a52207b9c112deffd817036b",
            "0x000000000000000000000000c5c5a0220c1abfcfa26eec68e55d9b689193d6b2",
            "0x0000000000000000000000008fec0da0adb7aab466cfa9a463c87682ac7992ca",
            "0x0000000000000000000000007c5f5a4bbd8fd63184577525326123b519429bdc"
          ],
          "data": "0x000000000000000000000000ffffffffffffffffffffffffffffffffffffffff0000000000000000000000000000000000000000000000000000ffffffffffff",
          "blockHash": "0xa0ab046f17f1e98ce0f6c840736eb129746b6ce683c7b13b3e5564d12c5444d0",
          "blockNumber": "0x1e83755",
          "transactionHash": "0x83e68b7f5c4050f3f70e7e7bf0387352cb9f944d468db875db0def55f05b65d6",
          "transactionIndex": "0xba",
          "logIndex": "0x37d",
          "removed": false
        }
      ],
      "logsBloom": "0x00010000000000000000000000000000000000000000000000000000000000000000000000001000000000000000000000000000000000000000008000082000000000004000000000000000000000000000000000000000000000000000000000000000000000000000000002000000000000000000000000000000000000000020000000000000000000000000000000000000000000000000000000000000000000000000000000400000000000000000000000000000000000080000000200000000000000000000000000000000000000000000000040000000000000000000000000000000000000000000000000000004002000000000000000000400",
      "type": "0x2",
      "transactionHash": "0x83e68b7f5c4050f3f70e7e7bf0387352cb9f944d468db875db0def55f05b65d6",
      "transactionIndex": "0xba",
      "blockHash": "0xa0ab046f17f1e98ce0f6c840736eb129746b6ce683c7b13b3e5564d12c5444d0",
      "blockNumber": "0x1e83755",
      "gasUsed": "0xbaca",
      "effectiveGasPrice": "0xcd78ed",
      "from": "0xc5c5a0220c1abfcfa26eec68e55d9b689193d6b2",
      "to": "0x000000000022d473030f116ddee9f6b43ac78ba3",
      "contractAddress": null,
      "l1BaseFeeScalar": "0x8dd",
      "l1BlobBaseFee": "0x1",
      "l1BlobBaseFeeScalar": "0x101c12",
      "l1Fee": "0x86a29c680",
      "l1GasPrice": "0x2110129c6",
      "l1GasUsed": "0x702"
    },
    {
      "status": "0x1",
      "cumulativeGasUsed": "0x238dacc",
      "logs": [
        {
          "address": "0xfad83621dd9f7564ab9497e50a6a9ce241061680",
          "topics": [
            "0x8c5be1e5ebec7d5bd14f71427d1e84f3dd0314c0f7b2291e5b200ac8c7c3b925",
            "0x000000000000000000000000c5c5a0220c1abfcfa26eec68e55d9b689193d6b2",
            "0x000000000000000000000000000000000022d473030f116ddee9f6b43ac78ba3"
          ],
          "data": "0xffffffffffffffffffffffffffffffffffffffffffffffffffffffffffffffff",
          "blockHash": "0x64ef5e97153a5dd45dcf0eee34438daea57351a2db92f05a4a24cb300d969285",
          "blockNumber": "0x1e83757",
          "transactionHash": "0x5f43ef74358f1467717b1dc1c84509eaf46fb53441fa2731ef61af9e1dd0351b",
          "transactionIndex": "0x9a",
          "logIndex": "0x163",
          "removed": false
        }
      ],
      "logsBloom": "0x00000000000000000000000000000000000000000000000000000000000000000000000000001000000000000000000000000000800000000000008000200000000000004000000000004000000004000000000000000800000000000000000000000000000000000000000000000000000000000000000000000000000000000000000000000000000000000000000000000000000000000000000000000000020000000000000000200000000000000000000000000000000000000000000000000000000000000000000000000000000000000000000000000000000000000010000000000000000000000000000080000000000000000000000000000000",
      "type": "0x2",
      "transactionHash": "0x5f43ef74358f1467717b1dc1c84509eaf46fb53441fa2731ef61af9e1dd0351b",
      "transactionIndex": "0x9a",
      "blockHash": "0x64ef5e97153a5dd45dcf0eee34438daea57351a2db92f05a4a24cb300d969285",
      "blockNumber": "0x1e83757",
      "gasUsed": "0xb466",
      "effectiveGasPrice": "0xcd8da8",
      "from": "0xc5c5a0220c1abfcfa26eec68e55d9b689193d6b2",
      "to": "0xfad83621dd9f7564ab9497e50a6a9ce241061680",
      "contractAddress": null,
      "l1BaseFeeScalar": "0x8dd",
      "l1BlobBaseFee": "0x1",
      "l1BlobBaseFeeScalar": "0x101c12",
      "l1Fee": "0x7807f8396",
      "l1GasPrice": "0x2110129c6",
      "l1GasUsed": "0x640"
    },
    {
      "status": "0x1",
      "cumulativeGasUsed": "0x24b631c",
      "logs": [
        {
          "address": "0x000000000022d473030f116ddee9f6b43ac78ba3",
          "topics": [
            "0xda9fa7c1b00402c17d0161b249b1ab8bbec047c5a52207b9c112deffd817036b",
            "0x000000000000000000000000c5c5a0220c1abfcfa26eec68e55d9b689193d6b2",
            "0x000000000000000000000000fad83621dd9f7564ab9497e50a6a9ce241061680",
            "0x0000000000000000000000007c5f5a4bbd8fd63184577525326123b519429bdc"
          ],
          "data": "0x000000000000000000000000ffffffffffffffffffffffffffffffffffffffff0000000000000000000000000000000000000000000000000000ffffffffffff",
          "blockHash": "0x606c5b7fe33a8c021988d47ea7f6a5247a8be728f332135a462952ecb3e07fcd",
          "blockNumber": "0x1e83758",
          "transactionHash": "0x241988736b59c9dae35597357f51c067c90e1c3df0a1e31f586d5d539b1bfab3",
          "transactionIndex": "0x8b",
          "logIndex": "0x10c",
          "removed": false
        }
      ],
      "logsBloom": "0x00010000000000000000000000000000000000000000000000000000000000010000000000001000000000000000000000000000000000000000008000082000000000004000000000000000000000000000000000000000000000000000000000000000000000000000000000000000000000000000000000000000000000000020000000000000000008000000000100000000000000000000000000000000000000000000000000000000000000000000000000000000000000080000000200000000000000000000000000000000000000000000000040000000000000000000000000000000000000000000000000000000002000000000000000000400",
      "type": "0x2",
      "transactionHash": "0x241988736b59c9dae35597357f51c067c90e1c3df0a1e31f586d5d539b1bfab3",
      "transactionIndex": "0x8b",
      "blockHash": "0x606c5b7fe33a8c021988d47ea7f6a5247a8be728f332135a462952ecb3e07fcd",
      "blockNumber": "0x1e83758",
      "gasUsed": "0xbaca",
      "effectiveGasPrice": "0xcd1c8b",
      "from": "0xc5c5a0220c1abfcfa26eec68e55d9b689193d6b2",
      "to": "0x000000000022d473030f116ddee9f6b43ac78ba3",
      "contractAddress": null,
      "l1BaseFeeScalar": "0x8dd",
      "l1BlobBaseFee": "0x1",
      "l1BlobBaseFeeScalar": "0x101c12",
      "l1Fee": "0x86a29c680",
      "l1GasPrice": "0x2110129c6",
      "l1GasUsed": "0x702"
    },
    {
      "status": "0x1",
      "cumulativeGasUsed": "0x360a705",
      "logs": [
        {
          "address": "0x7c5f5a4bbd8fd63184577525326123b519429bdc",
          "topics": [
            "0xddf252ad1be2c89b69c2b068fc378daa952ba7f163c4a11628f55a4df523b3ef",
            "0x0000000000000000000000000000000000000000000000000000000000000000",
            "0x000000000000000000000000c5c5a0220c1abfcfa26eec68e55d9b689193d6b2",
            "0x0000000000000000000000000000000000000000000000000000000000012411"
          ],
          "data": "0x",
          "blockHash": "0x866e29c6a1a1fd4f4486d08423a61481449ebfb8a09712aa2db7631e42b5aca2",
          "blockNumber": "0x1e83759",
          "transactionHash": "0x70efdb234cff2203d391d7a559407e32eab3b282d50ce2deb5d989c162063860",
          "transactionIndex": "0xc7",
          "logIndex": "0x452",
          "removed": false
        },
        {
          "address": "0x498581ff718922c3f8e6a244956af099b2652b2b",
          "topics": [
            "0xf208f4912782fd25c7f114ca3723a2d5dd6f3bcc3ac8db5af63baa85f711d5ec",
            "0x7e68ecff5c97e1731d9bcc6bb25603fed97bdcde75707a56eeb94475c1605648",
            "0x0000000000000000000000007c5f5a4bbd8fd63184577525326123b519429bdc"
          ],
          "data": "0xffffffffffffffffffffffffffffffffffffffffffffffffffffffffffff8ad000000000000000000000000000000000000000000000000000000000000075300000000000000000000000000000000000000000000000000000000003d616f80000000000000000000000000000000000000000000000000000000000012411",
          "blockHash": "0x866e29c6a1a1fd4f4486d08423a61481449ebfb8a09712aa2db7631e42b5aca2",
          "blockNumber": "0x1e83759",
          "transactionHash": "0x70efdb234cff2203d391d7a559407e32eab3b282d50ce2deb5d989c162063860",
          "transactionIndex": "0xc7",
          "logIndex": "0x453",
          "removed": false
        },
        {
          "address": "0x8fec0da0adb7aab466cfa9a463c87682ac7992ca",
          "topics": [
            "0xddf252ad1be2c89b69c2b068fc378daa952ba7f163c4a11628f55a4df523b3ef",
            "0x000000000000000000000000c5c5a0220c1abfcfa26eec68e55d9b689193d6b2",
            "0x000000000000000000000000498581ff718922c3f8e6a244956af099b2652b2b"
          ],
          "data": "0x0000000000000000000000000000000000000000000000000000000002faf080",
          "blockHash": "0x866e29c6a1a1fd4f4486d08423a61481449ebfb8a09712aa2db7631e42b5aca2",
          "blockNumber": "0x1e83759",
          "transactionHash": "0x70efdb234cff2203d391d7a559407e32eab3b282d50ce2deb5d989c162063860",
          "transactionIndex": "0xc7",
          "logIndex": "0x454",
          "removed": false
        },
        {
          "address": "0xfad83621dd9f7564ab9497e50a6a9ce241061680",
          "topics": [
            "0xddf252ad1be2c89b69c2b068fc378daa952ba7f163c4a11628f55a4df523b3ef",
            "0x000000000000000000000000c5c5a0220c1abfcfa26eec68e55d9b689193d6b2",
            "0x000000000000000000000000498581ff718922c3f8e6a244956af099b2652b2b"
          ],
          "data": "0x0000000000000000000000000000000000000000000000000000000002faf080",
          "blockHash": "0x866e29c6a1a1fd4f4486d08423a61481449ebfb8a09712aa2db7631e42b5aca2",
          "blockNumber": "0x1e83759",
          "transactionHash": "0x70efdb234cff2203d391d7a559407e32eab3b282d50ce2deb5d989c162063860",
          "transactionIndex": "0xc7",
          "logIndex": "0x455",
          "removed": false
        }
      ],
      "logsBloom": "0x00000010000000000000000000000800000000000000000000000000000000000020000000001000000000000000000000000100000000000000008000002000000000004000000000000008000004000000000000000000000000000020000000000000020000000000000000000800040000000000000000000010000000000004000001004400000000000000000000000000000000000000000400000000004014000000000008200000000040000000000000000000000000000000000200000002000001000000000800000000000800000000000000000000000020000000000000000000000000000000000084000400002000000000000000000000",
      "type": "0x2",
      "transactionHash": "0x70efdb234cff2203d391d7a559407e32eab3b282d50ce2deb5d989c162063860",
      "transactionIndex": "0xc7",
      "blockHash": "0x866e29c6a1a1fd4f4486d08423a61481449ebfb8a09712aa2db7631e42b5aca2",
      "blockNumber": "0x1e83759",
      "gasUsed": "0x40da2",
      "effectiveGasPrice": "0xcd271a",
      "from": "0xc5c5a0220c1abfcfa26eec68e55d9b689193d6b2",
      "to": "0x7c5f5a4bbd8fd63184577525326123b519429bdc",
      "contractAddress": null,
      "l1BaseFeeScalar": "0x8dd",
      "l1BlobBaseFee": "0x1",
      "l1BlobBaseFeeScalar": "0x101c12",
      "l1Fee": "0x15b7efa4cf",
      "l1GasPrice": "0x2110129c6",
      "l1GasUsed": "0x1218"
    }
  ],
  "libraries": [],
  "pending": [],
  "returns": {},
  "timestamp": 1750780822,
  "chain": 8453,
  "commit": null
}