{
  "transactions": [
    {
      "hash": null,
      "transactionType": "CALL",
      "contractName": null,
      "contractAddress": "0x8fec0da0adb7aab466cfa9a463c87682ac7992ca",
      "function": "approve(address,uint256)",
      "arguments": [
        "0x000000000022D473030F116dDEE9F6B43aC78BA3",
        "115792089237316195423570985008687907853269984665640564039457584007913129639935"
      ],
      "transaction": {
        "from": "0xc5c5a0220c1abfcfa26eec68e55d9b689193d6b2",
        "to": "0x8fec0da0adb7aab466cfa9a463c87682ac7992ca",
        "gas": "0xf92c",
        "value": "0x0",
        "input": "0x095ea7b3000000000000000000000000000000000022d473030f116ddee9f6b43ac78ba3ffffffffffffffffffffffffffffffffffffffffffffffffffffffffffffffff",
        "nonce": "0x36",
        "chainId": "0x2105"
      },
      "additionalContracts": [],
      "isFixedGasLimit": false
    },
    {
      "hash": null,
      "transactionType": "CALL",
      "contractName": null,
      "contractAddress": "0x000000000022d473030f116ddee9f6b43ac78ba3",
      "function": "approve(address,address,uint160,uint48)",
      "arguments": [
        "0x8FeC0dA0Adb7Aab466cFa9a463c87682AC7992Ca",
        "0x7C5f5A4bBd8fD63184577525326123B519429bDc",
        "1461501637330902918203684832716283019655932542975",
        "281474976710655"
      ],
      "transaction": {
        "from": "0xc5c5a0220c1abfcfa26eec68e55d9b689193d6b2",
        "to": "0x000000000022d473030f116ddee9f6b43ac78ba3",
        "gas": "0x1112d",
        "value": "0x0",
        "input": "0x87517c450000000000000000000000008fec0da0adb7aab466cfa9a463c87682ac7992ca0000000000000000000000007c5f5a4bbd8fd63184577525326123b519429bdc000000000000000000000000ffffffffffffffffffffffffffffffffffffffff0000000000000000000000000000000000000000000000000000ffffffffffff",
        "nonce": "0x37",
        "chainId": "0x2105"
      },
      "additionalContracts": [],
      "isFixedGasLimit": false
    },
    {
      "hash": null,
      "transactionType": "CALL",
      "contractName": null,
      "contractAddress": "0xfad83621dd9f7564ab9497e50a6a9ce241061680",
      "function": "approve(address,uint256)",
      "arguments": [
        "0x000000000022D473030F116dDEE9F6B43aC78BA3",
        "115792089237316195423570985008687907853269984665640564039457584007913129639935"
      ],
      "transaction": {
        "from": "0xc5c5a0220c1abfcfa26eec68e55d9b689193d6b2",
        "to": "0xfad83621dd9f7564ab9497e50a6a9ce241061680",
        "gas": "0xf92c",
        "value": "0x0",
        "input": "0x095ea7b3000000000000000000000000000000000022d473030f116ddee9f6b43ac78ba3ffffffffffffffffffffffffffffffffffffffffffffffffffffffffffffffff",
        "nonce": "0x38",
        "chainId": "0x2105"
      },
      "additionalContracts": [],
      "isFixedGasLimit": false
    },
    {
      "hash": null,
      "transactionType": "CALL",
      "contractName": null,
      "contractAddress": "0x000000000022d473030f116ddee9f6b43ac78ba3",
      "function": "approve(address,address,uint160,uint48)",
      "arguments": [
        "0xFAd83621dd9f7564Ab9497E50A6A9ce241061680",
        "0x7C5f5A4bBd8fD63184577525326123B519429bDc",
        "1461501637330902918203684832716283019655932542975",
        "281474976710655"
      ],
      "transaction": {
        "from": "0xc5c5a0220c1abfcfa26eec68e55d9b689193d6b2",
        "to": "0x000000000022d473030f116ddee9f6b43ac78ba3",
        "gas": "0x1112d",
        "value": "0x0",
        "input": "0x87517c45000000000000000000000000fad83621dd9f7564ab9497e50a6a9ce2410616800000000000000000000000007c5f5a4bbd8fd63184577525326123b519429bdc000000000000000000000000ffffffffffffffffffffffffffffffffffffffff0000000000000000000000000000000000000000000000000000ffffffffffff",
        "nonce": "0x39",
        "chainId": "0x2105"
      },
      "additionalContracts": [],
      "isFixedGasLimit": false
    },
    {
      "hash": null,
      "transactionType": "CALL",
      "contractName": null,
      "contractAddress": "0x7c5f5a4bbd8fd63184577525326123b519429bdc",
      "function": "modifyLiquidities(bytes,uint256)",
      "arguments": [
        "0x000000000000000000000000000000000000000000000000000000000000004000000000000000000000000000000000000000000000000000000000000000800000000000000000000000000000000000000000000000000000000000000004020d14140000000000000000000000000000000000000000000000000000000000000000000000000000000000000000000000000000000000000000000000040000000000000000000000000000000000000000000000000000000000000080000000000000000000000000000000000000000000000000000000000000024000000000000000000000000000000000000000000000000000000000000002a0000000000000000000000000000000000000000000000000000000000000030000000000000000000000000000000000000000000000000000000000000001a00000000000000000000000008fec0da0adb7aab466cfa9a463c87682ac7992ca000000000000000000000000fad83621dd9f7564ab9497e50a6a9ce241061680000000000000000000000000000000000000000000000000000000000000271000000000000000000000000000000000000000000000000000000000000000c8000000000000000000000000d6adebcddec37e43ab390b67f5d6ccc278f1c500ffffffffffffffffffffffffffffffffffffffffffffffffffffffffffff8ad000000000000000000000000000000000000000000000000000000000000075300000000000000000000000000000000000000000000000000000000003d616f80000000000000000000000000000000000000000000000000000000003473bc0000000000000000000000000000000000000000000000002fb474098f67c0000000000000000000000000000c5c5a0220c1abfcfa26eec68e55d9b689193d6b20000000000000000000000000000000000000000000000000000000000000180000000000000000000000000000000000000000000000000000000000000000000000000000000000000000000000000000000000000000000000000000000400000000000000000000000008fec0da0adb7aab466cfa9a463c87682ac7992ca000000000000000000000000fad83621dd9f7564ab9497e50a6a9ce24106168000000000000000000000000000000000000000000000000000000000000000400000000000000000000000008fec0da0adb7aab466cfa9a463c87682ac7992ca000000000000000000000000c5c5a0220c1abfcfa26eec68e55d9b689193d6b20000000000000000000000000000000000000000000000000000000000000040000000000000000000000000fad83621dd9f7564ab9497e50a6a9ce241061680000000000000000000000000c5c5a0220c1abfcfa26eec68e55d9b689193d6b2",
        "1750780679"
      ],
      "transaction": {
        "from": "0xc5c5a0220c1abfcfa26eec68e55d9b689193d6b2",
        "to": "0x7c5f5a4bbd8fd63184577525326123b519429bdc",
        "gas": "0x5ed89",
        "value": "0x0",
        "input": "0xdd46508f000000000000000000000000000000000000000000000000000000000000004000000000000000000000000000000000000000000000000000000000685acb070000000000000000000000000000000000000000000000000000000000000400000000000000000000000000000000000000000000000000000000000000004000000000000000000000000000000000000000000000000000000000000000800000000000000000000000000000000000000000000000000000000000000004020d14140000000000000000000000000000000000000000000000000000000000000000000000000000000000000000000000000000000000000000000000040000000000000000000000000000000000000000000000000000000000000080000000000000000000000000000000000000000000000000000000000000024000000000000000000000000000000000000000000000000000000000000002a0000000000000000000000000000000000000000000000000000000000000030000000000000000000000000000000000000000000000000000000000000001a00000000000000000000000008fec0da0adb7aab466cfa9a463c87682ac7992ca000000000000000000000000fad83621dd9f7564ab9497e50a6a9ce241061680000000000000000000000000000000000000000000000000000000000000271000000000000000000000000000000000000000000000000000000000000000c8000000000000000000000000d6adebcddec37e43ab390b67f5d6ccc278f1c500ffffffffffffffffffffffffffffffffffffffffffffffffffffffffffff8ad000000000000000000000000000000000000000000000000000000000000075300000000000000000000000000000000000000000000000000000000003d616f80000000000000000000000000000000000000000000000000000000003473bc0000000000000000000000000000000000000000000000002fb474098f67c0000000000000000000000000000c5c5a0220c1abfcfa26eec68e55d9b689193d6b20000000000000000000000000000000000000000000000000000000000000180000000000000000000000000000000000000000000000000000000000000000000000000000000000000000000000000000000000000000000000000000000400000000000000000000000008fec0da0adb7aab466cfa9a463c87682ac7992ca000000000000000000000000fad83621dd9f7564ab9497e50a6a9ce24106168000000000000000000000000000000000000000000000000000000000000000400000000000000000000000008fec0da0adb7aab466cfa9a463c87682ac7992ca000000000000000000000000c5c5a0220c1abfcfa26eec68e55d9b689193d6b20000000000000000000000000000000000000000000000000000000000000040000000000000000000000000fad83621dd9f7564ab9497e50a6a9ce241061680000000000000000000000000c5c5a0220c1abfcfa26eec68e55d9b689193d6b2",
        "nonce": "0x3a",
        "chainId": "0x2105"
      },
      "additionalContracts": [],
      "isFixedGasLimit": false
    }
  ],
  "receipts": [],
  "libraries": [],
  "pending": [],
  "returns": {},
  "timestamp": 1750780388,
  "chain": 8453,
  "commit": null
}