{
  "transactions": [
    {
      "hash": "0xa8394a8d281b55679af9417b002276ea598efa0a2f2558100a7632e6a4bb8b4c",
      "transactionType": "CALL",
      "contractName": null,
      "contractAddress": "0xa1375888dc41f791d4d52ffe536809ac2c1c9116",
      "function": "grantRole(bytes32,address)",
      "arguments": [
        "0x6c7da319c9435c5de434cd96129af937695e037ff325442da45308f61d803698",
        "0x251369069A9c93A7615338c9a7127B9693428500"
      ],
      "transaction": {
        "from": "0x2f2b1a3648c58cf224aa69a4b0bdc942f000045f",
        "to": "0xa1375888dc41f791d4d52ffe536809ac2c1c9116",
        "gas": "0x113e1",
        "value": "0x0",
        "input": "0x2f2ff15d6c7da319c9435c5de434cd96129af937695e037ff325442da45308f61d803698000000000000000000000000251369069a9c93a7615338c9a7127b9693428500",
        "nonce": "0x2b3",
        "chainId": "0x2105"
      },
      "additionalContracts": [],
      "isFixedGasLimit": false
    }
  ],
  "receipts": [
    {
      "status": "0x1",
      "cumulativeGasUsed": "0x1b0aa6d",
      "logs": [
        {
          "address": "0xa1375888dc41f791d4d52ffe536809ac2c1c9116",
          "topics": [
            "0x2f8788117e7eff1d82e926ec794901d17c78024a50270940304540a733656f0d",
            "0x6c7da319c9435c5de434cd96129af937695e037ff325442da45308f61d803698",
            "0x000000000000000000000000251369069a9c93a7615338c9a7127b9693428500",
            "0x0000000000000000000000002f2b1a3648c58cf224aa69a4b0bdc942f000045f"
          ],
          "data": "0x",
          "blockHash": "0xc89e8e3bf1d3252d2b8bf397ecf068fc2611e7976cf79efc952b2ba9716c6a41",
          "blockNumber": "0x1e81942",
          "transactionHash": "0xa8394a8d281b55679af9417b002276ea598efa0a2f2558100a7632e6a4bb8b4c",
          "transactionIndex": "0x8b",
          "logIndex": "0x16a",
          "removed": false
        }
      ],
      "logsBloom": "0x00000004000000000000000000000000080000000000000000000000000000000000000000000800000000000000000000000000000000000000100004000000000000000000000000000000000000000000000010400000000000000000000000000000000000000000000000400000000000000000000000000000000000000000000000000000000000000000000000000000000000000000000000000000000000000000000000000000000000000800000000000000001000000000000000000000000000000000000400000000000008800000000100000000000000000000000000080000000000000000000000000000000000000000000000000000",
      "type": "0x2",
      "transactionHash": "0xa8394a8d281b55679af9417b002276ea598efa0a2f2558100a7632e6a4bb8b4c",
      "transactionIndex": "0x8b",
      "blockHash": "0xc89e8e3bf1d3252d2b8bf397ecf068fc2611e7976cf79efc952b2ba9716c6a41",
      "blockNumber": "0x1e81942",
      "gasUsed": "0xc7bc",
      "effectiveGasPrice": "0x150979",
      "from": "0x2f2b1a3648c58cf224aa69a4b0bdc942f000045f",
      "to": "0xa1375888dc41f791d4d52ffe536809ac2c1c9116",
      "contractAddress": null,
      "l1BaseFeeScalar": "0x8dd",
      "l1BlobBaseFee": "0x1",
      "l1BlobBaseFeeScalar": "0x101c12",
      "l1Fee": "0x172dc839b",
      "l1GasPrice": "0x6016fd24",
      "l1GasUsed": "0x6a4"
    }
  ],
  "libraries": [],
  "pending": [],
  "returns": {},
  "timestamp": 1750765417,
  "chain": 8453,
  "commit": null
}