{
  "transactions": [
    {
      "hash": "0x2d69b55342b38e18879d470a4c57ce4cd5c3ecf24c32a1381234513892a24248",
      "transactionType": "CALL",
      "contractName": null,
      "contractAddress": "0x205c50e7888fdb01e289b32dcb00152e41706fb5",
      "function": "mintReferral(address,string,string,string)",
      "arguments": [
        "0x2F2B1a3648C58CF224aA69A4B0BdC942F000045F",
        "OYDUAL_KOL_001",
        "@OyDual_KOL_Test",
        ""
      ],
      "transaction": {
        "from": "0x2f2b1a3648c58cf224aa69a4b0bdc942f000045f",
        "to": "0x205c50e7888fdb01e289b32dcb00152e41706fb5",
        "gas": "0x7aabb",
        "value": "0x0",
        "input": "0xc83ff0d50000000000000000000000002f2b1a3648c58cf224aa69a4b0bdc942f000045f000000000000000000000000000000000000000000000000000000000000008000000000000000000000000000000000000000000000000000000000000000c00000000000000000000000000000000000000000000000000000000000000100000000000000000000000000000000000000000000000000000000000000000e4f594455414c5f4b4f4c5f3030310000000000000000000000000000000000000000000000000000000000000000000000000000000000000000000000000010404f794475616c5f4b4f4c5f54657374000000000000000000000000000000000000000000000000000000000000000000000000000000000000000000000000",
        "nonce": "0x296",
        "chainId": "0x2105"
      },
      "additionalContracts": [],
      "isFixedGasLimit": false
    }
  ],
  "receipts": [],
  "libraries": [],
  "pending": [
    "0x2d69b55342b38e18879d470a4c57ce4cd5c3ecf24c32a1381234513892a24248"
  ],
  "returns": {},
  "timestamp": 1750741088,
  "chain": 8453,
  "commit": null
}