{
  "transactions": [
    {
      "hash": "0xb1a6da61554adc10b976b37342169d1d92bb876a34e338dd799df82507b0e1c1",
      "transactionType": "CALL",
      "contractName": null,
      "contractAddress": "0xacd17cefe9f105aaa839d802cad0b9bee1f80f71",
      "function": "grantRole(bytes32,address)",
      "arguments": [
        "0x73e573f9566d61418a34d5de3ff49360f9c51fec37f7486551670290f6285dab",
        "0x32E3A98a7321a4054985fA8005945dE9a92B4500"
      ],
      "transaction": {
        "from": "0x2f2b1a3648c58cf224aa69a4b0bdc942f000045f",
        "to": "0xacd17cefe9f105aaa839d802cad0b9bee1f80f71",
        "gas": "0x9d07",
        "value": "0x0",
        "input": "0x2f2ff15d73e573f9566d61418a34d5de3ff49360f9c51fec37f7486551670290f6285dab00000000000000000000000032e3a98a7321a4054985fa8005945de9a92b4500",
        "nonce": "0x2d1",
        "chainId": "0x2105"
      },
      "additionalContracts": [],
      "isFixedGasLimit": false
    },
    {
      "hash": "0xf61be8ab2fd26dbe57522cf96ac8536e394d98d1443e9b39c2266f8fa2b8ba9a",
      "transactionType": "CALL",
      "contractName": null,
      "contractAddress": "0x4839d26aee01ffcc3bb432cbc8024a9a388873ba",
      "function": "grantRole(bytes32,address)",
      "arguments": [
        "0x6c7da319c9435c5de434cd96129af937695e037ff325442da45308f61d803698",
        "0x32E3A98a7321a4054985fA8005945dE9a92B4500"
      ],
      "transaction": {
        "from": "0x2f2b1a3648c58cf224aa69a4b0bdc942f000045f",
        "to": "0x4839d26aee01ffcc3bb432cbc8024a9a388873ba",
        "gas": "0x113e1",
        "value": "0x0",
        "input": "0x2f2ff15d6c7da319c9435c5de434cd96129af937695e037ff325442da45308f61d80369800000000000000000000000032e3a98a7321a4054985fa8005945de9a92b4500",
        "nonce": "0x2d2",
        "chainId": "0x2105"
      },
      "additionalContracts": [],
      "isFixedGasLimit": false
    }
  ],
  "receipts": [
    {
      "status": "0x1",
      "cumulativeGasUsed": "0x2496262",
      "logs": [],
      "logsBloom": "0x00000000000000000000000000000000000000000000000000000000000000000000000000000000000000000000000000000000000000000000000000000000000000000000000000000000000000000000000000000000000000000000000000000000000000000000000000000000000000000000000000000000000000000000000000000000000000000000000000000000000000000000000000000000000000000000000000000000000000000000000000000000000000000000000000000000000000000000000000000000000000000000000000000000000000000000000000000000000000000000000000000000000000000000000000000000",
      "type": "0x2",
      "transactionHash": "0xb1a6da61554adc10b976b37342169d1d92bb876a34e338dd799df82507b0e1c1",
      "transactionIndex": "0x91",
      "blockHash": "0x3ec96473197817ab7bd0d72a0269df00e7b6baf341c1ccddc05b7776f53dac0e",
      "blockNumber": "0x1e85020",
      "gasUsed": "0x71b0",
      "effectiveGasPrice": "0xa62ab",
      "from": "0x2f2b1a3648c58cf224aa69a4b0bdc942f000045f",
      "to": "0xacd17cefe9f105aaa839d802cad0b9bee1f80f71",
      "contractAddress": null,
      "l1BaseFeeScalar": "0x8dd",
      "l1BlobBaseFee": "0x1",
      "l1BlobBaseFeeScalar": "0x101c12",
      "l1Fee": "0x5bcdc9ab7",
      "l1GasPrice": "0x17c949f83",
      "l1GasUsed": "0x6a4"
    },
    {
      "status": "0x1",
      "cumulativeGasUsed": "0x26538b2",
      "logs": [
        {
          "address": "0x4839d26aee01ffcc3bb432cbc8024a9a388873ba",
          "topics": [
            "0x2f8788117e7eff1d82e926ec794901d17c78024a50270940304540a733656f0d",
            "0x6c7da319c9435c5de434cd96129af937695e037ff325442da45308f61d803698",
            "0x00000000000000000000000032e3a98a7321a4054985fa8005945de9a92b4500",
            "0x0000000000000000000000002f2b1a3648c58cf224aa69a4b0bdc942f000045f"
          ],
          "data": "0x",
          "blockHash": "0x86cc9a512af80ab3dea01387b9a95015d9ee15e9a88b2297e7b41c569ae7112f",
          "blockNumber": "0x1e85022",
          "transactionHash": "0xf61be8ab2fd26dbe57522cf96ac8536e394d98d1443e9b39c2266f8fa2b8ba9a",
          "transactionIndex": "0xe4",
          "logIndex": "0x3df",
          "removed": false
        }
      ],
      "logsBloom": "0x00000004000000000000000000000000080000000000000000000000000000000000001000000800000000000000000000000000000000040000100004000000000000000000000000000000000000000020000000000000000000000000000000000000000000000010000000000000000000000000000000000000000000000000000000000000000000000000000000000000000000000000000000000000000000000000000000000000000000000000000000000000001000000000000000000000000000000000000400000000000000800000000100080000000000000000000000000000000000000000200000000000000000000000000000000000",
      "type": "0x2",
      "transactionHash": "0xf61be8ab2fd26dbe57522cf96ac8536e394d98d1443e9b39c2266f8fa2b8ba9a",
      "transactionIndex": "0xe4",
      "blockHash": "0x86cc9a512af80ab3dea01387b9a95015d9ee15e9a88b2297e7b41c569ae7112f",
      "blockNumber": "0x1e85022",
      "gasUsed": "0xc7bc",
      "effectiveGasPrice": "0xa6154",
      "from": "0x2f2b1a3648c58cf224aa69a4b0bdc942f000045f",
      "to": "0x4839d26aee01ffcc3bb432cbc8024a9a388873ba",
      "contractAddress": null,
      "l1BaseFeeScalar": "0x8dd",
      "l1BlobBaseFee": "0x1",
      "l1BlobBaseFeeScalar": "0x101c12",
      "l1Fee": "0x5c86b587b",
      "l1GasPrice": "0x17c949f83",
      "l1GasUsed": "0x6b2"
    }
  ],
  "libraries": [],
  "pending": [],
  "returns": {},
  "timestamp": 1750793513,
  "chain": 8453,
  "commit": null
}