{
  "transactions": [
    {
      "hash": "0x090003303c9495d32ffc650b0ad33c46f5dd6f2be98fb237501108d0b2386be1",
      "transactionType": "CALL",
      "contractName": null,
      "contractAddress": "0xacd17cefe9f105aaa839d802cad0b9bee1f80f71",
      "function": "grantRole(bytes32,address)",
      "arguments": [
        "0x73e573f9566d61418a34d5de3ff49360f9c51fec37f7486551670290f6285dab",
        "0x52e053acd5d8Bf354d3C1eFFacE357F4F1410500"
      ],
      "transaction": {
        "from": "0x2f2b1a3648c58cf224aa69a4b0bdc942f000045f",
        "to": "0xacd17cefe9f105aaa839d802cad0b9bee1f80f71",
        "gas": "0x1147e",
        "value": "0x0",
        "input": "0x2f2ff15d73e573f9566d61418a34d5de3ff49360f9c51fec37f7486551670290f6285dab00000000000000000000000052e053acd5d8bf354d3c1efface357f4f1410500",
        "nonce": "0x2d8",
        "chainId": "0x2105"
      },
      "additionalContracts": [],
      "isFixedGasLimit": false
    },
    {
      "hash": "0xe93a3d08891635769a86317f86c34746a4c4c96005933f26223bceb59634cc3a",
      "transactionType": "CALL",
      "contractName": null,
      "contractAddress": "0x4839d26aee01ffcc3bb432cbc8024a9a388873ba",
      "function": "grantRole(bytes32,address)",
      "arguments": [
        "0x6c7da319c9435c5de434cd96129af937695e037ff325442da45308f61d803698",
        "0x52e053acd5d8Bf354d3C1eFFacE357F4F1410500"
      ],
      "transaction": {
        "from": "0x2f2b1a3648c58cf224aa69a4b0bdc942f000045f",
        "to": "0x4839d26aee01ffcc3bb432cbc8024a9a388873ba",
        "gas": "0x113e1",
        "value": "0x0",
        "input": "0x2f2ff15d6c7da319c9435c5de434cd96129af937695e037ff325442da45308f61d80369800000000000000000000000052e053acd5d8bf354d3c1efface357f4f1410500",
        "nonce": "0x2d9",
        "chainId": "0x2105"
      },
      "additionalContracts": [],
      "isFixedGasLimit": false
    }
  ],
  "receipts": [
    {
      "status": "0x1",
      "cumulativeGasUsed": "0x290967f",
      "logs": [
        {
          "address": "0xacd17cefe9f105aaa839d802cad0b9bee1f80f71",
          "topics": [
            "0x2f8788117e7eff1d82e926ec794901d17c78024a50270940304540a733656f0d",
            "0x73e573f9566d61418a34d5de3ff49360f9c51fec37f7486551670290f6285dab",
            "0x00000000000000000000000052e053acd5d8bf354d3c1efface357f4f1410500",
            "0x0000000000000000000000002f2b1a3648c58cf224aa69a4b0bdc942f000045f"
          ],
          "data": "0x",
          "blockHash": "0x5b41a4aaeac6d6bca5df2cc8bf429c6cab72bbbc3647ab3d3b1c732443a4b42c",
          "blockNumber": "0x1e8528d",
          "transactionHash": "0x090003303c9495d32ffc650b0ad33c46f5dd6f2be98fb237501108d0b2386be1",
          "transactionIndex": "0xb1",
          "logIndex": "0x2e7",
          "removed": false
        }
      ],
      "logsBloom": "0x00000004000000000000000000000000000000100000000000000000000000000000000000000800000000000000000000000000000000000000100004800000000000000000000000000000000000000000000000000000000000000000000000000000000000000000000000000000000000000000000000000000000000000000000008400000000000000000000000000000000000000000000000000000000000000000000000000000010000000000000400000000001000000000000000000000000000000000000000000000000000000000000100000000000000000000000000000000000000000000400000001000000000000000000400000000",
      "type": "0x2",
      "transactionHash": "0x090003303c9495d32ffc650b0ad33c46f5dd6f2be98fb237501108d0b2386be1",
      "transactionIndex": "0xb1",
      "blockHash": "0x5b41a4aaeac6d6bca5df2cc8bf429c6cab72bbbc3647ab3d3b1c732443a4b42c",
      "blockNumber": "0x1e8528d",
      "gasUsed": "0xc82e",
      "effectiveGasPrice": "0xda91b",
      "from": "0x2f2b1a3648c58cf224aa69a4b0bdc942f000045f",
      "to": "0xacd17cefe9f105aaa839d802cad0b9bee1f80f71",
      "contractAddress": null,
      "l1BaseFeeScalar": "0x8dd",
      "l1BlobBaseFee": "0x1",
      "l1BlobBaseFeeScalar": "0x101c12",
      "l1Fee": "0x60b7aaa9a",
      "l1GasPrice": "0x190f343d8",
      "l1GasUsed": "0x6a4"
    },
    {
      "status": "0x1",
      "cumulativeGasUsed": "0x23d54d5",
      "logs": [
        {
          "address": "0x4839d26aee01ffcc3bb432cbc8024a9a388873ba",
          "topics": [
            "0x2f8788117e7eff1d82e926ec794901d17c78024a50270940304540a733656f0d",
            "0x6c7da319c9435c5de434cd96129af937695e037ff325442da45308f61d803698",
            "0x00000000000000000000000052e053acd5d8bf354d3c1efface357f4f1410500",
            "0x0000000000000000000000002f2b1a3648c58cf224aa69a4b0bdc942f000045f"
          ],
          "data": "0x",
          "blockHash": "0x0a9a4943248f5d5cfc19550e57ab61146457f9a5c1392c4f39edf67c011b4d04",
          "blockNumber": "0x1e8528f",
          "transactionHash": "0xe93a3d08891635769a86317f86c34746a4c4c96005933f26223bceb59634cc3a",
          "transactionIndex": "0x9f",
          "logIndex": "0x3c9",
          "removed": false
        }
      ],
      "logsBloom": "0x00000004000000000000000000000000080000000000000000000000000000000000001000000800000000000000000000000000000000000000100004800000000000000000000000000000000000000020000000000000000000000000000000000000000000000000000000000000000000000000000000000000000000000000000000400000000000000000000000000000000000000000000000000000000000000000000000000000000000000000000000000000001000000000000000000000000000000000000400000000000000800000000100000000000000000000000000000000000000000000200000000000000000000000000400000000",
      "type": "0x2",
      "transactionHash": "0xe93a3d08891635769a86317f86c34746a4c4c96005933f26223bceb59634cc3a",
      "transactionIndex": "0x9f",
      "blockHash": "0x0a9a4943248f5d5cfc19550e57ab61146457f9a5c1392c4f39edf67c011b4d04",
      "blockNumber": "0x1e8528f",
      "gasUsed": "0xc7bc",
      "effectiveGasPrice": "0xdb331",
      "from": "0x2f2b1a3648c58cf224aa69a4b0bdc942f000045f",
      "to": "0x4839d26aee01ffcc3bb432cbc8024a9a388873ba",
      "contractAddress": null,
      "l1BaseFeeScalar": "0x8dd",
      "l1BlobBaseFee": "0x1",
      "l1BlobBaseFeeScalar": "0x101c12",
      "l1Fee": "0x60b7aaa9a",
      "l1GasPrice": "0x190f343d8",
      "l1GasUsed": "0x6a4"
    }
  ],
  "libraries": [],
  "pending": [],
  "returns": {},
  "timestamp": 1750794754,
  "chain": 8453,
  "commit": null
}