{
  "transactions": [
    {
      "hash": "0x5e475c60ab000e1ed205b96ef5f8a3cc0cf11e0096a56f4a92b86912003292d6",
      "transactionType": "CALL",
      "contractName": null,
      "contractAddress": "0x83e920aca26ad7c30c98cbbc6c72c87a1af17366",
      "function": "transfer(address,uint256)",
      "arguments": [
        "0xc5c5A0220c1AbFCfA26eEc68e55d9b689193d6b2",
        "1000000000000000000000"
      ],
      "transaction": {
        "from": "0x2f2b1a3648c58cf224aa69a4b0bdc942f000045f",
        "to": "0x83e920aca26ad7c30c98cbbc6c72c87a1af17366",
        "gas": "0x114cb",
        "value": "0x0",
        "input": "0xa9059cbb000000000000000000000000c5c5a0220c1abfcfa26eec68e55d9b689193d6b200000000000000000000000000000000000000000000003635c9adc5dea00000",
        "nonce": "0x2c8",
        "chainId": "0x2105"
      },
      "additionalContracts": [],
      "isFixedGasLimit": false
    },
    {
      "hash": "0x2ee1b3b3b1d0e367c4a277aaa03c78c4136c2c18cc4cc53dc7f13d098e0bb748",
      "transactionType": "CALL",
      "contractName": null,
      "contractAddress": "0xfad83621dd9f7564ab9497e50a6a9ce241061680",
      "function": "transfer(address,uint256)",
      "arguments": [
        "0xc5c5A0220c1AbFCfA26eEc68e55d9b689193d6b2",
        "1000000000000000000000"
      ],
      "transaction": {
        "from": "0x2f2b1a3648c58cf224aa69a4b0bdc942f000045f",
        "to": "0xfad83621dd9f7564ab9497e50a6a9ce241061680",
        "gas": "0xb8a5",
        "value": "0x0",
        "input": "0xa9059cbb000000000000000000000000c5c5a0220c1abfcfa26eec68e55d9b689193d6b200000000000000000000000000000000000000000000003635c9adc5dea00000",
        "nonce": "0x2c9",
        "chainId": "0x2105"
      },
      "additionalContracts": [],
      "isFixedGasLimit": false
    }
  ],
  "receipts": [
    {
      "status": "0x1",
      "cumulativeGasUsed": "0x236e674",
      "logs": [
        {
          "address": "0x83e920aca26ad7c30c98cbbc6c72c87a1af17366",
          "topics": [
            "0xddf252ad1be2c89b69c2b068fc378daa952ba7f163c4a11628f55a4df523b3ef",
            "0x0000000000000000000000002f2b1a3648c58cf224aa69a4b0bdc942f000045f",
            "0x000000000000000000000000c5c5a0220c1abfcfa26eec68e55d9b689193d6b2"
          ],
          "data": "0x00000000000000000000000000000000000000000000003635c9adc5dea00000",
          "blockHash": "0x890ea2ce970ef9881038f49e4b1ba009ab611939d6b1814b39069fc384bd7509",
          "blockNumber": "0x1e83a7f",
          "transactionHash": "0x5e475c60ab000e1ed205b96ef5f8a3cc0cf11e0096a56f4a92b86912003292d6",
          "transactionIndex": "0xb2",
          "logIndex": "0x1ba",
          "removed": false
        }
      ],
      "logsBloom": "0x00000000000000000000000000000000000000000000000000000000000000000000000000011800000000000000000000000000000000000000108004000000000000004000000000000008000000000000000000000000000001000000000000000000000000000000000000000000000000000000000000000010000000000000000000000000000000000000000000000000000000000000000000000000000000000000000000000000000000000000000000000000000200000000000000000002000000000000000000000000000000000000000000000000000000000000000000000000000000000000000000000000000000000000000000000000",
      "type": "0x2",
      "transactionHash": "0x5e475c60ab000e1ed205b96ef5f8a3cc0cf11e0096a56f4a92b86912003292d6",
      "transactionIndex": "0xb2",
      "blockHash": "0x890ea2ce970ef9881038f49e4b1ba009ab611939d6b1814b39069fc384bd7509",
      "blockNumber": "0x1e83a7f",
      "gasUsed": "0xc865",
      "effectiveGasPrice": "0xa2851e",
      "from": "0x2f2b1a3648c58cf224aa69a4b0bdc942f000045f",
      "to": "0x83e920aca26ad7c30c98cbbc6c72c87a1af17366",
      "contractAddress": null,
      "l1BaseFeeScalar": "0x8dd",
      "l1BlobBaseFee": "0x1",
      "l1BlobBaseFeeScalar": "0x101c12",
      "l1Fee": "0x37282d3e6",
      "l1GasPrice": "0xf316d5f4",
      "l1GasUsed": "0x640"
    },
    {
      "status": "0x1",
      "cumulativeGasUsed": "0x21903da",
      "logs": [
        {
          "address": "0xfad83621dd9f7564ab9497e50a6a9ce241061680",
          "topics": [
            "0xddf252ad1be2c89b69c2b068fc378daa952ba7f163c4a11628f55a4df523b3ef",
            "0x0000000000000000000000002f2b1a3648c58cf224aa69a4b0bdc942f000045f",
            "0x000000000000000000000000c5c5a0220c1abfcfa26eec68e55d9b689193d6b2"
          ],
          "data": "0x00000000000000000000000000000000000000000000003635c9adc5dea00000",
          "blockHash": "0x80d7ea9395d2a1af0deeedbc94c54d3a37ca36882d69e9c3d666070285d7cf47",
          "blockNumber": "0x1e83a81",
          "transactionHash": "0x2ee1b3b3b1d0e367c4a277aaa03c78c4136c2c18cc4cc53dc7f13d098e0bb748",
          "transactionIndex": "0xaa",
          "logIndex": "0x1ad",
          "removed": false
        }
      ],
      "logsBloom": "0x00000000000000000000000000000000000000000000000000000000000000000000000000001800000000000000000000000000000000000000108004000000000000004000000000000008000004000000000000000000000000000000000000000000000000000000000000000000000000000000000000000010000000000000000000000000000000000000000000000000000000000000000000000000000000000000000000200000000000000000000000000000000000000000000000000002000000000000000000000000000000000000000000000000000000000000000000000000000000000000000080000000000000000000000000000000",
      "type": "0x2",
      "transactionHash": "0x2ee1b3b3b1d0e367c4a277aaa03c78c4136c2c18cc4cc53dc7f13d098e0bb748",
      "transactionIndex": "0xaa",
      "blockHash": "0x80d7ea9395d2a1af0deeedbc94c54d3a37ca36882d69e9c3d666070285d7cf47",
      "blockNumber": "0x1e83a81",
      "gasUsed": "0x85af",
      "effectiveGasPrice": "0xa2c0bc",
      "from": "0x2f2b1a3648c58cf224aa69a4b0bdc942f000045f",
      "to": "0xfad83621dd9f7564ab9497e50a6a9ce241061680",
      "contractAddress": null,
      "l1BaseFeeScalar": "0x8dd",
      "l1BlobBaseFee": "0x1",
      "l1BlobBaseFeeScalar": "0x101c12",
      "l1Fee": "0x37282d3e6",
      "l1GasPrice": "0xf316d5f4",
      "l1GasUsed": "0x640"
    }
  ],
  "libraries": [],
  "pending": [],
  "returns": {},
  "timestamp": 1750782438,
  "chain": 8453,
  "commit": null
}