{
  "transactions": [
    {
      "hash": "0xa2a32f15f7c52a203167a57d5338280199cf06a17f03180d5288f21b3f1ba4ab",
      "transactionType": "CALL",
      "contractName": null,
      "contractAddress": "0x6f22c4b5ec7efaed0c315a2c7a34fdb25a78f6b1",
      "function": "approve(address,uint256)",
      "arguments": [
        "0x000000000022D473030F116dDEE9F6B43aC78BA3",
        "115792089237316195423570985008687907853269984665640564039457584007913129639935"
      ],
      "transaction": {
        "from": "0xc5c5a0220c1abfcfa26eec68e55d9b689193d6b2",
        "to": "0x6f22c4b5ec7efaed0c315a2c7a34fdb25a78f6b1",
        "value": "0x0",
        "input": "0x095ea7b3000000000000000000000000000000000022d473030f116ddee9f6b43ac78ba3ffffffffffffffffffffffffffffffffffffffffffffffffffffffffffffffff",
        "nonce": "0x47",
        "chainId": "0x2105"
      },
      "additionalContracts": [],
      "isFixedGasLimit": false
    },
    {
      "hash": "0xdffa04978a9da72de1676e7082665f39faf8ffe951dcb24b0cf11f5f5ee68fca",
      "transactionType": "CALL",
      "contractName": null,
      "contractAddress": "0xe13c9298c63912568ed74825625bc7731c64bc1e",
      "function": "approve(address,uint256)",
      "arguments": [
        "0x000000000022D473030F116dDEE9F6B43aC78BA3",
        "115792089237316195423570985008687907853269984665640564039457584007913129639935"
      ],
      "transaction": {
        "from": "0xc5c5a0220c1abfcfa26eec68e55d9b689193d6b2",
        "to": "0xe13c9298c63912568ed74825625bc7731c64bc1e",
        "value": "0x0",
        "input": "0x095ea7b3000000000000000000000000000000000022d473030f116ddee9f6b43ac78ba3ffffffffffffffffffffffffffffffffffffffffffffffffffffffffffffffff",
        "nonce": "0x48",
        "chainId": "0x2105"
      },
      "additionalContracts": [],
      "isFixedGasLimit": false
    },
    {
      "hash": "0xcd1d074074c39acefe8639951ce151a91f371e8c786494db999b7ef04ab51003",
      "transactionType": "CALL",
      "contractName": null,
      "contractAddress": "0x000000000022d473030f116ddee9f6b43ac78ba3",
      "function": "approve(address,address,uint160,uint48)",
      "arguments": [
        "0x6F22c4b5ec7efAEd0c315a2C7A34FDb25A78f6b1",
        "0x7C5f5A4bBd8fD63184577525326123B519429bDc",
        "1461501637330902918203684832716283019655932542975",
        "281474976710655"
      ],
      "transaction": {
        "from": "0xc5c5a0220c1abfcfa26eec68e55d9b689193d6b2",
        "to": "0x000000000022d473030f116ddee9f6b43ac78ba3",
        "value": "0x0",
        "input": "0x87517c450000000000000000000000006f22c4b5ec7efaed0c315a2c7a34fdb25a78f6b10000000000000000000000007c5f5a4bbd8fd63184577525326123b519429bdc000000000000000000000000ffffffffffffffffffffffffffffffffffffffff0000000000000000000000000000000000000000000000000000ffffffffffff",
        "nonce": "0x49",
        "chainId": "0x2105"
      },
      "additionalContracts": [],
      "isFixedGasLimit": false
    },
    {
      "hash": "0xbf63dce5dfa0f5d76793364cf8c68891fc77b5d051adbd4dd023b39ed7cde091",
      "transactionType": "CALL",
      "contractName": null,
      "contractAddress": "0x000000000022d473030f116ddee9f6b43ac78ba3",
      "function": "approve(address,address,uint160,uint48)",
      "arguments": [
        "0xe13c9298c63912568ed74825625bC7731c64Bc1e",
        "0x7C5f5A4bBd8fD63184577525326123B519429bDc",
        "1461501637330902918203684832716283019655932542975",
        "281474976710655"
      ],
      "transaction": {
        "from": "0xc5c5a0220c1abfcfa26eec68e55d9b689193d6b2",
        "to": "0x000000000022d473030f116ddee9f6b43ac78ba3",
        "value": "0x0",
        "input": "0x87517c45000000000000000000000000e13c9298c63912568ed74825625bc7731c64bc1e0000000000000000000000007c5f5a4bbd8fd63184577525326123b519429bdc000000000000000000000000ffffffffffffffffffffffffffffffffffffffff0000000000000000000000000000000000000000000000000000ffffffffffff",
        "nonce": "0x4a",
        "chainId": "0x2105"
      },
      "additionalContracts": [],
      "isFixedGasLimit": false
    },
    {
      "hash": "0x6afeabb451b6d07554394d9fe2164982e127688a8bc151e111250cff6df74cf0",
      "transactionType": "CALL",
      "contractName": null,
      "contractAddress": "0x7c5f5a4bbd8fd63184577525326123b519429bdc",
      "function": "modifyLiquidities(bytes,uint256)",
      "arguments": [
        "0x000000000000000000000000000000000000000000000000000000000000004000000000000000000000000000000000000000000000000000000000000000800000000000000000000000000000000000000000000000000000000000000002020d00000000000000000000000000000000000000000000000000000000000000000000000000000000000000000000000000000000000000000000000000020000000000000000000000000000000000000000000000000000000000000040000000000000000000000000000000000000000000000000000000000000020000000000000000000000000000000000000000000000000000000000000001a00000000000000000000000006f22c4b5ec7efaed0c315a2c7a34fdb25a78f6b1000000000000000000000000e13c9298c63912568ed74825625bc7731c64bc1e0000000000000000000000000000000000000000000000000000000000000bb8000000000000000000000000000000000000000000000000000000000000003c00000000000000000000000052e053acd5d8bf354d3c1efface357f4f1410500ffffffffffffffffffffffffffffffffffffffffffffffffffffffffffff15a0000000000000000000000000000000000000000000000000000000000000ea60000000000000000000000000000000000000000000570d85574a2c60258cd6a4000000000000000000000000000000000000000000538b94f896d9c085000000000000000000000000000000000000000000000000538b94f896d9c085000000000000000000000000000000c5c5a0220c1abfcfa26eec68e55d9b689193d6b20000000000000000000000000000000000000000000000000000000000000180000000000000000000000000000000000000000000000000000000000000000000000000000000000000000000000000000000000000000000000000000000400000000000000000000000006f22c4b5ec7efaed0c315a2c7a34fdb25a78f6b1000000000000000000000000e13c9298c63912568ed74825625bc7731c64bc1e",
        "1750800589"
      ],
      "transaction": {
        "from": "0xc5c5a0220c1abfcfa26eec68e55d9b689193d6b2",
        "to": "0x7c5f5a4bbd8fd63184577525326123b519429bdc",
        "value": "0x0",
        "input": "0xdd46508f000000000000000000000000000000000000000000000000000000000000004000000000000000000000000000000000000000000000000000000000685b18cd0000000000000000000000000000000000000000000000000000000000000300000000000000000000000000000000000000000000000000000000000000004000000000000000000000000000000000000000000000000000000000000000800000000000000000000000000000000000000000000000000000000000000002020d00000000000000000000000000000000000000000000000000000000000000000000000000000000000000000000000000000000000000000000000000020000000000000000000000000000000000000000000000000000000000000040000000000000000000000000000000000000000000000000000000000000020000000000000000000000000000000000000000000000000000000000000001a00000000000000000000000006f22c4b5ec7efaed0c315a2c7a34fdb25a78f6b1000000000000000000000000e13c9298c63912568ed74825625bc7731c64bc1e0000000000000000000000000000000000000000000000000000000000000bb8000000000000000000000000000000000000000000000000000000000000003c00000000000000000000000052e053acd5d8bf354d3c1efface357f4f1410500ffffffffffffffffffffffffffffffffffffffffffffffffffffffffffff15a0000000000000000000000000000000000000000000000000000000000000ea60000000000000000000000000000000000000000000570d85574a2c60258cd6a4000000000000000000000000000000000000000000538b94f896d9c085000000000000000000000000000000000000000000000000538b94f896d9c085000000000000000000000000000000c5c5a0220c1abfcfa26eec68e55d9b689193d6b20000000000000000000000000000000000000000000000000000000000000180000000000000000000000000000000000000000000000000000000000000000000000000000000000000000000000000000000000000000000000000000000400000000000000000000000006f22c4b5ec7efaed0c315a2c7a34fdb25a78f6b1000000000000000000000000e13c9298c63912568ed74825625bc7731c64bc1e",
        "nonce": "0x4b",
        "chainId": "0x2105"
      },
      "additionalContracts": [],
      "isFixedGasLimit": false
    }
  ],
  "receipts": [
    {
      "status": "0x1",
      "cumulativeGasUsed": "0x1e1ba94",
      "logs": [
        {
          "address": "0x6f22c4b5ec7efaed0c315a2c7a34fdb25a78f6b1",
          "topics": [
            "0x8c5be1e5ebec7d5bd14f71427d1e84f3dd0314c0f7b2291e5b200ac8c7c3b925",
            "0x000000000000000000000000c5c5a0220c1abfcfa26eec68e55d9b689193d6b2",
            "0x000000000000000000000000000000000022d473030f116ddee9f6b43ac78ba3"
          ],
          "data": "0xffffffffffffffffffffffffffffffffffffffffffffffffffffffffffffffff",
          "blockHash": "0xdb02ce5b8234bb99e512e4575abfb435ef32beb42513c5110d74a829bd67a130",
          "blockNumber": "0x1e85dbf",
          "transactionHash": "0xa2a32f15f7c52a203167a57d5338280199cf06a17f03180d5288f21b3f1ba4ab",
          "transactionIndex": "0x76",
          "logIndex": "0x19c",
          "removed": false
        }
      ],
      "logsBloom": "0x00000000000000000000000000000000000000000000000000000000000000000000000000001000000000000000000000000000800000000000008000200000000000004000000000004000000000000000000000000800000000000000000000000000000000000000000000000000000000000000000000000000000000000000000000000000000000000000000000000000000000000000008000000000020000000010000000000000000000000000000000000000000000000000000000000000000000000000000000000000000000000000000000000000000000000010000000000000000000000000000000000000000000004000000000000000",
      "type": "0x2",
      "transactionHash": "0xa2a32f15f7c52a203167a57d5338280199cf06a17f03180d5288f21b3f1ba4ab",
      "transactionIndex": "0x76",
      "blockHash": "0xdb02ce5b8234bb99e512e4575abfb435ef32beb42513c5110d74a829bd67a130",
      "blockNumber": "0x1e85dbf",
      "gasUsed": "0x66aa",
      "effectiveGasPrice": "0x1509f2",
      "from": "0xc5c5a0220c1abfcfa26eec68e55d9b689193d6b2",
      "to": "0x6f22c4b5ec7efaed0c315a2c7a34fdb25a78f6b1",
      "contractAddress": null,
      "l1BaseFeeScalar": "0x8dd",
      "l1BlobBaseFee": "0x1",
      "l1BlobBaseFeeScalar": "0x101c12",
      "l1Fee": "0x4cc919b9b",
      "l1GasPrice": "0x152695203",
      "l1GasUsed": "0x640"
    },
    {
      "status": "0x1",
      "cumulativeGasUsed": "0x27f38eb",
      "logs": [
        {
          "address": "0xe13c9298c63912568ed74825625bc7731c64bc1e",
          "topics": [
            "0x8c5be1e5ebec7d5bd14f71427d1e84f3dd0314c0f7b2291e5b200ac8c7c3b925",
            "0x000000000000000000000000c5c5a0220c1abfcfa26eec68e55d9b689193d6b2",
            "0x000000000000000000000000000000000022d473030f116ddee9f6b43ac78ba3"
          ],
          "data": "0xffffffffffffffffffffffffffffffffffffffffffffffffffffffffffffffff",
          "blockHash": "0xb34530ec0d0b3a03cb0dba28f6c4f553c41f8dc13dbb5696d9824de0def89168",
          "blockNumber": "0x1e85dc1",
          "transactionHash": "0xdffa04978a9da72de1676e7082665f39faf8ffe951dcb24b0cf11f5f5ee68fca",
          "transactionIndex": "0xa4",
          "logIndex": "0x3f6",
          "removed": false
        }
      ],
      "logsBloom": "0x00000000000000000000000000000000000000000000000000000000000000000000000000001000000000000000000000000000800000000000008000200000000000004000000000004000000000000000000000000800000000000400000000000000000000000000000000000000000000000040000000000000000000000000000000000000000000000000000000000000000000000000000000200000020000000000000000000000000000000000000000000000000000000000000000000000000000000000000000000000000000000000000000000000000000000010000000000000000000000000000000000000000000000000000000000000",
      "type": "0x2",
      "transactionHash": "0xdffa04978a9da72de1676e7082665f39faf8ffe951dcb24b0cf11f5f5ee68fca",
      "transactionIndex": "0xa4",
      "blockHash": "0xb34530ec0d0b3a03cb0dba28f6c4f553c41f8dc13dbb5696d9824de0def89168",
      "blockNumber": "0x1e85dc1",
      "gasUsed": "0xb466",
      "effectiveGasPrice": "0x150505",
      "from": "0xc5c5a0220c1abfcfa26eec68e55d9b689193d6b2",
      "to": "0xe13c9298c63912568ed74825625bc7731c64bc1e",
      "contractAddress": null,
      "l1BaseFeeScalar": "0x8dd",
      "l1BlobBaseFee": "0x1",
      "l1BlobBaseFeeScalar": "0x101c12",
      "l1Fee": "0x4cc919b9b",
      "l1GasPrice": "0x152695203",
      "l1GasUsed": "0x640"
    },
    {
      "status": "0x1",
      "cumulativeGasUsed": "0x208481e",
      "logs": [
        {
          "address": "0x000000000022d473030f116ddee9f6b43ac78ba3",
          "topics": [
            "0xda9fa7c1b00402c17d0161b249b1ab8bbec047c5a52207b9c112deffd817036b",
            "0x000000000000000000000000c5c5a0220c1abfcfa26eec68e55d9b689193d6b2",
            "0x0000000000000000000000006f22c4b5ec7efaed0c315a2c7a34fdb25a78f6b1",
            "0x0000000000000000000000007c5f5a4bbd8fd63184577525326123b519429bdc"
          ],
          "data": "0x000000000000000000000000ffffffffffffffffffffffffffffffffffffffff0000000000000000000000000000000000000000000000000000ffffffffffff",
          "blockHash": "0xdf310d8fed3ce949c21c7294a6ae76d0404b6f6b0f557585711436ee2e10e268",
          "blockNumber": "0x1e85dc3",
          "transactionHash": "0xcd1d074074c39acefe8639951ce151a91f371e8c786494db999b7ef04ab51003",
          "transactionIndex": "0x78",
          "logIndex": "0x327",
          "removed": false
        }
      ],
      "logsBloom": "0x40010000000000000000000000000000000000000000000000000000000000000000000000001000000000000000000000000000000000000000008000082000000000004000000000000000000000000000000000000000000000000000000000000000000000000000000400000000000000000000000000000000000000000020000000000000000000000000000000000000000400000000000000000000000000000000000000000000000000000000000000000000000000080000000200000000000000000000000000000000000000000000000040000000000000000000000000000000000000000000000000000000002000000000000000000400",
      "type": "0x2",
      "transactionHash": "0xcd1d074074c39acefe8639951ce151a91f371e8c786494db999b7ef04ab51003",
      "transactionIndex": "0x78",
      "blockHash": "0xdf310d8fed3ce949c21c7294a6ae76d0404b6f6b0f557585711436ee2e10e268",
      "blockNumber": "0x1e85dc3",
      "gasUsed": "0xbaca",
      "effectiveGasPrice": "0x14f0ce",
      "from": "0xc5c5a0220c1abfcfa26eec68e55d9b689193d6b2",
      "to": "0x000000000022d473030f116ddee9f6b43ac78ba3",
      "contractAddress": null,
      "l1BaseFeeScalar": "0x8dd",
      "l1BlobBaseFee": "0x1",
      "l1BlobBaseFeeScalar": "0x101c12",
      "l1Fee": "0x54d7e59f0",
      "l1GasPrice": "0x152695203",
      "l1GasUsed": "0x6e7"
    },
    {
      "status": "0x1",
      "cumulativeGasUsed": "0x21518e0",
      "logs": [
        {
          "address": "0x000000000022d473030f116ddee9f6b43ac78ba3",
          "topics": [
            "0xda9fa7c1b00402c17d0161b249b1ab8bbec047c5a52207b9c112deffd817036b",
            "0x000000000000000000000000c5c5a0220c1abfcfa26eec68e55d9b689193d6b2",
            "0x000000000000000000000000e13c9298c63912568ed74825625bc7731c64bc1e",
            "0x0000000000000000000000007c5f5a4bbd8fd63184577525326123b519429bdc"
          ],
          "data": "0x000000000000000000000000ffffffffffffffffffffffffffffffffffffffff0000000000000000000000000000000000000000000000000000ffffffffffff",
          "blockHash": "0xece2f721effe0b2fe87b1de1a76d8e8a6657793cb25357f7989a892a2f78be38",
          "blockNumber": "0x1e85dc5",
          "transactionHash": "0xbf63dce5dfa0f5d76793364cf8c68891fc77b5d051adbd4dd023b39ed7cde091",
          "transactionIndex": "0x81",
          "logIndex": "0x455",
          "removed": false
        }
      ],
      "logsBloom": "0x00010000000000000000000000000000000000000000000000000000000000000000000000001000000000000000000000000000000000000000008000082000000000004000000040000000000000000000040000000000000000000000000000000000000000000000000000000000000000000000000000000000000000000020000000000000000000000000000000000000000000000000000000040000000000000000000000000000000000000000000000000000000000080000000200000000000000000000000000000000000000000000000040000000000000000000000000000000000000000000000000000000002000000000000000000400",
      "type": "0x2",
      "transactionHash": "0xbf63dce5dfa0f5d76793364cf8c68891fc77b5d051adbd4dd023b39ed7cde091",
      "transactionIndex": "0x81",
      "blockHash": "0xece2f721effe0b2fe87b1de1a76d8e8a6657793cb25357f7989a892a2f78be38",
      "blockNumber": "0x1e85dc5",
      "gasUsed": "0xbaca",
      "effectiveGasPrice": "0x14d821",
      "from": "0xc5c5a0220c1abfcfa26eec68e55d9b689193d6b2",
      "to": "0x000000000022d473030f116ddee9f6b43ac78ba3",
      "contractAddress": null,
      "l1BaseFeeScalar": "0x8dd",
      "l1BlobBaseFee": "0x1",
      "l1BlobBaseFeeScalar": "0x101c12",
      "l1Fee": "0x54d7e59f0",
      "l1GasPrice": "0x152695203",
      "l1GasUsed": "0x6e7"
    },
    {
      "status": "0x1",
      "cumulativeGasUsed": "0x20c4b22",
      "logs": [
        {
          "address": "0x7c5f5a4bbd8fd63184577525326123b519429bdc",
          "topics": [
            "0xddf252ad1be2c89b69c2b068fc378daa952ba7f163c4a11628f55a4df523b3ef",
            "0x0000000000000000000000000000000000000000000000000000000000000000",
            "0x000000000000000000000000c5c5a0220c1abfcfa26eec68e55d9b689193d6b2",
            "0x0000000000000000000000000000000000000000000000000000000000012452"
          ],
          "data": "0x",
          "blockHash": "0xc1c99b4402f6e51176ed73d50c24ac9cf894eb2f3d14091a84cd529d9aedd39b",
          "blockNumber": "0x1e85dc7",
          "transactionHash": "0x6afeabb451b6d07554394d9fe2164982e127688a8bc151e111250cff6df74cf0",
          "transactionIndex": "0x77",
          "logIndex": "0x1e1",
          "removed": false
        },
        {
          "address": "0x498581ff718922c3f8e6a244956af099b2652b2b",
          "topics": [
            "0xf208f4912782fd25c7f114ca3723a2d5dd6f3bcc3ac8db5af63baa85f711d5ec",
            "0xaefbfaf2a60e2bc0afcca1ac3d3ac5ba56dc7f570db20fdb198797fe2bb5f6f6",
            "0x0000000000000000000000007c5f5a4bbd8fd63184577525326123b519429bdc"
          ],
          "data": "0xffffffffffffffffffffffffffffffffffffffffffffffffffffffffffff15a0000000000000000000000000000000000000000000000000000000000000ea60000000000000000000000000000000000000000000570d85574a2c60258cd6a40000000000000000000000000000000000000000000000000000000000012452",
          "blockHash": "0xc1c99b4402f6e51176ed73d50c24ac9cf894eb2f3d14091a84cd529d9aedd39b",
          "blockNumber": "0x1e85dc7",
          "transactionHash": "0x6afeabb451b6d07554394d9fe2164982e127688a8bc151e111250cff6df74cf0",
          "transactionIndex": "0x77",
          "logIndex": "0x1e2",
          "removed": false
        },
        {
          "address": "0x52e053acd5d8bf354d3c1efface357f4f1410500",
          "topics": [
            "0x9e4d5381437f2410e1f62e8a11414e27051938239fed4b2c438c6137dc234954"
          ],
          "data": "0x00000000000000000000000000000000000000000000000000000000000000a00000000000000000000000007c5f5a4bbd8fd63184577525326123b519429bdc000000000000000000000000000000000000000000000000000000000000000000000000000000000000000000000000000000000000000000000000000000000000000000000000000000000000000000000000000000000000000000000000000000000000000000000000000000000000000000000000000000000000001761667465724164644c69717569646974795f7374617274000000000000000000",
          "blockHash": "0xc1c99b4402f6e51176ed73d50c24ac9cf894eb2f3d14091a84cd529d9aedd39b",
          "blockNumber": "0x1e85dc7",
          "transactionHash": "0x6afeabb451b6d07554394d9fe2164982e127688a8bc151e111250cff6df74cf0",
          "transactionIndex": "0x77",
          "logIndex": "0x1e3",
          "removed": false
        },
        {
          "address": "0x52e053acd5d8bf354d3c1efface357f4f1410500",
          "topics": [
            "0x9e4d5381437f2410e1f62e8a11414e27051938239fed4b2c438c6137dc234954"
          ],
          "data": "0x00000000000000000000000000000000000000000000000000000000000000a00000000000000000000000007c5f5a4bbd8fd63184577525326123b519429bdc000000000000000000000000000000000000000000000000000000000000000000000000000000000000000000000000000000000000000000000000000000000000000000000000000000000000000000000000000000000000000000000000000000000000000000000000000000000000000000000000000000000000000d676f745f757365725f696e666f00000000000000000000000000000000000000",
          "blockHash": "0xc1c99b4402f6e51176ed73d50c24ac9cf894eb2f3d14091a84cd529d9aedd39b",
          "blockNumber": "0x1e85dc7",
          "transactionHash": "0x6afeabb451b6d07554394d9fe2164982e127688a8bc151e111250cff6df74cf0",
          "transactionIndex": "0x77",
          "logIndex": "0x1e4",
          "removed": false
        },
        {
          "address": "0x52e053acd5d8bf354d3c1efface357f4f1410500",
          "topics": [
            "0x9e4d5381437f2410e1f62e8a11414e27051938239fed4b2c438c6137dc234954"
          ],
          "data": "0x00000000000000000000000000000000000000000000000000000000000000a00000000000000000000000007c5f5a4bbd8fd63184577525326123b519429bdc0000000000000000000000000000000000000000000000000000000000000000000000000000000000000000000000000000000000000000000000000000000000000000000000000000000000000000000000000000000000000000000000000000000000000000000000000000000000000000000000000000000000000012636f6e646974696f6e735f6e6f745f6d65740000000000000000000000000000",
          "blockHash": "0xc1c99b4402f6e51176ed73d50c24ac9cf894eb2f3d14091a84cd529d9aedd39b",
          "blockNumber": "0x1e85dc7",
          "transactionHash": "0x6afeabb451b6d07554394d9fe2164982e127688a8bc151e111250cff6df74cf0",
          "transactionIndex": "0x77",
          "logIndex": "0x1e5",
          "removed": false
        },
        {
          "address": "0x6f22c4b5ec7efaed0c315a2c7a34fdb25a78f6b1",
          "topics": [
            "0xddf252ad1be2c89b69c2b068fc378daa952ba7f163c4a11628f55a4df523b3ef",
            "0x000000000000000000000000c5c5a0220c1abfcfa26eec68e55d9b689193d6b2",
            "0x000000000000000000000000498581ff718922c3f8e6a244956af099b2652b2b"
          ],
          "data": "0x00000000000000000000000000000000000000000052b7d2dcc80cd2e4000000",
          "blockHash": "0xc1c99b4402f6e51176ed73d50c24ac9cf894eb2f3d14091a84cd529d9aedd39b",
          "blockNumber": "0x1e85dc7",
          "transactionHash": "0x6afeabb451b6d07554394d9fe2164982e127688a8bc151e111250cff6df74cf0",
          "transactionIndex": "0x77",
          "logIndex": "0x1e6",
          "removed": false
        },
        {
          "address": "0xe13c9298c63912568ed74825625bc7731c64bc1e",
          "topics": [
            "0xddf252ad1be2c89b69c2b068fc378daa952ba7f163c4a11628f55a4df523b3ef",
            "0x000000000000000000000000c5c5a0220c1abfcfa26eec68e55d9b689193d6b2",
            "0x000000000000000000000000498581ff718922c3f8e6a244956af099b2652b2b"
          ],
          "data": "0x00000000000000000000000000000000000000000052b7d2dcc80cd2e4000000",
          "blockHash": "0xc1c99b4402f6e51176ed73d50c24ac9cf894eb2f3d14091a84cd529d9aedd39b",
          "blockNumber": "0x1e85dc7",
          "transactionHash": "0x6afeabb451b6d07554394d9fe2164982e127688a8bc151e111250cff6df74cf0",
          "transactionIndex": "0x77",
          "logIndex": "0x1e7",
          "removed": false
        }
      ],
      "logsBloom": "0x000800000000000000000000000000084000000000000000000000000000000000a0000000101000000000001000000000000000000000020000008000002000000000004000000000000008000002000000000000000000000000000400000000000000020000000000000000040800040000000040000000000010000000001000000001004000000000000000000000000000800000000000008400200000004004000010000008000000000000000000000000000000000000000000000200000002000001010000000000000000000800000000000000000000000020000000000000000000000000000000000004000400002000004000000000000000",
      "type": "0x2",
      "transactionHash": "0x6afeabb451b6d07554394d9fe2164982e127688a8bc151e111250cff6df74cf0",
      "transactionIndex": "0x77",
      "blockHash": "0xc1c99b4402f6e51176ed73d50c24ac9cf894eb2f3d14091a84cd529d9aedd39b",
      "blockNumber": "0x1e85dc7",
      "gasUsed": "0x6c32a",
      "effectiveGasPrice": "0x14acf0",
      "from": "0xc5c5a0220c1abfcfa26eec68e55d9b689193d6b2",
      "to": "0x7c5f5a4bbd8fd63184577525326123b519429bdc",
      "contractAddress": null,
      "l1BaseFeeScalar": "0x8dd",
      "l1BlobBaseFee": "0x1",
      "l1BlobBaseFeeScalar": "0x101c12",
      "l1Fee": "0xd50f4187a",
      "l1GasPrice": "0x16321994e",
      "l1GasUsed": "0x1086"
    }
  ],
  "libraries": [],
  "pending": [],
  "returns": {},
  "timestamp": 1750800498,
  "chain": 8453,
  "commit": null
}