{
  "transactions": [
    {
      "hash": "0xf25ec613fc1fb18033d7defb65c677954e8ae12add864b824e5ac5b6f3124cea",
      "transactionType": "CALL",
      "contractName": null,
      "contractAddress": "0x6f22c4b5ec7efaed0c315a2c7a34fdb25a78f6b1",
      "function": "approve(address,uint256)",
      "arguments": [
        "0x000000000022D473030F116dDEE9F6B43aC78BA3",
        "115792089237316195423570985008687907853269984665640564039457584007913129639935"
      ],
      "transaction": {
        "from": "0xc5c5a0220c1abfcfa26eec68e55d9b689193d6b2",
        "to": "0x6f22c4b5ec7efaed0c315a2c7a34fdb25a78f6b1",
        "gas": "0x9625",
        "value": "0x0",
        "input": "0x095ea7b3000000000000000000000000000000000022d473030f116ddee9f6b43ac78ba3ffffffffffffffffffffffffffffffffffffffffffffffffffffffffffffffff",
        "nonce": "0x4c",
        "chainId": "0x2105"
      },
      "additionalContracts": [],
      "isFixedGasLimit": false
    },
    {
      "hash": "0x326d0f2a6468b858282a83d67946f38625aec214fcdde672222c1da71784d6ba",
      "transactionType": "CALL",
      "contractName": null,
      "contractAddress": "0xe13c9298c63912568ed74825625bc7731c64bc1e",
      "function": "approve(address,uint256)",
      "arguments": [
        "0x000000000022D473030F116dDEE9F6B43aC78BA3",
        "115792089237316195423570985008687907853269984665640564039457584007913129639935"
      ],
      "transaction": {
        "from": "0xc5c5a0220c1abfcfa26eec68e55d9b689193d6b2",
        "to": "0xe13c9298c63912568ed74825625bc7731c64bc1e",
        "gas": "0x9625",
        "value": "0x0",
        "input": "0x095ea7b3000000000000000000000000000000000022d473030f116ddee9f6b43ac78ba3ffffffffffffffffffffffffffffffffffffffffffffffffffffffffffffffff",
        "nonce": "0x4d",
        "chainId": "0x2105"
      },
      "additionalContracts": [],
      "isFixedGasLimit": false
    },
    {
      "hash": "0xd387a452e3ff1bfda6c4b8f08e703473ad82d9861edefa2a702ea31bf4ff05a4",
      "transactionType": "CALL",
      "contractName": null,
      "contractAddress": "0x000000000022d473030f116ddee9f6b43ac78ba3",
      "function": "approve(address,address,uint160,uint48)",
      "arguments": [
        "0x6F22c4b5ec7efAEd0c315a2C7A34FDb25A78f6b1",
        "0x7C5f5A4bBd8fD63184577525326123B519429bDc",
        "1461501637330902918203684832716283019655932542975",
        "281474976710655"
      ],
      "transaction": {
        "from": "0xc5c5a0220c1abfcfa26eec68e55d9b689193d6b2",
        "to": "0x000000000022d473030f116ddee9f6b43ac78ba3",
        "gas": "0x96a0",
        "value": "0x0",
        "input": "0x87517c450000000000000000000000006f22c4b5ec7efaed0c315a2c7a34fdb25a78f6b10000000000000000000000007c5f5a4bbd8fd63184577525326123b519429bdc000000000000000000000000ffffffffffffffffffffffffffffffffffffffff0000000000000000000000000000000000000000000000000000ffffffffffff",
        "nonce": "0x4e",
        "chainId": "0x2105"
      },
      "additionalContracts": [],
      "isFixedGasLimit": false
    },
    {
      "hash": "0x26ea76b2b6ac4c3b5cdb15cf9f6517ef7b5ebc438402522663ba073d2c375777",
      "transactionType": "CALL",
      "contractName": null,
      "contractAddress": "0x000000000022d473030f116ddee9f6b43ac78ba3",
      "function": "approve(address,address,uint160,uint48)",
      "arguments": [
        "0xe13c9298c63912568ed74825625bC7731c64Bc1e",
        "0x7C5f5A4bBd8fD63184577525326123B519429bDc",
        "1461501637330902918203684832716283019655932542975",
        "281474976710655"
      ],
      "transaction": {
        "from": "0xc5c5a0220c1abfcfa26eec68e55d9b689193d6b2",
        "to": "0x000000000022d473030f116ddee9f6b43ac78ba3",
        "gas": "0x96a0",
        "value": "0x0",
        "input": "0x87517c45000000000000000000000000e13c9298c63912568ed74825625bc7731c64bc1e0000000000000000000000007c5f5a4bbd8fd63184577525326123b519429bdc000000000000000000000000ffffffffffffffffffffffffffffffffffffffff0000000000000000000000000000000000000000000000000000ffffffffffff",
        "nonce": "0x4f",
        "chainId": "0x2105"
      },
      "additionalContracts": [],
      "isFixedGasLimit": false
    },
    {
      "hash": "0x1b221e8c5f5f7a36543ad088ea7300eca53c55cf3b8264ff5940de61eaa15142",
      "transactionType": "CALL",
      "contractName": null,
      "contractAddress": "0x7c5f5a4bbd8fd63184577525326123b519429bdc",
      "function": "modifyLiquidities(bytes,uint256)",
      "arguments": [
        "0x000000000000000000000000000000000000000000000000000000000000004000000000000000000000000000000000000000000000000000000000000000800000000000000000000000000000000000000000000000000000000000000002020d00000000000000000000000000000000000000000000000000000000000000000000000000000000000000000000000000000000000000000000000000020000000000000000000000000000000000000000000000000000000000000040000000000000000000000000000000000000000000000000000000000000022000000000000000000000000000000000000000000000000000000000000001c00000000000000000000000006f22c4b5ec7efaed0c315a2c7a34fdb25a78f6b1000000000000000000000000e13c9298c63912568ed74825625bc7731c64bc1e0000000000000000000000000000000000000000000000000000000000000bb8000000000000000000000000000000000000000000000000000000000000003c000000000000000000000000953a5dd9072a32167d10966b360b68ec33db4500ffffffffffffffffffffffffffffffffffffffffffffffffffffffffffff15a0000000000000000000000000000000000000000000000000000000000000ea60000000000000000000000000000000000000000000570d85574a2c60258cd6a4000000000000000000000000000000000000000000538b94f896d9c085000000000000000000000000000000000000000000000000538b94f896d9c085000000000000000000000000000000c5c5a0220c1abfcfa26eec68e55d9b689193d6b200000000000000000000000000000000000000000000000000000000000001800000000000000000000000000000000000000000000000000000000000000020000000000000000000000000c5c5a0220c1abfcfa26eec68e55d9b689193d6b200000000000000000000000000000000000000000000000000000000000000400000000000000000000000006f22c4b5ec7efaed0c315a2c7a34fdb25a78f6b1000000000000000000000000e13c9298c63912568ed74825625bc7731c64bc1e",
        "1750805575"
      ],
      "transaction": {
        "from": "0xc5c5a0220c1abfcfa26eec68e55d9b689193d6b2",
        "to": "0x7c5f5a4bbd8fd63184577525326123b519429bdc",
        "gas": "0x14aae9",
        "value": "0x0",
        "input": "0xdd46508f000000000000000000000000000000000000000000000000000000000000004000000000000000000000000000000000000000000000000000000000685b2c470000000000000000000000000000000000000000000000000000000000000320000000000000000000000000000000000000000000000000000000000000004000000000000000000000000000000000000000000000000000000000000000800000000000000000000000000000000000000000000000000000000000000002020d00000000000000000000000000000000000000000000000000000000000000000000000000000000000000000000000000000000000000000000000000020000000000000000000000000000000000000000000000000000000000000040000000000000000000000000000000000000000000000000000000000000022000000000000000000000000000000000000000000000000000000000000001c00000000000000000000000006f22c4b5ec7efaed0c315a2c7a34fdb25a78f6b1000000000000000000000000e13c9298c63912568ed74825625bc7731c64bc1e0000000000000000000000000000000000000000000000000000000000000bb8000000000000000000000000000000000000000000000000000000000000003c000000000000000000000000953a5dd9072a32167d10966b360b68ec33db4500ffffffffffffffffffffffffffffffffffffffffffffffffffffffffffff15a0000000000000000000000000000000000000000000000000000000000000ea60000000000000000000000000000000000000000000570d85574a2c60258cd6a4000000000000000000000000000000000000000000538b94f896d9c085000000000000000000000000000000000000000000000000538b94f896d9c085000000000000000000000000000000c5c5a0220c1abfcfa26eec68e55d9b689193d6b200000000000000000000000000000000000000000000000000000000000001800000000000000000000000000000000000000000000000000000000000000020000000000000000000000000c5c5a0220c1abfcfa26eec68e55d9b689193d6b200000000000000000000000000000000000000000000000000000000000000400000000000000000000000006f22c4b5ec7efaed0c315a2c7a34fdb25a78f6b1000000000000000000000000e13c9298c63912568ed74825625bc7731c64bc1e",
        "nonce": "0x50",
        "chainId": "0x2105"
      },
      "additionalContracts": [],
      "isFixedGasLimit": false
    }
  ],
  "receipts": [
    {
      "status": "0x1",
      "cumulativeGasUsed": "0x34cad2b",
      "logs": [
        {
          "address": "0x6f22c4b5ec7efaed0c315a2c7a34fdb25a78f6b1",
          "topics": [
            "0x8c5be1e5ebec7d5bd14f71427d1e84f3dd0314c0f7b2291e5b200ac8c7c3b925",
            "0x000000000000000000000000c5c5a0220c1abfcfa26eec68e55d9b689193d6b2",
            "0x000000000000000000000000000000000022d473030f116ddee9f6b43ac78ba3"
          ],
          "data": "0xffffffffffffffffffffffffffffffffffffffffffffffffffffffffffffffff",
          "blockHash": "0xa43d758ac89612751e0f494f991f6cc844657b88c6da76ea3c2962f40956408a",
          "blockNumber": "0x1e8677e",
          "transactionHash": "0xf25ec613fc1fb18033d7defb65c677954e8ae12add864b824e5ac5b6f3124cea",
          "transactionIndex": "0xaa",
          "logIndex": "0x370",
          "removed": false
        }
      ],
      "logsBloom": "0x00000000000000000000000000000000000000000000000000000000000000000000000000001000000000000000000000000000800000000000008000200000000000004000000000004000000000000000000000000800000000000000000000000000000000000000000000000000000000000000000000000000000000000000000000000000000000000000000000000000000000000000008000000000020000000010000000000000000000000000000000000000000000000000000000000000000000000000000000000000000000000000000000000000000000000010000000000000000000000000000000000000000000004000000000000000",
      "type": "0x2",
      "transactionHash": "0xf25ec613fc1fb18033d7defb65c677954e8ae12add864b824e5ac5b6f3124cea",
      "transactionIndex": "0xaa",
      "blockHash": "0xa43d758ac89612751e0f494f991f6cc844657b88c6da76ea3c2962f40956408a",
      "blockNumber": "0x1e8677e",
      "gasUsed": "0x66aa",
      "effectiveGasPrice": "0xd9b0b",
      "from": "0xc5c5a0220c1abfcfa26eec68e55d9b689193d6b2",
      "to": "0x6f22c4b5ec7efaed0c315a2c7a34fdb25a78f6b1",
      "contractAddress": null,
      "l1BaseFeeScalar": "0x8dd",
      "l1BlobBaseFee": "0x1",
      "l1BlobBaseFeeScalar": "0x101c12",
      "l1Fee": "0x26d6c75a4",
      "l1GasPrice": "0xab2c1744",
      "l1GasUsed": "0x640"
    },
    {
      "status": "0x1",
      "cumulativeGasUsed": "0x34d13d5",
      "logs": [
        {
          "address": "0xe13c9298c63912568ed74825625bc7731c64bc1e",
          "topics": [
            "0x8c5be1e5ebec7d5bd14f71427d1e84f3dd0314c0f7b2291e5b200ac8c7c3b925",
            "0x000000000000000000000000c5c5a0220c1abfcfa26eec68e55d9b689193d6b2",
            "0x000000000000000000000000000000000022d473030f116ddee9f6b43ac78ba3"
          ],
          "data": "0xffffffffffffffffffffffffffffffffffffffffffffffffffffffffffffffff",
          "blockHash": "0xa43d758ac89612751e0f494f991f6cc844657b88c6da76ea3c2962f40956408a",
          "blockNumber": "0x1e8677e",
          "transactionHash": "0x326d0f2a6468b858282a83d67946f38625aec214fcdde672222c1da71784d6ba",
          "transactionIndex": "0xab",
          "logIndex": "0x371",
          "removed": false
        }
      ],
      "logsBloom": "0x00000000000000000000000000000000000000000000000000000000000000000000000000001000000000000000000000000000800000000000008000200000000000004000000000004000000000000000000000000800000000000400000000000000000000000000000000000000000000000040000000000000000000000000000000000000000000000000000000000000000000000000000000200000020000000000000000000000000000000000000000000000000000000000000000000000000000000000000000000000000000000000000000000000000000000010000000000000000000000000000000000000000000000000000000000000",
      "type": "0x2",
      "transactionHash": "0x326d0f2a6468b858282a83d67946f38625aec214fcdde672222c1da71784d6ba",
      "transactionIndex": "0xab",
      "blockHash": "0xa43d758ac89612751e0f494f991f6cc844657b88c6da76ea3c2962f40956408a",
      "blockNumber": "0x1e8677e",
      "gasUsed": "0x66aa",
      "effectiveGasPrice": "0xd9b0b",
      "from": "0xc5c5a0220c1abfcfa26eec68e55d9b689193d6b2",
      "to": "0xe13c9298c63912568ed74825625bc7731c64bc1e",
      "contractAddress": null,
      "l1BaseFeeScalar": "0x8dd",
      "l1BlobBaseFee": "0x1",
      "l1BlobBaseFeeScalar": "0x101c12",
      "l1Fee": "0x26d6c75a4",
      "l1GasPrice": "0xab2c1744",
      "l1GasUsed": "0x640"
    },
    {
      "status": "0x1",
      "cumulativeGasUsed": "0x34d80e3",
      "logs": [
        {
          "address": "0x000000000022d473030f116ddee9f6b43ac78ba3",
          "topics": [
            "0xda9fa7c1b00402c17d0161b249b1ab8bbec047c5a52207b9c112deffd817036b",
            "0x000000000000000000000000c5c5a0220c1abfcfa26eec68e55d9b689193d6b2",
            "0x0000000000000000000000006f22c4b5ec7efaed0c315a2c7a34fdb25a78f6b1",
            "0x0000000000000000000000007c5f5a4bbd8fd63184577525326123b519429bdc"
          ],
          "data": "0x000000000000000000000000ffffffffffffffffffffffffffffffffffffffff0000000000000000000000000000000000000000000000000000ffffffffffff",
          "blockHash": "0xa43d758ac89612751e0f494f991f6cc844657b88c6da76ea3c2962f40956408a",
          "blockNumber": "0x1e8677e",
          "transactionHash": "0xd387a452e3ff1bfda6c4b8f08e703473ad82d9861edefa2a702ea31bf4ff05a4",
          "transactionIndex": "0xac",
          "logIndex": "0x372",
          "removed": false
        }
      ],
      "logsBloom": "0x40010000000000000000000000000000000000000000000000000000000000000000000000001000000000000000000000000000000000000000008000082000000000004000000000000000000000000000000000000000000000000000000000000000000000000000000400000000000000000000000000000000000000000020000000000000000000000000000000000000000400000000000000000000000000000000000000000000000000000000000000000000000000080000000200000000000000000000000000000000000000000000000040000000000000000000000000000000000000000000000000000000002000000000000000000400",
      "type": "0x2",
      "transactionHash": "0xd387a452e3ff1bfda6c4b8f08e703473ad82d9861edefa2a702ea31bf4ff05a4",
      "transactionIndex": "0xac",
      "blockHash": "0xa43d758ac89612751e0f494f991f6cc844657b88c6da76ea3c2962f40956408a",
      "blockNumber": "0x1e8677e",
      "gasUsed": "0x6d0e",
      "effectiveGasPrice": "0xd9b0b",
      "from": "0xc5c5a0220c1abfcfa26eec68e55d9b689193d6b2",
      "to": "0x000000000022d473030f116ddee9f6b43ac78ba3",
      "contractAddress": null,
      "l1BaseFeeScalar": "0x8dd",
      "l1BlobBaseFee": "0x1",
      "l1BlobBaseFeeScalar": "0x101c12",
      "l1Fee": "0x2a96fe1d4",
      "l1GasPrice": "0xab2c1744",
      "l1GasUsed": "0x6da"
    },
    {
      "status": "0x1",
      "cumulativeGasUsed": "0x34dedf1",
      "logs": [
        {
          "address": "0x000000000022d473030f116ddee9f6b43ac78ba3",
          "topics": [
            "0xda9fa7c1b00402c17d0161b249b1ab8bbec047c5a52207b9c112deffd817036b",
            "0x000000000000000000000000c5c5a0220c1abfcfa26eec68e55d9b689193d6b2",
            "0x000000000000000000000000e13c9298c63912568ed74825625bc7731c64bc1e",
            "0x0000000000000000000000007c5f5a4bbd8fd63184577525326123b519429bdc"
          ],
          "data": "0x000000000000000000000000ffffffffffffffffffffffffffffffffffffffff0000000000000000000000000000000000000000000000000000ffffffffffff",
          "blockHash": "0xa43d758ac89612751e0f494f991f6cc844657b88c6da76ea3c2962f40956408a",
          "blockNumber": "0x1e8677e",
          "transactionHash": "0x26ea76b2b6ac4c3b5cdb15cf9f6517ef7b5ebc438402522663ba073d2c375777",
          "transactionIndex": "0xad",
          "logIndex": "0x373",
          "removed": false
        }
      ],
      "logsBloom": "0x00010000000000000000000000000000000000000000000000000000000000000000000000001000000000000000000000000000000000000000008000082000000000004000000040000000000000000000040000000000000000000000000000000000000000000000000000000000000000000000000000000000000000000020000000000000000000000000000000000000000000000000000000040000000000000000000000000000000000000000000000000000000000080000000200000000000000000000000000000000000000000000000040000000000000000000000000000000000000000000000000000000002000000000000000000400",
      "type": "0x2",
      "transactionHash": "0x26ea76b2b6ac4c3b5cdb15cf9f6517ef7b5ebc438402522663ba073d2c375777",
      "transactionIndex": "0xad",
      "blockHash": "0xa43d758ac89612751e0f494f991f6cc844657b88c6da76ea3c2962f40956408a",
      "blockNumber": "0x1e8677e",
      "gasUsed": "0x6d0e",
      "effectiveGasPrice": "0xd9b0b",
      "from": "0xc5c5a0220c1abfcfa26eec68e55d9b689193d6b2",
      "to": "0x000000000022d473030f116ddee9f6b43ac78ba3",
      "contractAddress": null,
      "l1BaseFeeScalar": "0x8dd",
      "l1BlobBaseFee": "0x1",
      "l1BlobBaseFeeScalar": "0x101c12",
      "l1Fee": "0x2a96fe1d4",
      "l1GasPrice": "0xab2c1744",
      "l1GasUsed": "0x6da"
    },
    {
      "status": "0x1",
      "cumulativeGasUsed": "0x35ce478",
      "logs": [
        {
          "address": "0x7c5f5a4bbd8fd63184577525326123b519429bdc",
          "topics": [
            "0xddf252ad1be2c89b69c2b068fc378daa952ba7f163c4a11628f55a4df523b3ef",
            "0x0000000000000000000000000000000000000000000000000000000000000000",
            "0x000000000000000000000000c5c5a0220c1abfcfa26eec68e55d9b689193d6b2",
            "0x000000000000000000000000000000000000000000000000000000000001245e"
          ],
          "data": "0x",
          "blockHash": "0xa43d758ac89612751e0f494f991f6cc844657b88c6da76ea3c2962f40956408a",
          "blockNumber": "0x1e8677e",
          "transactionHash": "0x1b221e8c5f5f7a36543ad088ea7300eca53c55cf3b8264ff5940de61eaa15142",
          "transactionIndex": "0xae",
          "logIndex": "0x374",
          "removed": false
        },
        {
          "address": "0x498581ff718922c3f8e6a244956af099b2652b2b",
          "topics": [
            "0xf208f4912782fd25c7f114ca3723a2d5dd6f3bcc3ac8db5af63baa85f711d5ec",
            "0xc817e78f17a55178f503437797e48bc4b16f64be81137b36897dde91e807b2e8",
            "0x0000000000000000000000007c5f5a4bbd8fd63184577525326123b519429bdc"
          ],
          "data": "0xffffffffffffffffffffffffffffffffffffffffffffffffffffffffffff15a0000000000000000000000000000000000000000000000000000000000000ea60000000000000000000000000000000000000000000570d85574a2c60258cd6a4000000000000000000000000000000000000000000000000000000000001245e",
          "blockHash": "0xa43d758ac89612751e0f494f991f6cc844657b88c6da76ea3c2962f40956408a",
          "blockNumber": "0x1e8677e",
          "transactionHash": "0x1b221e8c5f5f7a36543ad088ea7300eca53c55cf3b8264ff5940de61eaa15142",
          "transactionIndex": "0xae",
          "logIndex": "0x375",
          "removed": false
        },
        {
          "address": "0x953a5dd9072a32167d10966b360b68ec33db4500",
          "topics": [
            "0x9e4d5381437f2410e1f62e8a11414e27051938239fed4b2c438c6137dc234954"
          ],
          "data": "0x00000000000000000000000000000000000000000000000000000000000000a00000000000000000000000007c5f5a4bbd8fd63184577525326123b519429bdc000000000000000000000000000000000000000000000000000000000000000000000000000000000000000000000000000000000000000000000000000000000000000000000000000000000000000000000000000000000000000000000000000000000000000000000000000000000000000000000000000000000000001761667465724164644c69717569646974795f7374617274000000000000000000",
          "blockHash": "0xa43d758ac89612751e0f494f991f6cc844657b88c6da76ea3c2962f40956408a",
          "blockNumber": "0x1e8677e",
          "transactionHash": "0x1b221e8c5f5f7a36543ad088ea7300eca53c55cf3b8264ff5940de61eaa15142",
          "transactionIndex": "0xae",
          "logIndex": "0x376",
          "removed": false
        },
        {
          "address": "0x953a5dd9072a32167d10966b360b68ec33db4500",
          "topics": [
            "0x0043275e9ddc4d8897db692a9593b442059427ecdd8153707cc9e24767e13629"
          ],
          "data": "0x0000000000000000000000007c5f5a4bbd8fd63184577525326123b519429bdc000000000000000000000000c5c5a0220c1abfcfa26eec68e55d9b689193d6b200000000000000000000000000000000000000000000000000000000000000600000000000000000000000000000000000000000000000000000000000000008686f6f6b44617461000000000000000000000000000000000000000000000000",
          "blockHash": "0xa43d758ac89612751e0f494f991f6cc844657b88c6da76ea3c2962f40956408a",
          "blockNumber": "0x1e8677e",
          "transactionHash": "0x1b221e8c5f5f7a36543ad088ea7300eca53c55cf3b8264ff5940de61eaa15142",
          "transactionIndex": "0xae",
          "logIndex": "0x377",
          "removed": false
        },
        {
          "address": "0x953a5dd9072a32167d10966b360b68ec33db4500",
          "topics": [
            "0x9e4d5381437f2410e1f62e8a11414e27051938239fed4b2c438c6137dc234954"
          ],
          "data": "0x00000000000000000000000000000000000000000000000000000000000000a0000000000000000000000000c5c5a0220c1abfcfa26eec68e55d9b689193d6b2000000000000000000000000000000000000000000000000000000000000000000000000000000000000000000000000000000000000000000000000000000000000000000000000000000000000000000000000000000000000000000000000000000000000000000000000000000000000000000000000000000000000000d7265736f6c7665645f7573657200000000000000000000000000000000000000",
          "blockHash": "0xa43d758ac89612751e0f494f991f6cc844657b88c6da76ea3c2962f40956408a",
          "blockNumber": "0x1e8677e",
          "transactionHash": "0x1b221e8c5f5f7a36543ad088ea7300eca53c55cf3b8264ff5940de61eaa15142",
          "transactionIndex": "0xae",
          "logIndex": "0x378",
          "removed": false
        },
        {
          "address": "0x953a5dd9072a32167d10966b360b68ec33db4500",
          "topics": [
            "0x9e4d5381437f2410e1f62e8a11414e27051938239fed4b2c438c6137dc234954"
          ],
          "data": "0x00000000000000000000000000000000000000000000000000000000000000a0000000000000000000000000c5c5a0220c1abfcfa26eec68e55d9b689193d6b2000000000000000000000000c166c00d5696afb27cf07671a85b78a589a20a5c00000000000000000000000000000000000000000000000000000000000000010000000000000000000000000000000000000000000000000000000000000000000000000000000000000000000000000000000000000000000000000000000d676f745f757365725f696e666f00000000000000000000000000000000000000",
          "blockHash": "0xa43d758ac89612751e0f494f991f6cc844657b88c6da76ea3c2962f40956408a",
          "blockNumber": "0x1e8677e",
          "transactionHash": "0x1b221e8c5f5f7a36543ad088ea7300eca53c55cf3b8264ff5940de61eaa15142",
          "transactionIndex": "0xae",
          "logIndex": "0x379",
          "removed": false
        },
        {
          "address": "0x953a5dd9072a32167d10966b360b68ec33db4500",
          "topics": [
            "0x9e4d5381437f2410e1f62e8a11414e27051938239fed4b2c438c6137dc234954"
          ],
          "data": "0x00000000000000000000000000000000000000000000000000000000000000a0000000000000000000000000c5c5a0220c1abfcfa26eec68e55d9b689193d6b2000000000000000000000000c166c00d5696afb27cf07671a85b78a589a20a5c0000000000000000000000000000000000000000000000000000000000000001000000000000000000000000000000000000000000a56fa5b99019a5c8000000000000000000000000000000000000000000000000000000000000000000000e63616c63756c617465645f74766c000000000000000000000000000000000000",
          "blockHash": "0xa43d758ac89612751e0f494f991f6cc844657b88c6da76ea3c2962f40956408a",
          "blockNumber": "0x1e8677e",
          "transactionHash": "0x1b221e8c5f5f7a36543ad088ea7300eca53c55cf3b8264ff5940de61eaa15142",
          "transactionIndex": "0xae",
          "logIndex": "0x37a",
          "removed": false
        },
        {
          "address": "0xacd17cefe9f105aaa839d802cad0b9bee1f80f71",
          "topics": [
            "0xd8356a6cf3e0979763d849f44f7f1405622b99f6229bc913bcfeda3a64d4b4fe",
            "0x0000000000000000000000000000000000000000000000000000000000000001"
          ],
          "data": "0x000000000000000000000000000000000000000000a56fa5b99019a5c8000000",
          "blockHash": "0xa43d758ac89612751e0f494f991f6cc844657b88c6da76ea3c2962f40956408a",
          "blockNumber": "0x1e8677e",
          "transactionHash": "0x1b221e8c5f5f7a36543ad088ea7300eca53c55cf3b8264ff5940de61eaa15142",
          "transactionIndex": "0xae",
          "logIndex": "0x37b",
          "removed": false
        },
        {
          "address": "0x953a5dd9072a32167d10966b360b68ec33db4500",
          "topics": [
            "0x9e4d5381437f2410e1f62e8a11414e27051938239fed4b2c438c6137dc234954"
          ],
          "data": "0x00000000000000000000000000000000000000000000000000000000000000a0000000000000000000000000c5c5a0220c1abfcfa26eec68e55d9b689193d6b2000000000000000000000000c166c00d5696afb27cf07671a85b78a589a20a5c0000000000000000000000000000000000000000000000000000000000000001000000000000000000000000000000000000000000a56fa5b99019a5c8000000000000000000000000000000000000000000000000000000000000000000001072656769737472795f7570646174656400000000000000000000000000000000",
          "blockHash": "0xa43d758ac89612751e0f494f991f6cc844657b88c6da76ea3c2962f40956408a",
          "blockNumber": "0x1e8677e",
          "transactionHash": "0x1b221e8c5f5f7a36543ad088ea7300eca53c55cf3b8264ff5940de61eaa15142",
          "transactionIndex": "0xae",
          "logIndex": "0x37c",
          "removed": false
        },
        {
          "address": "0x4839d26aee01ffcc3bb432cbc8024a9a388873ba",
          "topics": [
            "0x85586c4fbdd243c2ab6356603276d5321549a5f5b86ff1b23c9e62589a71d91e",
            "0x000000000000000000000000c166c00d5696afb27cf07671a85b78a589a20a5c",
            "0x0000000000000000000000000000000000000000000000000000000000000001"
          ],
          "data": "0x",
          "blockHash": "0xa43d758ac89612751e0f494f991f6cc844657b88c6da76ea3c2962f40956408a",
          "blockNumber": "0x1e8677e",
          "transactionHash": "0x1b221e8c5f5f7a36543ad088ea7300eca53c55cf3b8264ff5940de61eaa15142",
          "transactionIndex": "0xae",
          "logIndex": "0x37d",
          "removed": false
        },
        {
          "address": "0x4839d26aee01ffcc3bb432cbc8024a9a388873ba",
          "topics": [
            "0x078e3fb0555f2c135b94d90c60fe41418a0bcf065d58e276f0a4ccb8cf7fe777",
            "0x000000000000000000000000c166c00d5696afb27cf07671a85b78a589a20a5c",
            "0x0000000000000000000000000000000000000000000000000000000000000001"
          ],
          "data": "0x000000000000000000000000000000000000000000a56fa5b99019a5c80000000000000000000000000000000000000000000000000000000000000000000001000000000000000000000000000000000000000000a56fa5b99019a5c8000000",
          "blockHash": "0xa43d758ac89612751e0f494f991f6cc844657b88c6da76ea3c2962f40956408a",
          "blockNumber": "0x1e8677e",
          "transactionHash": "0x1b221e8c5f5f7a36543ad088ea7300eca53c55cf3b8264ff5940de61eaa15142",
          "transactionIndex": "0xae",
          "logIndex": "0x37e",
          "removed": false
        },
        {
          "address": "0x953a5dd9072a32167d10966b360b68ec33db4500",
          "topics": [
            "0x9e4d5381437f2410e1f62e8a11414e27051938239fed4b2c438c6137dc234954"
          ],
          "data": "0x00000000000000000000000000000000000000000000000000000000000000a0000000000000000000000000c5c5a0220c1abfcfa26eec68e55d9b689193d6b2000000000000000000000000c166c00d5696afb27cf07671a85b78a589a20a5c0000000000000000000000000000000000000000000000000000000000000001000000000000000000000000000000000000000000a56fa5b99019a5c800000000000000000000000000000000000000000000000000000000000000000000136c6561646572626f6172645f7570646174656400000000000000000000000000",
          "blockHash": "0xa43d758ac89612751e0f494f991f6cc844657b88c6da76ea3c2962f40956408a",
          "blockNumber": "0x1e8677e",
          "transactionHash": "0x1b221e8c5f5f7a36543ad088ea7300eca53c55cf3b8264ff5940de61eaa15142",
          "transactionIndex": "0xae",
          "logIndex": "0x37f",
          "removed": false
        },
        {
          "address": "0x953a5dd9072a32167d10966b360b68ec33db4500",
          "topics": [
            "0x7cd9c8d0c35e8b62569c73fed20fed9217ada85742d62e59c20732afb4ddf8e2",
            "0x000000000000000000000000c5c5a0220c1abfcfa26eec68e55d9b689193d6b2",
            "0x000000000000000000000000c166c00d5696afb27cf07671a85b78a589a20a5c",
            "0xc817e78f17a55178f503437797e48bc4b16f64be81137b36897dde91e807b2e8"
          ],
          "data": "0x000000000000000000000000000000000000000000a56fa5b99019a5c80000000000000000000000000000000000000000000000000000000000000000000001",
          "blockHash": "0xa43d758ac89612751e0f494f991f6cc844657b88c6da76ea3c2962f40956408a",
          "blockNumber": "0x1e8677e",
          "transactionHash": "0x1b221e8c5f5f7a36543ad088ea7300eca53c55cf3b8264ff5940de61eaa15142",
          "transactionIndex": "0xae",
          "logIndex": "0x380",
          "removed": false
        },
        {
          "address": "0x6f22c4b5ec7efaed0c315a2c7a34fdb25a78f6b1",
          "topics": [
            "0xddf252ad1be2c89b69c2b068fc378daa952ba7f163c4a11628f55a4df523b3ef",
            "0x000000000000000000000000c5c5a0220c1abfcfa26eec68e55d9b689193d6b2",
            "0x000000000000000000000000498581ff718922c3f8e6a244956af099b2652b2b"
          ],
          "data": "0x00000000000000000000000000000000000000000052b7d2dcc80cd2e4000000",
          "blockHash": "0xa43d758ac89612751e0f494f991f6cc844657b88c6da76ea3c2962f40956408a",
          "blockNumber": "0x1e8677e",
          "transactionHash": "0x1b221e8c5f5f7a36543ad088ea7300eca53c55cf3b8264ff5940de61eaa15142",
          "transactionIndex": "0xae",
          "logIndex": "0x381",
          "removed": false
        },
        {
          "address": "0xe13c9298c63912568ed74825625bc7731c64bc1e",
          "topics": [
            "0xddf252ad1be2c89b69c2b068fc378daa952ba7f163c4a11628f55a4df523b3ef",
            "0x000000000000000000000000c5c5a0220c1abfcfa26eec68e55d9b689193d6b2",
            "0x000000000000000000000000498581ff718922c3f8e6a244956af099b2652b2b"
          ],
          "data": "0x00000000000000000000000000000000000000000052b7d2dcc80cd2e4000000",
          "blockHash": "0xa43d758ac89612751e0f494f991f6cc844657b88c6da76ea3c2962f40956408a",
          "blockNumber": "0x1e8677e",
          "transactionHash": "0x1b221e8c5f5f7a36543ad088ea7300eca53c55cf3b8264ff5940de61eaa15142",
          "transactionIndex": "0xae",
          "logIndex": "0x382",
          "removed": false
        }
      ],
      "logsBloom": "0x0040000008000000000000400000000000000000000000000000000800000010082000100000100000000000080000000000000000200002000000840004200000002000400000000002000800000000002000000004000000000000040000000000000002000000000000000044080004000000004000000000001000100000000000000900c000000000000040000000000000000000004200018408200000004084000010000008000000000000000000000400000000000000008000080200000002000001010000002000000000000800000000000000000000000060000000000000000000000000000000200004001400002002004000200000000000",
      "type": "0x2",
      "transactionHash": "0x1b221e8c5f5f7a36543ad088ea7300eca53c55cf3b8264ff5940de61eaa15142",
      "transactionIndex": "0xae",
      "blockHash": "0xa43d758ac89612751e0f494f991f6cc844657b88c6da76ea3c2962f40956408a",
      "blockNumber": "0x1e8677e",
      "gasUsed": "0xef687",
      "effectiveGasPrice": "0xd9b0b",
      "from": "0xc5c5a0220c1abfcfa26eec68e55d9b689193d6b2",
      "to": "0x7c5f5a4bbd8fd63184577525326123b519429bdc",
      "contractAddress": null,
      "l1BaseFeeScalar": "0x8dd",
      "l1BlobBaseFee": "0x1",
      "l1BlobBaseFeeScalar": "0x101c12",
      "l1Fee": "0x68a4b8269",
      "l1GasPrice": "0xab2c1744",
      "l1GasUsed": "0x10d6"
    }
  ],
  "libraries": [],
  "pending": [],
  "returns": {},
  "timestamp": 1750805472,
  "chain": 8453,
  "commit": null
}