{
  "transactions": [
    {
      "hash": "0x83a824254f2549e7cbdf86b4deb65bdce31ade6c71715ef1130308e55765ba20",
      "transactionType": "CALL",
      "contractName": null,
      "contractAddress": "0x52bc5caf2520c31a7669a7faad0f8e37af53c5d3",
      "function": "approve(address,uint256)",
      "arguments": [
        "0x000000000022D473030F116dDEE9F6B43aC78BA3",
        "115792089237316195423570985008687907853269984665640564039457584007913129639935"
      ],
      "transaction": {
        "from": "0xc5c5a0220c1abfcfa26eec68e55d9b689193d6b2",
        "to": "0x52bc5caf2520c31a7669a7faad0f8e37af53c5d3",
        "gas": "0xf92c",
        "value": "0x0",
        "input": "0x095ea7b3000000000000000000000000000000000022d473030f116ddee9f6b43ac78ba3ffffffffffffffffffffffffffffffffffffffffffffffffffffffffffffffff",
        "nonce": "0x5a",
        "chainId": "0x2105"
      },
      "additionalContracts": [],
      "isFixedGasLimit": false
    },
    {
      "hash": "0xf020a5ae5d90bc3bd768c0e90931c0654fa03bffde238336a3c7058e5b86db11",
      "transactionType": "CALL",
      "contractName": null,
      "contractAddress": "0xfe3ad79f52cd53bf8e948a32936d7d5eb53f00a7",
      "function": "approve(address,uint256)",
      "arguments": [
        "0x000000000022D473030F116dDEE9F6B43aC78BA3",
        "115792089237316195423570985008687907853269984665640564039457584007913129639935"
      ],
      "transaction": {
        "from": "0xc5c5a0220c1abfcfa26eec68e55d9b689193d6b2",
        "to": "0xfe3ad79f52cd53bf8e948a32936d7d5eb53f00a7",
        "gas": "0xf92c",
        "value": "0x0",
        "input": "0x095ea7b3000000000000000000000000000000000022d473030f116ddee9f6b43ac78ba3ffffffffffffffffffffffffffffffffffffffffffffffffffffffffffffffff",
        "nonce": "0x5b",
        "chainId": "0x2105"
      },
      "additionalContracts": [],
      "isFixedGasLimit": false
    },
    {
      "hash": "0xa67f671b8d2bdf0586f831c8fb60a8a40068cac65ad68f02b4f0c9f0994c5ed2",
      "transactionType": "CALL",
      "contractName": null,
      "contractAddress": "0x000000000022d473030f116ddee9f6b43ac78ba3",
      "function": "approve(address,address,uint160,uint48)",
      "arguments": [
        "0x52bc5Caf2520c31a7669A7FAaD0F8E37aF53c5D3",
        "0x7C5f5A4bBd8fD63184577525326123B519429bDc",
        "1461501637330902918203684832716283019655932542975",
        "281474976710655"
      ],
      "transaction": {
        "from": "0xc5c5a0220c1abfcfa26eec68e55d9b689193d6b2",
        "to": "0x000000000022d473030f116ddee9f6b43ac78ba3",
        "gas": "0x1112d",
        "value": "0x0",
        "input": "0x87517c4500000000000000000000000052bc5caf2520c31a7669a7faad0f8e37af53c5d30000000000000000000000007c5f5a4bbd8fd63184577525326123b519429bdc000000000000000000000000ffffffffffffffffffffffffffffffffffffffff0000000000000000000000000000000000000000000000000000ffffffffffff",
        "nonce": "0x5c",
        "chainId": "0x2105"
      },
      "additionalContracts": [],
      "isFixedGasLimit": false
    },
    {
      "hash": "0x7783cc1de91de0c7023b7f2397683bb8f50ae7b6a92e09ea36630f7f3a8a45af",
      "transactionType": "CALL",
      "contractName": null,
      "contractAddress": "0x000000000022d473030f116ddee9f6b43ac78ba3",
      "function": "approve(address,address,uint160,uint48)",
      "arguments": [
        "0xFe3Ad79f52CD53bf8e948A32936d7d5EB53f00a7",
        "0x7C5f5A4bBd8fD63184577525326123B519429bDc",
        "1461501637330902918203684832716283019655932542975",
        "281474976710655"
      ],
      "transaction": {
        "from": "0xc5c5a0220c1abfcfa26eec68e55d9b689193d6b2",
        "to": "0x000000000022d473030f116ddee9f6b43ac78ba3",
        "gas": "0x101ee",
        "value": "0x0",
        "input": "0x87517c45000000000000000000000000fe3ad79f52cd53bf8e948a32936d7d5eb53f00a70000000000000000000000007c5f5a4bbd8fd63184577525326123b519429bdc000000000000000000000000ffffffffffffffffffffffffffffffffffffffff0000000000000000000000000000000000000000000000000000ffffffffffff",
        "nonce": "0x5d",
        "chainId": "0x2105"
      },
      "additionalContracts": [],
      "isFixedGasLimit": false
    },
    {
      "hash": "0xe78adc8ce0545b0b57eb319714e8ba88ac49ee0365a2f08e5912c7991261f1fa",
      "transactionType": "CALL",
      "contractName": null,
      "contractAddress": "0x7c5f5a4bbd8fd63184577525326123b519429bdc",
      "function": "modifyLiquidities(bytes,uint256)",
      "arguments": [
        "0x000000000000000000000000000000000000000000000000000000000000004000000000000000000000000000000000000000000000000000000000000000800000000000000000000000000000000000000000000000000000000000000002020d00000000000000000000000000000000000000000000000000000000000000000000000000000000000000000000000000000000000000000000000000020000000000000000000000000000000000000000000000000000000000000040000000000000000000000000000000000000000000000000000000000000022000000000000000000000000000000000000000000000000000000000000001c000000000000000000000000052bc5caf2520c31a7669a7faad0f8e37af53c5d3000000000000000000000000fe3ad79f52cd53bf8e948a32936d7d5eb53f00a70000000000000000000000000000000000000000000000000000000000000bb8000000000000000000000000000000000000000000000000000000000000003c00000000000000000000000065e6c7be675a3169f90bb074f19f616772498500ffffffffffffffffffffffffffffffffffffffffffffffffffffffffffff15a0000000000000000000000000000000000000000000000000000000000000ea60000000000000000000000000000000000000000000570d85574a2c60258cd6a4000000000000000000000000000000000000000000538b94f896d9c085000000000000000000000000000000000000000000000000538b94f896d9c085000000000000000000000000000000c5c5a0220c1abfcfa26eec68e55d9b689193d6b200000000000000000000000000000000000000000000000000000000000001800000000000000000000000000000000000000000000000000000000000000020000000000000000000000000c5c5a0220c1abfcfa26eec68e55d9b689193d6b2000000000000000000000000000000000000000000000000000000000000004000000000000000000000000052bc5caf2520c31a7669a7faad0f8e37af53c5d3000000000000000000000000fe3ad79f52cd53bf8e948a32936d7d5eb53f00a7",
        "1750916247"
      ],
      "transaction": {
        "from": "0xc5c5a0220c1abfcfa26eec68e55d9b689193d6b2",
        "to": "0x7c5f5a4bbd8fd63184577525326123b519429bdc",
        "gas": "0x154b58",
        "value": "0x0",
        "input": "0xdd46508f000000000000000000000000000000000000000000000000000000000000004000000000000000000000000000000000000000000000000000000000685cdc970000000000000000000000000000000000000000000000000000000000000320000000000000000000000000000000000000000000000000000000000000004000000000000000000000000000000000000000000000000000000000000000800000000000000000000000000000000000000000000000000000000000000002020d00000000000000000000000000000000000000000000000000000000000000000000000000000000000000000000000000000000000000000000000000020000000000000000000000000000000000000000000000000000000000000040000000000000000000000000000000000000000000000000000000000000022000000000000000000000000000000000000000000000000000000000000001c000000000000000000000000052bc5caf2520c31a7669a7faad0f8e37af53c5d3000000000000000000000000fe3ad79f52cd53bf8e948a32936d7d5eb53f00a70000000000000000000000000000000000000000000000000000000000000bb8000000000000000000000000000000000000000000000000000000000000003c00000000000000000000000065e6c7be675a3169f90bb074f19f616772498500ffffffffffffffffffffffffffffffffffffffffffffffffffffffffffff15a0000000000000000000000000000000000000000000000000000000000000ea60000000000000000000000000000000000000000000570d85574a2c60258cd6a4000000000000000000000000000000000000000000538b94f896d9c085000000000000000000000000000000000000000000000000538b94f896d9c085000000000000000000000000000000c5c5a0220c1abfcfa26eec68e55d9b689193d6b200000000000000000000000000000000000000000000000000000000000001800000000000000000000000000000000000000000000000000000000000000020000000000000000000000000c5c5a0220c1abfcfa26eec68e55d9b689193d6b2000000000000000000000000000000000000000000000000000000000000004000000000000000000000000052bc5caf2520c31a7669a7faad0f8e37af53c5d3000000000000000000000000fe3ad79f52cd53bf8e948a32936d7d5eb53f00a7",
        "nonce": "0x5e",
        "chainId": "0x2105"
      },
      "additionalContracts": [],
      "isFixedGasLimit": false
    }
  ],
  "receipts": [
    {
      "status": "0x1",
      "cumulativeGasUsed": "0x23e84f4",
      "logs": [
        {
          "address": "0x52bc5caf2520c31a7669a7faad0f8e37af53c5d3",
          "topics": [
            "0x8c5be1e5ebec7d5bd14f71427d1e84f3dd0314c0f7b2291e5b200ac8c7c3b925",
            "0x000000000000000000000000c5c5a0220c1abfcfa26eec68e55d9b689193d6b2",
            "0x000000000000000000000000000000000022d473030f116ddee9f6b43ac78ba3"
          ],
          "data": "0xffffffffffffffffffffffffffffffffffffffffffffffffffffffffffffffff",
          "blockHash": "0x624b99dcaa713154f029d287917ea4a28092a085ccc7897818431d91f48b7a1e",
          "blockNumber": "0x1e93fa6",
          "transactionHash": "0x83a824254f2549e7cbdf86b4deb65bdce31ade6c71715ef1130308e55765ba20",
          "transactionIndex": "0x3f",
          "logIndex": "0x147",
          "removed": false
        }
      ],
      "logsBloom": "0x00000000000000000000000000000000000000000000000000000000000000000000000000001000000000000000000000000000800000000000008000200000000000004000000000004000000000000000000000000800000000000000000000000000000000000000100000000000000000000000000000000000000000000000000000000000000000000000000000000000000000000000000000000000020000000000000000000000000000000000000000000000000000000000000000000000000000020000000000000000000000000000000000000000000000000010080000000000000000000000000000000000000000000000000000000000",
      "type": "0x2",
      "transactionHash": "0x83a824254f2549e7cbdf86b4deb65bdce31ade6c71715ef1130308e55765ba20",
      "transactionIndex": "0x3f",
      "blockHash": "0x624b99dcaa713154f029d287917ea4a28092a085ccc7897818431d91f48b7a1e",
      "blockNumber": "0x1e93fa6",
      "gasUsed": "0xb466",
      "effectiveGasPrice": "0xe1bf8",
      "from": "0xc5c5a0220c1abfcfa26eec68e55d9b689193d6b2",
      "to": "0x52bc5caf2520c31a7669a7faad0f8e37af53c5d3",
      "contractAddress": null,
      "l1BaseFeeScalar": "0x8dd",
      "l1BlobBaseFee": "0x1",
      "l1BlobBaseFeeScalar": "0x101c12",
      "l1Fee": "0xf6921596",
      "l1GasPrice": "0x43eb166b",
      "l1GasUsed": "0x640"
    },
    {
      "status": "0x1",
      "cumulativeGasUsed": "0x23f395a",
      "logs": [
        {
          "address": "0xfe3ad79f52cd53bf8e948a32936d7d5eb53f00a7",
          "topics": [
            "0x8c5be1e5ebec7d5bd14f71427d1e84f3dd0314c0f7b2291e5b200ac8c7c3b925",
            "0x000000000000000000000000c5c5a0220c1abfcfa26eec68e55d9b689193d6b2",
            "0x000000000000000000000000000000000022d473030f116ddee9f6b43ac78ba3"
          ],
          "data": "0xffffffffffffffffffffffffffffffffffffffffffffffffffffffffffffffff",
          "blockHash": "0x624b99dcaa713154f029d287917ea4a28092a085ccc7897818431d91f48b7a1e",
          "blockNumber": "0x1e93fa6",
          "transactionHash": "0xf020a5ae5d90bc3bd768c0e90931c0654fa03bffde238336a3c7058e5b86db11",
          "transactionIndex": "0x40",
          "logIndex": "0x148",
          "removed": false
        }
      ],
      "logsBloom": "0x00000000000000000000000000000000000000000000000000000000000000000000000000001000000000000000000000000000800000000002008000200000000000004000000000004000000000000000000000000800000000000000000000000000000000000000000000000000000000000000000000000000000000000000000000000000000000000000000000000000000000000000000000000000020000000000000000000000000000000004000000000000000000000000000000000000000000000000000000000000000000000000000000000000000000000010000080000000000000000000000000000000000000000000000000000000",
      "type": "0x2",
      "transactionHash": "0xf020a5ae5d90bc3bd768c0e90931c0654fa03bffde238336a3c7058e5b86db11",
      "transactionIndex": "0x40",
      "blockHash": "0x624b99dcaa713154f029d287917ea4a28092a085ccc7897818431d91f48b7a1e",
      "blockNumber": "0x1e93fa6",
      "gasUsed": "0xb466",
      "effectiveGasPrice": "0xe1bf8",
      "from": "0xc5c5a0220c1abfcfa26eec68e55d9b689193d6b2",
      "to": "0xfe3ad79f52cd53bf8e948a32936d7d5eb53f00a7",
      "contractAddress": null,
      "l1BaseFeeScalar": "0x8dd",
      "l1BlobBaseFee": "0x1",
      "l1BlobBaseFeeScalar": "0x101c12",
      "l1Fee": "0xf6921596",
      "l1GasPrice": "0x43eb166b",
      "l1GasUsed": "0x640"
    },
    {
      "status": "0x1",
      "cumulativeGasUsed": "0x23ff424",
      "logs": [
        {
          "address": "0x000000000022d473030f116ddee9f6b43ac78ba3",
          "topics": [
            "0xda9fa7c1b00402c17d0161b249b1ab8bbec047c5a52207b9c112deffd817036b",
            "0x000000000000000000000000c5c5a0220c1abfcfa26eec68e55d9b689193d6b2",
            "0x00000000000000000000000052bc5caf2520c31a7669a7faad0f8e37af53c5d3",
            "0x0000000000000000000000007c5f5a4bbd8fd63184577525326123b519429bdc"
          ],
          "data": "0x000000000000000000000000ffffffffffffffffffffffffffffffffffffffff0000000000000000000000000000000000000000000000000000ffffffffffff",
          "blockHash": "0x624b99dcaa713154f029d287917ea4a28092a085ccc7897818431d91f48b7a1e",
          "blockNumber": "0x1e93fa6",
          "transactionHash": "0xa67f671b8d2bdf0586f831c8fb60a8a40068cac65ad68f02b4f0c9f0994c5ed2",
          "transactionIndex": "0x41",
          "logIndex": "0x149",
          "removed": false
        }
      ],
      "logsBloom": "0x00010000000000000000000000000000000000000000000000000000000000000000000000001000000000000000000000000000000000000000008000083000000000004000100000000000000000000000000000000000000000000000000000000000000000000000000000000000000000000000000000000000000000000020000000000000000000000000000000000000000000000000000000000000000000000000000000000000000000000000000000000000000000080000000200000000000000000000000000000000000000000000000040000000000000000000000000000000000000000000000000000000002008000000000000000400",
      "type": "0x2",
      "transactionHash": "0xa67f671b8d2bdf0586f831c8fb60a8a40068cac65ad68f02b4f0c9f0994c5ed2",
      "transactionIndex": "0x41",
      "blockHash": "0x624b99dcaa713154f029d287917ea4a28092a085ccc7897818431d91f48b7a1e",
      "blockNumber": "0x1e93fa6",
      "gasUsed": "0xbaca",
      "effectiveGasPrice": "0xe1bf8",
      "from": "0xc5c5a0220c1abfcfa26eec68e55d9b689193d6b2",
      "to": "0x000000000022d473030f116ddee9f6b43ac78ba3",
      "contractAddress": null,
      "l1BaseFeeScalar": "0x8dd",
      "l1BlobBaseFee": "0x1",
      "l1BlobBaseFeeScalar": "0x101c12",
      "l1Fee": "0x1128211a7",
      "l1GasPrice": "0x43eb166b",
      "l1GasUsed": "0x6f5"
    },
    {
      "status": "0x1",
      "cumulativeGasUsed": "0x240aee2",
      "logs": [
        {
          "address": "0x000000000022d473030f116ddee9f6b43ac78ba3",
          "topics": [
            "0xda9fa7c1b00402c17d0161b249b1ab8bbec047c5a52207b9c112deffd817036b",
            "0x000000000000000000000000c5c5a0220c1abfcfa26eec68e55d9b689193d6b2",
            "0x000000000000000000000000fe3ad79f52cd53bf8e948a32936d7d5eb53f00a7",
            "0x0000000000000000000000007c5f5a4bbd8fd63184577525326123b519429bdc"
          ],
          "data": "0x000000000000000000000000ffffffffffffffffffffffffffffffffffffffff0000000000000000000000000000000000000000000000000000ffffffffffff",
          "blockHash": "0x624b99dcaa713154f029d287917ea4a28092a085ccc7897818431d91f48b7a1e",
          "blockNumber": "0x1e93fa6",
          "transactionHash": "0x7783cc1de91de0c7023b7f2397683bb8f50ae7b6a92e09ea36630f7f3a8a45af",
          "transactionIndex": "0x42",
          "logIndex": "0x14a",
          "removed": false
        }
      ],
      "logsBloom": "0x00010000000000000000000000000000002000000000000000000000000000000000000001001000000000000000000000000000000000000000008000082000000000004000000000000000000000000000000000000000000000000000000000000000000000000000000000000000000000000000000000000000000000000020000000000000000000000000000000000000000000000000000000000000000000000000000000000000000000000000000000000000000000080000000200000000000000000000000000000000000000010000000040000000000000000000000000000000000000000000000000000000002000000000000000000400",
      "type": "0x2",
      "transactionHash": "0x7783cc1de91de0c7023b7f2397683bb8f50ae7b6a92e09ea36630f7f3a8a45af",
      "transactionIndex": "0x42",
      "blockHash": "0x624b99dcaa713154f029d287917ea4a28092a085ccc7897818431d91f48b7a1e",
      "blockNumber": "0x1e93fa6",
      "gasUsed": "0xbabe",
      "effectiveGasPrice": "0xe1bf8",
      "from": "0xc5c5a0220c1abfcfa26eec68e55d9b689193d6b2",
      "to": "0x000000000022d473030f116ddee9f6b43ac78ba3",
      "contractAddress": null,
      "l1BaseFeeScalar": "0x8dd",
      "l1BlobBaseFee": "0x1",
      "l1BlobBaseFeeScalar": "0x101c12",
      "l1Fee": "0x1128211a7",
      "l1GasPrice": "0x43eb166b",
      "l1GasUsed": "0x6f5"
    },
    {
      "status": "0x1",
      "cumulativeGasUsed": "0x2501990",
      "logs": [
        {
          "address": "0x7c5f5a4bbd8fd63184577525326123b519429bdc",
          "topics": [
            "0xddf252ad1be2c89b69c2b068fc378daa952ba7f163c4a11628f55a4df523b3ef",
            "0x0000000000000000000000000000000000000000000000000000000000000000",
            "0x000000000000000000000000c5c5a0220c1abfcfa26eec68e55d9b689193d6b2",
            "0x00000000000000000000000000000000000000000000000000000000000125a5"
          ],
          "data": "0x",
          "blockHash": "0x624b99dcaa713154f029d287917ea4a28092a085ccc7897818431d91f48b7a1e",
          "blockNumber": "0x1e93fa6",
          "transactionHash": "0xe78adc8ce0545b0b57eb319714e8ba88ac49ee0365a2f08e5912c7991261f1fa",
          "transactionIndex": "0x43",
          "logIndex": "0x14b",
          "removed": false
        },
        {
          "address": "0x498581ff718922c3f8e6a244956af099b2652b2b",
          "topics": [
            "0xf208f4912782fd25c7f114ca3723a2d5dd6f3bcc3ac8db5af63baa85f711d5ec",
            "0x1c580e16c547b863f9bf433ef6d6fe98a533f71d8882b2fb7eca0c3ad7d8e296",
            "0x0000000000000000000000007c5f5a4bbd8fd63184577525326123b519429bdc"
          ],
          "data": "0xffffffffffffffffffffffffffffffffffffffffffffffffffffffffffff15a0000000000000000000000000000000000000000000000000000000000000ea60000000000000000000000000000000000000000000570d85574a2c60258cd6a400000000000000000000000000000000000000000000000000000000000125a5",
          "blockHash": "0x624b99dcaa713154f029d287917ea4a28092a085ccc7897818431d91f48b7a1e",
          "blockNumber": "0x1e93fa6",
          "transactionHash": "0xe78adc8ce0545b0b57eb319714e8ba88ac49ee0365a2f08e5912c7991261f1fa",
          "transactionIndex": "0x43",
          "logIndex": "0x14c",
          "removed": false
        },
        {
          "address": "0x65e6c7be675a3169f90bb074f19f616772498500",
          "topics": [
            "0x9e4d5381437f2410e1f62e8a11414e27051938239fed4b2c438c6137dc234954"
          ],
          "data": "0x00000000000000000000000000000000000000000000000000000000000000a00000000000000000000000007c5f5a4bbd8fd63184577525326123b519429bdc000000000000000000000000000000000000000000000000000000000000000000000000000000000000000000000000000000000000000000000000000000000000000000000000000000000000000000000000000000000000000000000000000000000000000000000000000000000000000000000000000000000000001761667465724164644c69717569646974795f7374617274000000000000000000",
          "blockHash": "0x624b99dcaa713154f029d287917ea4a28092a085ccc7897818431d91f48b7a1e",
          "blockNumber": "0x1e93fa6",
          "transactionHash": "0xe78adc8ce0545b0b57eb319714e8ba88ac49ee0365a2f08e5912c7991261f1fa",
          "transactionIndex": "0x43",
          "logIndex": "0x14d",
          "removed": false
        },
        {
          "address": "0x65e6c7be675a3169f90bb074f19f616772498500",
          "topics": [
            "0x0043275e9ddc4d8897db692a9593b442059427ecdd8153707cc9e24767e13629"
          ],
          "data": "0x0000000000000000000000007c5f5a4bbd8fd63184577525326123b519429bdc000000000000000000000000c5c5a0220c1abfcfa26eec68e55d9b689193d6b200000000000000000000000000000000000000000000000000000000000000600000000000000000000000000000000000000000000000000000000000000008686f6f6b44617461000000000000000000000000000000000000000000000000",
          "blockHash": "0x624b99dcaa713154f029d287917ea4a28092a085ccc7897818431d91f48b7a1e",
          "blockNumber": "0x1e93fa6",
          "transactionHash": "0xe78adc8ce0545b0b57eb319714e8ba88ac49ee0365a2f08e5912c7991261f1fa",
          "transactionIndex": "0x43",
          "logIndex": "0x14e",
          "removed": false
        },
        {
          "address": "0x65e6c7be675a3169f90bb074f19f616772498500",
          "topics": [
            "0x9e4d5381437f2410e1f62e8a11414e27051938239fed4b2c438c6137dc234954"
          ],
          "data": "0x00000000000000000000000000000000000000000000000000000000000000a0000000000000000000000000c5c5a0220c1abfcfa26eec68e55d9b689193d6b2000000000000000000000000000000000000000000000000000000000000000000000000000000000000000000000000000000000000000000000000000000000000000000000000000000000000000000000000000000000000000000000000000000000000000000000000000000000000000000000000000000000000000d7265736f6c7665645f7573657200000000000000000000000000000000000000",
          "blockHash": "0x624b99dcaa713154f029d287917ea4a28092a085ccc7897818431d91f48b7a1e",
          "blockNumber": "0x1e93fa6",
          "transactionHash": "0xe78adc8ce0545b0b57eb319714e8ba88ac49ee0365a2f08e5912c7991261f1fa",
          "transactionIndex": "0x43",
          "logIndex": "0x14f",
          "removed": false
        },
        {
          "address": "0x65e6c7be675a3169f90bb074f19f616772498500",
          "topics": [
            "0x9e4d5381437f2410e1f62e8a11414e27051938239fed4b2c438c6137dc234954"
          ],
          "data": "0x00000000000000000000000000000000000000000000000000000000000000a0000000000000000000000000c5c5a0220c1abfcfa26eec68e55d9b689193d6b2000000000000000000000000c166c00d5696afb27cf07671a85b78a589a20a5c00000000000000000000000000000000000000000000000000000000000000010000000000000000000000000000000000000000000000000000000000000000000000000000000000000000000000000000000000000000000000000000000d676f745f757365725f696e666f00000000000000000000000000000000000000",
          "blockHash": "0x624b99dcaa713154f029d287917ea4a28092a085ccc7897818431d91f48b7a1e",
          "blockNumber": "0x1e93fa6",
          "transactionHash": "0xe78adc8ce0545b0b57eb319714e8ba88ac49ee0365a2f08e5912c7991261f1fa",
          "transactionIndex": "0x43",
          "logIndex": "0x150",
          "removed": false
        },
        {
          "address": "0x65e6c7be675a3169f90bb074f19f616772498500",
          "topics": [
            "0x9e4d5381437f2410e1f62e8a11414e27051938239fed4b2c438c6137dc234954"
          ],
          "data": "0x00000000000000000000000000000000000000000000000000000000000000a0000000000000000000000000c5c5a0220c1abfcfa26eec68e55d9b689193d6b2000000000000000000000000c166c00d5696afb27cf07671a85b78a589a20a5c0000000000000000000000000000000000000000000000000000000000000001000000000000000000000000000000000000000000a56fa5b99019a5c8000000000000000000000000000000000000000000000000000000000000000000000e63616c63756c617465645f74766c000000000000000000000000000000000000",
          "blockHash": "0x624b99dcaa713154f029d287917ea4a28092a085ccc7897818431d91f48b7a1e",
          "blockNumber": "0x1e93fa6",
          "transactionHash": "0xe78adc8ce0545b0b57eb319714e8ba88ac49ee0365a2f08e5912c7991261f1fa",
          "transactionIndex": "0x43",
          "logIndex": "0x151",
          "removed": false
        },
        {
          "address": "0x9e895e8da3ff34c7b73d9ad94d9e562c2d4dc01e",
          "topics": [
            "0xd8356a6cf3e0979763d849f44f7f1405622b99f6229bc913bcfeda3a64d4b4fe",
            "0x0000000000000000000000000000000000000000000000000000000000000001"
          ],
          "data": "0x000000000000000000000000000000000000000000a56fa5b99019a5c8000000",
          "blockHash": "0x624b99dcaa713154f029d287917ea4a28092a085ccc7897818431d91f48b7a1e",
          "blockNumber": "0x1e93fa6",
          "transactionHash": "0xe78adc8ce0545b0b57eb319714e8ba88ac49ee0365a2f08e5912c7991261f1fa",
          "transactionIndex": "0x43",
          "logIndex": "0x152",
          "removed": false
        },
        {
          "address": "0x65e6c7be675a3169f90bb074f19f616772498500",
          "topics": [
            "0x9e4d5381437f2410e1f62e8a11414e27051938239fed4b2c438c6137dc234954"
          ],
          "data": "0x00000000000000000000000000000000000000000000000000000000000000a0000000000000000000000000c5c5a0220c1abfcfa26eec68e55d9b689193d6b2000000000000000000000000c166c00d5696afb27cf07671a85b78a589a20a5c0000000000000000000000000000000000000000000000000000000000000001000000000000000000000000000000000000000000a56fa5b99019a5c8000000000000000000000000000000000000000000000000000000000000000000001072656769737472795f7570646174656400000000000000000000000000000000",
          "blockHash": "0x624b99dcaa713154f029d287917ea4a28092a085ccc7897818431d91f48b7a1e",
          "blockNumber": "0x1e93fa6",
          "transactionHash": "0xe78adc8ce0545b0b57eb319714e8ba88ac49ee0365a2f08e5912c7991261f1fa",
          "transactionIndex": "0x43",
          "logIndex": "0x153",
          "removed": false
        },
        {
          "address": "0xbf133a716f07ff6a9c93e60ef3781ea491390688",
          "topics": [
            "0x85586c4fbdd243c2ab6356603276d5321549a5f5b86ff1b23c9e62589a71d91e",
            "0x000000000000000000000000c166c00d5696afb27cf07671a85b78a589a20a5c",
            "0x0000000000000000000000000000000000000000000000000000000000000001"
          ],
          "data": "0x",
          "blockHash": "0x624b99dcaa713154f029d287917ea4a28092a085ccc7897818431d91f48b7a1e",
          "blockNumber": "0x1e93fa6",
          "transactionHash": "0xe78adc8ce0545b0b57eb319714e8ba88ac49ee0365a2f08e5912c7991261f1fa",
          "transactionIndex": "0x43",
          "logIndex": "0x154",
          "removed": false
        },
        {
          "address": "0xbf133a716f07ff6a9c93e60ef3781ea491390688",
          "topics": [
            "0x078e3fb0555f2c135b94d90c60fe41418a0bcf065d58e276f0a4ccb8cf7fe777",
            "0x000000000000000000000000c166c00d5696afb27cf07671a85b78a589a20a5c",
            "0x0000000000000000000000000000000000000000000000000000000000000001"
          ],
          "data": "0x000000000000000000000000000000000000000000a56fa5b99019a5c80000000000000000000000000000000000000000000000000000000000000000000001000000000000000000000000000000000000000000a56fa5b99019a5c8000000",
          "blockHash": "0x624b99dcaa713154f029d287917ea4a28092a085ccc7897818431d91f48b7a1e",
          "blockNumber": "0x1e93fa6",
          "transactionHash": "0xe78adc8ce0545b0b57eb319714e8ba88ac49ee0365a2f08e5912c7991261f1fa",
          "transactionIndex": "0x43",
          "logIndex": "0x155",
          "removed": false
        },
        {
          "address": "0x65e6c7be675a3169f90bb074f19f616772498500",
          "topics": [
            "0x9e4d5381437f2410e1f62e8a11414e27051938239fed4b2c438c6137dc234954"
          ],
          "data": "0x00000000000000000000000000000000000000000000000000000000000000a0000000000000000000000000c5c5a0220c1abfcfa26eec68e55d9b689193d6b2000000000000000000000000c166c00d5696afb27cf07671a85b78a589a20a5c0000000000000000000000000000000000000000000000000000000000000001000000000000000000000000000000000000000000a56fa5b99019a5c800000000000000000000000000000000000000000000000000000000000000000000136c6561646572626f6172645f7570646174656400000000000000000000000000",
          "blockHash": "0x624b99dcaa713154f029d287917ea4a28092a085ccc7897818431d91f48b7a1e",
          "blockNumber": "0x1e93fa6",
          "transactionHash": "0xe78adc8ce0545b0b57eb319714e8ba88ac49ee0365a2f08e5912c7991261f1fa",
          "transactionIndex": "0x43",
          "logIndex": "0x156",
          "removed": false
        },
        {
          "address": "0x65e6c7be675a3169f90bb074f19f616772498500",
          "topics": [
            "0x7cd9c8d0c35e8b62569c73fed20fed9217ada85742d62e59c20732afb4ddf8e2",
            "0x000000000000000000000000c5c5a0220c1abfcfa26eec68e55d9b689193d6b2",
            "0x000000000000000000000000c166c00d5696afb27cf07671a85b78a589a20a5c",
            "0x1c580e16c547b863f9bf433ef6d6fe98a533f71d8882b2fb7eca0c3ad7d8e296"
          ],
          "data": "0x000000000000000000000000000000000000000000a56fa5b99019a5c80000000000000000000000000000000000000000000000000000000000000000000001",
          "blockHash": "0x624b99dcaa713154f029d287917ea4a28092a085ccc7897818431d91f48b7a1e",
          "blockNumber": "0x1e93fa6",
          "transactionHash": "0xe78adc8ce0545b0b57eb319714e8ba88ac49ee0365a2f08e5912c7991261f1fa",
          "transactionIndex": "0x43",
          "logIndex": "0x157",
          "removed": false
        },
        {
          "address": "0x52bc5caf2520c31a7669a7faad0f8e37af53c5d3",
          "topics": [
            "0xddf252ad1be2c89b69c2b068fc378daa952ba7f163c4a11628f55a4df523b3ef",
            "0x000000000000000000000000c5c5a0220c1abfcfa26eec68e55d9b689193d6b2",
            "0x000000000000000000000000498581ff718922c3f8e6a244956af099b2652b2b"
          ],
          "data": "0x00000000000000000000000000000000000000000052b7d2dcc80cd2e4000000",
          "blockHash": "0x624b99dcaa713154f029d287917ea4a28092a085ccc7897818431d91f48b7a1e",
          "blockNumber": "0x1e93fa6",
          "transactionHash": "0xe78adc8ce0545b0b57eb319714e8ba88ac49ee0365a2f08e5912c7991261f1fa",
          "transactionIndex": "0x43",
          "logIndex": "0x158",
          "removed": false
        },
        {
          "address": "0xfe3ad79f52cd53bf8e948a32936d7d5eb53f00a7",
          "topics": [
            "0xddf252ad1be2c89b69c2b068fc378daa952ba7f163c4a11628f55a4df523b3ef",
            "0x000000000000000000000000c5c5a0220c1abfcfa26eec68e55d9b689193d6b2",
            "0x000000000000000000000000498581ff718922c3f8e6a244956af099b2652b2b"
          ],
          "data": "0x00000000000000000000000000000000000000000052b7d2dcc80cd2e4000000",
          "blockHash": "0x624b99dcaa713154f029d287917ea4a28092a085ccc7897818431d91f48b7a1e",
          "blockNumber": "0x1e93fa6",
          "transactionHash": "0xe78adc8ce0545b0b57eb319714e8ba88ac49ee0365a2f08e5912c7991261f1fa",
          "transactionIndex": "0x43",
          "logIndex": "0x159",
          "removed": false
        }
      ],
      "logsBloom": "0x00400000080000000000004000000000000000000020000000000008000000100020000000001000000000000020000000000000002000020002008400042000000020004000000000420008000000000000000000040000400000000000000000000000020000000000100000c4080004000002000000000000001000100000000000000100c0008080000000000008000000000000000002000104000000000040040000000000080000000080000000040000010000000000000000000a0200000002000001030000000000000000000800100000010000000000000860000000080080000000000000000000000004000400002000000000200000000000",
      "type": "0x2",
      "transactionHash": "0xe78adc8ce0545b0b57eb319714e8ba88ac49ee0365a2f08e5912c7991261f1fa",
      "transactionIndex": "0x43",
      "blockHash": "0x624b99dcaa713154f029d287917ea4a28092a085ccc7897818431d91f48b7a1e",
      "blockNumber": "0x1e93fa6",
      "gasUsed": "0xf6aae",
      "effectiveGasPrice": "0xe1bf8",
      "from": "0xc5c5a0220c1abfcfa26eec68e55d9b689193d6b2",
      "to": "0x7c5f5a4bbd8fd63184577525326123b519429bdc",
      "contractAddress": null,
      "l1BaseFeeScalar": "0x8dd",
      "l1BlobBaseFee": "0x1",
      "l1BlobBaseFeeScalar": "0x101c12",
      "l1Fee": "0x29a652758",
      "l1GasPrice": "0x43eb166b",
      "l1GasUsed": "0x10e4"
    }
  ],
  "libraries": [],
  "pending": [],
  "returns": {},
  "timestamp": 1750916145,
  "chain": 8453,
  "commit": null
}