{
  "transactions": [
    {
      "hash": "0x9fcb3a0e0e1c2a2fa8089b23b96092d0f2fcec42c0509a894975b420990db654",
      "transactionType": "CALL",
      "contractName": null,
      "contractAddress": "0x52bc5caf2520c31a7669a7faad0f8e37af53c5d3",
      "function": "approve(address,uint256)",
      "arguments": [
        "0x000000000022D473030F116dDEE9F6B43aC78BA3",
        "115792089237316195423570985008687907853269984665640564039457584007913129639935"
      ],
      "transaction": {
        "from": "0xc5c5a0220c1abfcfa26eec68e55d9b689193d6b2",
        "to": "0x52bc5caf2520c31a7669a7faad0f8e37af53c5d3",
        "gas": "0x9625",
        "value": "0x0",
        "input": "0x095ea7b3000000000000000000000000000000000022d473030f116ddee9f6b43ac78ba3ffffffffffffffffffffffffffffffffffffffffffffffffffffffffffffffff",
        "nonce": "0x67",
        "chainId": "0x2105"
      },
      "additionalContracts": [],
      "isFixedGasLimit": false
    },
    {
      "hash": "0x49923c264d98438e6b946d55cf25063586b9acc787341be03d6b184b6ea898f1",
      "transactionType": "CALL",
      "contractName": null,
      "contractAddress": "0xfe3ad79f52cd53bf8e948a32936d7d5eb53f00a7",
      "function": "approve(address,uint256)",
      "arguments": [
        "0x000000000022D473030F116dDEE9F6B43aC78BA3",
        "115792089237316195423570985008687907853269984665640564039457584007913129639935"
      ],
      "transaction": {
        "from": "0xc5c5a0220c1abfcfa26eec68e55d9b689193d6b2",
        "to": "0xfe3ad79f52cd53bf8e948a32936d7d5eb53f00a7",
        "gas": "0x9625",
        "value": "0x0",
        "input": "0x095ea7b3000000000000000000000000000000000022d473030f116ddee9f6b43ac78ba3ffffffffffffffffffffffffffffffffffffffffffffffffffffffffffffffff",
        "nonce": "0x68",
        "chainId": "0x2105"
      },
      "additionalContracts": [],
      "isFixedGasLimit": false
    },
    {
      "hash": "0x25fb9d29c15cda4e9aefc66d8e0148b9ef72c96b248dc599a85a2f19cc273d7e",
      "transactionType": "CALL",
      "contractName": null,
      "contractAddress": "0x000000000022d473030f116ddee9f6b43ac78ba3",
      "function": "approve(address,address,uint160,uint48)",
      "arguments": [
        "0x52bc5Caf2520c31a7669A7FAaD0F8E37aF53c5D3",
        "0x7C5f5A4bBd8fD63184577525326123B519429bDc",
        "1461501637330902918203684832716283019655932542975",
        "281474976710655"
      ],
      "transaction": {
        "from": "0xc5c5a0220c1abfcfa26eec68e55d9b689193d6b2",
        "to": "0x000000000022d473030f116ddee9f6b43ac78ba3",
        "gas": "0x96a0",
        "value": "0x0",
        "input": "0x87517c4500000000000000000000000052bc5caf2520c31a7669a7faad0f8e37af53c5d30000000000000000000000007c5f5a4bbd8fd63184577525326123b519429bdc000000000000000000000000ffffffffffffffffffffffffffffffffffffffff0000000000000000000000000000000000000000000000000000ffffffffffff",
        "nonce": "0x69",
        "chainId": "0x2105"
      },
      "additionalContracts": [],
      "isFixedGasLimit": false
    },
    {
      "hash": "0xc5f70959bfdc8fdc00afaead12e5f18e06047e8cacd9365123e27472774faeca",
      "transactionType": "CALL",
      "contractName": null,
      "contractAddress": "0x000000000022d473030f116ddee9f6b43ac78ba3",
      "function": "approve(address,address,uint160,uint48)",
      "arguments": [
        "0xFe3Ad79f52CD53bf8e948A32936d7d5EB53f00a7",
        "0x7C5f5A4bBd8fD63184577525326123B519429bDc",
        "1461501637330902918203684832716283019655932542975",
        "281474976710655"
      ],
      "transaction": {
        "from": "0xc5c5a0220c1abfcfa26eec68e55d9b689193d6b2",
        "to": "0x000000000022d473030f116ddee9f6b43ac78ba3",
        "gas": "0x9f6c",
        "value": "0x0",
        "input": "0x87517c45000000000000000000000000fe3ad79f52cd53bf8e948a32936d7d5eb53f00a70000000000000000000000007c5f5a4bbd8fd63184577525326123b519429bdc000000000000000000000000ffffffffffffffffffffffffffffffffffffffff0000000000000000000000000000000000000000000000000000ffffffffffff",
        "nonce": "0x6a",
        "chainId": "0x2105"
      },
      "additionalContracts": [],
      "isFixedGasLimit": false
    },
    {
      "hash": "0x9357f50bd5e20c0876a0ce22cf9d8a702dbc60c6e621c8fef947dc33b96f837c",
      "transactionType": "CALL",
      "contractName": null,
      "contractAddress": "0x7c5f5a4bbd8fd63184577525326123b519429bdc",
      "function": "modifyLiquidities(bytes,uint256)",
      "arguments": [
        "0x000000000000000000000000000000000000000000000000000000000000004000000000000000000000000000000000000000000000000000000000000000800000000000000000000000000000000000000000000000000000000000000002020d00000000000000000000000000000000000000000000000000000000000000000000000000000000000000000000000000000000000000000000000000020000000000000000000000000000000000000000000000000000000000000040000000000000000000000000000000000000000000000000000000000000022000000000000000000000000000000000000000000000000000000000000001c000000000000000000000000052bc5caf2520c31a7669a7faad0f8e37af53c5d3000000000000000000000000fe3ad79f52cd53bf8e948a32936d7d5eb53f00a70000000000000000000000000000000000000000000000000000000000000bb8000000000000000000000000000000000000000000000000000000000000003c00000000000000000000000065e6c7be675a3169f90bb074f19f616772498500ffffffffffffffffffffffffffffffffffffffffffffffffffffffffffff15a0000000000000000000000000000000000000000000000000000000000000ea60000000000000000000000000000000000000000000570d85574a2c60258cd6a4000000000000000000000000000000000000000000538b94f896d9c085000000000000000000000000000000000000000000000000538b94f896d9c085000000000000000000000000000000c5c5a0220c1abfcfa26eec68e55d9b689193d6b200000000000000000000000000000000000000000000000000000000000001800000000000000000000000000000000000000000000000000000000000000020000000000000000000000000c5c5a0220c1abfcfa26eec68e55d9b689193d6b2000000000000000000000000000000000000000000000000000000000000004000000000000000000000000052bc5caf2520c31a7669a7faad0f8e37af53c5d3000000000000000000000000fe3ad79f52cd53bf8e948a32936d7d5eb53f00a7",
        "1750918395"
      ],
      "transaction": {
        "from": "0xc5c5a0220c1abfcfa26eec68e55d9b689193d6b2",
        "to": "0x7c5f5a4bbd8fd63184577525326123b519429bdc",
        "gas": "0x8985f",
        "value": "0x0",
        "input": "0xdd46508f000000000000000000000000000000000000000000000000000000000000004000000000000000000000000000000000000000000000000000000000685ce4fb0000000000000000000000000000000000000000000000000000000000000320000000000000000000000000000000000000000000000000000000000000004000000000000000000000000000000000000000000000000000000000000000800000000000000000000000000000000000000000000000000000000000000002020d00000000000000000000000000000000000000000000000000000000000000000000000000000000000000000000000000000000000000000000000000020000000000000000000000000000000000000000000000000000000000000040000000000000000000000000000000000000000000000000000000000000022000000000000000000000000000000000000000000000000000000000000001c000000000000000000000000052bc5caf2520c31a7669a7faad0f8e37af53c5d3000000000000000000000000fe3ad79f52cd53bf8e948a32936d7d5eb53f00a70000000000000000000000000000000000000000000000000000000000000bb8000000000000000000000000000000000000000000000000000000000000003c00000000000000000000000065e6c7be675a3169f90bb074f19f616772498500ffffffffffffffffffffffffffffffffffffffffffffffffffffffffffff15a0000000000000000000000000000000000000000000000000000000000000ea60000000000000000000000000000000000000000000570d85574a2c60258cd6a4000000000000000000000000000000000000000000538b94f896d9c085000000000000000000000000000000000000000000000000538b94f896d9c085000000000000000000000000000000c5c5a0220c1abfcfa26eec68e55d9b689193d6b200000000000000000000000000000000000000000000000000000000000001800000000000000000000000000000000000000000000000000000000000000020000000000000000000000000c5c5a0220c1abfcfa26eec68e55d9b689193d6b2000000000000000000000000000000000000000000000000000000000000004000000000000000000000000052bc5caf2520c31a7669a7faad0f8e37af53c5d3000000000000000000000000fe3ad79f52cd53bf8e948a32936d7d5eb53f00a7",
        "nonce": "0x6b",
        "chainId": "0x2105"
      },
      "additionalContracts": [],
      "isFixedGasLimit": false
    }
  ],
  "receipts": [
    {
      "status": "0x1",
      "cumulativeGasUsed": "0x2bb2ce9",
      "logs": [
        {
          "address": "0x52bc5caf2520c31a7669a7faad0f8e37af53c5d3",
          "topics": [
            "0x8c5be1e5ebec7d5bd14f71427d1e84f3dd0314c0f7b2291e5b200ac8c7c3b925",
            "0x000000000000000000000000c5c5a0220c1abfcfa26eec68e55d9b689193d6b2",
            "0x000000000000000000000000000000000022d473030f116ddee9f6b43ac78ba3"
          ],
          "data": "0xffffffffffffffffffffffffffffffffffffffffffffffffffffffffffffffff",
          "blockHash": "0xe113e6fd9fcae6b06dcf65ec107e2c2774e5aa7e1954e337baf5bef18b01122e",
          "blockNumber": "0x1e943d8",
          "transactionHash": "0x9fcb3a0e0e1c2a2fa8089b23b96092d0f2fcec42c0509a894975b420990db654",
          "transactionIndex": "0xb5",
          "logIndex": "0x231",
          "removed": false
        }
      ],
      "logsBloom": "0x00000000000000000000000000000000000000000000000000000000000000000000000000001000000000000000000000000000800000000000008000200000000000004000000000004000000000000000000000000800000000000000000000000000000000000000100000000000000000000000000000000000000000000000000000000000000000000000000000000000000000000000000000000000020000000000000000000000000000000000000000000000000000000000000000000000000000020000000000000000000000000000000000000000000000000010080000000000000000000000000000000000000000000000000000000000",
      "type": "0x2",
      "transactionHash": "0x9fcb3a0e0e1c2a2fa8089b23b96092d0f2fcec42c0509a894975b420990db654",
      "transactionIndex": "0xb5",
      "blockHash": "0xe113e6fd9fcae6b06dcf65ec107e2c2774e5aa7e1954e337baf5bef18b01122e",
      "blockNumber": "0x1e943d8",
      "gasUsed": "0x66aa",
      "effectiveGasPrice": "0x19d507",
      "from": "0xc5c5a0220c1abfcfa26eec68e55d9b689193d6b2",
      "to": "0x52bc5caf2520c31a7669a7faad0f8e37af53c5d3",
      "contractAddress": null,
      "l1BaseFeeScalar": "0x8dd",
      "l1BlobBaseFee": "0x1",
      "l1BlobBaseFeeScalar": "0x101c12",
      "l1Fee": "0x107b6b931",
      "l1GasPrice": "0x48a3f223",
      "l1GasUsed": "0x640"
    },
    {
      "status": "0x1",
      "cumulativeGasUsed": "0x2bb9393",
      "logs": [
        {
          "address": "0xfe3ad79f52cd53bf8e948a32936d7d5eb53f00a7",
          "topics": [
            "0x8c5be1e5ebec7d5bd14f71427d1e84f3dd0314c0f7b2291e5b200ac8c7c3b925",
            "0x000000000000000000000000c5c5a0220c1abfcfa26eec68e55d9b689193d6b2",
            "0x000000000000000000000000000000000022d473030f116ddee9f6b43ac78ba3"
          ],
          "data": "0xffffffffffffffffffffffffffffffffffffffffffffffffffffffffffffffff",
          "blockHash": "0xe113e6fd9fcae6b06dcf65ec107e2c2774e5aa7e1954e337baf5bef18b01122e",
          "blockNumber": "0x1e943d8",
          "transactionHash": "0x49923c264d98438e6b946d55cf25063586b9acc787341be03d6b184b6ea898f1",
          "transactionIndex": "0xb6",
          "logIndex": "0x232",
          "removed": false
        }
      ],
      "logsBloom": "0x00000000000000000000000000000000000000000000000000000000000000000000000000001000000000000000000000000000800000000002008000200000000000004000000000004000000000000000000000000800000000000000000000000000000000000000000000000000000000000000000000000000000000000000000000000000000000000000000000000000000000000000000000000000020000000000000000000000000000000004000000000000000000000000000000000000000000000000000000000000000000000000000000000000000000000010000080000000000000000000000000000000000000000000000000000000",
      "type": "0x2",
      "transactionHash": "0x49923c264d98438e6b946d55cf25063586b9acc787341be03d6b184b6ea898f1",
      "transactionIndex": "0xb6",
      "blockHash": "0xe113e6fd9fcae6b06dcf65ec107e2c2774e5aa7e1954e337baf5bef18b01122e",
      "blockNumber": "0x1e943d8",
      "gasUsed": "0x66aa",
      "effectiveGasPrice": "0x19d507",
      "from": "0xc5c5a0220c1abfcfa26eec68e55d9b689193d6b2",
      "to": "0xfe3ad79f52cd53bf8e948a32936d7d5eb53f00a7",
      "contractAddress": null,
      "l1BaseFeeScalar": "0x8dd",
      "l1BlobBaseFee": "0x1",
      "l1BlobBaseFeeScalar": "0x101c12",
      "l1Fee": "0x107b6b931",
      "l1GasPrice": "0x48a3f223",
      "l1GasUsed": "0x640"
    },
    {
      "status": "0x1",
      "cumulativeGasUsed": "0x2bc00a1",
      "logs": [
        {
          "address": "0x000000000022d473030f116ddee9f6b43ac78ba3",
          "topics": [
            "0xda9fa7c1b00402c17d0161b249b1ab8bbec047c5a52207b9c112deffd817036b",
            "0x000000000000000000000000c5c5a0220c1abfcfa26eec68e55d9b689193d6b2",
            "0x00000000000000000000000052bc5caf2520c31a7669a7faad0f8e37af53c5d3",
            "0x0000000000000000000000007c5f5a4bbd8fd63184577525326123b519429bdc"
          ],
          "data": "0x000000000000000000000000ffffffffffffffffffffffffffffffffffffffff0000000000000000000000000000000000000000000000000000ffffffffffff",
          "blockHash": "0xe113e6fd9fcae6b06dcf65ec107e2c2774e5aa7e1954e337baf5bef18b01122e",
          "blockNumber": "0x1e943d8",
          "transactionHash": "0x25fb9d29c15cda4e9aefc66d8e0148b9ef72c96b248dc599a85a2f19cc273d7e",
          "transactionIndex": "0xb7",
          "logIndex": "0x233",
          "removed": false
        }
      ],
      "logsBloom": "0x00010000000000000000000000000000000000000000000000000000000000000000000000001000000000000000000000000000000000000000008000083000000000004000100000000000000000000000000000000000000000000000000000000000000000000000000000000000000000000000000000000000000000000020000000000000000000000000000000000000000000000000000000000000000000000000000000000000000000000000000000000000000000080000000200000000000000000000000000000000000000000000000040000000000000000000000000000000000000000000000000000000002008000000000000000400",
      "type": "0x2",
      "transactionHash": "0x25fb9d29c15cda4e9aefc66d8e0148b9ef72c96b248dc599a85a2f19cc273d7e",
      "transactionIndex": "0xb7",
      "blockHash": "0xe113e6fd9fcae6b06dcf65ec107e2c2774e5aa7e1954e337baf5bef18b01122e",
      "blockNumber": "0x1e943d8",
      "gasUsed": "0x6d0e",
      "effectiveGasPrice": "0x19d507",
      "from": "0xc5c5a0220c1abfcfa26eec68e55d9b689193d6b2",
      "to": "0x000000000022d473030f116ddee9f6b43ac78ba3",
      "contractAddress": null,
      "l1BaseFeeScalar": "0x8dd",
      "l1BlobBaseFee": "0x1",
      "l1BlobBaseFeeScalar": "0x101c12",
      "l1Fee": "0x1212e8107",
      "l1GasPrice": "0x48a3f223",
      "l1GasUsed": "0x6da"
    },
    {
      "status": "0x1",
      "cumulativeGasUsed": "0x2bc6da3",
      "logs": [
        {
          "address": "0x000000000022d473030f116ddee9f6b43ac78ba3",
          "topics": [
            "0xda9fa7c1b00402c17d0161b249b1ab8bbec047c5a52207b9c112deffd817036b",
            "0x000000000000000000000000c5c5a0220c1abfcfa26eec68e55d9b689193d6b2",
            "0x000000000000000000000000fe3ad79f52cd53bf8e948a32936d7d5eb53f00a7",
            "0x0000000000000000000000007c5f5a4bbd8fd63184577525326123b519429bdc"
          ],
          "data": "0x000000000000000000000000ffffffffffffffffffffffffffffffffffffffff0000000000000000000000000000000000000000000000000000ffffffffffff",
          "blockHash": "0xe113e6fd9fcae6b06dcf65ec107e2c2774e5aa7e1954e337baf5bef18b01122e",
          "blockNumber": "0x1e943d8",
          "transactionHash": "0xc5f70959bfdc8fdc00afaead12e5f18e06047e8cacd9365123e27472774faeca",
          "transactionIndex": "0xb8",
          "logIndex": "0x234",
          "removed": false
        }
      ],
      "logsBloom": "0x00010000000000000000000000000000002000000000000000000000000000000000000001001000000000000000000000000000000000000000008000082000000000004000000000000000000000000000000000000000000000000000000000000000000000000000000000000000000000000000000000000000000000000020000000000000000000000000000000000000000000000000000000000000000000000000000000000000000000000000000000000000000000080000000200000000000000000000000000000000000000010000000040000000000000000000000000000000000000000000000000000000002000000000000000000400",
      "type": "0x2",
      "transactionHash": "0xc5f70959bfdc8fdc00afaead12e5f18e06047e8cacd9365123e27472774faeca",
      "transactionIndex": "0xb8",
      "blockHash": "0xe113e6fd9fcae6b06dcf65ec107e2c2774e5aa7e1954e337baf5bef18b01122e",
      "blockNumber": "0x1e943d8",
      "gasUsed": "0x6d02",
      "effectiveGasPrice": "0x19d507",
      "from": "0xc5c5a0220c1abfcfa26eec68e55d9b689193d6b2",
      "to": "0x000000000022d473030f116ddee9f6b43ac78ba3",
      "contractAddress": null,
      "l1BaseFeeScalar": "0x8dd",
      "l1BlobBaseFee": "0x1",
      "l1BlobBaseFeeScalar": "0x101c12",
      "l1Fee": "0x1212e8107",
      "l1GasPrice": "0x48a3f223",
      "l1GasUsed": "0x6da"
    },
    {
      "status": "0x1",
      "cumulativeGasUsed": "0x2c2a6ab",
      "logs": [
        {
          "address": "0x7c5f5a4bbd8fd63184577525326123b519429bdc",
          "topics": [
            "0xddf252ad1be2c89b69c2b068fc378daa952ba7f163c4a11628f55a4df523b3ef",
            "0x0000000000000000000000000000000000000000000000000000000000000000",
            "0x000000000000000000000000c5c5a0220c1abfcfa26eec68e55d9b689193d6b2",
            "0x00000000000000000000000000000000000000000000000000000000000125aa"
          ],
          "data": "0x",
          "blockHash": "0xe113e6fd9fcae6b06dcf65ec107e2c2774e5aa7e1954e337baf5bef18b01122e",
          "blockNumber": "0x1e943d8",
          "transactionHash": "0x9357f50bd5e20c0876a0ce22cf9d8a702dbc60c6e621c8fef947dc33b96f837c",
          "transactionIndex": "0xb9",
          "logIndex": "0x235",
          "removed": false
        },
        {
          "address": "0x498581ff718922c3f8e6a244956af099b2652b2b",
          "topics": [
            "0xf208f4912782fd25c7f114ca3723a2d5dd6f3bcc3ac8db5af63baa85f711d5ec",
            "0x1c580e16c547b863f9bf433ef6d6fe98a533f71d8882b2fb7eca0c3ad7d8e296",
            "0x0000000000000000000000007c5f5a4bbd8fd63184577525326123b519429bdc"
          ],
          "data": "0xffffffffffffffffffffffffffffffffffffffffffffffffffffffffffff15a0000000000000000000000000000000000000000000000000000000000000ea60000000000000000000000000000000000000000000570d85574a2c60258cd6a400000000000000000000000000000000000000000000000000000000000125aa",
          "blockHash": "0xe113e6fd9fcae6b06dcf65ec107e2c2774e5aa7e1954e337baf5bef18b01122e",
          "blockNumber": "0x1e943d8",
          "transactionHash": "0x9357f50bd5e20c0876a0ce22cf9d8a702dbc60c6e621c8fef947dc33b96f837c",
          "transactionIndex": "0xb9",
          "logIndex": "0x236",
          "removed": false
        },
        {
          "address": "0x65e6c7be675a3169f90bb074f19f616772498500",
          "topics": [
            "0x9e4d5381437f2410e1f62e8a11414e27051938239fed4b2c438c6137dc234954"
          ],
          "data": "0x00000000000000000000000000000000000000000000000000000000000000a00000000000000000000000007c5f5a4bbd8fd63184577525326123b519429bdc000000000000000000000000000000000000000000000000000000000000000000000000000000000000000000000000000000000000000000000000000000000000000000000000000000000000000000000000000000000000000000000000000000000000000000000000000000000000000000000000000000000000001761667465724164644c69717569646974795f7374617274000000000000000000",
          "blockHash": "0xe113e6fd9fcae6b06dcf65ec107e2c2774e5aa7e1954e337baf5bef18b01122e",
          "blockNumber": "0x1e943d8",
          "transactionHash": "0x9357f50bd5e20c0876a0ce22cf9d8a702dbc60c6e621c8fef947dc33b96f837c",
          "transactionIndex": "0xb9",
          "logIndex": "0x237",
          "removed": false
        },
        {
          "address": "0x65e6c7be675a3169f90bb074f19f616772498500",
          "topics": [
            "0x0043275e9ddc4d8897db692a9593b442059427ecdd8153707cc9e24767e13629"
          ],
          "data": "0x0000000000000000000000007c5f5a4bbd8fd63184577525326123b519429bdc000000000000000000000000c5c5a0220c1abfcfa26eec68e55d9b689193d6b200000000000000000000000000000000000000000000000000000000000000600000000000000000000000000000000000000000000000000000000000000008686f6f6b44617461000000000000000000000000000000000000000000000000",
          "blockHash": "0xe113e6fd9fcae6b06dcf65ec107e2c2774e5aa7e1954e337baf5bef18b01122e",
          "blockNumber": "0x1e943d8",
          "transactionHash": "0x9357f50bd5e20c0876a0ce22cf9d8a702dbc60c6e621c8fef947dc33b96f837c",
          "transactionIndex": "0xb9",
          "logIndex": "0x238",
          "removed": false
        },
        {
          "address": "0x65e6c7be675a3169f90bb074f19f616772498500",
          "topics": [
            "0x9e4d5381437f2410e1f62e8a11414e27051938239fed4b2c438c6137dc234954"
          ],
          "data": "0x00000000000000000000000000000000000000000000000000000000000000a0000000000000000000000000c5c5a0220c1abfcfa26eec68e55d9b689193d6b2000000000000000000000000000000000000000000000000000000000000000000000000000000000000000000000000000000000000000000000000000000000000000000000000000000000000000000000000000000000000000000000000000000000000000000000000000000000000000000000000000000000000000d7265736f6c7665645f7573657200000000000000000000000000000000000000",
          "blockHash": "0xe113e6fd9fcae6b06dcf65ec107e2c2774e5aa7e1954e337baf5bef18b01122e",
          "blockNumber": "0x1e943d8",
          "transactionHash": "0x9357f50bd5e20c0876a0ce22cf9d8a702dbc60c6e621c8fef947dc33b96f837c",
          "transactionIndex": "0xb9",
          "logIndex": "0x239",
          "removed": false
        },
        {
          "address": "0x65e6c7be675a3169f90bb074f19f616772498500",
          "topics": [
            "0x9e4d5381437f2410e1f62e8a11414e27051938239fed4b2c438c6137dc234954"
          ],
          "data": "0x00000000000000000000000000000000000000000000000000000000000000a0000000000000000000000000c5c5a0220c1abfcfa26eec68e55d9b689193d6b2000000000000000000000000c166c00d5696afb27cf07671a85b78a589a20a5c00000000000000000000000000000000000000000000000000000000000000010000000000000000000000000000000000000000000000000000000000000000000000000000000000000000000000000000000000000000000000000000000d676f745f757365725f696e666f00000000000000000000000000000000000000",
          "blockHash": "0xe113e6fd9fcae6b06dcf65ec107e2c2774e5aa7e1954e337baf5bef18b01122e",
          "blockNumber": "0x1e943d8",
          "transactionHash": "0x9357f50bd5e20c0876a0ce22cf9d8a702dbc60c6e621c8fef947dc33b96f837c",
          "transactionIndex": "0xb9",
          "logIndex": "0x23a",
          "removed": false
        },
        {
          "address": "0x65e6c7be675a3169f90bb074f19f616772498500",
          "topics": [
            "0x9e4d5381437f2410e1f62e8a11414e27051938239fed4b2c438c6137dc234954"
          ],
          "data": "0x00000000000000000000000000000000000000000000000000000000000000a0000000000000000000000000c5c5a0220c1abfcfa26eec68e55d9b689193d6b2000000000000000000000000c166c00d5696afb27cf07671a85b78a589a20a5c0000000000000000000000000000000000000000000000000000000000000001000000000000000000000000000000000000000000a56fa5b99019a5c8000000000000000000000000000000000000000000000000000000000000000000000e63616c63756c617465645f74766c000000000000000000000000000000000000",
          "blockHash": "0xe113e6fd9fcae6b06dcf65ec107e2c2774e5aa7e1954e337baf5bef18b01122e",
          "blockNumber": "0x1e943d8",
          "transactionHash": "0x9357f50bd5e20c0876a0ce22cf9d8a702dbc60c6e621c8fef947dc33b96f837c",
          "transactionIndex": "0xb9",
          "logIndex": "0x23b",
          "removed": false
        },
        {
          "address": "0x9e895e8da3ff34c7b73d9ad94d9e562c2d4dc01e",
          "topics": [
            "0xd8356a6cf3e0979763d849f44f7f1405622b99f6229bc913bcfeda3a64d4b4fe",
            "0x0000000000000000000000000000000000000000000000000000000000000001"
          ],
          "data": "0x0000000000000000000000000000000000000000014adf4b7320334b90000000",
          "blockHash": "0xe113e6fd9fcae6b06dcf65ec107e2c2774e5aa7e1954e337baf5bef18b01122e",
          "blockNumber": "0x1e943d8",
          "transactionHash": "0x9357f50bd5e20c0876a0ce22cf9d8a702dbc60c6e621c8fef947dc33b96f837c",
          "transactionIndex": "0xb9",
          "logIndex": "0x23c",
          "removed": false
        },
        {
          "address": "0x65e6c7be675a3169f90bb074f19f616772498500",
          "topics": [
            "0x9e4d5381437f2410e1f62e8a11414e27051938239fed4b2c438c6137dc234954"
          ],
          "data": "0x00000000000000000000000000000000000000000000000000000000000000a0000000000000000000000000c5c5a0220c1abfcfa26eec68e55d9b689193d6b2000000000000000000000000c166c00d5696afb27cf07671a85b78a589a20a5c00000000000000000000000000000000000000000000000000000000000000010000000000000000000000000000000000000000014adf4b7320334b90000000000000000000000000000000000000000000000000000000000000000000001072656769737472795f7570646174656400000000000000000000000000000000",
          "blockHash": "0xe113e6fd9fcae6b06dcf65ec107e2c2774e5aa7e1954e337baf5bef18b01122e",
          "blockNumber": "0x1e943d8",
          "transactionHash": "0x9357f50bd5e20c0876a0ce22cf9d8a702dbc60c6e621c8fef947dc33b96f837c",
          "transactionIndex": "0xb9",
          "logIndex": "0x23d",
          "removed": false
        },
        {
          "address": "0xbf133a716f07ff6a9c93e60ef3781ea491390688",
          "topics": [
            "0x078e3fb0555f2c135b94d90c60fe41418a0bcf065d58e276f0a4ccb8cf7fe777",
            "0x000000000000000000000000c166c00d5696afb27cf07671a85b78a589a20a5c",
            "0x0000000000000000000000000000000000000000000000000000000000000001"
          ],
          "data": "0x000000000000000000000000000000000000000000a56fa5b99019a5c800000000000000000000000000000000000000000000000000000000000000000000010000000000000000000000000000000000000000014adf4b7320334b90000000",
          "blockHash": "0xe113e6fd9fcae6b06dcf65ec107e2c2774e5aa7e1954e337baf5bef18b01122e",
          "blockNumber": "0x1e943d8",
          "transactionHash": "0x9357f50bd5e20c0876a0ce22cf9d8a702dbc60c6e621c8fef947dc33b96f837c",
          "transactionIndex": "0xb9",
          "logIndex": "0x23e",
          "removed": false
        },
        {
          "address": "0x65e6c7be675a3169f90bb074f19f616772498500",
          "topics": [
            "0x9e4d5381437f2410e1f62e8a11414e27051938239fed4b2c438c6137dc234954"
          ],
          "data": "0x00000000000000000000000000000000000000000000000000000000000000a0000000000000000000000000c5c5a0220c1abfcfa26eec68e55d9b689193d6b2000000000000000000000000c166c00d5696afb27cf07671a85b78a589a20a5c0000000000000000000000000000000000000000000000000000000000000001000000000000000000000000000000000000000000a56fa5b99019a5c800000000000000000000000000000000000000000000000000000000000000000000136c6561646572626f6172645f7570646174656400000000000000000000000000",
          "blockHash": "0xe113e6fd9fcae6b06dcf65ec107e2c2774e5aa7e1954e337baf5bef18b01122e",
          "blockNumber": "0x1e943d8",
          "transactionHash": "0x9357f50bd5e20c0876a0ce22cf9d8a702dbc60c6e621c8fef947dc33b96f837c",
          "transactionIndex": "0xb9",
          "logIndex": "0x23f",
          "removed": false
        },
        {
          "address": "0x65e6c7be675a3169f90bb074f19f616772498500",
          "topics": [
            "0x7cd9c8d0c35e8b62569c73fed20fed9217ada85742d62e59c20732afb4ddf8e2",
            "0x000000000000000000000000c5c5a0220c1abfcfa26eec68e55d9b689193d6b2",
            "0x000000000000000000000000c166c00d5696afb27cf07671a85b78a589a20a5c",
            "0x1c580e16c547b863f9bf433ef6d6fe98a533f71d8882b2fb7eca0c3ad7d8e296"
          ],
          "data": "0x000000000000000000000000000000000000000000a56fa5b99019a5c80000000000000000000000000000000000000000000000000000000000000000000001",
          "blockHash": "0xe113e6fd9fcae6b06dcf65ec107e2c2774e5aa7e1954e337baf5bef18b01122e",
          "blockNumber": "0x1e943d8",
          "transactionHash": "0x9357f50bd5e20c0876a0ce22cf9d8a702dbc60c6e621c8fef947dc33b96f837c",
          "transactionIndex": "0xb9",
          "logIndex": "0x240",
          "removed": false
        },
        {
          "address": "0x52bc5caf2520c31a7669a7faad0f8e37af53c5d3",
          "topics": [
            "0xddf252ad1be2c89b69c2b068fc378daa952ba7f163c4a11628f55a4df523b3ef",
            "0x000000000000000000000000c5c5a0220c1abfcfa26eec68e55d9b689193d6b2",
            "0x000000000000000000000000498581ff718922c3f8e6a244956af099b2652b2b"
          ],
          "data": "0x00000000000000000000000000000000000000000052b7d2dcc80cd2e4000000",
          "blockHash": "0xe113e6fd9fcae6b06dcf65ec107e2c2774e5aa7e1954e337baf5bef18b01122e",
          "blockNumber": "0x1e943d8",
          "transactionHash": "0x9357f50bd5e20c0876a0ce22cf9d8a702dbc60c6e621c8fef947dc33b96f837c",
          "transactionIndex": "0xb9",
          "logIndex": "0x241",
          "removed": false
        },
        {
          "address": "0xfe3ad79f52cd53bf8e948a32936d7d5eb53f00a7",
          "topics": [
            "0xddf252ad1be2c89b69c2b068fc378daa952ba7f163c4a11628f55a4df523b3ef",
            "0x000000000000000000000000c5c5a0220c1abfcfa26eec68e55d9b689193d6b2",
            "0x000000000000000000000000498581ff718922c3f8e6a244956af099b2652b2b"
          ],
          "data": "0x00000000000000000000000000000000000000000052b7d2dcc80cd2e4000000",
          "blockHash": "0xe113e6fd9fcae6b06dcf65ec107e2c2774e5aa7e1954e337baf5bef18b01122e",
          "blockNumber": "0x1e943d8",
          "transactionHash": "0x9357f50bd5e20c0876a0ce22cf9d8a702dbc60c6e621c8fef947dc33b96f837c",
          "transactionIndex": "0xb9",
          "logIndex": "0x242",
          "removed": false
        }
      ],
      "logsBloom": "0x00400000080000000000000000000000000000000020000000000008000000100020000000001000000000000000000100000000002000020002008000042000000020004000000000420008000000000000000000040000400020000000000000000000020000000000100000c4080004000000000000000000001000100000000000000100c0008080000000000008000000000000000002000104000000000040040000000000080000000080000000040000010000000000000000000a0200000002000001030000000000000000000800000001010000000000000860000000080080000000000000000000000004000400002000000000200000000000",
      "type": "0x2",
      "transactionHash": "0x9357f50bd5e20c0876a0ce22cf9d8a702dbc60c6e621c8fef947dc33b96f837c",
      "transactionIndex": "0xb9",
      "blockHash": "0xe113e6fd9fcae6b06dcf65ec107e2c2774e5aa7e1954e337baf5bef18b01122e",
      "blockNumber": "0x1e943d8",
      "gasUsed": "0x63908",
      "effectiveGasPrice": "0x19d507",
      "from": "0xc5c5a0220c1abfcfa26eec68e55d9b689193d6b2",
      "to": "0x7c5f5a4bbd8fd63184577525326123b519429bdc",
      "contractAddress": null,
      "l1BaseFeeScalar": "0x8dd",
      "l1BlobBaseFee": "0x1",
      "l1BlobBaseFeeScalar": "0x101c12",
      "l1Fee": "0x2c6856643",
      "l1GasPrice": "0x48a3f223",
      "l1GasUsed": "0x10d6"
    }
  ],
  "libraries": [],
  "pending": [],
  "returns": {},
  "timestamp": 1750918293,
  "chain": 8453,
  "commit": "f1f07de"
}