{
  "transactions": [
    {
      "hash": "0x2fd5a1761af0b89fe7bbc8a1b3016513dee4bd6e92876267ba512e584f947c6f",
      "transactionType": "CALL",
      "contractName": null,
      "contractAddress": "0x6f22c4b5ec7efaed0c315a2c7a34fdb25a78f6b1",
      "function": "approve(address,uint256)",
      "arguments": [
        "0x000000000022D473030F116dDEE9F6B43aC78BA3",
        "115792089237316195423570985008687907853269984665640564039457584007913129639935"
      ],
      "transaction": {
        "from": "0xc166c00d5696afb27cf07671a85b78a589a20a5c",
        "to": "0x6f22c4b5ec7efaed0c315a2c7a34fdb25a78f6b1",
        "value": "0x0",
        "input": "0x095ea7b3000000000000000000000000000000000022d473030f116ddee9f6b43ac78ba3ffffffffffffffffffffffffffffffffffffffffffffffffffffffffffffffff",
        "nonce": "0x1d",
        "chainId": "0x2105"
      },
      "additionalContracts": [],
      "isFixedGasLimit": false
    },
    {
      "hash": "0x04e323b4c88bf7fd54ef819260dbb6096e670db108c328d0e95332592cbe6158",
      "transactionType": "CALL",
      "contractName": null,
      "contractAddress": "0xe13c9298c63912568ed74825625bc7731c64bc1e",
      "function": "approve(address,uint256)",
      "arguments": [
        "0x000000000022D473030F116dDEE9F6B43aC78BA3",
        "115792089237316195423570985008687907853269984665640564039457584007913129639935"
      ],
      "transaction": {
        "from": "0xc166c00d5696afb27cf07671a85b78a589a20a5c",
        "to": "0xe13c9298c63912568ed74825625bc7731c64bc1e",
        "value": "0x0",
        "input": "0x095ea7b3000000000000000000000000000000000022d473030f116ddee9f6b43ac78ba3ffffffffffffffffffffffffffffffffffffffffffffffffffffffffffffffff",
        "nonce": "0x1e",
        "chainId": "0x2105"
      },
      "additionalContracts": [],
      "isFixedGasLimit": false
    },
    {
      "hash": "0x01e01731537f21034b049a99473a18491fba615101ded74fd7d73fb828d690ac",
      "transactionType": "CALL",
      "contractName": null,
      "contractAddress": "0x000000000022d473030f116ddee9f6b43ac78ba3",
      "function": "approve(address,address,uint160,uint48)",
      "arguments": [
        "0x6F22c4b5ec7efAEd0c315a2C7A34FDb25A78f6b1",
        "0x7C5f5A4bBd8fD63184577525326123B519429bDc",
        "1461501637330902918203684832716283019655932542975",
        "281474976710655"
      ],
      "transaction": {
        "from": "0xc166c00d5696afb27cf07671a85b78a589a20a5c",
        "to": "0x000000000022d473030f116ddee9f6b43ac78ba3",
        "value": "0x0",
        "input": "0x87517c450000000000000000000000006f22c4b5ec7efaed0c315a2c7a34fdb25a78f6b10000000000000000000000007c5f5a4bbd8fd63184577525326123b519429bdc000000000000000000000000ffffffffffffffffffffffffffffffffffffffff0000000000000000000000000000000000000000000000000000ffffffffffff",
        "nonce": "0x1f",
        "chainId": "0x2105"
      },
      "additionalContracts": [],
      "isFixedGasLimit": false
    },
    {
      "hash": "0x793fecd6c4e5b5258f0250c091585d73c360b5dee2ea835eb47365edd80dc446",
      "transactionType": "CALL",
      "contractName": null,
      "contractAddress": "0x000000000022d473030f116ddee9f6b43ac78ba3",
      "function": "approve(address,address,uint160,uint48)",
      "arguments": [
        "0xe13c9298c63912568ed74825625bC7731c64Bc1e",
        "0x7C5f5A4bBd8fD63184577525326123B519429bDc",
        "1461501637330902918203684832716283019655932542975",
        "281474976710655"
      ],
      "transaction": {
        "from": "0xc166c00d5696afb27cf07671a85b78a589a20a5c",
        "to": "0x000000000022d473030f116ddee9f6b43ac78ba3",
        "value": "0x0",
        "input": "0x87517c45000000000000000000000000e13c9298c63912568ed74825625bc7731c64bc1e0000000000000000000000007c5f5a4bbd8fd63184577525326123b519429bdc000000000000000000000000ffffffffffffffffffffffffffffffffffffffff0000000000000000000000000000000000000000000000000000ffffffffffff",
        "nonce": "0x20",
        "chainId": "0x2105"
      },
      "additionalContracts": [],
      "isFixedGasLimit": false
    },
    {
      "hash": "0x20e480b7ffdd482ec91348ad5b3ef75ae3ce17e0db96766dc0496252cdccc5ad",
      "transactionType": "CALL",
      "contractName": null,
      "contractAddress": "0x7c5f5a4bbd8fd63184577525326123b519429bdc",
      "function": "modifyLiquidities(bytes,uint256)",
      "arguments": [
        "0x000000000000000000000000000000000000000000000000000000000000004000000000000000000000000000000000000000000000000000000000000000800000000000000000000000000000000000000000000000000000000000000002020d00000000000000000000000000000000000000000000000000000000000000000000000000000000000000000000000000000000000000000000000000020000000000000000000000000000000000000000000000000000000000000040000000000000000000000000000000000000000000000000000000000000022000000000000000000000000000000000000000000000000000000000000001c00000000000000000000000006f22c4b5ec7efaed0c315a2c7a34fdb25a78f6b1000000000000000000000000e13c9298c63912568ed74825625bc7731c64bc1e0000000000000000000000000000000000000000000000000000000000000bb8000000000000000000000000000000000000000000000000000000000000003c000000000000000000000000953a5dd9072a32167d10966b360b68ec33db4500ffffffffffffffffffffffffffffffffffffffffffffffffffffffffffff15a0000000000000000000000000000000000000000000000000000000000000ea60000000000000000000000000000000000000000000570d85574a2c60258cd6a4000000000000000000000000000000000000000000538b94f896d9c085000000000000000000000000000000000000000000000000538b94f896d9c085000000000000000000000000000000c166c00d5696afb27cf07671a85b78a589a20a5c00000000000000000000000000000000000000000000000000000000000001800000000000000000000000000000000000000000000000000000000000000020000000000000000000000000c166c00d5696afb27cf07671a85b78a589a20a5c00000000000000000000000000000000000000000000000000000000000000400000000000000000000000006f22c4b5ec7efaed0c315a2c7a34fdb25a78f6b1000000000000000000000000e13c9298c63912568ed74825625bc7731c64bc1e",
        "1750807095"
      ],
      "transaction": {
        "from": "0xc166c00d5696afb27cf07671a85b78a589a20a5c",
        "to": "0x7c5f5a4bbd8fd63184577525326123b519429bdc",
        "value": "0x0",
        "input": "0xdd46508f000000000000000000000000000000000000000000000000000000000000004000000000000000000000000000000000000000000000000000000000685b32370000000000000000000000000000000000000000000000000000000000000320000000000000000000000000000000000000000000000000000000000000004000000000000000000000000000000000000000000000000000000000000000800000000000000000000000000000000000000000000000000000000000000002020d00000000000000000000000000000000000000000000000000000000000000000000000000000000000000000000000000000000000000000000000000020000000000000000000000000000000000000000000000000000000000000040000000000000000000000000000000000000000000000000000000000000022000000000000000000000000000000000000000000000000000000000000001c00000000000000000000000006f22c4b5ec7efaed0c315a2c7a34fdb25a78f6b1000000000000000000000000e13c9298c63912568ed74825625bc7731c64bc1e0000000000000000000000000000000000000000000000000000000000000bb8000000000000000000000000000000000000000000000000000000000000003c000000000000000000000000953a5dd9072a32167d10966b360b68ec33db4500ffffffffffffffffffffffffffffffffffffffffffffffffffffffffffff15a0000000000000000000000000000000000000000000000000000000000000ea60000000000000000000000000000000000000000000570d85574a2c60258cd6a4000000000000000000000000000000000000000000538b94f896d9c085000000000000000000000000000000000000000000000000538b94f896d9c085000000000000000000000000000000c166c00d5696afb27cf07671a85b78a589a20a5c00000000000000000000000000000000000000000000000000000000000001800000000000000000000000000000000000000000000000000000000000000020000000000000000000000000c166c00d5696afb27cf07671a85b78a589a20a5c00000000000000000000000000000000000000000000000000000000000000400000000000000000000000006f22c4b5ec7efaed0c315a2c7a34fdb25a78f6b1000000000000000000000000e13c9298c63912568ed74825625bc7731c64bc1e",
        "nonce": "0x21",
        "chainId": "0x2105"
      },
      "additionalContracts": [],
      "isFixedGasLimit": false
    }
  ],
  "receipts": [
    {
      "status": "0x1",
      "cumulativeGasUsed": "0x157dbee",
      "logs": [
        {
          "address": "0x6f22c4b5ec7efaed0c315a2c7a34fdb25a78f6b1",
          "topics": [
            "0x8c5be1e5ebec7d5bd14f71427d1e84f3dd0314c0f7b2291e5b200ac8c7c3b925",
            "0x000000000000000000000000c166c00d5696afb27cf07671a85b78a589a20a5c",
            "0x000000000000000000000000000000000022d473030f116ddee9f6b43ac78ba3"
          ],
          "data": "0xffffffffffffffffffffffffffffffffffffffffffffffffffffffffffffffff",
          "blockHash": "0xdfd6ef2af3aad9dff61458369a6b12118b9b6e059b9d2df2fe9f879f9de4839a",
          "blockNumber": "0x1e86a73",
          "transactionHash": "0x2fd5a1761af0b89fe7bbc8a1b3016513dee4bd6e92876267ba512e584f947c6f",
          "transactionIndex": "0x75",
          "logIndex": "0x1ac",
          "removed": false
        }
      ],
      "logsBloom": "0x00000000080000000000000000000000000000000000000000000000000000000000000000000000000000000000000000000000800000000000000000200000000020000000000000004000000000000000000000000800000000000000000000000000020000000000000000000000000000000000000000000000000000000000000000000000000000000000000000000000000000000000008000000000020000000010000000000000000000000000000000000000000000000000000000000000000000000000000000000000000000000000000000000000000000000010000000000000000000000000000000000000000000004000000000000000",
      "type": "0x2",
      "transactionHash": "0x2fd5a1761af0b89fe7bbc8a1b3016513dee4bd6e92876267ba512e584f947c6f",
      "transactionIndex": "0x75",
      "blockHash": "0xdfd6ef2af3aad9dff61458369a6b12118b9b6e059b9d2df2fe9f879f9de4839a",
      "blockNumber": "0x1e86a73",
      "gasUsed": "0xb466",
      "effectiveGasPrice": "0xebebc",
      "from": "0xc166c00d5696afb27cf07671a85b78a589a20a5c",
      "to": "0x6f22c4b5ec7efaed0c315a2c7a34fdb25a78f6b1",
      "contractAddress": null,
      "l1BaseFeeScalar": "0x8dd",
      "l1BlobBaseFee": "0x1",
      "l1BlobBaseFeeScalar": "0x101c12",
      "l1Fee": "0x2efd96801",
      "l1GasPrice": "0xcf192267",
      "l1GasUsed": "0x640"
    },
    {
      "status": "0x1",
      "cumulativeGasUsed": "0x1d6d745",
      "logs": [
        {
          "address": "0xe13c9298c63912568ed74825625bc7731c64bc1e",
          "topics": [
            "0x8c5be1e5ebec7d5bd14f71427d1e84f3dd0314c0f7b2291e5b200ac8c7c3b925",
            "0x000000000000000000000000c166c00d5696afb27cf07671a85b78a589a20a5c",
            "0x000000000000000000000000000000000022d473030f116ddee9f6b43ac78ba3"
          ],
          "data": "0xffffffffffffffffffffffffffffffffffffffffffffffffffffffffffffffff",
          "blockHash": "0x90fa10f4ce359fce6df8480ec4754b4cb92223c7f6dfe6cacd1bb3815b8bf01d",
          "blockNumber": "0x1e86a75",
          "transactionHash": "0x04e323b4c88bf7fd54ef819260dbb6096e670db108c328d0e95332592cbe6158",
          "transactionIndex": "0x54",
          "logIndex": "0x34b",
          "removed": false
        }
      ],
      "logsBloom": "0x00000000080000000000000000000000000000000000000000000000000000000000000000000000000000000000000000000000800000000000000000200000000020000000000000004000000000000000000000000800000000000400000000000000020000000000000000000000000000000040000000000000000000000000000000000000000000000000000000000000000000000000000000200000020000000000000000000000000000000000000000000000000000000000000000000000000000000000000000000000000000000000000000000000000000000010000000000000000000000000000000000000000000000000000000000000",
      "type": "0x2",
      "transactionHash": "0x04e323b4c88bf7fd54ef819260dbb6096e670db108c328d0e95332592cbe6158",
      "transactionIndex": "0x54",
      "blockHash": "0x90fa10f4ce359fce6df8480ec4754b4cb92223c7f6dfe6cacd1bb3815b8bf01d",
      "blockNumber": "0x1e86a75",
      "gasUsed": "0xb466",
      "effectiveGasPrice": "0xeee6a",
      "from": "0xc166c00d5696afb27cf07671a85b78a589a20a5c",
      "to": "0xe13c9298c63912568ed74825625bc7731c64bc1e",
      "contractAddress": null,
      "l1BaseFeeScalar": "0x8dd",
      "l1BlobBaseFee": "0x1",
      "l1BlobBaseFeeScalar": "0x101c12",
      "l1Fee": "0x2efd96801",
      "l1GasPrice": "0xcf192267",
      "l1GasUsed": "0x640"
    },
    {
      "status": "0x1",
      "cumulativeGasUsed": "0x17c8170",
      "logs": [
        {
          "address": "0x000000000022d473030f116ddee9f6b43ac78ba3",
          "topics": [
            "0xda9fa7c1b00402c17d0161b249b1ab8bbec047c5a52207b9c112deffd817036b",
            "0x000000000000000000000000c166c00d5696afb27cf07671a85b78a589a20a5c",
            "0x0000000000000000000000006f22c4b5ec7efaed0c315a2c7a34fdb25a78f6b1",
            "0x0000000000000000000000007c5f5a4bbd8fd63184577525326123b519429bdc"
          ],
          "data": "0x000000000000000000000000ffffffffffffffffffffffffffffffffffffffff0000000000000000000000000000000000000000000000000000ffffffffffff",
          "blockHash": "0xb4505afc2d9c8eff9610821510939bebcba3eec1aaa8be26cb048362241f9024",
          "blockNumber": "0x1e86a77",
          "transactionHash": "0x01e01731537f21034b049a99473a18491fba615101ded74fd7d73fb828d690ac",
          "transactionIndex": "0x84",
          "logIndex": "0x11a",
          "removed": false
        }
      ],
      "logsBloom": "0x40010000080000000000000000000000000000000000000000000000000000000000000000000000000000000000000000000000000000000000000000082000000020000000000000000000000000000000000000000000000000000000000000000000020000000000000400000000000000000000000000000000000000000020000000000000000000000000000000000000000400000000000000000000000000000000000000000000000000000000000000000000000000080000000200000000000000000000000000000000000000000000000040000000000000000000000000000000000000000000000000000000002000000000000000000400",
      "type": "0x2",
      "transactionHash": "0x01e01731537f21034b049a99473a18491fba615101ded74fd7d73fb828d690ac",
      "transactionIndex": "0x84",
      "blockHash": "0xb4505afc2d9c8eff9610821510939bebcba3eec1aaa8be26cb048362241f9024",
      "blockNumber": "0x1e86a77",
      "gasUsed": "0xbaca",
      "effectiveGasPrice": "0xec498",
      "from": "0xc166c00d5696afb27cf07671a85b78a589a20a5c",
      "to": "0x000000000022d473030f116ddee9f6b43ac78ba3",
      "contractAddress": null,
      "l1BaseFeeScalar": "0x8dd",
      "l1BlobBaseFee": "0x1",
      "l1BlobBaseFeeScalar": "0x101c12",
      "l1Fee": "0x350f4d8f8",
      "l1GasPrice": "0xd3a3331e",
      "l1GasUsed": "0x6e7"
    },
    {
      "status": "0x1",
      "cumulativeGasUsed": "0x12099e4",
      "logs": [
        {
          "address": "0x000000000022d473030f116ddee9f6b43ac78ba3",
          "topics": [
            "0xda9fa7c1b00402c17d0161b249b1ab8bbec047c5a52207b9c112deffd817036b",
            "0x000000000000000000000000c166c00d5696afb27cf07671a85b78a589a20a5c",
            "0x000000000000000000000000e13c9298c63912568ed74825625bc7731c64bc1e",
            "0x0000000000000000000000007c5f5a4bbd8fd63184577525326123b519429bdc"
          ],
          "data": "0x000000000000000000000000ffffffffffffffffffffffffffffffffffffffff0000000000000000000000000000000000000000000000000000ffffffffffff",
          "blockHash": "0x207a82d235070082cb5225cec7174a2b43df50a9ed32ba4a0cf04a1f4a2e1e32",
          "blockNumber": "0x1e86a79",
          "transactionHash": "0x793fecd6c4e5b5258f0250c091585d73c360b5dee2ea835eb47365edd80dc446",
          "transactionIndex": "0x56",
          "logIndex": "0x2d5",
          "removed": false
        }
      ],
      "logsBloom": "0x00010000080000000000000000000000000000000000000000000000000000000000000000000000000000000000000000000000000000000000000000082000000020000000000040000000000000000000040000000000000000000000000000000000020000000000000000000000000000000000000000000000000000000020000000000000000000000000000000000000000000000000000000040000000000000000000000000000000000000000000000000000000000080000000200000000000000000000000000000000000000000000000040000000000000000000000000000000000000000000000000000000002000000000000000000400",
      "type": "0x2",
      "transactionHash": "0x793fecd6c4e5b5258f0250c091585d73c360b5dee2ea835eb47365edd80dc446",
      "transactionIndex": "0x56",
      "blockHash": "0x207a82d235070082cb5225cec7174a2b43df50a9ed32ba4a0cf04a1f4a2e1e32",
      "blockNumber": "0x1e86a79",
      "gasUsed": "0xbaca",
      "effectiveGasPrice": "0xea0fc",
      "from": "0xc166c00d5696afb27cf07671a85b78a589a20a5c",
      "to": "0x000000000022d473030f116ddee9f6b43ac78ba3",
      "contractAddress": null,
      "l1BaseFeeScalar": "0x8dd",
      "l1BlobBaseFee": "0x1",
      "l1BlobBaseFeeScalar": "0x101c12",
      "l1Fee": "0x350f4d8f8",
      "l1GasPrice": "0xd3a3331e",
      "l1GasUsed": "0x6e7"
    },
    {
      "status": "0x1",
      "cumulativeGasUsed": "0x314a57c",
      "logs": [
        {
          "address": "0x7c5f5a4bbd8fd63184577525326123b519429bdc",
          "topics": [
            "0xddf252ad1be2c89b69c2b068fc378daa952ba7f163c4a11628f55a4df523b3ef",
            "0x0000000000000000000000000000000000000000000000000000000000000000",
            "0x000000000000000000000000c166c00d5696afb27cf07671a85b78a589a20a5c",
            "0x0000000000000000000000000000000000000000000000000000000000012462"
          ],
          "data": "0x",
          "blockHash": "0x303b8112ba6bdca18ea17826f0d652a8baa1e94a7b2591ce19350811dec2bcf6",
          "blockNumber": "0x1e86a7b",
          "transactionHash": "0x20e480b7ffdd482ec91348ad5b3ef75ae3ce17e0db96766dc0496252cdccc5ad",
          "transactionIndex": "0xa0",
          "logIndex": "0x353",
          "removed": false
        },
        {
          "address": "0x498581ff718922c3f8e6a244956af099b2652b2b",
          "topics": [
            "0xf208f4912782fd25c7f114ca3723a2d5dd6f3bcc3ac8db5af63baa85f711d5ec",
            "0xc817e78f17a55178f503437797e48bc4b16f64be81137b36897dde91e807b2e8",
            "0x0000000000000000000000007c5f5a4bbd8fd63184577525326123b519429bdc"
          ],
          "data": "0xffffffffffffffffffffffffffffffffffffffffffffffffffffffffffff15a0000000000000000000000000000000000000000000000000000000000000ea60000000000000000000000000000000000000000000570d85574a2c60258cd6a40000000000000000000000000000000000000000000000000000000000012462",
          "blockHash": "0x303b8112ba6bdca18ea17826f0d652a8baa1e94a7b2591ce19350811dec2bcf6",
          "blockNumber": "0x1e86a7b",
          "transactionHash": "0x20e480b7ffdd482ec91348ad5b3ef75ae3ce17e0db96766dc0496252cdccc5ad",
          "transactionIndex": "0xa0",
          "logIndex": "0x354",
          "removed": false
        },
        {
          "address": "0x953a5dd9072a32167d10966b360b68ec33db4500",
          "topics": [
            "0x9e4d5381437f2410e1f62e8a11414e27051938239fed4b2c438c6137dc234954"
          ],
          "data": "0x00000000000000000000000000000000000000000000000000000000000000a00000000000000000000000007c5f5a4bbd8fd63184577525326123b519429bdc000000000000000000000000000000000000000000000000000000000000000000000000000000000000000000000000000000000000000000000000000000000000000000000000000000000000000000000000000000000000000000000000000000000000000000000000000000000000000000000000000000000000001761667465724164644c69717569646974795f7374617274000000000000000000",
          "blockHash": "0x303b8112ba6bdca18ea17826f0d652a8baa1e94a7b2591ce19350811dec2bcf6",
          "blockNumber": "0x1e86a7b",
          "transactionHash": "0x20e480b7ffdd482ec91348ad5b3ef75ae3ce17e0db96766dc0496252cdccc5ad",
          "transactionIndex": "0xa0",
          "logIndex": "0x355",
          "removed": false
        },
        {
          "address": "0x953a5dd9072a32167d10966b360b68ec33db4500",
          "topics": [
            "0x0043275e9ddc4d8897db692a9593b442059427ecdd8153707cc9e24767e13629"
          ],
          "data": "0x0000000000000000000000007c5f5a4bbd8fd63184577525326123b519429bdc000000000000000000000000c166c00d5696afb27cf07671a85b78a589a20a5c00000000000000000000000000000000000000000000000000000000000000600000000000000000000000000000000000000000000000000000000000000008686f6f6b44617461000000000000000000000000000000000000000000000000",
          "blockHash": "0x303b8112ba6bdca18ea17826f0d652a8baa1e94a7b2591ce19350811dec2bcf6",
          "blockNumber": "0x1e86a7b",
          "transactionHash": "0x20e480b7ffdd482ec91348ad5b3ef75ae3ce17e0db96766dc0496252cdccc5ad",
          "transactionIndex": "0xa0",
          "logIndex": "0x356",
          "removed": false
        },
        {
          "address": "0x953a5dd9072a32167d10966b360b68ec33db4500",
          "topics": [
            "0x9e4d5381437f2410e1f62e8a11414e27051938239fed4b2c438c6137dc234954"
          ],
          "data": "0x00000000000000000000000000000000000000000000000000000000000000a0000000000000000000000000c166c00d5696afb27cf07671a85b78a589a20a5c000000000000000000000000000000000000000000000000000000000000000000000000000000000000000000000000000000000000000000000000000000000000000000000000000000000000000000000000000000000000000000000000000000000000000000000000000000000000000000000000000000000000000d7265736f6c7665645f7573657200000000000000000000000000000000000000",
          "blockHash": "0x303b8112ba6bdca18ea17826f0d652a8baa1e94a7b2591ce19350811dec2bcf6",
          "blockNumber": "0x1e86a7b",
          "transactionHash": "0x20e480b7ffdd482ec91348ad5b3ef75ae3ce17e0db96766dc0496252cdccc5ad",
          "transactionIndex": "0xa0",
          "logIndex": "0x357",
          "removed": false
        },
        {
          "address": "0x953a5dd9072a32167d10966b360b68ec33db4500",
          "topics": [
            "0x9e4d5381437f2410e1f62e8a11414e27051938239fed4b2c438c6137dc234954"
          ],
          "data": "0x00000000000000000000000000000000000000000000000000000000000000a0000000000000000000000000c166c00d5696afb27cf07671a85b78a589a20a5c000000000000000000000000000000000000000000000000000000000000000000000000000000000000000000000000000000000000000000000000000000000000000000000000000000000000000000000000000000000000000000000000000000000000000000000000000000000000000000000000000000000000000d676f745f757365725f696e666f00000000000000000000000000000000000000",
          "blockHash": "0x303b8112ba6bdca18ea17826f0d652a8baa1e94a7b2591ce19350811dec2bcf6",
          "blockNumber": "0x1e86a7b",
          "transactionHash": "0x20e480b7ffdd482ec91348ad5b3ef75ae3ce17e0db96766dc0496252cdccc5ad",
          "transactionIndex": "0xa0",
          "logIndex": "0x358",
          "removed": false
        },
        {
          "address": "0x953a5dd9072a32167d10966b360b68ec33db4500",
          "topics": [
            "0x9e4d5381437f2410e1f62e8a11414e27051938239fed4b2c438c6137dc234954"
          ],
          "data": "0x00000000000000000000000000000000000000000000000000000000000000a0000000000000000000000000c166c00d5696afb27cf07671a85b78a589a20a5c0000000000000000000000000000000000000000000000000000000000000000000000000000000000000000000000000000000000000000000000000000000000000000000000000000000000000000000000000000000000000000000000000000000000000000000000000000000000000000000000000000000000000012636f6e646974696f6e735f6e6f745f6d65740000000000000000000000000000",
          "blockHash": "0x303b8112ba6bdca18ea17826f0d652a8baa1e94a7b2591ce19350811dec2bcf6",
          "blockNumber": "0x1e86a7b",
          "transactionHash": "0x20e480b7ffdd482ec91348ad5b3ef75ae3ce17e0db96766dc0496252cdccc5ad",
          "transactionIndex": "0xa0",
          "logIndex": "0x359",
          "removed": false
        },
        {
          "address": "0x6f22c4b5ec7efaed0c315a2c7a34fdb25a78f6b1",
          "topics": [
            "0xddf252ad1be2c89b69c2b068fc378daa952ba7f163c4a11628f55a4df523b3ef",
            "0x000000000000000000000000c166c00d5696afb27cf07671a85b78a589a20a5c",
            "0x000000000000000000000000498581ff718922c3f8e6a244956af099b2652b2b"
          ],
          "data": "0x00000000000000000000000000000000000000000052b7d2dcc80cd2e4000000",
          "blockHash": "0x303b8112ba6bdca18ea17826f0d652a8baa1e94a7b2591ce19350811dec2bcf6",
          "blockNumber": "0x1e86a7b",
          "transactionHash": "0x20e480b7ffdd482ec91348ad5b3ef75ae3ce17e0db96766dc0496252cdccc5ad",
          "transactionIndex": "0xa0",
          "logIndex": "0x35a",
          "removed": false
        },
        {
          "address": "0xe13c9298c63912568ed74825625bc7731c64bc1e",
          "topics": [
            "0xddf252ad1be2c89b69c2b068fc378daa952ba7f163c4a11628f55a4df523b3ef",
            "0x000000000000000000000000c166c00d5696afb27cf07671a85b78a589a20a5c",
            "0x000000000000000000000000498581ff718922c3f8e6a244956af099b2652b2b"
          ],
          "data": "0x00000000000000000000000000000000000000000052b7d2dcc80cd2e4000000",
          "blockHash": "0x303b8112ba6bdca18ea17826f0d652a8baa1e94a7b2591ce19350811dec2bcf6",
          "blockNumber": "0x1e86a7b",
          "transactionHash": "0x20e480b7ffdd482ec91348ad5b3ef75ae3ce17e0db96766dc0496252cdccc5ad",
          "transactionIndex": "0xa0",
          "logIndex": "0x35b",
          "removed": false
        }
      ],
      "logsBloom": "0x00400000080000000000000000000000000000000000000000000000000000000020000000000000000008000800000000000000000000020000000010002000000020000000000000000008000000000000000000000000000000000400000000000000020000000000000000040800040000000040000000000010001000000000000001004000000000200000000000000000000000004200008408200000004004000010000008000000000000000000000000000000000000008000000200000002000001010000002000000000000800000000000000000000000020000000000000000000000000000000000004000400002002004000000000000000",
      "type": "0x2",
      "transactionHash": "0x20e480b7ffdd482ec91348ad5b3ef75ae3ce17e0db96766dc0496252cdccc5ad",
      "transactionIndex": "0xa0",
      "blockHash": "0x303b8112ba6bdca18ea17826f0d652a8baa1e94a7b2591ce19350811dec2bcf6",
      "blockNumber": "0x1e86a7b",
      "gasUsed": "0x41c6c",
      "effectiveGasPrice": "0xee771",
      "from": "0xc166c00d5696afb27cf07671a85b78a589a20a5c",
      "to": "0x7c5f5a4bbd8fd63184577525326123b519429bdc",
      "contractAddress": null,
      "l1BaseFeeScalar": "0x8dd",
      "l1BlobBaseFee": "0x1",
      "l1BlobBaseFeeScalar": "0x101c12",
      "l1Fee": "0x81c86dffb",
      "l1GasPrice": "0xd3a3331e",
      "l1GasUsed": "0x10e4"
    }
  ],
  "libraries": [],
  "pending": [],
  "returns": {},
  "timestamp": 1750807003,
  "chain": 8453,
  "commit": null
}