{
  "transactions": [
    {
      "hash": null,
      "transactionType": "CALL",
      "contractName": null,
      "contractAddress": "0x8fec0da0adb7aab466cfa9a463c87682ac7992ca",
      "function": "transfer(address,uint256)",
      "arguments": [
        "0xc5c5A0220c1AbFCfA26eEc68e55d9b689193d6b2",
        "1000000000"
      ],
      "transaction": {
        "from": "0x2f2b1a3648c58cf224aa69a4b0bdc942f000045f",
        "to": "0x8fec0da0adb7aab466cfa9a463c87682ac7992ca",
        "gas": "0x124ed",
        "value": "0x0",
        "input": "0xa9059cbb000000000000000000000000c5c5a0220c1abfcfa26eec68e55d9b689193d6b2000000000000000000000000000000000000000000000000000000003b9aca00",
        "nonce": "0x2c4",
        "chainId": "0x2105"
      },
      "additionalContracts": [],
      "isFixedGasLimit": false
    },
    {
      "hash": null,
      "transactionType": "CALL",
      "contractName": null,
      "contractAddress": "0xfad83621dd9f7564ab9497e50a6a9ce241061680",
      "function": "transfer(address,uint256)",
      "arguments": [
        "0xc5c5A0220c1AbFCfA26eEc68e55d9b689193d6b2",
        "1000000000000000000000"
      ],
      "transaction": {
        "from": "0x2f2b1a3648c58cf224aa69a4b0bdc942f000045f",
        "to": "0xfad83621dd9f7564ab9497e50a6a9ce241061680",
        "gas": "0x12533",
        "value": "0x0",
        "input": "0xa9059cbb000000000000000000000000c5c5a0220c1abfcfa26eec68e55d9b689193d6b200000000000000000000000000000000000000000000003635c9adc5dea00000",
        "nonce": "0x2c5",
        "chainId": "0x2105"
      },
      "additionalContracts": [],
      "isFixedGasLimit": false
    }
  ],
  "receipts": [],
  "libraries": [],
  "pending": [],
  "returns": {},
  "timestamp": 1750779488,
  "chain": 8453,
  "commit": null
}