{
  "transactions": [
    {
      "hash": "0x73511f829fbd2a69e1cab995c1d4f73de0466ec9c5179571ee1e657645856dba",
      "transactionType": "CALL",
      "contractName": null,
      "contractAddress": "0x8fec0da0adb7aab466cfa9a463c87682ac7992ca",
      "function": "approve(address,uint256)",
      "arguments": [
        "0x000000000022D473030F116dDEE9F6B43aC78BA3",
        "115792089237316195423570985008687907853269984665640564039457584007913129639935"
      ],
      "transaction": {
        "from": "0x2f2b1a3648c58cf224aa69a4b0bdc942f000045f",
        "to": "0x8fec0da0adb7aab466cfa9a463c87682ac7992ca",
        "gas": "0x9625",
        "value": "0x0",
        "input": "0x095ea7b3000000000000000000000000000000000022d473030f116ddee9f6b43ac78ba3ffffffffffffffffffffffffffffffffffffffffffffffffffffffffffffffff",
        "nonce": "0x2bf",
        "chainId": "0x2105"
      },
      "additionalContracts": [],
      "isFixedGasLimit": false
    },
    {
      "hash": "0xf72128774ca4523e9cca4518ebf4e462dcc076df281cf855cd4bd10278977d20",
      "transactionType": "CALL",
      "contractName": null,
      "contractAddress": "0x000000000022d473030f116ddee9f6b43ac78ba3",
      "function": "approve(address,address,uint160,uint48)",
      "arguments": [
        "0x8FeC0dA0Adb7Aab466cFa9a463c87682AC7992Ca",
        "0x7C5f5A4bBd8fD63184577525326123B519429bDc",
        "1461501637330902918203684832716283019655932542975",
        "281474976710655"
      ],
      "transaction": {
        "from": "0x2f2b1a3648c58cf224aa69a4b0bdc942f000045f",
        "to": "0x000000000022d473030f116ddee9f6b43ac78ba3",
        "gas": "0x96a0",
        "value": "0x0",
        "input": "0x87517c450000000000000000000000008fec0da0adb7aab466cfa9a463c87682ac7992ca0000000000000000000000007c5f5a4bbd8fd63184577525326123b519429bdc000000000000000000000000ffffffffffffffffffffffffffffffffffffffff0000000000000000000000000000000000000000000000000000ffffffffffff",
        "nonce": "0x2c0",
        "chainId": "0x2105"
      },
      "additionalContracts": [],
      "isFixedGasLimit": false
    },
    {
      "hash": "0xaf9d0a1b233e40aadcff8f8bb02d0fafcdce9907bbf6c769671b52c8a1ebf05b",
      "transactionType": "CALL",
      "contractName": null,
      "contractAddress": "0xfad83621dd9f7564ab9497e50a6a9ce241061680",
      "function": "approve(address,uint256)",
      "arguments": [
        "0x000000000022D473030F116dDEE9F6B43aC78BA3",
        "115792089237316195423570985008687907853269984665640564039457584007913129639935"
      ],
      "transaction": {
        "from": "0x2f2b1a3648c58cf224aa69a4b0bdc942f000045f",
        "to": "0xfad83621dd9f7564ab9497e50a6a9ce241061680",
        "gas": "0x9625",
        "value": "0x0",
        "input": "0x095ea7b3000000000000000000000000000000000022d473030f116ddee9f6b43ac78ba3ffffffffffffffffffffffffffffffffffffffffffffffffffffffffffffffff",
        "nonce": "0x2c1",
        "chainId": "0x2105"
      },
      "additionalContracts": [],
      "isFixedGasLimit": false
    },
    {
      "hash": "0x8ffafc781ade95b97b93f8b5df3c278951b2bdf33726c195124bc66cb1b378e2",
      "transactionType": "CALL",
      "contractName": null,
      "contractAddress": "0x000000000022d473030f116ddee9f6b43ac78ba3",
      "function": "approve(address,address,uint160,uint48)",
      "arguments": [
        "0xFAd83621dd9f7564Ab9497E50A6A9ce241061680",
        "0x7C5f5A4bBd8fD63184577525326123B519429bDc",
        "1461501637330902918203684832716283019655932542975",
        "281474976710655"
      ],
      "transaction": {
        "from": "0x2f2b1a3648c58cf224aa69a4b0bdc942f000045f",
        "to": "0x000000000022d473030f116ddee9f6b43ac78ba3",
        "gas": "0x96a0",
        "value": "0x0",
        "input": "0x87517c45000000000000000000000000fad83621dd9f7564ab9497e50a6a9ce2410616800000000000000000000000007c5f5a4bbd8fd63184577525326123b519429bdc000000000000000000000000ffffffffffffffffffffffffffffffffffffffff0000000000000000000000000000000000000000000000000000ffffffffffff",
        "nonce": "0x2c2",
        "chainId": "0x2105"
      },
      "additionalContracts": [],
      "isFixedGasLimit": false
    },
    {
      "hash": "0xf729ba9fb7dc1eb0303cf412a006699a5d8cff3edf0827317c5b0f7b50bce1f4",
      "transactionType": "CALL",
      "contractName": null,
      "contractAddress": "0x7c5f5a4bbd8fd63184577525326123b519429bdc",
      "function": "modifyLiquidities(bytes,uint256)",
      "arguments": [
        "0x000000000000000000000000000000000000000000000000000000000000004000000000000000000000000000000000000000000000000000000000000000800000000000000000000000000000000000000000000000000000000000000004020d14140000000000000000000000000000000000000000000000000000000000000000000000000000000000000000000000000000000000000000000000040000000000000000000000000000000000000000000000000000000000000080000000000000000000000000000000000000000000000000000000000000024000000000000000000000000000000000000000000000000000000000000002a0000000000000000000000000000000000000000000000000000000000000030000000000000000000000000000000000000000000000000000000000000001a00000000000000000000000008fec0da0adb7aab466cfa9a463c87682ac7992ca000000000000000000000000fad83621dd9f7564ab9497e50a6a9ce241061680000000000000000000000000000000000000000000000000000000000000271000000000000000000000000000000000000000000000000000000000000000c8000000000000000000000000d6adebcddec37e43ab390b67f5d6ccc278f1c500ffffffffffffffffffffffffffffffffffffffffffffffffffffffffffff8ad000000000000000000000000000000000000000000000000000000000000075300000000000000000000000000000000000000000000000000000000003d616f80000000000000000000000000000000000000000000000000000000003473bc0000000000000000000000000000000000000000000000002fb474098f67c00000000000000000000000000002f2b1a3648c58cf224aa69a4b0bdc942f000045f0000000000000000000000000000000000000000000000000000000000000180000000000000000000000000000000000000000000000000000000000000000000000000000000000000000000000000000000000000000000000000000000400000000000000000000000008fec0da0adb7aab466cfa9a463c87682ac7992ca000000000000000000000000fad83621dd9f7564ab9497e50a6a9ce24106168000000000000000000000000000000000000000000000000000000000000000400000000000000000000000008fec0da0adb7aab466cfa9a463c87682ac7992ca0000000000000000000000002f2b1a3648c58cf224aa69a4b0bdc942f000045f0000000000000000000000000000000000000000000000000000000000000040000000000000000000000000fad83621dd9f7564ab9497e50a6a9ce2410616800000000000000000000000002f2b1a3648c58cf224aa69a4b0bdc942f000045f",
        "1750773073"
      ],
      "transaction": {
        "from": "0x2f2b1a3648c58cf224aa69a4b0bdc942f000045f",
        "to": "0x7c5f5a4bbd8fd63184577525326123b519429bdc",
        "gas": "0x8a74e",
        "value": "0x0",
        "input": "0xdd46508f000000000000000000000000000000000000000000000000000000000000004000000000000000000000000000000000000000000000000000000000685aad510000000000000000000000000000000000000000000000000000000000000400000000000000000000000000000000000000000000000000000000000000004000000000000000000000000000000000000000000000000000000000000000800000000000000000000000000000000000000000000000000000000000000004020d14140000000000000000000000000000000000000000000000000000000000000000000000000000000000000000000000000000000000000000000000040000000000000000000000000000000000000000000000000000000000000080000000000000000000000000000000000000000000000000000000000000024000000000000000000000000000000000000000000000000000000000000002a0000000000000000000000000000000000000000000000000000000000000030000000000000000000000000000000000000000000000000000000000000001a00000000000000000000000008fec0da0adb7aab466cfa9a463c87682ac7992ca000000000000000000000000fad83621dd9f7564ab9497e50a6a9ce241061680000000000000000000000000000000000000000000000000000000000000271000000000000000000000000000000000000000000000000000000000000000c8000000000000000000000000d6adebcddec37e43ab390b67f5d6ccc278f1c500ffffffffffffffffffffffffffffffffffffffffffffffffffffffffffff8ad000000000000000000000000000000000000000000000000000000000000075300000000000000000000000000000000000000000000000000000000003d616f80000000000000000000000000000000000000000000000000000000003473bc0000000000000000000000000000000000000000000000002fb474098f67c00000000000000000000000000002f2b1a3648c58cf224aa69a4b0bdc942f000045f0000000000000000000000000000000000000000000000000000000000000180000000000000000000000000000000000000000000000000000000000000000000000000000000000000000000000000000000000000000000000000000000400000000000000000000000008fec0da0adb7aab466cfa9a463c87682ac7992ca000000000000000000000000fad83621dd9f7564ab9497e50a6a9ce24106168000000000000000000000000000000000000000000000000000000000000000400000000000000000000000008fec0da0adb7aab466cfa9a463c87682ac7992ca0000000000000000000000002f2b1a3648c58cf224aa69a4b0bdc942f000045f0000000000000000000000000000000000000000000000000000000000000040000000000000000000000000fad83621dd9f7564ab9497e50a6a9ce2410616800000000000000000000000002f2b1a3648c58cf224aa69a4b0bdc942f000045f",
        "nonce": "0x2c3",
        "chainId": "0x2105"
      },
      "additionalContracts": [],
      "isFixedGasLimit": false
    }
  ],
  "receipts": [
    {
      "status": "0x1",
      "cumulativeGasUsed": "0x1fd23c5",
      "logs": [
        {
          "address": "0x8fec0da0adb7aab466cfa9a463c87682ac7992ca",
          "topics": [
            "0x8c5be1e5ebec7d5bd14f71427d1e84f3dd0314c0f7b2291e5b200ac8c7c3b925",
            "0x0000000000000000000000002f2b1a3648c58cf224aa69a4b0bdc942f000045f",
            "0x000000000000000000000000000000000022d473030f116ddee9f6b43ac78ba3"
          ],
          "data": "0xffffffffffffffffffffffffffffffffffffffffffffffffffffffffffffffff",
          "blockHash": "0x7619c4fcd8adecc9496a3f51c97c7553dcab91af01caed3989b0149f9182810d",
          "blockNumber": "0x1e827a7",
          "transactionHash": "0x73511f829fbd2a69e1cab995c1d4f73de0466ec9c5179571ee1e657645856dba",
          "transactionIndex": "0x91",
          "logIndex": "0x1c9",
          "removed": false
        }
      ],
      "logsBloom": "0x00000000000000000000000000000000000000000000000000000000000000000000000000000800000000000000000000000000800000000000100004200000000000000000000000004000000000000000000000000800000000000000000000000000000000000000000000000000000000000000000000000000000000000004000000000400000000000000000000000000000000000000000000000000020000000000000000000000000000000000000000000000000000000000000000000000000000000000000800000000000000000000000000000000000000000010000000000000000000000000000000000000000000000000000000000000",
      "type": "0x2",
      "transactionHash": "0x73511f829fbd2a69e1cab995c1d4f73de0466ec9c5179571ee1e657645856dba",
      "transactionIndex": "0x91",
      "blockHash": "0x7619c4fcd8adecc9496a3f51c97c7553dcab91af01caed3989b0149f9182810d",
      "blockNumber": "0x1e827a7",
      "gasUsed": "0x66aa",
      "effectiveGasPrice": "0x598a3a",
      "from": "0x2f2b1a3648c58cf224aa69a4b0bdc942f000045f",
      "to": "0x8fec0da0adb7aab466cfa9a463c87682ac7992ca",
      "contractAddress": null,
      "l1BaseFeeScalar": "0x8dd",
      "l1BlobBaseFee": "0x1",
      "l1BlobBaseFeeScalar": "0x101c12",
      "l1Fee": "0x7999fac4d",
      "l1GasPrice": "0x217ece99f",
      "l1GasUsed": "0x640"
    },
    {
      "status": "0x1",
      "cumulativeGasUsed": "0x1e12d8a",
      "logs": [
        {
          "address": "0x000000000022d473030f116ddee9f6b43ac78ba3",
          "topics": [
            "0xda9fa7c1b00402c17d0161b249b1ab8bbec047c5a52207b9c112deffd817036b",
            "0x0000000000000000000000002f2b1a3648c58cf224aa69a4b0bdc942f000045f",
            "0x0000000000000000000000008fec0da0adb7aab466cfa9a463c87682ac7992ca",
            "0x0000000000000000000000007c5f5a4bbd8fd63184577525326123b519429bdc"
          ],
          "data": "0x000000000000000000000000ffffffffffffffffffffffffffffffffffffffff0000000000000000000000000000000000000000000000000000ffffffffffff",
          "blockHash": "0xcf1121c67329280749641a6577ad56b407ddb52c515f0b31542b8a8352d3c826",
          "blockNumber": "0x1e827a9",
          "transactionHash": "0xf72128774ca4523e9cca4518ebf4e462dcc076df281cf855cd4bd10278977d20",
          "transactionIndex": "0x71",
          "logIndex": "0x1e1",
          "removed": false
        }
      ],
      "logsBloom": "0x00010000000000000000000000000000000000000000000000000000000000000000000000000800000000000000000000000000000000000000100004082000000000000000000000000000000000000000000000000000000000000000000000000000000000000000000002000000000000000000000000000000000000000020000000000000000000000000000000000000000000000000000000000000000000000000000000400000000000000000000000000000000000080000000200000000000000000000000000000000000000000000000040000000000000000000000000000000000000000000000000000004002000000000000000000400",
      "type": "0x2",
      "transactionHash": "0xf72128774ca4523e9cca4518ebf4e462dcc076df281cf855cd4bd10278977d20",
      "transactionIndex": "0x71",
      "blockHash": "0xcf1121c67329280749641a6577ad56b407ddb52c515f0b31542b8a8352d3c826",
      "blockNumber": "0x1e827a9",
      "gasUsed": "0x6d0e",
      "effectiveGasPrice": "0x593f2e",
      "from": "0x2f2b1a3648c58cf224aa69a4b0bdc942f000045f",
      "to": "0x000000000022d473030f116ddee9f6b43ac78ba3",
      "contractAddress": null,
      "l1BaseFeeScalar": "0x8dd",
      "l1BlobBaseFee": "0x1",
      "l1BlobBaseFeeScalar": "0x101c12",
      "l1Fee": "0x8a1fda097",
      "l1GasPrice": "0x21eb6db8f",
      "l1GasUsed": "0x702"
    },
    {
      "status": "0x1",
      "cumulativeGasUsed": "0x1ce9a08",
      "logs": [
        {
          "address": "0xfad83621dd9f7564ab9497e50a6a9ce241061680",
          "topics": [
            "0x8c5be1e5ebec7d5bd14f71427d1e84f3dd0314c0f7b2291e5b200ac8c7c3b925",
            "0x0000000000000000000000002f2b1a3648c58cf224aa69a4b0bdc942f000045f",
            "0x000000000000000000000000000000000022d473030f116ddee9f6b43ac78ba3"
          ],
          "data": "0xffffffffffffffffffffffffffffffffffffffffffffffffffffffffffffffff",
          "blockHash": "0x0d731d869dab2821dc05b989c4ed0079cbf652c53462b70bc899dfda516d9279",
          "blockNumber": "0x1e827ab",
          "transactionHash": "0xaf9d0a1b233e40aadcff8f8bb02d0fafcdce9907bbf6c769671b52c8a1ebf05b",
          "transactionIndex": "0x73",
          "logIndex": "0x127",
          "removed": false
        }
      ],
      "logsBloom": "0x00000000000000000000000000000000000000000000000000000000000000000000000000000800000000000000000000000000800000000000100004200000000000000000000000004000000004000000000000000800000000000000000000000000000000000000000000000000000000000000000000000000000000000000000000000000000000000000000000000000000000000000000000000000020000000000000000200000000000000000000000000000000000000000000000000000000000000000000000000000000000000000000000000000000000000010000000000000000000000000000080000000000000000000000000000000",
      "type": "0x2",
      "transactionHash": "0xaf9d0a1b233e40aadcff8f8bb02d0fafcdce9907bbf6c769671b52c8a1ebf05b",
      "transactionIndex": "0x73",
      "blockHash": "0x0d731d869dab2821dc05b989c4ed0079cbf652c53462b70bc899dfda516d9279",
      "blockNumber": "0x1e827ab",
      "gasUsed": "0x66aa",
      "effectiveGasPrice": "0x58f659",
      "from": "0x2f2b1a3648c58cf224aa69a4b0bdc942f000045f",
      "to": "0xfad83621dd9f7564ab9497e50a6a9ce241061680",
      "contractAddress": null,
      "l1BaseFeeScalar": "0x8dd",
      "l1BlobBaseFee": "0x1",
      "l1BlobBaseFeeScalar": "0x101c12",
      "l1Fee": "0x7b2451bdc",
      "l1GasPrice": "0x21eb6db8f",
      "l1GasUsed": "0x640"
    },
    {
      "status": "0x1",
      "cumulativeGasUsed": "0x1fd1dd9",
      "logs": [
        {
          "address": "0x000000000022d473030f116ddee9f6b43ac78ba3",
          "topics": [
            "0xda9fa7c1b00402c17d0161b249b1ab8bbec047c5a52207b9c112deffd817036b",
            "0x0000000000000000000000002f2b1a3648c58cf224aa69a4b0bdc942f000045f",
            "0x000000000000000000000000fad83621dd9f7564ab9497e50a6a9ce241061680",
            "0x0000000000000000000000007c5f5a4bbd8fd63184577525326123b519429bdc"
          ],
          "data": "0x000000000000000000000000ffffffffffffffffffffffffffffffffffffffff0000000000000000000000000000000000000000000000000000ffffffffffff",
          "blockHash": "0x7eb2b6d7fd5aba784cebe240fc8180a45f259f995a07d9af203b56aa4e4490f9",
          "blockNumber": "0x1e827ad",
          "transactionHash": "0x8ffafc781ade95b97b93f8b5df3c278951b2bdf33726c195124bc66cb1b378e2",
          "transactionIndex": "0xa1",
          "logIndex": "0x3c9",
          "removed": false
        }
      ],
      "logsBloom": "0x00010000000000000000000000000000000000000000000000000000000000010000000000000800000000000000000000000000000000000000100004082000000000000000000000000000000000000000000000000000000000000000000000000000000000000000000000000000000000000000000000000000000000000020000000000000000008000000000100000000000000000000000000000000000000000000000000000000000000000000000000000000000000080000000200000000000000000000000000000000000000000000000040000000000000000000000000000000000000000000000000000000002000000000000000000400",
      "type": "0x2",
      "transactionHash": "0x8ffafc781ade95b97b93f8b5df3c278951b2bdf33726c195124bc66cb1b378e2",
      "transactionIndex": "0xa1",
      "blockHash": "0x7eb2b6d7fd5aba784cebe240fc8180a45f259f995a07d9af203b56aa4e4490f9",
      "blockNumber": "0x1e827ad",
      "gasUsed": "0x6d0e",
      "effectiveGasPrice": "0x5834ff",
      "from": "0x2f2b1a3648c58cf224aa69a4b0bdc942f000045f",
      "to": "0x000000000022d473030f116ddee9f6b43ac78ba3",
      "contractAddress": null,
      "l1BaseFeeScalar": "0x8dd",
      "l1BlobBaseFee": "0x1",
      "l1BlobBaseFeeScalar": "0x101c12",
      "l1Fee": "0x8a1fda097",
      "l1GasPrice": "0x21eb6db8f",
      "l1GasUsed": "0x702"
    },
    {
      "status": "0x1",
      "cumulativeGasUsed": "0x287f54c",
      "logs": [
        {
          "address": "0x7c5f5a4bbd8fd63184577525326123b519429bdc",
          "topics": [
            "0xddf252ad1be2c89b69c2b068fc378daa952ba7f163c4a11628f55a4df523b3ef",
            "0x0000000000000000000000000000000000000000000000000000000000000000",
            "0x0000000000000000000000002f2b1a3648c58cf224aa69a4b0bdc942f000045f",
            "0x00000000000000000000000000000000000000000000000000000000000123d3"
          ],
          "data": "0x",
          "blockHash": "0xc7b74c572c8cd2bd3b1fbab8c12dc4eeabc15ba53ada871e41c469c142845484",
          "blockNumber": "0x1e827af",
          "transactionHash": "0xf729ba9fb7dc1eb0303cf412a006699a5d8cff3edf0827317c5b0f7b50bce1f4",
          "transactionIndex": "0x83",
          "logIndex": "0xf58",
          "removed": false
        },
        {
          "address": "0x498581ff718922c3f8e6a244956af099b2652b2b",
          "topics": [
            "0xf208f4912782fd25c7f114ca3723a2d5dd6f3bcc3ac8db5af63baa85f711d5ec",
            "0x7e68ecff5c97e1731d9bcc6bb25603fed97bdcde75707a56eeb94475c1605648",
            "0x0000000000000000000000007c5f5a4bbd8fd63184577525326123b519429bdc"
          ],
          "data": "0xffffffffffffffffffffffffffffffffffffffffffffffffffffffffffff8ad000000000000000000000000000000000000000000000000000000000000075300000000000000000000000000000000000000000000000000000000003d616f800000000000000000000000000000000000000000000000000000000000123d3",
          "blockHash": "0xc7b74c572c8cd2bd3b1fbab8c12dc4eeabc15ba53ada871e41c469c142845484",
          "blockNumber": "0x1e827af",
          "transactionHash": "0xf729ba9fb7dc1eb0303cf412a006699a5d8cff3edf0827317c5b0f7b50bce1f4",
          "transactionIndex": "0x83",
          "logIndex": "0xf59",
          "removed": false
        },
        {
          "address": "0x8fec0da0adb7aab466cfa9a463c87682ac7992ca",
          "topics": [
            "0xddf252ad1be2c89b69c2b068fc378daa952ba7f163c4a11628f55a4df523b3ef",
            "0x0000000000000000000000002f2b1a3648c58cf224aa69a4b0bdc942f000045f",
            "0x000000000000000000000000498581ff718922c3f8e6a244956af099b2652b2b"
          ],
          "data": "0x0000000000000000000000000000000000000000000000000000000002faf080",
          "blockHash": "0xc7b74c572c8cd2bd3b1fbab8c12dc4eeabc15ba53ada871e41c469c142845484",
          "blockNumber": "0x1e827af",
          "transactionHash": "0xf729ba9fb7dc1eb0303cf412a006699a5d8cff3edf0827317c5b0f7b50bce1f4",
          "transactionIndex": "0x83",
          "logIndex": "0xf5a",
          "removed": false
        },
        {
          "address": "0xfad83621dd9f7564ab9497e50a6a9ce241061680",
          "topics": [
            "0xddf252ad1be2c89b69c2b068fc378daa952ba7f163c4a11628f55a4df523b3ef",
            "0x0000000000000000000000002f2b1a3648c58cf224aa69a4b0bdc942f000045f",
            "0x000000000000000000000000498581ff718922c3f8e6a244956af099b2652b2b"
          ],
          "data": "0x0000000000000000000000000000000000000000000000000000000002faf080",
          "blockHash": "0xc7b74c572c8cd2bd3b1fbab8c12dc4eeabc15ba53ada871e41c469c142845484",
          "blockNumber": "0x1e827af",
          "transactionHash": "0xf729ba9fb7dc1eb0303cf412a006699a5d8cff3edf0827317c5b0f7b50bce1f4",
          "transactionIndex": "0x83",
          "logIndex": "0xf5b",
          "removed": false
        }
      ],
      "logsBloom": "0x00000010000000000000000000000000000000000000000000000100000000000020000000000800000000000000000000000000000000000000100004002000000000000000000000000008080004000000000000000000000000000020000000000000020000000000000000000800040000000000000000000010000000000004000001004400000000000000000000000000000000000000000400000000004014000000000008200000000000000000000000000000000000000000000200000002000001000000000800000000000800000000000000000000000020000000000000000000000000000000000084000400002000000000000000000000",
      "type": "0x2",
      "transactionHash": "0xf729ba9fb7dc1eb0303cf412a006699a5d8cff3edf0827317c5b0f7b50bce1f4",
      "transactionIndex": "0x83",
      "blockHash": "0xc7b74c572c8cd2bd3b1fbab8c12dc4eeabc15ba53ada871e41c469c142845484",
      "blockNumber": "0x1e827af",
      "gasUsed": "0x643d8",
      "effectiveGasPrice": "0x5787eb",
      "from": "0x2f2b1a3648c58cf224aa69a4b0bdc942f000045f",
      "to": "0x7c5f5a4bbd8fd63184577525326123b519429bdc",
      "contractAddress": null,
      "l1BaseFeeScalar": "0x8dd",
      "l1BlobBaseFee": "0x1",
      "l1BlobBaseFeeScalar": "0x101c12",
      "l1Fee": "0x157e95f432",
      "l1GasPrice": "0x20a0a1d4f",
      "l1GasUsed": "0x1225"
    }
  ],
  "libraries": [],
  "pending": [],
  "returns": {},
  "timestamp": 1750772803,
  "chain": 8453,
  "commit": null
}