{
  "transactions": [
    {
      "hash": "0xcd94a1081900d5b5d5f9ddae7da145227da74a19ff3b269b96ee51b20d0fd419",
      "transactionType": "CALL",
      "contractName": null,
      "contractAddress": "0x8fec0da0adb7aab466cfa9a463c87682ac7992ca",
      "function": "approve(address,uint256)",
      "arguments": [
        "0x000000000022D473030F116dDEE9F6B43aC78BA3",
        "115792089237316195423570985008687907853269984665640564039457584007913129639935"
      ],
      "transaction": {
        "from": "0x2f2b1a3648c58cf224aa69a4b0bdc942f000045f",
        "to": "0x8fec0da0adb7aab466cfa9a463c87682ac7992ca",
        "gas": "0x9625",
        "value": "0x0",
        "input": "0x095ea7b3000000000000000000000000000000000022d473030f116ddee9f6b43ac78ba3ffffffffffffffffffffffffffffffffffffffffffffffffffffffffffffffff",
        "nonce": "0x29b",
        "chainId": "0x2105"
      },
      "additionalContracts": [],
      "isFixedGasLimit": false
    },
    {
      "hash": "0x44da3aeef64867f2b94725a1c0344fe55e80131501405a3b127c72769bdf77d7",
      "transactionType": "CALL",
      "contractName": null,
      "contractAddress": "0x000000000022d473030f116ddee9f6b43ac78ba3",
      "function": "approve(address,address,uint160,uint48)",
      "arguments": [
        "0x8FeC0dA0Adb7Aab466cFa9a463c87682AC7992Ca",
        "0x7C5f5A4bBd8fD63184577525326123B519429bDc",
        "1461501637330902918203684832716283019655932542975",
        "281474976710655"
      ],
      "transaction": {
        "from": "0x2f2b1a3648c58cf224aa69a4b0bdc942f000045f",
        "to": "0x000000000022d473030f116ddee9f6b43ac78ba3",
        "gas": "0x1112d",
        "value": "0x0",
        "input": "0x87517c450000000000000000000000008fec0da0adb7aab466cfa9a463c87682ac7992ca0000000000000000000000007c5f5a4bbd8fd63184577525326123b519429bdc000000000000000000000000ffffffffffffffffffffffffffffffffffffffff0000000000000000000000000000000000000000000000000000ffffffffffff",
        "nonce": "0x29c",
        "chainId": "0x2105"
      },
      "additionalContracts": [],
      "isFixedGasLimit": false
    },
    {
      "hash": "0xfc0b8248cf9598db6bc6e323dbe7e7c4712669d73bc46a31a21618d75e50a55c",
      "transactionType": "CALL",
      "contractName": null,
      "contractAddress": "0xfad83621dd9f7564ab9497e50a6a9ce241061680",
      "function": "approve(address,uint256)",
      "arguments": [
        "0x000000000022D473030F116dDEE9F6B43aC78BA3",
        "115792089237316195423570985008687907853269984665640564039457584007913129639935"
      ],
      "transaction": {
        "from": "0x2f2b1a3648c58cf224aa69a4b0bdc942f000045f",
        "to": "0xfad83621dd9f7564ab9497e50a6a9ce241061680",
        "gas": "0xf92c",
        "value": "0x0",
        "input": "0x095ea7b3000000000000000000000000000000000022d473030f116ddee9f6b43ac78ba3ffffffffffffffffffffffffffffffffffffffffffffffffffffffffffffffff",
        "nonce": "0x29d",
        "chainId": "0x2105"
      },
      "additionalContracts": [],
      "isFixedGasLimit": false
    },
    {
      "hash": "0x2c1998f0f8a1dfdc5679eb7b43cacc77bdc3301e108d9ce165b83bcf0ab3bbe2",
      "transactionType": "CALL",
      "contractName": null,
      "contractAddress": "0x000000000022d473030f116ddee9f6b43ac78ba3",
      "function": "approve(address,address,uint160,uint48)",
      "arguments": [
        "0xFAd83621dd9f7564Ab9497E50A6A9ce241061680",
        "0x7C5f5A4bBd8fD63184577525326123B519429bDc",
        "1461501637330902918203684832716283019655932542975",
        "281474976710655"
      ],
      "transaction": {
        "from": "0x2f2b1a3648c58cf224aa69a4b0bdc942f000045f",
        "to": "0x000000000022d473030f116ddee9f6b43ac78ba3",
        "gas": "0x1112d",
        "value": "0x0",
        "input": "0x87517c45000000000000000000000000fad83621dd9f7564ab9497e50a6a9ce2410616800000000000000000000000007c5f5a4bbd8fd63184577525326123b519429bdc000000000000000000000000ffffffffffffffffffffffffffffffffffffffff0000000000000000000000000000000000000000000000000000ffffffffffff",
        "nonce": "0x29e",
        "chainId": "0x2105"
      },
      "additionalContracts": [],
      "isFixedGasLimit": false
    },
    {
      "hash": "0xbc79f02e5ba2f87458558ff7f04d9e22a8ecc7072dfcdc355fc077d048063a0c",
      "transactionType": "CALL",
      "contractName": null,
      "contractAddress": "0x7c5f5a4bbd8fd63184577525326123b519429bdc",
      "function": "modifyLiquidities(bytes,uint256)",
      "arguments": [
        "0x000000000000000000000000000000000000000000000000000000000000004000000000000000000000000000000000000000000000000000000000000000800000000000000000000000000000000000000000000000000000000000000004020d14140000000000000000000000000000000000000000000000000000000000000000000000000000000000000000000000000000000000000000000000040000000000000000000000000000000000000000000000000000000000000080000000000000000000000000000000000000000000000000000000000000024000000000000000000000000000000000000000000000000000000000000002a0000000000000000000000000000000000000000000000000000000000000030000000000000000000000000000000000000000000000000000000000000001a00000000000000000000000008fec0da0adb7aab466cfa9a463c87682ac7992ca000000000000000000000000fad83621dd9f7564ab9497e50a6a9ce2410616800000000000000000000000000000000000000000000000000000000000000bb8000000000000000000000000000000000000000000000000000000000000003c000000000000000000000000fa2b5ce8c00bcf92947d37233a04d9e2058445000000000000000000000000000000000000000000000000000000000000023f2800000000000000000000000000000000000000000000000000000000000413e800000000000000000000000000000000000000000000000000000306dd71818f00000000000000000000000000000000000000000000000000000000068e7780000000000000000000000000000000000000000000000005f68e8131ecf800000000000000000000000000002f2b1a3648c58cf224aa69a4b0bdc942f000045f0000000000000000000000000000000000000000000000000000000000000180000000000000000000000000000000000000000000000000000000000000000000000000000000000000000000000000000000000000000000000000000000400000000000000000000000008fec0da0adb7aab466cfa9a463c87682ac7992ca000000000000000000000000fad83621dd9f7564ab9497e50a6a9ce24106168000000000000000000000000000000000000000000000000000000000000000400000000000000000000000008fec0da0adb7aab466cfa9a463c87682ac7992ca0000000000000000000000002f2b1a3648c58cf224aa69a4b0bdc942f000045f0000000000000000000000000000000000000000000000000000000000000040000000000000000000000000fad83621dd9f7564ab9497e50a6a9ce2410616800000000000000000000000002f2b1a3648c58cf224aa69a4b0bdc942f000045f",
        "1750742075"
      ],
      "transaction": {
        "from": "0x2f2b1a3648c58cf224aa69a4b0bdc942f000045f",
        "to": "0x7c5f5a4bbd8fd63184577525326123b519429bdc",
        "gas": "0xa4d13",
        "value": "0x0",
        "input": "0xdd46508f000000000000000000000000000000000000000000000000000000000000004000000000000000000000000000000000000000000000000000000000685a343b0000000000000000000000000000000000000000000000000000000000000400000000000000000000000000000000000000000000000000000000000000004000000000000000000000000000000000000000000000000000000000000000800000000000000000000000000000000000000000000000000000000000000004020d14140000000000000000000000000000000000000000000000000000000000000000000000000000000000000000000000000000000000000000000000040000000000000000000000000000000000000000000000000000000000000080000000000000000000000000000000000000000000000000000000000000024000000000000000000000000000000000000000000000000000000000000002a0000000000000000000000000000000000000000000000000000000000000030000000000000000000000000000000000000000000000000000000000000001a00000000000000000000000008fec0da0adb7aab466cfa9a463c87682ac7992ca000000000000000000000000fad83621dd9f7564ab9497e50a6a9ce2410616800000000000000000000000000000000000000000000000000000000000000bb8000000000000000000000000000000000000000000000000000000000000003c000000000000000000000000fa2b5ce8c00bcf92947d37233a04d9e2058445000000000000000000000000000000000000000000000000000000000000023f2800000000000000000000000000000000000000000000000000000000000413e800000000000000000000000000000000000000000000000000000306dd71818f00000000000000000000000000000000000000000000000000000000068e7780000000000000000000000000000000000000000000000005f68e8131ecf800000000000000000000000000002f2b1a3648c58cf224aa69a4b0bdc942f000045f0000000000000000000000000000000000000000000000000000000000000180000000000000000000000000000000000000000000000000000000000000000000000000000000000000000000000000000000000000000000000000000000400000000000000000000000008fec0da0adb7aab466cfa9a463c87682ac7992ca000000000000000000000000fad83621dd9f7564ab9497e50a6a9ce24106168000000000000000000000000000000000000000000000000000000000000000400000000000000000000000008fec0da0adb7aab466cfa9a463c87682ac7992ca0000000000000000000000002f2b1a3648c58cf224aa69a4b0bdc942f000045f0000000000000000000000000000000000000000000000000000000000000040000000000000000000000000fad83621dd9f7564ab9497e50a6a9ce2410616800000000000000000000000002f2b1a3648c58cf224aa69a4b0bdc942f000045f",
        "nonce": "0x29f",
        "chainId": "0x2105"
      },
      "additionalContracts": [],
      "isFixedGasLimit": false
    }
  ],
  "receipts": [
    {
      "status": "0x1",
      "cumulativeGasUsed": "0x25eaff3",
      "logs": [
        {
          "address": "0x8fec0da0adb7aab466cfa9a463c87682ac7992ca",
          "topics": [
            "0x8c5be1e5ebec7d5bd14f71427d1e84f3dd0314c0f7b2291e5b200ac8c7c3b925",
            "0x0000000000000000000000002f2b1a3648c58cf224aa69a4b0bdc942f000045f",
            "0x000000000000000000000000000000000022d473030f116ddee9f6b43ac78ba3"
          ],
          "data": "0xffffffffffffffffffffffffffffffffffffffffffffffffffffffffffffffff",
          "blockHash": "0xe1c1e340992f9ffe2426684e73311e7a35068a82141b983d8d4d024dbe669b11",
          "blockNumber": "0x1e7eb1c",
          "transactionHash": "0xcd94a1081900d5b5d5f9ddae7da145227da74a19ff3b269b96ee51b20d0fd419",
          "transactionIndex": "0x92",
          "logIndex": "0x352",
          "removed": false
        }
      ],
      "logsBloom": "0x00000000000000000000000000000000000000000000000000000000000000000000000000000800000000000000000000000000800000000000100004200000000000000000000000004000000000000000000000000800000000000000000000000000000000000000000000000000000000000000000000000000000000000004000000000400000000000000000000000000000000000000000000000000020000000000000000000000000000000000000000000000000000000000000000000000000000000000000800000000000000000000000000000000000000000010000000000000000000000000000000000000000000000000000000000000",
      "type": "0x2",
      "transactionHash": "0xcd94a1081900d5b5d5f9ddae7da145227da74a19ff3b269b96ee51b20d0fd419",
      "transactionIndex": "0x92",
      "blockHash": "0xe1c1e340992f9ffe2426684e73311e7a35068a82141b983d8d4d024dbe669b11",
      "blockNumber": "0x1e7eb1c",
      "gasUsed": "0x66aa",
      "effectiveGasPrice": "0xab0e5",
      "from": "0x2f2b1a3648c58cf224aa69a4b0bdc942f000045f",
      "to": "0x8fec0da0adb7aab466cfa9a463c87682ac7992ca",
      "contractAddress": null,
      "l1BaseFeeScalar": "0x8dd",
      "l1BlobBaseFee": "0x1",
      "l1BlobBaseFeeScalar": "0x101c12",
      "l1Fee": "0x9fb15d1c",
      "l1GasPrice": "0x2bfcd7a5",
      "l1GasUsed": "0x640"
    },
    {
      "status": "0x1",
      "cumulativeGasUsed": "0x1e1a508",
      "logs": [
        {
          "address": "0x000000000022d473030f116ddee9f6b43ac78ba3",
          "topics": [
            "0xda9fa7c1b00402c17d0161b249b1ab8bbec047c5a52207b9c112deffd817036b",
            "0x0000000000000000000000002f2b1a3648c58cf224aa69a4b0bdc942f000045f",
            "0x0000000000000000000000008fec0da0adb7aab466cfa9a463c87682ac7992ca",
            "0x0000000000000000000000007c5f5a4bbd8fd63184577525326123b519429bdc"
          ],
          "data": "0x000000000000000000000000ffffffffffffffffffffffffffffffffffffffff0000000000000000000000000000000000000000000000000000ffffffffffff",
          "blockHash": "0x21bce3bfd31284a5050b9afaf3e6e5b86ed160c71dbaf580e824553e494c8dd2",
          "blockNumber": "0x1e7eb1e",
          "transactionHash": "0x44da3aeef64867f2b94725a1c0344fe55e80131501405a3b127c72769bdf77d7",
          "transactionIndex": "0x8f",
          "logIndex": "0x213",
          "removed": false
        }
      ],
      "logsBloom": "0x00010000000000000000000000000000000000000000000000000000000000000000000000000800000000000000000000000000000000000000100004082000000000000000000000000000000000000000000000000000000000000000000000000000000000000000000002000000000000000000000000000000000000000020000000000000000000000000000000000000000000000000000000000000000000000000000000400000000000000000000000000000000000080000000200000000000000000000000000000000000000000000000040000000000000000000000000000000000000000000000000000004002000000000000000000400",
      "type": "0x2",
      "transactionHash": "0x44da3aeef64867f2b94725a1c0344fe55e80131501405a3b127c72769bdf77d7",
      "transactionIndex": "0x8f",
      "blockHash": "0x21bce3bfd31284a5050b9afaf3e6e5b86ed160c71dbaf580e824553e494c8dd2",
      "blockNumber": "0x1e7eb1e",
      "gasUsed": "0xbaca",
      "effectiveGasPrice": "0xac6b5",
      "from": "0x2f2b1a3648c58cf224aa69a4b0bdc942f000045f",
      "to": "0x000000000022d473030f116ddee9f6b43ac78ba3",
      "contractAddress": null,
      "l1BaseFeeScalar": "0x8dd",
      "l1BlobBaseFee": "0x1",
      "l1BlobBaseFeeScalar": "0x101c12",
      "l1Fee": "0xb31f5bbd",
      "l1GasPrice": "0x2bfcd7a5",
      "l1GasUsed": "0x702"
    },
    {
      "status": "0x1",
      "cumulativeGasUsed": "0x1feed47",
      "logs": [
        {
          "address": "0xfad83621dd9f7564ab9497e50a6a9ce241061680",
          "topics": [
            "0x8c5be1e5ebec7d5bd14f71427d1e84f3dd0314c0f7b2291e5b200ac8c7c3b925",
            "0x0000000000000000000000002f2b1a3648c58cf224aa69a4b0bdc942f000045f",
            "0x000000000000000000000000000000000022d473030f116ddee9f6b43ac78ba3"
          ],
          "data": "0xffffffffffffffffffffffffffffffffffffffffffffffffffffffffffffffff",
          "blockHash": "0xc9709c51dd0e79b392e01c040dfe9aeffa09043e978b571ee45227963f218bf5",
          "blockNumber": "0x1e7eb20",
          "transactionHash": "0xfc0b8248cf9598db6bc6e323dbe7e7c4712669d73bc46a31a21618d75e50a55c",
          "transactionIndex": "0x8a",
          "logIndex": "0x22d",
          "removed": false
        }
      ],
      "logsBloom": "0x00000000000000000000000000000000000000000000000000000000000000000000000000000800000000000000000000000000800000000000100004200000000000000000000000004000000004000000000000000800000000000000000000000000000000000000000000000000000000000000000000000000000000000000000000000000000000000000000000000000000000000000000000000000020000000000000000200000000000000000000000000000000000000000000000000000000000000000000000000000000000000000000000000000000000000010000000000000000000000000000080000000000000000000000000000000",
      "type": "0x2",
      "transactionHash": "0xfc0b8248cf9598db6bc6e323dbe7e7c4712669d73bc46a31a21618d75e50a55c",
      "transactionIndex": "0x8a",
      "blockHash": "0xc9709c51dd0e79b392e01c040dfe9aeffa09043e978b571ee45227963f218bf5",
      "blockNumber": "0x1e7eb20",
      "gasUsed": "0xb466",
      "effectiveGasPrice": "0xab1d8",
      "from": "0x2f2b1a3648c58cf224aa69a4b0bdc942f000045f",
      "to": "0xfad83621dd9f7564ab9497e50a6a9ce241061680",
      "contractAddress": null,
      "l1BaseFeeScalar": "0x8dd",
      "l1BlobBaseFee": "0x1",
      "l1BlobBaseFeeScalar": "0x101c12",
      "l1Fee": "0xa693c48b",
      "l1GasPrice": "0x2de24cb4",
      "l1GasUsed": "0x640"
    },
    {
      "status": "0x1",
      "cumulativeGasUsed": "0x1ed773a",
      "logs": [
        {
          "address": "0x000000000022d473030f116ddee9f6b43ac78ba3",
          "topics": [
            "0xda9fa7c1b00402c17d0161b249b1ab8bbec047c5a52207b9c112deffd817036b",
            "0x0000000000000000000000002f2b1a3648c58cf224aa69a4b0bdc942f000045f",
            "0x000000000000000000000000fad83621dd9f7564ab9497e50a6a9ce241061680",
            "0x0000000000000000000000007c5f5a4bbd8fd63184577525326123b519429bdc"
          ],
          "data": "0x000000000000000000000000ffffffffffffffffffffffffffffffffffffffff0000000000000000000000000000000000000000000000000000ffffffffffff",
          "blockHash": "0xf6dd3c0b72d72d5bf1cfbd8560ac6c82e9648248cdabb449b3bd6eeac8ca8190",
          "blockNumber": "0x1e7eb22",
          "transactionHash": "0x2c1998f0f8a1dfdc5679eb7b43cacc77bdc3301e108d9ce165b83bcf0ab3bbe2",
          "transactionIndex": "0x84",
          "logIndex": "0x3dd",
          "removed": false
        }
      ],
      "logsBloom": "0x00010000000000000000000000000000000000000000000000000000000000010000000000000800000000000000000000000000000000000000100004082000000000000000000000000000000000000000000000000000000000000000000000000000000000000000000000000000000000000000000000000000000000000020000000000000000008000000000100000000000000000000000000000000000000000000000000000000000000000000000000000000000000080000000200000000000000000000000000000000000000000000000040000000000000000000000000000000000000000000000000000000002000000000000000000400",
      "type": "0x2",
      "transactionHash": "0x2c1998f0f8a1dfdc5679eb7b43cacc77bdc3301e108d9ce165b83bcf0ab3bbe2",
      "transactionIndex": "0x84",
      "blockHash": "0xf6dd3c0b72d72d5bf1cfbd8560ac6c82e9648248cdabb449b3bd6eeac8ca8190",
      "blockNumber": "0x1e7eb22",
      "gasUsed": "0xbaca",
      "effectiveGasPrice": "0xaa9ab",
      "from": "0x2f2b1a3648c58cf224aa69a4b0bdc942f000045f",
      "to": "0x000000000022d473030f116ddee9f6b43ac78ba3",
      "contractAddress": null,
      "l1BaseFeeScalar": "0x8dd",
      "l1BlobBaseFee": "0x1",
      "l1BlobBaseFeeScalar": "0x101c12",
      "l1Fee": "0xbad8313c",
      "l1GasPrice": "0x2de24cb4",
      "l1GasUsed": "0x702"
    },
    {
      "status": "0x1",
      "cumulativeGasUsed": "0x23b2ca5",
      "logs": [
        {
          "address": "0x7c5f5a4bbd8fd63184577525326123b519429bdc",
          "topics": [
            "0xddf252ad1be2c89b69c2b068fc378daa952ba7f163c4a11628f55a4df523b3ef",
            "0x0000000000000000000000000000000000000000000000000000000000000000",
            "0x0000000000000000000000002f2b1a3648c58cf224aa69a4b0bdc942f000045f",
            "0x0000000000000000000000000000000000000000000000000000000000012351"
          ],
          "data": "0x",
          "blockHash": "0xa06e3fd95142fe91198516e81097819e91a14c1bf140b25080ce0f34eefcaadc",
          "blockNumber": "0x1e7eb24",
          "transactionHash": "0xbc79f02e5ba2f87458558ff7f04d9e22a8ecc7072dfcdc355fc077d048063a0c",
          "transactionIndex": "0xa3",
          "logIndex": "0x263",
          "removed": false
        },
        {
          "address": "0x498581ff718922c3f8e6a244956af099b2652b2b",
          "topics": [
            "0xf208f4912782fd25c7f114ca3723a2d5dd6f3bcc3ac8db5af63baa85f711d5ec",
            "0xab1a6f80822c7b5d8ff564f54ee72a9b2db27587dab23b9882e08dc517c85037",
            "0x0000000000000000000000007c5f5a4bbd8fd63184577525326123b519429bdc"
          ],
          "data": "0x0000000000000000000000000000000000000000000000000000000000023f2800000000000000000000000000000000000000000000000000000000000413e800000000000000000000000000000000000000000000000000000306dd71818f0000000000000000000000000000000000000000000000000000000000012351",
          "blockHash": "0xa06e3fd95142fe91198516e81097819e91a14c1bf140b25080ce0f34eefcaadc",
          "blockNumber": "0x1e7eb24",
          "transactionHash": "0xbc79f02e5ba2f87458558ff7f04d9e22a8ecc7072dfcdc355fc077d048063a0c",
          "transactionIndex": "0xa3",
          "logIndex": "0x264",
          "removed": false
        },
        {
          "address": "0x8fec0da0adb7aab466cfa9a463c87682ac7992ca",
          "topics": [
            "0xddf252ad1be2c89b69c2b068fc378daa952ba7f163c4a11628f55a4df523b3ef",
            "0x0000000000000000000000002f2b1a3648c58cf224aa69a4b0bdc942f000045f",
            "0x000000000000000000000000498581ff718922c3f8e6a244956af099b2652b2b"
          ],
          "data": "0x0000000000000000000000000000000000000000000000000000000005f5e100",
          "blockHash": "0xa06e3fd95142fe91198516e81097819e91a14c1bf140b25080ce0f34eefcaadc",
          "blockNumber": "0x1e7eb24",
          "transactionHash": "0xbc79f02e5ba2f87458558ff7f04d9e22a8ecc7072dfcdc355fc077d048063a0c",
          "transactionIndex": "0xa3",
          "logIndex": "0x265",
          "removed": false
        },
        {
          "address": "0xfad83621dd9f7564ab9497e50a6a9ce241061680",
          "topics": [
            "0xddf252ad1be2c89b69c2b068fc378daa952ba7f163c4a11628f55a4df523b3ef",
            "0x0000000000000000000000002f2b1a3648c58cf224aa69a4b0bdc942f000045f",
            "0x000000000000000000000000498581ff718922c3f8e6a244956af099b2652b2b"
          ],
          "data": "0x000000000000000000000000000000000000000000000000016346e8ce8cd185",
          "blockHash": "0xa06e3fd95142fe91198516e81097819e91a14c1bf140b25080ce0f34eefcaadc",
          "blockNumber": "0x1e7eb24",
          "transactionHash": "0xbc79f02e5ba2f87458558ff7f04d9e22a8ecc7072dfcdc355fc077d048063a0c",
          "transactionIndex": "0xa3",
          "logIndex": "0x266",
          "removed": false
        }
      ],
      "logsBloom": "0x00000000000000000000000000000000000000000000000000000000000000000020000000000800000000000020000000000000000000000000100004002000000000000000400000000008000004000000000000000000000000000000000000000000020000000000000000000800040000000000000000000010000000000004000001004400000000000000002000000000000000000000000400000000004004000000000008200000000000200000000000000000100000000000000200000002000001000000000800000000000800000000000000000000000820000000000000000000000000000000000084000400002000000000000000000000",
      "type": "0x2",
      "transactionHash": "0xbc79f02e5ba2f87458558ff7f04d9e22a8ecc7072dfcdc355fc077d048063a0c",
      "transactionIndex": "0xa3",
      "blockHash": "0xa06e3fd95142fe91198516e81097819e91a14c1bf140b25080ce0f34eefcaadc",
      "blockNumber": "0x1e7eb24",
      "gasUsed": "0x70b21",
      "effectiveGasPrice": "0xaaad7",
      "from": "0x2f2b1a3648c58cf224aa69a4b0bdc942f000045f",
      "to": "0x7c5f5a4bbd8fd63184577525326123b519429bdc",
      "contractAddress": null,
      "l1BaseFeeScalar": "0x8dd",
      "l1BlobBaseFee": "0x1",
      "l1BlobBaseFeeScalar": "0x101c12",
      "l1Fee": "0x1dcacefcd",
      "l1GasPrice": "0x2de24cb4",
      "l1GasUsed": "0x11e2"
    }
  ],
  "libraries": [],
  "pending": [],
  "returns": {},
  "timestamp": 1750741804,
  "chain": 8453,
  "commit": null
}