{
  "transactions": [
    {
      "hash": "0xc7bd4c6dc2ffd40583eaf4048fe714d58ede270078b58b142300c299bdcbbbf6",
      "transactionType": "CALL",
      "contractName": null,
      "contractAddress": "0x83e920aca26ad7c30c98cbbc6c72c87a1af17366",
      "function": "approve(address,uint256)",
      "arguments": [
        "0x000000000022D473030F116dDEE9F6B43aC78BA3",
        "115792089237316195423570985008687907853269984665640564039457584007913129639935"
      ],
      "transaction": {
        "from": "0xc5c5a0220c1abfcfa26eec68e55d9b689193d6b2",
        "to": "0x83e920aca26ad7c30c98cbbc6c72c87a1af17366",
        "gas": "0xf92c",
        "value": "0x0",
        "input": "0x095ea7b3000000000000000000000000000000000022d473030f116ddee9f6b43ac78ba3ffffffffffffffffffffffffffffffffffffffffffffffffffffffffffffffff",
        "nonce": "0x3b",
        "chainId": "0x2105"
      },
      "additionalContracts": [],
      "isFixedGasLimit": false
    },
    {
      "hash": "0x6ffa6ca4dc3277e0b72c11ea9623a28fe93aaa4043f25512a0a5ab75ff898cdc",
      "transactionType": "CALL",
      "contractName": null,
      "contractAddress": "0xfad83621dd9f7564ab9497e50a6a9ce241061680",
      "function": "approve(address,uint256)",
      "arguments": [
        "0x000000000022D473030F116dDEE9F6B43aC78BA3",
        "115792089237316195423570985008687907853269984665640564039457584007913129639935"
      ],
      "transaction": {
        "from": "0xc5c5a0220c1abfcfa26eec68e55d9b689193d6b2",
        "to": "0xfad83621dd9f7564ab9497e50a6a9ce241061680",
        "gas": "0x9625",
        "value": "0x0",
        "input": "0x095ea7b3000000000000000000000000000000000022d473030f116ddee9f6b43ac78ba3ffffffffffffffffffffffffffffffffffffffffffffffffffffffffffffffff",
        "nonce": "0x3c",
        "chainId": "0x2105"
      },
      "additionalContracts": [],
      "isFixedGasLimit": false
    },
    {
      "hash": "0x20f2dfbf3a142abb7a92983c237a70f5dc22aae4dafecf8307e47c16553ccef4",
      "transactionType": "CALL",
      "contractName": null,
      "contractAddress": "0x000000000022d473030f116ddee9f6b43ac78ba3",
      "function": "approve(address,address,uint160,uint48)",
      "arguments": [
        "0x83e920AcA26ad7c30c98CBBc6c72C87A1aF17366",
        "0x7C5f5A4bBd8fD63184577525326123B519429bDc",
        "1461501637330902918203684832716283019655932542975",
        "281474976710655"
      ],
      "transaction": {
        "from": "0xc5c5a0220c1abfcfa26eec68e55d9b689193d6b2",
        "to": "0x000000000022d473030f116ddee9f6b43ac78ba3",
        "gas": "0x1112d",
        "value": "0x0",
        "input": "0x87517c4500000000000000000000000083e920aca26ad7c30c98cbbc6c72c87a1af173660000000000000000000000007c5f5a4bbd8fd63184577525326123b519429bdc000000000000000000000000ffffffffffffffffffffffffffffffffffffffff0000000000000000000000000000000000000000000000000000ffffffffffff",
        "nonce": "0x3d",
        "chainId": "0x2105"
      },
      "additionalContracts": [],
      "isFixedGasLimit": false
    },
    {
      "hash": "0xd9a051850ef18e214d35ec84bdbfe358ec998b513df4538f629df84b0a6c47f9",
      "transactionType": "CALL",
      "contractName": null,
      "contractAddress": "0x000000000022d473030f116ddee9f6b43ac78ba3",
      "function": "approve(address,address,uint160,uint48)",
      "arguments": [
        "0xFAd83621dd9f7564Ab9497E50A6A9ce241061680",
        "0x7C5f5A4bBd8fD63184577525326123B519429bDc",
        "1461501637330902918203684832716283019655932542975",
        "281474976710655"
      ],
      "transaction": {
        "from": "0xc5c5a0220c1abfcfa26eec68e55d9b689193d6b2",
        "to": "0x000000000022d473030f116ddee9f6b43ac78ba3",
        "gas": "0x96a0",
        "value": "0x0",
        "input": "0x87517c45000000000000000000000000fad83621dd9f7564ab9497e50a6a9ce2410616800000000000000000000000007c5f5a4bbd8fd63184577525326123b519429bdc000000000000000000000000ffffffffffffffffffffffffffffffffffffffff0000000000000000000000000000000000000000000000000000ffffffffffff",
        "nonce": "0x3e",
        "chainId": "0x2105"
      },
      "additionalContracts": [],
      "isFixedGasLimit": false
    },
    {
      "hash": "0xf643012a5727b42da7e385797ce6f42495923be7e682a67d6b300854dce7588c",
      "transactionType": "CALL",
      "contractName": null,
      "contractAddress": "0x7c5f5a4bbd8fd63184577525326123b519429bdc",
      "function": "modifyLiquidities(bytes,uint256)",
      "arguments": [
        "0x000000000000000000000000000000000000000000000000000000000000004000000000000000000000000000000000000000000000000000000000000000800000000000000000000000000000000000000000000000000000000000000004020d14140000000000000000000000000000000000000000000000000000000000000000000000000000000000000000000000000000000000000000000000040000000000000000000000000000000000000000000000000000000000000080000000000000000000000000000000000000000000000000000000000000024000000000000000000000000000000000000000000000000000000000000002a0000000000000000000000000000000000000000000000000000000000000030000000000000000000000000000000000000000000000000000000000000001a000000000000000000000000083e920aca26ad7c30c98cbbc6c72c87a1af17366000000000000000000000000fad83621dd9f7564ab9497e50a6a9ce241061680000000000000000000000000000000000000000000000000000000000000271000000000000000000000000000000000000000000000000000000000000000c8000000000000000000000000d6adebcddec37e43ab390b67f5d6ccc278f1c500fffffffffffffffffffffffffffffffffffffffffffffffffffffffffff2766000000000000000000000000000000000000000000000000000000000000d89a0000000000000000000000000000000000000000000000002b5e3af16b188000200000000000000000000000000000000000000000000000410d586a20a4c000000000000000000000000000000000000000000000000000410d586a20a4c0000000000000000000000000000c5c5a0220c1abfcfa26eec68e55d9b689193d6b200000000000000000000000000000000000000000000000000000000000001800000000000000000000000000000000000000000000000000000000000000000000000000000000000000000000000000000000000000000000000000000004000000000000000000000000083e920aca26ad7c30c98cbbc6c72c87a1af17366000000000000000000000000fad83621dd9f7564ab9497e50a6a9ce241061680000000000000000000000000000000000000000000000000000000000000004000000000000000000000000083e920aca26ad7c30c98cbbc6c72c87a1af17366000000000000000000000000c5c5a0220c1abfcfa26eec68e55d9b689193d6b20000000000000000000000000000000000000000000000000000000000000040000000000000000000000000fad83621dd9f7564ab9497e50a6a9ce241061680000000000000000000000000c5c5a0220c1abfcfa26eec68e55d9b689193d6b2",
        "1750782893"
      ],
      "transaction": {
        "from": "0xc5c5a0220c1abfcfa26eec68e55d9b689193d6b2",
        "to": "0x7c5f5a4bbd8fd63184577525326123b519429bdc",
        "gas": "0x905a5",
        "value": "0x0",
        "input": "0xdd46508f000000000000000000000000000000000000000000000000000000000000004000000000000000000000000000000000000000000000000000000000685ad3ad0000000000000000000000000000000000000000000000000000000000000400000000000000000000000000000000000000000000000000000000000000004000000000000000000000000000000000000000000000000000000000000000800000000000000000000000000000000000000000000000000000000000000004020d14140000000000000000000000000000000000000000000000000000000000000000000000000000000000000000000000000000000000000000000000040000000000000000000000000000000000000000000000000000000000000080000000000000000000000000000000000000000000000000000000000000024000000000000000000000000000000000000000000000000000000000000002a0000000000000000000000000000000000000000000000000000000000000030000000000000000000000000000000000000000000000000000000000000001a000000000000000000000000083e920aca26ad7c30c98cbbc6c72c87a1af17366000000000000000000000000fad83621dd9f7564ab9497e50a6a9ce241061680000000000000000000000000000000000000000000000000000000000000271000000000000000000000000000000000000000000000000000000000000000c8000000000000000000000000d6adebcddec37e43ab390b67f5d6ccc278f1c500fffffffffffffffffffffffffffffffffffffffffffffffffffffffffff2766000000000000000000000000000000000000000000000000000000000000d89a0000000000000000000000000000000000000000000000002b5e3af16b188000200000000000000000000000000000000000000000000000410d586a20a4c000000000000000000000000000000000000000000000000000410d586a20a4c0000000000000000000000000000c5c5a0220c1abfcfa26eec68e55d9b689193d6b200000000000000000000000000000000000000000000000000000000000001800000000000000000000000000000000000000000000000000000000000000000000000000000000000000000000000000000000000000000000000000000004000000000000000000000000083e920aca26ad7c30c98cbbc6c72c87a1af17366000000000000000000000000fad83621dd9f7564ab9497e50a6a9ce241061680000000000000000000000000000000000000000000000000000000000000004000000000000000000000000083e920aca26ad7c30c98cbbc6c72c87a1af17366000000000000000000000000c5c5a0220c1abfcfa26eec68e55d9b689193d6b20000000000000000000000000000000000000000000000000000000000000040000000000000000000000000fad83621dd9f7564ab9497e50a6a9ce241061680000000000000000000000000c5c5a0220c1abfcfa26eec68e55d9b689193d6b2",
        "nonce": "0x3f",
        "chainId": "0x2105"
      },
      "additionalContracts": [],
      "isFixedGasLimit": false
    }
  ],
  "receipts": [
    {
      "status": "0x1",
      "cumulativeGasUsed": "0x25d005d",
      "logs": [
        {
          "address": "0x83e920aca26ad7c30c98cbbc6c72c87a1af17366",
          "topics": [
            "0x8c5be1e5ebec7d5bd14f71427d1e84f3dd0314c0f7b2291e5b200ac8c7c3b925",
            "0x000000000000000000000000c5c5a0220c1abfcfa26eec68e55d9b689193d6b2",
            "0x000000000000000000000000000000000022d473030f116ddee9f6b43ac78ba3"
          ],
          "data": "0xffffffffffffffffffffffffffffffffffffffffffffffffffffffffffffffff",
          "blockHash": "0x114008e9498ee04323f05e3c34adb019473a602fe141c5dec783da2495c464d1",
          "blockNumber": "0x1e83ad5",
          "transactionHash": "0xc7bd4c6dc2ffd40583eaf4048fe714d58ede270078b58b142300c299bdcbbbf6",
          "transactionIndex": "0xca",
          "logIndex": "0x1a8",
          "removed": false
        }
      ],
      "logsBloom": "0x00000000000000000000000000000000000000000000000000000000000000000000000000011000000000000000000000000000800000000000008000200000000000004000000000004000000000000000000000000800000001000000000000000000000000000000000000000000000000000000000000000000000000000000000000000000000000000000000000000000000000000000000000000000020000000000000000000000000000000000000000000000000200000000000000000000000000000000000000000000000000000000000000000000000000000010000000000000000000000000000000000000000000000000000000000000",
      "type": "0x2",
      "transactionHash": "0xc7bd4c6dc2ffd40583eaf4048fe714d58ede270078b58b142300c299bdcbbbf6",
      "transactionIndex": "0xca",
      "blockHash": "0x114008e9498ee04323f05e3c34adb019473a602fe141c5dec783da2495c464d1",
      "blockNumber": "0x1e83ad5",
      "gasUsed": "0xb466",
      "effectiveGasPrice": "0x9114e9",
      "from": "0xc5c5a0220c1abfcfa26eec68e55d9b689193d6b2",
      "to": "0x83e920aca26ad7c30c98cbbc6c72c87a1af17366",
      "contractAddress": null,
      "l1BaseFeeScalar": "0x8dd",
      "l1BlobBaseFee": "0x1",
      "l1BlobBaseFeeScalar": "0x101c12",
      "l1Fee": "0x33bbf065b",
      "l1GasPrice": "0xe4010e80",
      "l1GasUsed": "0x640"
    },
    {
      "status": "0x1",
      "cumulativeGasUsed": "0x244f7fc",
      "logs": [
        {
          "address": "0xfad83621dd9f7564ab9497e50a6a9ce241061680",
          "topics": [
            "0x8c5be1e5ebec7d5bd14f71427d1e84f3dd0314c0f7b2291e5b200ac8c7c3b925",
            "0x000000000000000000000000c5c5a0220c1abfcfa26eec68e55d9b689193d6b2",
            "0x000000000000000000000000000000000022d473030f116ddee9f6b43ac78ba3"
          ],
          "data": "0xffffffffffffffffffffffffffffffffffffffffffffffffffffffffffffffff",
          "blockHash": "0x104391dad9b8eac3ef57501c00a0551b93f4d7862a469b014f58458dc79864eb",
          "blockNumber": "0x1e83ad7",
          "transactionHash": "0x6ffa6ca4dc3277e0b72c11ea9623a28fe93aaa4043f25512a0a5ab75ff898cdc",
          "transactionIndex": "0x8e",
          "logIndex": "0x18b",
          "removed": false
        }
      ],
      "logsBloom": "0x00000000000000000000000000000000000000000000000000000000000000000000000000001000000000000000000000000000800000000000008000200000000000004000000000004000000004000000000000000800000000000000000000000000000000000000000000000000000000000000000000000000000000000000000000000000000000000000000000000000000000000000000000000000020000000000000000200000000000000000000000000000000000000000000000000000000000000000000000000000000000000000000000000000000000000010000000000000000000000000000080000000000000000000000000000000",
      "type": "0x2",
      "transactionHash": "0x6ffa6ca4dc3277e0b72c11ea9623a28fe93aaa4043f25512a0a5ab75ff898cdc",
      "transactionIndex": "0x8e",
      "blockHash": "0x104391dad9b8eac3ef57501c00a0551b93f4d7862a469b014f58458dc79864eb",
      "blockNumber": "0x1e83ad7",
      "gasUsed": "0x66aa",
      "effectiveGasPrice": "0x90f3ef",
      "from": "0xc5c5a0220c1abfcfa26eec68e55d9b689193d6b2",
      "to": "0xfad83621dd9f7564ab9497e50a6a9ce241061680",
      "contractAddress": null,
      "l1BaseFeeScalar": "0x8dd",
      "l1BlobBaseFee": "0x1",
      "l1BlobBaseFeeScalar": "0x101c12",
      "l1Fee": "0x33bbf065b",
      "l1GasPrice": "0xe4010e80",
      "l1GasUsed": "0x640"
    },
    {
      "status": "0x1",
      "cumulativeGasUsed": "0x26f8814",
      "logs": [
        {
          "address": "0x000000000022d473030f116ddee9f6b43ac78ba3",
          "topics": [
            "0xda9fa7c1b00402c17d0161b249b1ab8bbec047c5a52207b9c112deffd817036b",
            "0x000000000000000000000000c5c5a0220c1abfcfa26eec68e55d9b689193d6b2",
            "0x00000000000000000000000083e920aca26ad7c30c98cbbc6c72c87a1af17366",
            "0x0000000000000000000000007c5f5a4bbd8fd63184577525326123b519429bdc"
          ],
          "data": "0x000000000000000000000000ffffffffffffffffffffffffffffffffffffffff0000000000000000000000000000000000000000000000000000ffffffffffff",
          "blockHash": "0x09b2fcb93e9ddcc1628770ad5f02f38bfa21f8fe06baeb9a3826f9c8a4f31990",
          "blockNumber": "0x1e83ad9",
          "transactionHash": "0x20f2dfbf3a142abb7a92983c237a70f5dc22aae4dafecf8307e47c16553ccef4",
          "transactionIndex": "0xbc",
          "logIndex": "0x257",
          "removed": false
        }
      ],
      "logsBloom": "0x00010000000000000000000080000000000000000000000000000000000000000000000001001000000000000000000000000000000000000000008000082000000000004000000000000000000000000000000000000000000000000000000000000000000000000000000000000000000000000000000000000000000000000020000000000000000000000000000000000000000000000000000000000000000000000000000000000000000000000000000000000002000000080000000200000000000000000000000000000000000000000000000040000000000000000000000000000000000000000000000000000000002000000000000000000400",
      "type": "0x2",
      "transactionHash": "0x20f2dfbf3a142abb7a92983c237a70f5dc22aae4dafecf8307e47c16553ccef4",
      "transactionIndex": "0xbc",
      "blockHash": "0x09b2fcb93e9ddcc1628770ad5f02f38bfa21f8fe06baeb9a3826f9c8a4f31990",
      "blockNumber": "0x1e83ad9",
      "gasUsed": "0xbaca",
      "effectiveGasPrice": "0x902996",
      "from": "0xc5c5a0220c1abfcfa26eec68e55d9b689193d6b2",
      "to": "0x000000000022d473030f116ddee9f6b43ac78ba3",
      "contractAddress": null,
      "l1BaseFeeScalar": "0x8dd",
      "l1BlobBaseFee": "0x1",
      "l1BlobBaseFeeScalar": "0x101c12",
      "l1Fee": "0x3b7b6d1fb",
      "l1GasPrice": "0xeb78b16b",
      "l1GasUsed": "0x6f5"
    },
    {
      "status": "0x1",
      "cumulativeGasUsed": "0x271afc5",
      "logs": [
        {
          "address": "0x000000000022d473030f116ddee9f6b43ac78ba3",
          "topics": [
            "0xda9fa7c1b00402c17d0161b249b1ab8bbec047c5a52207b9c112deffd817036b",
            "0x000000000000000000000000c5c5a0220c1abfcfa26eec68e55d9b689193d6b2",
            "0x000000000000000000000000fad83621dd9f7564ab9497e50a6a9ce241061680",
            "0x0000000000000000000000007c5f5a4bbd8fd63184577525326123b519429bdc"
          ],
          "data": "0x000000000000000000000000ffffffffffffffffffffffffffffffffffffffff0000000000000000000000000000000000000000000000000000ffffffffffff",
          "blockHash": "0x3e48812f0ca87e4f62a4043c5331f6320f987f5d798154e6a24d303df8556c54",
          "blockNumber": "0x1e83ada",
          "transactionHash": "0xd9a051850ef18e214d35ec84bdbfe358ec998b513df4538f629df84b0a6c47f9",
          "transactionIndex": "0xc3",
          "logIndex": "0x1ca",
          "removed": false
        }
      ],
      "logsBloom": "0x00010000000000000000000000000000000000000000000000000000000000010000000000001000000000000000000000000000000000000000008000082000000000004000000000000000000000000000000000000000000000000000000000000000000000000000000000000000000000000000000000000000000000000020000000000000000008000000000100000000000000000000000000000000000000000000000000000000000000000000000000000000000000080000000200000000000000000000000000000000000000000000000040000000000000000000000000000000000000000000000000000000002000000000000000000400",
      "type": "0x2",
      "transactionHash": "0xd9a051850ef18e214d35ec84bdbfe358ec998b513df4538f629df84b0a6c47f9",
      "transactionIndex": "0xc3",
      "blockHash": "0x3e48812f0ca87e4f62a4043c5331f6320f987f5d798154e6a24d303df8556c54",
      "blockNumber": "0x1e83ada",
      "gasUsed": "0x6d0e",
      "effectiveGasPrice": "0x904d40",
      "from": "0xc5c5a0220c1abfcfa26eec68e55d9b689193d6b2",
      "to": "0x000000000022d473030f116ddee9f6b43ac78ba3",
      "contractAddress": null,
      "l1BaseFeeScalar": "0x8dd",
      "l1BlobBaseFee": "0x1",
      "l1BlobBaseFeeScalar": "0x101c12",
      "l1Fee": "0x3b09032c4",
      "l1GasPrice": "0xeb78b16b",
      "l1GasUsed": "0x6e7"
    },
    {
      "status": "0x1",
      "cumulativeGasUsed": "0x1da9ab8",
      "logs": [
        {
          "address": "0x7c5f5a4bbd8fd63184577525326123b519429bdc",
          "topics": [
            "0xddf252ad1be2c89b69c2b068fc378daa952ba7f163c4a11628f55a4df523b3ef",
            "0x0000000000000000000000000000000000000000000000000000000000000000",
            "0x000000000000000000000000c5c5a0220c1abfcfa26eec68e55d9b689193d6b2",
            "0x0000000000000000000000000000000000000000000000000000000000012418"
          ],
          "data": "0x",
          "blockHash": "0x0d56048171688fa283d8f6a96cc4872ec5c39d17666eb3ec9e7eefbaad35a424",
          "blockNumber": "0x1e83adc",
          "transactionHash": "0xf643012a5727b42da7e385797ce6f42495923be7e682a67d6b300854dce7588c",
          "transactionIndex": "0x79",
          "logIndex": "0x14b",
          "removed": false
        },
        {
          "address": "0x498581ff718922c3f8e6a244956af099b2652b2b",
          "topics": [
            "0xf208f4912782fd25c7f114ca3723a2d5dd6f3bcc3ac8db5af63baa85f711d5ec",
            "0x64594b3826d9b075449c19dbdf912a1a5073550a0608eb0a981c4e9c4f20b819",
            "0x0000000000000000000000007c5f5a4bbd8fd63184577525326123b519429bdc"
          ],
          "data": "0xfffffffffffffffffffffffffffffffffffffffffffffffffffffffffff2766000000000000000000000000000000000000000000000000000000000000d89a0000000000000000000000000000000000000000000000002b5e3af16b18800020000000000000000000000000000000000000000000000000000000000012418",
          "blockHash": "0x0d56048171688fa283d8f6a96cc4872ec5c39d17666eb3ec9e7eefbaad35a424",
          "blockNumber": "0x1e83adc",
          "transactionHash": "0xf643012a5727b42da7e385797ce6f42495923be7e682a67d6b300854dce7588c",
          "transactionIndex": "0x79",
          "logIndex": "0x14c",
          "removed": false
        },
        {
          "address": "0x83e920aca26ad7c30c98cbbc6c72c87a1af17366",
          "topics": [
            "0xddf252ad1be2c89b69c2b068fc378daa952ba7f163c4a11628f55a4df523b3ef",
            "0x000000000000000000000000c5c5a0220c1abfcfa26eec68e55d9b689193d6b2",
            "0x000000000000000000000000498581ff718922c3f8e6a244956af099b2652b2b"
          ],
          "data": "0x000000000000000000000000000000000000000000000002b5e3af16b1880000",
          "blockHash": "0x0d56048171688fa283d8f6a96cc4872ec5c39d17666eb3ec9e7eefbaad35a424",
          "blockNumber": "0x1e83adc",
          "transactionHash": "0xf643012a5727b42da7e385797ce6f42495923be7e682a67d6b300854dce7588c",
          "transactionIndex": "0x79",
          "logIndex": "0x14d",
          "removed": false
        },
        {
          "address": "0xfad83621dd9f7564ab9497e50a6a9ce241061680",
          "topics": [
            "0xddf252ad1be2c89b69c2b068fc378daa952ba7f163c4a11628f55a4df523b3ef",
            "0x000000000000000000000000c5c5a0220c1abfcfa26eec68e55d9b689193d6b2",
            "0x000000000000000000000000498581ff718922c3f8e6a244956af099b2652b2b"
          ],
          "data": "0x000000000000000000000000000000000000000000000002b5e3af16b1880000",
          "blockHash": "0x0d56048171688fa283d8f6a96cc4872ec5c39d17666eb3ec9e7eefbaad35a424",
          "blockNumber": "0x1e83adc",
          "transactionHash": "0xf643012a5727b42da7e385797ce6f42495923be7e682a67d6b300854dce7588c",
          "transactionIndex": "0x79",
          "logIndex": "0x14e",
          "removed": false
        }
      ],
      "logsBloom": "0x00000000000000000000000000000000000000000000000000000800000000000020000000011000000000200000000000000000000000000000008000002000008000004000000000000008000004000000000000000000000001000000000000000000020000000000000000000800040000000000000000000010000000000000000001004000000000000000000000000000000000000000000400000000004004000000000008200000000000000000800020000000000200000000000200000002000001000000000000000000000800000000000000000000000020000000000000000000000000000002000084000400002000000000000000000000",
      "type": "0x2",
      "transactionHash": "0xf643012a5727b42da7e385797ce6f42495923be7e682a67d6b300854dce7588c",
      "transactionIndex": "0x79",
      "blockHash": "0x0d56048171688fa283d8f6a96cc4872ec5c39d17666eb3ec9e7eefbaad35a424",
      "blockNumber": "0x1e83adc",
      "gasUsed": "0x68825",
      "effectiveGasPrice": "0x906061",
      "from": "0xc5c5a0220c1abfcfa26eec68e55d9b689193d6b2",
      "to": "0x7c5f5a4bbd8fd63184577525326123b519429bdc",
      "contractAddress": null,
      "l1BaseFeeScalar": "0x8dd",
      "l1BlobBaseFee": "0x1",
      "l1BlobBaseFeeScalar": "0x101c12",
      "l1Fee": "0x9a3b2ac0f",
      "l1GasPrice": "0xeb78b16b",
      "l1GasUsed": "0x120a"
    }
  ],
  "libraries": [],
  "pending": [],
  "returns": {},
  "timestamp": 1750782620,
  "chain": 8453,
  "commit": null
}