{
  "transactions": [
    {
      "hash": "0x4402fdafc73e9c2072ba54c3b157d31075c5ea18f413e48020e9b1ff88aa2058",
      "transactionType": "CALL",
      "contractName": null,
      "contractAddress": "0x205c50e7888fdb01e289b32dcb00152e41706fb5",
      "function": "grantRole(bytes32,address)",
      "arguments": [
        "0x73e573f9566d61418a34d5de3ff49360f9c51fec37f7486551670290f6285dab",
        "0x251369069A9c93A7615338c9a7127B9693428500"
      ],
      "transaction": {
        "from": "0x2f2b1a3648c58cf224aa69a4b0bdc942f000045f",
        "to": "0x205c50e7888fdb01e289b32dcb00152e41706fb5",
        "gas": "0x1147e",
        "value": "0x0",
        "input": "0x2f2ff15d73e573f9566d61418a34d5de3ff49360f9c51fec37f7486551670290f6285dab000000000000000000000000251369069a9c93a7615338c9a7127b9693428500",
        "nonce": "0x2b1",
        "chainId": "0x2105"
      },
      "additionalContracts": [],
      "isFixedGasLimit": false
    }
  ],
  "receipts": [
    {
      "status": "0x1",
      "cumulativeGasUsed": "0x1d9f906",
      "logs": [
        {
          "address": "0x205c50e7888fdb01e289b32dcb00152e41706fb5",
          "topics": [
            "0x2f8788117e7eff1d82e926ec794901d17c78024a50270940304540a733656f0d",
            "0x73e573f9566d61418a34d5de3ff49360f9c51fec37f7486551670290f6285dab",
            "0x000000000000000000000000251369069a9c93a7615338c9a7127b9693428500",
            "0x0000000000000000000000002f2b1a3648c58cf224aa69a4b0bdc942f000045f"
          ],
          "data": "0x",
          "blockHash": "0x53fa890f1351247bc94e0bf44ccde98bae9c2654ff30aafef81bd1ad2f098738",
          "blockNumber": "0x1e81921",
          "transactionHash": "0x4402fdafc73e9c2072ba54c3b157d31075c5ea18f413e48020e9b1ff88aa2058",
          "transactionIndex": "0x7b",
          "logIndex": "0x23f",
          "removed": false
        }
      ],
      "logsBloom": "0x00000004000000000000000000000000000000100000000000000000000000000000000000000800000000000000000000000000000000000000100004000000000000000000000000000000000000000000000010000000000000000000000000000000000000000000000000400000000000000000000020000000000000000000000100000000000000000000000000000000800000000000000000000000000000000000000000000000010000000000000000000000001000000000000000000000000000000000000000000000000000000000000100000000000000000000000000080000000000000000400000000000000000000000000000000000",
      "type": "0x2",
      "transactionHash": "0x4402fdafc73e9c2072ba54c3b157d31075c5ea18f413e48020e9b1ff88aa2058",
      "transactionIndex": "0x7b",
      "blockHash": "0x53fa890f1351247bc94e0bf44ccde98bae9c2654ff30aafef81bd1ad2f098738",
      "blockNumber": "0x1e81921",
      "gasUsed": "0xc82e",
      "effectiveGasPrice": "0x17cfab",
      "from": "0x2f2b1a3648c58cf224aa69a4b0bdc942f000045f",
      "to": "0x205c50e7888fdb01e289b32dcb00152e41706fb5",
      "contractAddress": null,
      "l1BaseFeeScalar": "0x8dd",
      "l1BlobBaseFee": "0x1",
      "l1BlobBaseFeeScalar": "0x101c12",
      "l1Fee": "0x15eb12747",
      "l1GasPrice": "0x5a27917a",
      "l1GasUsed": "0x6b2"
    }
  ],
  "libraries": [],
  "pending": [],
  "returns": {},
  "timestamp": 1750765351,
  "chain": 8453,
  "commit": null
}