{
  "transactions": [
    {
      "hash": "0xc15fddb1b54c800baeb15df360ae614a6f90a7f5a5bf6581908d50480c77f8e7",
      "transactionType": "CALL",
      "contractName": null,
      "contractAddress": "0x498581ff718922c3f8e6a244956af099b2652b2b",
      "function": "initialize((address,address,uint24,int24,address),uint160)",
      "arguments": [
        "(0x83e920AcA26ad7c30c98CBBc6c72C87A1aF17366, 0xFAd83621dd9f7564Ab9497E50A6A9ce241061680, 10000, 200, 0xD6ADeBcdDeC37E43aB390B67f5D6CCC278F1c500)",
        "79228162514264337593543950336"
      ],
      "transaction": {
        "from": "0x2f2b1a3648c58cf224aa69a4b0bdc942f000045f",
        "to": "0x498581ff718922c3f8e6a244956af099b2652b2b",
        "gas": "0x1277b",
        "value": "0x0",
        "input": "0x6276cbbe00000000000000000000000083e920aca26ad7c30c98cbbc6c72c87a1af17366000000000000000000000000fad83621dd9f7564ab9497e50a6a9ce241061680000000000000000000000000000000000000000000000000000000000000271000000000000000000000000000000000000000000000000000000000000000c8000000000000000000000000d6adebcddec37e43ab390b67f5d6ccc278f1c5000000000000000000000000000000000000000001000000000000000000000000",
        "nonce": "0x2c7",
        "chainId": "0x2105"
      },
      "additionalContracts": [],
      "isFixedGasLimit": false
    }
  ],
  "receipts": [
    {
      "status": "0x1",
      "cumulativeGasUsed": "0x26b8d02",
      "logs": [
        {
          "address": "0x498581ff718922c3f8e6a244956af099b2652b2b",
          "topics": [
            "0xdd466e674ea557f56295e2d0218a125ea4b4f0f6f3307b95f85e6110838d6438",
            "0x64594b3826d9b075449c19dbdf912a1a5073550a0608eb0a981c4e9c4f20b819",
            "0x00000000000000000000000083e920aca26ad7c30c98cbbc6c72c87a1af17366",
            "0x000000000000000000000000fad83621dd9f7564ab9497e50a6a9ce241061680"
          ],
          "data": "0x000000000000000000000000000000000000000000000000000000000000271000000000000000000000000000000000000000000000000000000000000000c8000000000000000000000000d6adebcddec37e43ab390b67f5d6ccc278f1c50000000000000000000000000000000000000000010000000000000000000000000000000000000000000000000000000000000000000000000000000000000000",
          "blockHash": "0xa278efbc8dfb9aa6d8ee17fb1b8a7a78ecde87e680544fab55cd28fe1e16bd3a",
          "blockNumber": "0x1e83a48",
          "transactionHash": "0xc15fddb1b54c800baeb15df360ae614a6f90a7f5a5bf6581908d50480c77f8e7",
          "transactionIndex": "0xb3",
          "logIndex": "0x1b5",
          "removed": false
        }
      ],
      "logsBloom": "0x00000000000000000000000080000000000000000000000000000800000000010000000001000000000000000000000000000000000000000000000000000000000000000000000000000000000000000000000000000000000000000000000000000000000000000000000000000000000000000000000000000000000000000000000000004008000008000000000100000001000000000000000000200000000000000000000000000000000000000000000020000002000000000000000000000000000000000000000000000000000800000000000000000000000000000000000000000000000000000002000000000400000000000000000000000000",
      "type": "0x2",
      "transactionHash": "0xc15fddb1b54c800baeb15df360ae614a6f90a7f5a5bf6581908d50480c77f8e7",
      "transactionIndex": "0xb3",
      "blockHash": "0xa278efbc8dfb9aa6d8ee17fb1b8a7a78ecde87e680544fab55cd28fe1e16bd3a",
      "blockNumber": "0x1e83a48",
      "gasUsed": "0xca0a",
      "effectiveGasPrice": "0xad8537",
      "from": "0x2f2b1a3648c58cf224aa69a4b0bdc942f000045f",
      "to": "0x498581ff718922c3f8e6a244956af099b2652b2b",
      "contractAddress": null,
      "l1BaseFeeScalar": "0x8dd",
      "l1BlobBaseFee": "0x1",
      "l1BlobBaseFeeScalar": "0x101c12",
      "l1Fee": "0x548d9e678",
      "l1GasPrice": "0x102dd409c",
      "l1GasUsed": "0x8ff"
    }
  ],
  "libraries": [],
  "pending": [],
  "returns": {},
  "timestamp": 1750782325,
  "chain": 8453,
  "commit": null
}